:1000000000000320D1010000D1230000892300005B
:100010008923000089230000892300008923000030
:10002000892300008923000089230000D1230000D8
:10003000D123000089230000D12300007923000090
:10004000D1230000D1230000D1230000D1230000E0
:10005000D1230000D1230000D1230000D1230000D0
:10006000D1230000D1230000D1230000D1230000C0
:10007000D1230000D1230000D1230000D1230000B0
:10008000D1230000D1230000D1230000D1230000A0
:10009000D1230000D1230000D1230000D123000090
:1000A000251E0000311E0000D1230000D1230000D6
:1000B000D1230000D1230000D12300004D440000D3
:1000C000D1230000A94B0000D123000029510000DA
:1000D000D123000041570000D1230000D1230000AC
:1000E000D1230000D1230000D1230000D123000040
:1000F000D1230000D1230000D1230000D123000030
:10010000D1230000D1230000D1230000D12300001F
:10011000D1230000452E0000D1230000D123000090
:10012000D1230000D1230000D1230000D1230000FF
:10013000D1230000D1230000D1230000D1230000EF
:10014000D1230000D12300008D5C0000D1230000EA
:10015000D1230000D1230000D1230000D1230000CF
:10016000D1230000D12300003D1E0000D123000058
:10017000D1230000D1230000D1230000D1230000AF
:10018000D1230000D1230000D1230000D12300009F
:10019000D1230000D1230000CD620000D123000054
:1001A000D1230000D1230000D1230000491E00000C
:1001B000D1230000D1230000D1230000D12300006F
:1001C000D1230000D1230000D1230000D12300005F
:1001D0005C4B4CF2205210B51A804DF628121A8052
:1001E00000BF00BF02F0F8F8574B4FF030621A60C2
:1001F000564A9A60564ADA60564B4FF470021A60BB
:10020000554B564A1A60564A136813F4807304D14A
:1002100054490B604FF4A8531360534B1A781107DD
:1002200003D51A7842F008021A70504B5049AA229E
:100230001A70504A504B8B4204D252F8040F43F8C4
:10024000040BF8E74D4B4E4900228B4202D243F893
:10025000042BFAE74B494C4A002352F8230041F89B
:1002600023000133742BF8D1484B494A802103F80D
:10027000011B9342FBD1474B424A1A60464B8A22EC
:100280001A70A3F5805324225A70A0221A709A790A
:100290009207FCD59A79D406FCD4404A937903F0AE
:1002A0000C03082BFAD13E4B60221A7002331A78E5
:1002B000802AFCD1394B01221A715D225A719A7938
:1002C0009006FCD59979354A4906FBD5354B364918
:1002D00019600021596020231370937903F00C03F7
:1002E0000C2BFAD1314B324A1A60324B324A1A6027
:1002F00000225A60072243F8042C304AC3F80C2D20
:1003000062B602F031FC174B1B68DA0705D52C48A2
:1003100002F034F92B4B2C4A1A602C4B1B785B06ED
:1003200009D5284C284B22689A4204D1244802F06F
:1003300025F90023236006F08BFC02F053F803F04C
:1003400079FCFEE70E20054030800440823F040027
:100350000100002B88ED00E0002008E0030000858C
:1003600010D0034014D0034002D0074000E0074003
:10037000E419FF1FBC8100003007FF1FE419FF1FB5
:100380006420FF1F0002FF1F0000000000E400E0E7
:1003900064E400E008ED00E0005006400040064044
:1003A00001E007404480044000000602048004404D
:1003B000C010070014E000E01FBF02000000202072
:1003C000678E53591CE00340A5C3945A00F00740C0
:1003D000FFFFFFFFFFFFFFFFFFFFFFFFFFFFFFFF2D
:1003E000FFFFFFFFFFFFFFFFFFFFFFFFFFFFFFFF1D
:1003F000FFFFFFFFFFFFFFFFFFFFFFFFFFFFFFFF0D
:10040000FFFFFFFFFFFFFFFFFFFFFFFFDEF9FFFF23
:1004100010B5054C237833B9044B13B10448AFF33E
:1004200000800123237010BDE419FF1F00000000AD
:10043000C0810000084B10B51BB108490848AFF354
:1004400000800848036803B910BD074B002BFBD0A0
:10045000BDE81040184700BF00000000E819FF1F6A
:10046000C0810000E419FF1F000000002DE9F041E9
:10047000384B1A7882B00646002A4AD1364A3749A4
:1004800012680092009A36480A60012102601970D1
:10049000012E56D9334FDFF8F880002406E001F032
:1004A0000BFA08F804002C46A64208D9FF2C38693C
:1004B00004F10105F3D901F0FFF9A642F6D81B219A
:1004C00029482A4C03F0FCF900230A223146284827
:1004D00003F068FB264803F055FB0621254803F08E
:1004E000EFF904F1100514F8011F214800230A2236
:1004F00003F058FB0121204803F0E2F9A542F2D1B4
:100500001B4803F03FFB1D4BF6B21E7002B0BDE866
:10051000F081114A114B126801921968019A184C26
:100520000F481A60531A0A2B23600160B0D915498D
:10053000B3F57A7F0A60ABD2134B0022012E1A600A
:10054000A8D8084B186901F0B7F9104B187002B021
:10055000BDE8F081141BFF1FA01BFF1F041AFF1F23
:10056000181BFF1F5C1BFF1F74770000131AFF1F6F
:10057000A01CFF1F90770000C4790000251BFF1FFF
:100580000C1AFF1F081AFF1F201BFF1F441BFF1F11
:10059000141AFF1F38B50D4D04460B210C4803F00B
:1005A0008FF9284603F0EEFA13210A4803F088F980
:1005B000214600231022284603F0F4FA284603F0CF
:1005C000E1FA054BE4431C6038BD00BFA01CFF1FCF
:1005D00098770000A47700003C1BFF1F38B54FF44C
:1005E0007A701A4C1A4D02F06DFA1021194803F076
:1005F00067F9204603F0C6FA2021174803F060F996
:10060000204603F0BFFA0121202002F01DFA4FF42A
:100610007A7002F057FA0421284603F051F9204677
:1006200003F0B0FA23210D4803F04AF9204603F005
:10063000A9FA0021202002F007FA2846042103F03D
:100640003FF92046BDE8384003F09CBAA01CFF1FCC
:10065000F0770000B8770000CC770000F877000052
:1006600070B5214E214C224D1D21304603F028F952
:10067000204603F087FA10211E4803F021F9204696
:1006800003F080FA1D21304603F01AF9204603F0EA
:1006900079FA1721184803F013F9204603F072FA8B
:1006A00001211F2002F0D0F94FF47A7002F00AFA0B
:1006B0000421284603F004F9204603F063FA1A21C6
:1006C0000E4803F0FDF8204603F05CFA00211F20DD
:1006D00002F0BAF92846042103F0F2F82046BDE8FA
:1006E000704003F04FBA00BF1C780000A01CFF1F31
:1006F000F07700003C780000507800006878000037
:100700002DE9F0415A4B5B4A1B6812685A4C5B4812
:1007100082B019210193019B9B1A236003F0D0F84A
:100720000023216856480A2203F03CFA544803F09B
:1007300029FA2368B3F57A7F07D9524D524E2B68B8
:100740003268934204DB9A425ED002B0BDE8F08189
:100750001E214E484E4FDFF8548103F0B1F848484F
:1007600003F010FA14214B4803F0AAF806214A4876
:1007700003F0A6F829684248013103F053FA012139
:10078000464803F09DF831683D4803F04BFA3C4879
:1007900003F0F8F91E213D4803F092F8384803F0C1
:1007A000F1F9FFF71BFF08213D4803F089F839688C
:1007B0003348A8FB01310A220023890903F0F2F92A
:1007C0001321384803F07CF82D4803F0DBF9386832
:1007D00002F078F939682A48A8FB01310A2200237F
:1007E000890903F0DFF914212F4803F069F8244840
:1007F00003F0C8F92B6822680133B2F57A7F2B60C9
:10080000A3D932689A42A0D1FFF72AFF204E274F82
:100810004FF4FA6002F056F90024082120482C60B9
:1008200003F04EF831681648A7FB01310A2223462F
:10083000890903F0B7F913211A4803F041F8104869
:1008400003F0A0F9306802F03DF931680C48A7FBCD
:1008500001310A222346890903F0A4F91421124820
:1008600003F02EF8064803F08DF902B0BDE8F081E0
:10087000A01BFF1F081AFF1F401BFF1F84780000EA
:10088000A01CFF1F201BFF1F3807FF1FA0780000C0
:100890003407FF1FC0780000D8780000E07800001F
:1008A000E4780000F078000004790000D34D621075
:1008B0002DE9F041164E174D10234FF002084FF46A
:1008C0001672042401044CBFC5F80080C6F80080ED
:1008D0004FF4167711460139FDD1DFF838C02C608E
:1008E00011460139FDD1DFF828E0346011460139A5
:1008F000FDD1013B13F0FF034FEA4000E2D1082392
:10090000CCF80030013FFDD1CEF80030BDE8F081D9
:1009100048F00F4044F00F4070B5012188B0084600
:1009200002F0A6F80121132002F0A2F80121112003
:1009300002F09EF80121122002F09AF801211F20F6
:1009400002F096F8012120205F4D02F091F805F1A8
:100950000C061B24E4B22046012102F089F820464F
:10096000002102F071F8AE4202D055F8044FF1E7D1
:10097000564D022405F11C0601E055F8044FE4B27F
:100980000121204602F074F820469FED510A01F043
:10099000B5FF2046002101F003FEAE42EDD100215B
:1009A0000C2002F065F80021182002F061F8494C93
:1009B0000021192002F05CF81A20002102F058F8FA
:1009C00004F11C05212001E054F8040FC0B20021FD
:1009D00002F04EF8A542F7D13F4D152405F10C0663
:1009E000E4B22046012102F043F820469FED3B0A85
:1009F00001F084FFB54202D055F8044FF0E7002122
:100A0000432002F035F800210E2002F031F80021D9
:100A10000F2002F02DF80021102002F029F81020FC
:100A200001F05EFF0C2001F07FFB4FF4807001F0BD
:100A3000AFFB2B4C2B4D2C482C4E002319464FF46A
:100A400080722B7006F0F4FB2168294A294813783C
:100A50003BB103789B0704D0236835685B1B182BD8
:100A600004D823685B1AB3F57A7FF0D92321224892
:100A7000224D02F025FF224803F084F823680793F3
:100A8000204B079A1A604FF47A7002F01BF81E4B45
:100A90001E4C1869597BC0F85C42002301241C4A93
:100AA000C0F86022224602930093049466230194C6
:100AB000039500F071FE4FF47A7002F003F82046BF
:100AC000FFF7F6FE08B070BDFC7A00000C7B00005A
:100AD00000004843547700003477000000401C4673
:100AE000A01BFF1F251BFF1F141AFF1F5C20FF1FE9
:100AF000841CFF1F9C1CFF1F1C790000801A06002D
:100B0000A01CFF1F001AFF1F5C1BFF1F6D040000CD
:100B1000D10F000070B5124A124B14781B68124DA9
:100B200012481E02210106F470461B0101F4706197
:100B3000DAB27318134404F00F041C44112102F0BC
:100B4000BFFE214628460023102203F02BF828463A
:100B500003F018F82046BDE87040FFF7A9BE00BFBB
:100B60001D1BFF1F101AFF1FA01CFF1F4079000054
:100B70002DE9F84F0C212F482F4EDFF8D080DFF8F9
:100B8000D0A002F09DFE2D4802F0FCFF06F11009F6
:100B9000C346012408E087B39BF8003023423ED1CE
:100BA0006400B14564B238D0DAF80050244836F811
:100BB000027F122102F084FE0023102298F8001018
:100BC0001E4802F0EFFF25400B211E4802F078FE80
:100BD000291C18BF0121194803F024F80B211A48D9
:100BE00002F06EFEB7FA87F14909144803F01AF8CB
:100BF000124802F0C7FF002DCDD098F800302342F4
:100C0000CED123438BF80030FFF784FF642001F03E
:100C100059FF6400B14564B2C6D1BDE8F88F23EA3C
:100C200004038BF80030FFF775FF642001F04AFFE2
:100C3000B6E700BF54790000261BFF1FA01CFF1F52
:100C40006479000078790000847900001D1BFF1F83
:100C50003C1BFF1F38B504460D461348192102F00E
:100C60002FFE2146114802F0DDFF0821104802F056
:100C700027FE29460D4802F0D5FF0C4802F082FFFE
:100C80000C4901220B6802FA04F42DB123430B60D6
:100C9000BDE83840FFF76CBF23EA04030B60BDE8F2
:100CA0003840FFF765BF00BFAC790000A01CFF1FF4
:100CB000C87900003C1BFF1F2DE9F047A54B1B78AE
:100CC00082B053B1A44BA54A1B6801931168019BE4
:100CD0004AF6C8725B1A93420AD8A14B1C7824B911
:100CE000A04D2B7853B900232B7002B0BDE8F087DC
:100CF0009D4C237813B3FFF703FDEEE71A219B48C1
:100D00009B4E02F0DDFD9B4802F03CFF3778012F3F
:100D10002ED0022F6BD0032F00F08E80042F00F016
:100D2000D280082FDFD17078FFF734FC0921924878
:100D300002F0C6FD8F4802F025FFD4E71A218F4844
:100D400002F0BEFD8B4802F01DFF1A218C4802F014
:100D5000B7FD884802F016FF1A21884802F0B0FD5E
:100D6000844802F00FFF01232370FFF7C9FCB4E7AA
:100D70000321844802F0A4FD7E4802F003FF0B210A
:100D8000814802F09DFD2B785B082DD03746DFF8B7
:100D90003082DFF830924FF0020A01E059F804AFD8
:100DA0007A48042102F08CFD2146724802F03AFF95
:100DB0000821774802F084FD7E7817F8023F6D48DD
:100DC00003EB0626314602F02DFF6A4802F0DAFEF8
:100DD00031465FFA8AF028F8026F01F0E1FB2B78C8
:100DE0000134B4EB530FD9DBFFF7C2FE7BE70421DC
:100DF0006848DFF8D48102F063FD767866480A21FE
:100E000002F05EFD234631460A225A4802F0CAFE2D
:100E10003946624802F054FD08F10C041B2006F02C
:100E20000101C0B201F010FEA0454FEA56063FF4A2
:100E30005AAF58F8040FF2E7594B76781F685948B3
:100E40001E60132102F03CFD23463946102249481A
:100E500002F0A8FE474802F095FE1221524802F027
:100E60002FFD234631461022424802F09BFE4148A6
:100E700002F088FE03E00134082C3FF434AF87EA27
:100E8000060313F0010F4FEA66064FEA6707F2D038
:100E90000721464802F014FD2146364802F0C2FE02
:100EA0000921434802F00CFD324802F06BFE00219C
:100EB0002046FFF7CFFE642001F004FE012120460A
:100EC000FFF7C8FED7E70B213A4802F0F9FC2948A2
:100ED00002F058FE1321384802F0F2FC2B782A78F1
:100EE000013A042ADBB22CD85F1E002F7FF7FBAE3D
:100EF000DFF87C80DFF8D4A04FF01509002604212C
:100F0000224802F0DDFC31461A4802F08BFE08212F
:100F10001F4802F0D5FC18F8014F1648240221465C
:100F200002F080FE134802F02DFE013621465FFAE2
:100F300089F001F035FBB7427FF7D5AE5AF8049F30
:100F4000DDE728211D4802F0BBFC0A4802F01AFE2A
:100F5000CEE700BF381BFF1FA01BFF1F001AFF1F9B
:100F60001C1BFF1F251BFF1F241BFF1FF079000008
:100F7000141AFF1FA01CFF1FD07A0000A4780000E5
:100F8000D47900000C7A0000107A00001C7A00006E
:100F9000247A0000307A0000387A0000447A000099
:100FA000101AFF1F487A00005C7A0000707A000077
:100FB000787A0000847A0000907A0000A47A000019
:100FC000261BFF1F0C7B0000FC7A0000347700001A
:100FD0002DE9F04F5A4D2B7889B083B9594A032433
:100FE00001200521937014705070D17055495648F6
:100FF0004FF4807209B0BDE8F04F00F0FBB8052B4C
:1010000017D1504C514F0823237004264320C0B2FF
:1010100001F0F4F800280346B8BF00F1FF031B12EB
:10102000013E637004F8020F02D057F8040FEEE798
:101030002B78062B2ED1464E1A20A6F10C07002441
:10104000C0B201F007FD6400012808BF0134B742B7
:1010500002D056F8040DF3E700213E4802F030FCC0
:101060003D4802F08FFD374B3C485C700122132154
:101070001A7002F025FC384802F084FD0921384836
:1010800002F01EFC2146344802F0CCFD324802F04A
:1010900079FD2B78072BA9D12A4B0021202210257E
:1010A00068460C461D70894606F0C2F801F0E6FC61
:1010B000824601F0E3FC41F2873BCAEB0000584551
:1010C00023D8DFF8A0806F462126002503E058F8DA
:1010D000046F57F8044F0121084601F0B5FCF0B247
:1010E00001F08CF820444DF8250000210135012045
:1010F00001F0AAFC082DEAD1009C01F0BFFCCAEB6C
:101100000000584509F10109DBD96B46ADF1040532
:101110000C48002101E053F8044F94FBF9F4002C33
:10112000224601F10101B8BF04F1FF0212120829A1
:10113000427045F8044F00F8024FECD156E700BF6B
:10114000441BFF1F141AFF1F5C1BFF1F2C7B00009A
:1011500050770000347A0000A01CFF1FDC7A0000EA
:10116000F07A0000547700000369D3F83801D3F80F
:101170003431C01A704700BF0369D3F83411D3F873
:101180003821914208D2D3F83421511C1A44C3F8B3
:10119000341192F8300070474FF0FF30704700BFB5
:1011A0000369D3F83411D3F8382191423DBFD3F805
:1011B00034219B1893F830004FF0FF30704700BF88
:1011C000704700BF0369D3F84422B2F5817F03D989
:1011D0000123037100207047D3F8442210B49C18F7
:1011E0000132C3F8442284F83C1101205DF8044B1D
:1011F000704700BFF0B40569D5F84432B3F5817F7C
:1012000020D8D5F84462D5F84442C6F58176013637
:10121000964205F59E7302D20127324607714AB104
:10122000013C23448D1811F8014B03F8014FA942EA
:10123000F9D10569D5F844321344C5F84432104653
:10124000F0BC704701230371F0BC0020704700BF61
:1012500038B503690A4A026093F84822022A044614
:1012600001D0204638BDD3F86452002DF9D028466D
:1012700002F06CFC284602F0E7FC204638BD00BFB7
:10128000447B00002DE9F04F83B0002B40F2645501
:1012900040F2647440F2035740F2037840F20326B0
:1012A00002BF2F46A0464FF419769DF830E041B9B1
:1012B000541EE4B2052C20D98946484603B0BDE847
:1012C000F08F012930D1052A38D189460C46924643
:1012D00005469B46BEF1000F1CD090F84B2290F8BB
:1012E0004A32002A0CBF00220222072B12D8DFE864
:1012F00003F0B876818C97A2AD6B5F4D15F8049022
:10130000B9F1000FD9D00C46924605469B46BEF176
:10131000000FE2D14CBB0AF1FF33052B1DD8DFE8EB
:1013200003F04C47423D1C38022903D132B94FF03B
:101330000109CBE7032901D1072AF8D04FF00009B2
:10134000484603B0BDE8F08F032C06D1BAF1070F71
:1013500003D14A4A4A4B16601E60484685F84AA2A5
:1013600085F84BB203B0BDE8F08F012C07D1BAF17C
:10137000050FF2D1434A444B16601E60EDE7022C84
:10138000E2D1BAF1000FE8D1404A414B17601F602B
:10139000E3E7404A404B16601E60DEE73F4A404BA1
:1013A00017601F60D9E73F4A3F4B16601E60D4E7C5
:1013B0003E4A3F4B16601E60CFE73E4A3E4BC2F8A6
:1013C0000080C3F80080C8E711463820019201F080
:1013D0004FFB019A3920114601F04AFB9AE711466A
:1013E0000820019201F044FB019A0720114601F008
:1013F0003FFB8FE711461120019201F039FB019A62
:101400001020114601F034FB84E7114612200192AE
:1014100001F02EFB019A1320114601F029FB79E718
:1014200011462220019201F023FB019A212011464E
:1014300001F01EFB6EE711462620019201F018FB19
:10144000019A2520114601F013FB63E71146302075
:10145000019201F00DFB019A2F20114601F008FBCB
:1014600058E711460420019201F002FB019A032083
:10147000114601F0FDFA4DE75C7B000028D00440E6
:101480002CD004402CB0044028B0044034900440D8
:101490003090044024C0044020C0044064D0044084
:1014A00060D004400CA0044008A0044004A0044004
:1014B00000A004400CC0044008C00440F8B5C36854
:1014C0001B789B0610D483680D4680211970C36871
:1014D0001221197090F84932012B044606D08AB9BE
:1014E00080F848220120F8BD0020F8BD1A4675B9E1
:1014F000744B4FF080711960022A0FD0012084F8DC
:101500004802F8BD531E012BF1D90120F8BD012D71
:1015100048D16C4B4FF000711960EDE7D4F864626C
:10152000002E00F090803379202B2ED0002D40D15A
:1015300032686549938B654F43F008039383327992
:10154000531102F110009B0041F8207003F1604339
:1015500003F56143012102F01F0201FA02F2316832
:101560001A608B8B43F002038B83337903F1804342
:1015700003F5043392221D701A700022022384F8AE
:101580005A2284F848320120F8BD304602F0DEFAD3
:10159000304602F059FB00230120C4F8643284F87D
:1015A0004802F8BD022D59D1494B4FF480611960B2
:1015B000A2E7012D24D132684349938B454F43F074
:1015C000080393833279531102F110009B0041F814
:1015D000207003F1604303F5614302F01F02954060
:1015E00032681D60938B43F002039383337903F1D8
:1015F000804303F504330021932219701A70BCE76D
:10160000022D33D1D4F864122F480A68324E938BDE
:1016100043F0080393830A79531102F110059B00EC
:1016200040F8256003F1604303F56143012002F0B7
:101630001F0200FA02F208681A60838B43F002036B
:1016400083830B79D3E7082002F0FCFA3146074682
:101650003E4602F015FAC4F8647264E7032D7FF485
:101660004BAF1B4B4FF00061196045E7032D84D150
:10167000D4F8641214480A68184E938B43F0080398
:1016800093830A79531102F110059B0040F82560FD
:1016900003F1604303F56143012002F01F0200FAE9
:1016A00002F208681A60838B43F0020383830B798C
:1016B00003F1804303F504330021922219701A705C
:1016C0005BE700BF00E100E00002FF1F251E0000F5
:1016D00008E100E0311E00003D1E0000491E000030
:1016E000F0B5284EDFF8ACE0A6FB0143A6FB0242B2
:1016F0009E0937027546960914240023B7FBF6F6B7
:1017000004E00133382B1BD055F8044F22029642D7
:10171000F7DA83BB14241C4A4568B1FBF4F4914208
:101720002B70C0F84C4207D8184B8269A3FB0131DB
:10173000C1F307511170F0BD836904221A70F0BD26
:10174000002422464FF470274FF470654FF0370C99
:10175000B21AF71B002A87EAE776A6EBE776B8BF4E
:101760005242964202DD0A4AD35CD4E7084B2C462B
:1017700013F80C30CFE703F1FF3C5EF82C502F023A
:10178000E6E700BFD34D6210FF6BDC02819F5E165F
:10179000647B00009C7B0000F0B583B004469DF89C
:1017A00024709DF820009DF828E09DF830600D46DB
:1017B00079BBDFF8FCC0DCF8001041F04001CCF848
:1017C0000010002184F8492284F8511292BB636909
:1017D0002021197023681A70E3691A70002173467A
:1017E0003A46009120462946FFF74CFD0B9A2F49B7
:1017F0002046FFF775FF324629462046FFF75EFE7A
:1018000094F84932002B38D0A368C0221A7003B074
:10181000F0BD012926D1DFF898C0DCF8001041F0B6
:101820008001CCF80010002184F8492284F851127C
:10183000002ACCD0626960B12821117098422268D8
:1018400020D95B00DBB213704000E369C0B21870AE
:10185000C4E7202111705B002268D9B21170E369DE
:101860001870BBE7022915D1DFF848C0DCF800107A
:1018700041F04001CCF80010A3E7A36880221A7061
:1018800003B0F0BD4000C0B210705800E369C0B2B0
:101890001870A3E7032994D1DFF818C0DCF8001012
:1018A00041F08001CCF800108BE700BF0087930364
:1018B0003480044028800440D0F83421D0F83831F6
:1018C0009A4208D2D0F834315A1C0344C0F834216B
:1018D00093F8300070470020704700BF2DE9F041B9
:1018E000C168D0F808E00D789EF800308769DBB257
:1018F00003F020023C78EDB222B313F0100F90F801
:101900005A327ED0022B00F0CC8090F85A32032B52
:1019100000F0C78090F85132012B00F0CC8190F894
:101920005132DBB2022B00F0EC8190F85132042BE3
:1019300000F0868180238EF80030C36802221A707E
:10194000BDE8F08102F0FF08EA06E6B2044623D4BF
:1019500005F0400202F0FF0112BB03F0100303F098
:10196000FF02002B7FD015F0010540F05D81D0F81B
:101970004022D0F844329A4207D2D0F840325A1C62
:101980000344C0F8402293F83C5123691D70A368BA
:10199000D0221A70A7696BE010236F060B7029D54F
:1019A00094F851320A2B00F0D18005F0040505F0BF
:1019B000FF02002D62D0A3680021D022092084F804
:1019C0005102C4F844121A702269D4F860121378D4
:1019D0005B0884F8523209B188472269D4F844324E
:1019E000002B00F02A8194F83C8182F800800123CA
:1019F000C4F84032A3691E70E36802221A70BDE881
:101A0000F081022B7BD090F85A32032B77D0D0F89C
:101A10003831D0F854220233934200F0FF8090F81E
:101A20005132042B00F0F580D0F838310133934265
:101A300080F0CD8090F85132042B00F0C380D0F8B4
:101A400038310269591CC0F838110344127883F800
:101A5000302090F85132042B00F02481C368022218
:101A60001A70BDE8F08190F851320A2B00F03981EC
:101A70003E70E36802221A70BDE8F081A1690B781C
:101A800043F020030B70A3680A20C02184F85102A0
:101A9000C4F83821197023691B785B0884F8523226
:101AA000A8E7D0F8642213689B8B1C0603D590F836
:101AB0005A32022B7BD090F85A32032B52D0BF4BB4
:101AC00012791C680123934023426CD0BC4BBD4962
:101AD0001A70D0F8642212790A700023E90680F89F
:101AE0005A3231D5C2681221072480F85142117050
:101AF000826880211170C0F84032BDE8F081D0F8D2
:101B000064321A68928B120603D590F85A22022A80
:101B10003FD090F85A22032A00F09A80A74C1A79F5
:101B200024680123934023423DD0A649A44B0A7068
:101B3000D0F8642212791A7082680023802180F81C
:101B40005A3280F851321170C1682CE0D4F85C32FE
:101B5000002B3FF42AAF0022C4F83421D4F8380116
:101B6000984722E70B781D06FCD5974B12791A701F
:101B7000002380F85A32D0F844320269013BC0F8A1
:101B80004032D0F84032034493F83C311370C168BE
:101B900009E08B4A1B7913708368E8221A70C168C8
:101BA000032380F85A3202230B70BDE8F081844B86
:101BB00012791A708368F0221A700323C16880F8C2
:101BC0005A32F0E790F85932002B3FF438AF90F8D2
:101BD00051220023042A80F8593201D080F8513272
:101BE0008368B0221A70D0F838310269591CC0F8E5
:101BF00038110344127883F8302090F85032012BCA
:101C00007FF427AF3C23013BFDD1836880221A700B
:101C10001FE790F85932002B7FF406AFE8238EF8C7
:101C20000030D0F85422FFE6C0238EF8003003695C
:101C300087691B7880F851121AE784F83C31D4E6A2
:101C400090F85032012B48D0B0238EF8003005E7D1
:101C50005D4A1B791370002380F85A3290F85122A4
:101C6000042A18BF80F851328368B0221A70D0F865
:101C700054320269013BC0F83831D0F83831591C70
:101C8000C0F838110344127883F8302090F85032AD
:101C9000012B7FF459AF3C23013BFDD183688022A7
:101CA0001A7051E790F85932002B7FF4D7AE012318
:101CB00080F85932D2E605F0100303F0FF02002B42
:101CC0003CD115F0010548D080F85A22D0F84032B6
:101CD000002B6FD1052380F8513280238EF800301D
:101CE000BCE6750618D5D0F85C3280F85122002B7E
:101CF0003FF4BEAEC0F83421D0F838019847A76948
:101D0000B6E6EC063AD4E90742D50522802380F8EE
:101D100051228EF80030A1E603691B78D0F83821F3
:101D2000B2F5817FDBB23FF6A3AED0F8382181183F
:101D30000132C0F8382181F8303099E600231222B0
:101D4000072480F85A3280F851420A708268802154
:101D50001170C0F84032BDE8F081D0F84032013354
:101D6000C0F84032D0F8442293422FD390F850323A
:101D700080F85152012B7FF467AFAEE707221223A0
:101D800080F851220B70836880221A70BDE8F081C0
:101D900090F85A22012A25D0D0F85432012B0CBFDA
:101DA000E823E023032280F851228EF800300369F3
:101DB0001B7853E6062380F851328EE72C800040D2
:101DC0001F8000401E8000401C80004090F85A3266
:101DD000012B14D0D0F840320269034493F83C310F
:101DE00013703BE6E12280F85A328EF80020D0F8DA
:101DF00064220B4B12791A7003691B782EE60222BB
:101E0000F12380F85A228EF80030D0F86422044B77
:101E100012791A70036990F83D211A701EE600BF0E
:101E20001B80004000210148FFF758BD3C07FF1F01
:101E300001210148FFF752BDA809FF1F02210148F7
:101E4000FFF74CBD140CFF1F03210148FFF746BDEF
:101E5000800EFF1F2DE9F843224BDFF8A090DFF83A
:101E6000A080214E214D1E6000244FF47A774A460F
:101E700041461C711C739F6018465C731D6104F021
:101E8000D5FE1B4B05F51B7201211A611C714A46D8
:101E90009F601C735973184641461E6004F0C6FECD
:101EA000144B05F59B6202211A611C714A469F6022
:101EB0001C735973184641461E6004F0B7FE0E4B62
:101EC0004FF0030E05F244751C711C7383F80DE08E
:101ED0004A46414618461D619F601E60BDE8F843B2
:101EE00004F0A4BE5C1BFF1F447B00003C07FF1FE7
:101EF000481BFF1F841BFF1F701BFF1F3007FF1FA6
:101F000051120000374A384913681B06FCD40B688D
:101F100013F08003F8D172B634490A78002A5FD0F2
:101F2000334A3448F0B4344C176806682568D468DE
:101F30000C303E44143200681268304F35442C4453
:101F400020440244C2F34E022D4E2E482E4D2F4CFB
:101F500042F400423A60376806682D682C4A2468CB
:101F60000C303E44006812682A4F35442C4420440B
:101F70000244C2F34E02284E2848294D294C42F40F
:101F800000423A60376806682D68274A24680C309A
:101F90003E4400681268254F35442C4420440244D6
:101FA000C2F34E02224E2348234D244C42F40042F9
:101FB0003A60376806682D68214A24680C303E4430
:101FC0000068126835442C4420440244C2F34E0297
:101FD0001C4842F4004202600B7062B6F0BC7047CD
:101FE00062B6704724B0034024B00B40991BFF1F1A
:101FF00038B003403CB0034040B003402CB0034035
:1020000058B003405CB0034060B0034064B003408C
:102010006CB0034030B0034038B00B403CB00B40D4
:1020200040B00B4044B00B404CB00B402CB00B40C8
:1020300058B00B405CB00B4060B00B4064B00B403C
:102040006CB00B4030B00B4030B42948294A2A4BC1
:102050002A4D6024E121047011701B78284C082B54
:1020600030D00A2B2748284937D00C2B0CBF3522FB
:102070005D2212232A60236002600B60234B2449F7
:102080001B78244ABBB101230B601360224B234908
:102090001B78234A012B26D9042B0FD9082B1ED9D4
:1020A000102B94BF862387230B6013601D4B0122E6
:1020B0001A7030BC70470B601360E7E784230B6035
:1020C0001360F3E700F58E200F4908302122132317
:1020D0002A60236002600B60D0E73922F7E785238E
:1020E0000B601360E2E780230B601360DEE700BF44
:1020F0000040074001400740EC10FF1F08B00340BC
:102100000CB0034008B00B400CB00B409C1BFF1FF1
:1021100020B0034020B00B40ED10FF1F24B003405F
:1021200024B00B40991BFF1F0C2830B417D9102383
:10213000984228BF18461C46104A114D1178181AAB
:102140008C42287018D00F4913700B7823B10E49B8
:102150000E4A00230B60136030BCFFF775BF0A28DE
:1021600002D90C231C46E7E7082802D90A231C469B
:10217000E2E708231C46DFE730BC7047EC10FF1F86
:10218000981BFF1F991BFF1F24B0034024B00B4076
:1021900010B5174B1B780446A3B9012C16D9042C93
:1021A0000AD9082C134B1DD9102C15D907221A60F7
:1021B000114A2023137010BD0E4A042313600E4AE7
:1021C000137010BDFFF79EFE012CE8D8094A0023CA
:1021D0001360094A137010BD06221A60064A1023C4
:1021E000137010BD05221A60034A0823137010BD36
:1021F000991BFF1F24B00340ED10FF1F47282FD865
:10220000334B2DE9F0411E5CFF2E2BD0314B1B7858
:10221000002B2AD132062CD472B62F4D2F4C2F46CC
:10222000012326602B7062B672B623681B060CD49D
:102230003B781BB9F4E72B78002BF1D062B601F0A4
:1022400027FD72B623681806F5D5254B1B680022BA
:102250002A7062B6234A107843FA00F0BDE8F08194
:10226000002070470020BDE8F081FFF74BFE3206EA
:10227000D2D572B61C4DDFF87C801C4C06F04007AE
:10228000FFB206F03F06D8F80030DFB123F01003AC
:10229000C8F8003001232660134A2B7062B672B66C
:1022A000236819060CD413781BB9ECE72B78002BA4
:1022B000E9D062B601F0ECFC72B623681B06F5D5D6
:1022C0000B4BC3E743F01003C8F80030E2E700BF50
:1022D0007C7C0000991BFF1F9B1BFF1F00B003406D
:1022E00010B00340981BFF1F9A1BFF1F00B00B404C
:1022F00010B00B400CB00B400B4A0C49136843F470
:10230000805313600B783BB1094B80221A70094B44
:1023100080F30C0018807047054BC0221A70054BE3
:1023200080F30C00188070472C8004409C1BFF1F1A
:1023300021C00C4000C00C400B4A0C49136843F408
:10234000005313600B783BB1094B80221A70094B84
:1023500080F30C0018807047054BC0221A70054BA3
:1023600080F30C00188070472C8004409C1BFF1FDA
:1023700021D00C4000D00C40024A13680133136096
:10238000704700BFA01BFF1F08B5104C08E0236872
:1023900059050DD423681A050FD42368DB0411D422
:1023A00023685803F3D500F04DFD23685905F1D596
:1023B00002F04CF823681A05EFD502F0F5FB23680C
:1023C000DB04EDD502F0B0FEEAE700BF3480044044
:1023D00008B5FFF7D9FF00BF014B10221A807047E4
:1023E00000200540704700BF094908B50B6830B1AF
:1023F0006A461844A2F50052904202D2086018467C
:1024000008BD04F01FFC0C2303604FF0FF3008BD33
:10241000F010FF1FEFF3138070B9EFF310836BB967
:10242000EFF305825AB94FF48070EFF311832BB1AB
:10243000984228BF184670474FF0FF3070470F2A68
:1024400001D81846F1E7014BD05CEEE7F0E300E07D
:10245000084A1378802B01D0002070470649074BAB
:1024600007480860002119701378802BFCD00120E8
:10247000704700BF03E007404480044001E007408C
:1024800000002822094A1378012B01D00020704750
:1024900003F1804303F5FC23602119701378802B2E
:1024A000FCD1034B034A1A600120704703E0074048
:1024B000448004400000060210B4114B53F8302051
:1024C00092F8804234B1012379B182F880305DF80E
:1024D000044B704703EBC0035B681A6851B922F0E4
:1024E00002021A605DF8044B704782F800315DF813
:1024F000044B704742F003021A605DF8044B7047CA
:10250000C47C00001C4A02EBC00301295B6811D0A7
:1025100004291BD052F83000002280F8802229B113
:10252000022920D0032922D01A6070474FF480720C
:102530001A60704752F830004FF4A27280F880128F
:102540001A601A6822F020021A60704752F83010A0
:102550004FF4A272012081F880021A601A6842F0DA
:1025600020021A60704740F203121A6070474FF45D
:1025700081721A60704700BFC47C000030B4054B04
:10258000054D064C002210211A602A602060196057
:1025900030BC704714D0034004D0034000D0034047
:1025A00038B5A0F14203012B044624D900297ADD75
:1025B000994B1B78012505FA03F28A4202D83F287D
:1025C0002CD938BDC21E012A30D9A0F11D02012A22
:1025D00078D90E285BD9A4F12302032A5CD9A4F18F
:1025E0001002012A94BF8D4A8D4A126802FB011223
:1025F00022FA03F320E0884B1B780B2B0AD90C2B13
:102600001CBF0C3B1941422C084657D0BDE838404E
:10261000FFF792BEC3F10C039940F4E72946FFF798
:102620004BFF2946BDE83840FFF76CBF7D4A126872
:1026300002FB011222FA03F3A21E242A00F2E38015
:10264000DFE812F0DA00D300CC00C500BE00B7000E
:10265000B000A900A200E100E100E1009B00E10060
:1026600094008D00E100E10086007F007800710099
:10267000E100E100E100E100E1006A006300E10047
:10268000E100E100E1005C0055004E00470044F22B
:102690008412C240D2079ED5634A126802FB01121F
:1026A00022FA03F3C8E73F288BD80021FFF704FF85
:1026B00020460121BDE83840FFF724BFBDE838407F
:1026C000FFF71ABE594A126802FB011222FA03F3FD
:1026D000B2E75749574A0B604FF45173136038BD46
:1026E0005549564A0B604FF45173136038BD544935
:1026F000544A0B604FF45173136038BD5249534A2A
:102700000B604FF45173136038BD5149514A0B604F
:102710004FF45173136038BD4F49504A0B604FF46A
:102720005173136038BD4E494E4A0B6040F244432A
:10273000136038BD4C494D4A0B6040F2444313606E
:1027400038BD4B494B4A0B6040F24443136038BDDF
:1027500049494A4A0B6040F24443136038BD484936
:10276000484A0B6040F24463136038BD4649474A0B
:102770000B6040F24463136038BD4549454A0B6025
:1027800040F24443136038BD4349444A0B6040F271
:102790004443136038BD4249424A0B6040F244430F
:1027A000136038BD4049414A0B6040F24443136016
:1027B00038BD3F493F4A0B6040F24443136038BD87
:1027C0003D493E4A0B6040F24443136038BD3C49EA
:1027D0003C4A0B6040F24443136038BD3A493B4ADF
:1027E0000B604FF45173136038BD3949394A0B609F
:1027F0004FF45173136038BD3749384A0B6040F2CB
:102800004443136038BD3F2C3FF6DBAE7F29D4BF75
:1028100000210121204649E7F410FF1F08900C40D9
:10282000088003400890034008900B4008800B404C
:1028300048900B402CB0044040900B4028B004401E
:1028400038900B4024B0044030900B4020B004403E
:1028500018800B404CA0044010800B4048A004405E
:102860001880034008B004401080034004B00440C6
:102870004080034018C004403880034014C0044026
:1028800018900C4004A0044010900C4000A004409C
:1028900018900B4004C004402880034010B004404E
:1028A000208003400CB0044028900B400CC0044032
:1028B00020900B4008C004403080034010C004400A
:1028C000488003401CC004401890034034900440EA
:1028D000109003403090044010900B4000C0044022
:1028E00030B1102828BF1020034BC0B218707047B9
:1028F000014B012018707047F410FF1FA0F1100168
:10290000C9B2012970B45BD9DFED3B7A3B4AB4EE22
:10291000E70AF1EE10FA47F6122346BF1A460225DF
:102920000125DFED376A002322FA03F407EE904A0F
:10293000F8EEE77A27EEA67AB4EEC70AF1EE10FABF
:1029400007DA0133072BEFD1D20907EE902AF8EE10
:10295000E77A87EE807A4FF6FF74C21EF6EE007AB1
:1029600077EE677AFCEEE77A17EE906AA64228BF08
:102970002646012A344637D917280ED9A0F11D0260
:10298000012A35D90E281ED92338032820D9012938
:1029900014D81C4A1C4E1D481DE01D4AC24002F0BE
:1029A000010282F00106002AE8D01A4A1A481B499F
:1029B000166043EAC50306600C60136070BC704784
:1029C000174A0125ADE744F28412C240D207DBD595
:1029D000144A154E154843EAC503002111603160C1
:1029E0000460136070BC7047114A124E1248F2E73F
:1029F000124A134E1348EEE7C0E1E4400087930308
:102A00000000803700900C4004900C4008900C406F
:102A10006006F0000080034004800340088003400B
:102A20000024F40000900B4004900B4008900B40F1
:102A300000900340049003400890034000800B4046
:102A400004800B4008800B403F2801D8FFF734BDBD
:102A5000704700BF3F2806D8044B53F8303093F836
:102A60000002C0B270470020704700BFC47C000065
:102A70003F2801D8FFF746BD704700BF72B60D4929
:102A80000D4B0E4A1B680868126862B6520102D5E7
:102A9000322B88BF0130C3F52F33094903F21F33AE
:102AA0004FF47A729B08A1FB031302FB00F000EBCA
:102AB00093007047A01BFF1F18E000E004ED00E04A
:102AC000176CC1162DE9F843054672B6224F234B09
:102AD000234A1B683C68126862B6520102D5322B49
:102AE00088BF0134B5B3C3F52F3303F21F331D4E36
:102AF000DFF86890DFF868809B084FF47A72A6FBD5
:102B0000031302FB04F404EB930472B6D9F800102B
:102B10003A68D8F800E062B6C1F52F3303F21F33EC
:102B20009B08A6FB03031EF0806FC4EB93034FF4D6
:102B30007A7002D0322988BF013200FB0233B3F52C
:102B40007A7F04D3013D05D004F57A74DDE701F006
:102B50009FF8DAE7BDE8F883A01BFF1F18E000E04C
:102B600004ED00E0176CC116F8B54E4B4E48DFF887
:102B70005CC14E4C4E49DFF858E14E4E4E4D4F4F22
:102B80004FF000621A604FF080521A604FF000520E
:102B90001A604FF080421A604FF000421A60002223
:102BA000026028234EF6FF70CCF80000CEF800300B
:102BB00023600EF5012E0B6033602B6006F50026B6
:102BC0003B6005F50025A36207F500278B6204F53D
:102BD000012401F5012106F6E87605F6E87507F50A
:102BE0007F6710310EF1100E203433602B60CEF869
:102BF00000303B600B602360314CBB618B6109216D
:102C00002160A7F5002704F58054203F08343A607E
:102C10002060BB60E36047F8041C04F5FD2407F561
:102C2000FE27043704F2FC7422603860A360FB6066
:102C300044F8041C083404F6FC74C7F8FC2F206028
:102C4000A4F5E124A4F2DC7433602B60C7F8F81F0C
:102C500021681C4841F40071216001681A4C0EF58E
:102C60007F4E0EF1E80E07F5883706F5803605F53C
:102C7000803541F000710160CEF8002047F6FF7109
:102C80000822396033602B602260FFF7DDF93220C3
:102C9000FFF718FF00F000FD4FF4AF70BDE8F840FB
:102CA000FFF710BF04E100E00480034014800340FC
:102CB0001C800340248003402C8003403480034068
:102CC000008003400480044000900C4008800340D2
:102CD0000C800340431E032B14D872B60A4951F8E6
:102CE000230068B170B4094C058834F81320466895
:102CF00041F82360521B24F8132062B670BC704761
:102D000062B6704700207047FC1BFF1F4C20FF1F5E
:102D1000013803280BD872B6074B53F8203043B163
:102D200000205B680130002BFBD162B670470020A9
:102D300070471846F9E700BF501CFF1FF0B472B689
:102D40001A491B4E012311F8014B194F9A00240711
:102D500042F0010505D556F8324064B156F83520E9
:102D6000BAB10133052BEED162B6124B00221A70B4
:102D7000F0BC00F019BD0F4C0F4D217847F83250D0
:102D800007EB431308304A1E5860227062B6F0BC4D
:102D900070470849094B0A7847F8353007EBC503F7
:102DA0000830013A58600A7062B6F0E7EC7E000025
:102DB0000000FF1F791CFF1F88004000C800400072
:102DC000431E032B1DD81B4A400140F0100030B4B5
:102DD000104472B6184CE25C032A1BD8DFE802F0FC
:102DE0000212151703220D88E25410F0080F14BFC9
:102DF000C823882343EA054308310360416062B673
:102E000030BC704708300222EDE70522EBE70830BE
:102E10000422E8E7094A52F8230038B1084A52F878
:102E20002300416042F8231062B6E9E742F823101C
:102E3000034AF7E70000FF1F881CFF1F501CFF1FFD
:102E4000601CFF1F2DE9F04FDFF800A3DFF800B38F
:102E500087B044E0A84F4FEA930807EBC809013E4A
:102E6000D9F8042003F00803F6B2A2F1080003F039
:102E7000FF04002B40F0FC8057F838301B0C99B24F
:102E800022F8081C002B00F0EA809C4B22F8064C2C
:102E900042F8044C53F82620002A00F02982984D6D
:102EA00055F826305860974C45F8260034F816300F
:102EB000194424F8161000F057FC002800F0118285
:102EC000914A924B19F0080F00F1080018BF134601
:102ED000C9F8040047F8383008238AF800309AF817
:102EE0000040E4B260071AD5894B1B78A3B1894929
:102EF0000A7802F0FF0322B1013BDBB20B7003B989
:102F000000BE85490A7802F0FF032AB1013BDBB21B
:102F10000B70002B00F0BB8104238AF8003004F012
:102F2000080303F0FF02002B00F0C6809BF800307E
:102F3000DBB21E098ED19C086F4F57F8342007EB87
:102F4000C401C2F38302013A49680C2A00F283806B
:102F5000DFE802F077778181818181814081818101
:102F6000070008686D4B6E4D0193674B4A686D4EC4
:102F700047F8343081B240F28164684B6A6028605F
:102F800000220120A1421A603A61BA61307000F259
:102F9000E180B1F5D06F80F02582B1F5817F00F03E
:102FA000DE8100F2C181802900F03482822940F064
:102FB000DC81A9885C4B042900F2D8815B4C890034
:102FC0000B44227062701A78930740F122832070BC
:102FD000022023E2514B01931A683AB3544B514EED
:102FE0005449188834780D784028864645F0020800
:102FF00028BF4FF0400E002C84F001043470CEEB5B
:1030000000000CBF8824C82407EBC80680B285F0F6
:10301000010544EA0E447260188047F83840724453
:103020000D70002800F0B780019B1A603C4B1A8895
:10303000B2F5A06F0FD100219A7859703E4B1A70EB
:1030400009E0374A108842F22102904200F0A8803D
:103050002D4A47F83420394A012313703CE72A4AA5
:103060002A4B19F0080F18BF134647F8383033E7DA
:1030700000F09AFB324A334952F82630002B00F018
:103080003B8158688C5D42F8260003F10802C9F8BC
:103090000420032C05D8DFE804F02C0229260222A4
:1030A0008A551A8819F0080F0CBF8823C82343EAF1
:1030B000024347F838300FE7E00700F1EB802106C4
:1030C00000F12881A20706D51F4A20491378022063
:1030D000DBB213700870E30602D51C4B10221A7085
:1030E00007B0BDE8F08F04228A55DAE705228A5539
:1030F000D7E703228A55D4E70000FF1FFC1BFF1F00
:10310000A81BFF1F4C20FF1FC80040008800400084
:10311000841CFF1F0D1CFF1F8C1CFF1FA41BFF1F07
:10312000701CFF1F0C1CFF1FC02007407C1CFF1FD2
:10313000B81BFF1F781CFF1F9820074094200740F2
:10314000501CFF1F881CFF1F88200740802007405D
:103150009020074042F22104A14200F0948043D81D
:10316000B1F5086F00F0A881B1F5106F40F0FD8057
:10317000B84AB94CA978117004F1800503E008340D
:10318000AC4200F09E81236A1906F8D5606A0838BF
:1031900000F00AFBF3E7BEF1400F18BF002243E73F
:1031A000AE4ACD1D11F8013B02F8013FA942F9D109
:1031B000AB4A1268862A00F01181AA49AA4E0A7801
:1031C000307882F00105002842F002020D700CBF39
:1031D0008821C82147F8321007EBC20280F00100B5
:1031E00000213070516033E742F22124A14240F0C7
:1031F000FE81DFF8BCC29D4B9D49AC78DCF80050E5
:103200001D6081460C700020029080468446044672
:1032100094490D7845F0020E07EBCE03B9F1000F8B
:103220005C600CBF8824C82444EA080385F00104CC
:1032300047F83E3032700C70DFF81CE28A4BDFF842
:103240002482002840F09880BCF1400F1BD144F04C
:10325000020407EBC403029FDFF8FCE15F60002A71
:1032600040F09F80020442F0880207444EF8342068
:1032700086F800900D703B46402804D100207D4A1E
:10328000019910800B607C4A01231370E3E600F083
:10329000D3FB41E6704B784872491A614FF0020E39
:1032A00080F800E0754F0A70754919609960754E95
:1032B000754D764C9A610D213970FF213170DFF820
:1032C000F4E129702270724D724A8EF800109F2727
:1032D000012406F8047C5D600470DA6007B0BDE884
:1032E000F08F6D4A47F83800137801331370F3E517
:1032F00043F82600694DD6E58B5D032B67D801A204
:1033000052F823F0D92E0000D92E000059330000C6
:103310005333000059495C4B80220D2008701A700D
:10332000A2077FF5D8AECFE640F20232914240F0DC
:103330005681A98801F07F01042916D86A88A2B9AC
:103340004E4C89000C448146217841F002012170E5
:1033500059E701238B55BFE500238B55BCE5A988B0
:1033600001F07F01042940F24781444B0F221A707B
:10337000414A012313706EE640287FF668AF44F09F
:1033800002040EEBC401029E4E60AAB1444A83F8C7
:1033900000903346403888F8005040334EF83420CF
:1033A0006DE70204029B86F8009042F0C8020D709F
:1033B00003444EF834205FE783F80090029B304AC4
:1033C00088F80050403840334EF8342057E719F061
:1033D000080F0CBF022303238B557DE5314A0F21D3
:1033E0001170EAE6304A5468002CBED06888B5F8FF
:1033F00004E003E00C325468002CB6D013888342FA
:10340000F8D153887345F5D1000A03280CBF207802
:10341000108903E0254C022022706270EA88824203
:1034200080F00C810F490D78402A45F0020E944639
:1034300007EBCE0028BF4FF0400C04EB0C034460B8
:103440000293CCEB02004FEA0C484FF00109002236
:10345000C824E9E6841CFF1F0000FF1F5320FF1F44
:103460005420FF1F781CFF1F0C1CFF1F5C20FF1F38
:103470009C1CFF1FB81BFF1F94200740C020074063
:10348000880040008820074080200740982007409F
:10349000BC1BFF1F101CFF1F791CFF1FA81BFF1F59
:1034A000C80040000D1CFF1FF07E00007C1CFF1FA9
:1034B000A01BFF1F8C200740684A694C12782270BD
:1034C000ACE76849684B694A02916949694C6A4DA1
:1034D000039405964FF0000988461C46164604954D
:1034E000206828B1456800F05FF92846002DF9D121
:1034F00000232360049B30681A46002342F82930D9
:1035000028B1456800F050F92846002DF9D1002275
:103510003260029A98F800301146002241F8042BDC
:10352000039A0291023B4FF0000122F81910032B7D
:1035300007D8DFE803F0340234024FF0010388F8C3
:10354000003009F10109B9F1040F04F1040406F196
:10355000040608F10108C3D1484B059EDFF83091FD
:10356000DFF8308100211970012518F8013B09F8B6
:10357000043B1A0718D4AC0044F0020244F00304E0
:10358000002347F8323047F834303D4B994505F178
:103590000105EAD196F8009089F0010233E64FF078
:1035A000000388F80030CCE700F0DEF8AC0007EB51
:1035B000451300F10802002837D05A60314B47F814
:1035C000343000F0D1F844F0010307EBC30200F1FE
:1035D000080100B351602C4A47F83320CCE7B1F51D
:1035E000A06F7FF4C2AE00224FF001090BE642F259
:1035F00021329142F7D0B8E66A88002A7FF4B5AE4E
:10360000224C89000C448146217821F0020121706E
:10361000F9E5022002E7194B44F001021B7847F854
:103620003200164A01331370A6E7144B134A1B7875
:10363000AC00013347F834001370C2E740288446D9
:1036400028BF4FF0400C04EB0C03CCEB00004FEA1A
:103650000C48029300224FF00109D9E5841CFF1F9A
:103660007C1CFF1F601CFF1FFC1BFF1F501CFF1F4B
:10367000881CFF1F4C20FF1FA81BFF1F791CFF1F6A
:10368000D420074088004000C8004000C020074008
:10369000C4200740EC7E00002DE9F041274C02F0E9
:1036A00087FE002204F1880023461A605A6008331E
:1036B00083424FF00001F8D12148224A0368DFF825
:1036C0009CE0214E214D224FDFF894C0DFF894801A
:1036D00043F480230360136843F0407313600323B3
:1036E0008EF80030A023337002F5C922C4F30723FB
:1036F00000F528302B708030C4F3074310323B7044
:10370000240EFF230470134D8CF80030124888F803
:1037100000301370012306F8AC3C4FF400140EF88F
:10372000441C7026102107F82C3C2E70046082F88F
:10373000F810AEF1440EBDE8F08100BF0000FF1F9D
:103740003480044000D80040402107409C200740BE
:10375000B020074035E400E004E100E044210740E8
:10376000802007408820074072B60D480268B2FAF0
:1037700082F30B2B10DC4FF00041D94022EA01020A
:10378000026062B6074803EBC303DB00C2180021E6
:10379000C15010465160704762B60020704700BFAC
:1037A000F810FF1FD003FF1F0D4B0E4AC31AA2FBD8
:1037B00003231B090B2B0CD80B4A127852B972B693
:1037C0000A484FF00041026821FA03F31A430260ED
:1037D00062B67047064A1278002AF0D0FFF7AEBAF8
:1037E000D003FF1F398EE338791CFF1FF810FF1F2D
:1037F000841CFF1F38B50F4D286878B143880288B4
:10380000C118013393420C7A02D24380204638BD5E
:10381000FFF7CAFF002320462B6038BD064B1B78FC
:103820002BB10320FFF756FA28600028E6D14FF0AD
:10383000FF3038BD981CFF1F841CFF1F10B5094CBA
:10384000206818B143881844007A10BD064B1B78D5
:103850002BB10320FFF73EFA20600028F2D14FF091
:10386000FF3010BD981CFF1F841CFF1F044B054A2E
:103870001B6890881BB11A885B88D31A184470475C
:10388000981CFF1F4C20FF1F0B4B1B789BB110B5E2
:103890000A4C206848B1FFF787FF0023032023600C
:1038A000FFF718FA30B1FFF77FFF0320FFF712FA96
:1038B0000028F8D110BD7047841CFF1F981CFF1F03
:1038C0002DE9F04FDFF8F89083B0012289F800204D
:1038D000019169B3DFF8EC80354F019E8346D8F83B
:1038E0000000B0B3334D4488C4F14001B14228BF59
:1038F000314604EB010E00221FFA8EFE2A70761A62
:10390000A0F802E000F1080251B1013C2244594400
:103910001BF8014B02F8014F8B45F9D1B0F802E0DA
:10392000BEF13F0F0BD8244A05211170002ED6D1CD
:103930000198002389F8003003B0BDE8F08F4022E1
:10394000028001460420FFF73BFA0022C8F800205D
:10395000E9E73A7822B3194C164D4FF0010A07E017
:10396000013C16D02A78A2B900F092F93A78BAB19F
:103970000420FFF7CDF90728F2D889F800A0FFF757
:10398000F3FEC8F800000028ADD10D4B013C1870C3
:10399000E8D101234FF0FF302B7003B0BDE8F08F6A
:1039A00000234FF0FF3089F8003003B0BDE8F08FFE
:1039B000841CFF1F941CFF1F8C1CFF1F214801004B
:1039C0008D1CFF1F901CFF1F00B583B002AB0121AF
:1039D00003F8010D1846FFF773FF03B05DF804FB11
:1039E000F8B5114B1B788BB1104E114D346801277F
:1039F0002F7064B10F4A6388002717702146238017
:103A00000420FFF7DDF9376000232B70F8BDFFF7C6
:103A1000ABFE084B28B1014604201C70FFF7D0F91B
:103A2000F2E71F70F0E700BF841CFF1F901CFF1F10
:103A30008D1CFF1F8C1CFF1F38B50E4B1B7873B9F4
:103A40000D4C216861B103F0FF054B880B80042009
:103A5000FFF7B6F9256038BD084B01221A7038BD52
:103A6000FFF782FE0028F7D00146BDE83840042069
:103A7000FFF7A6B98D1CFF1F901CFF1F8C1CFF1F9A
:103A8000F0B572B699B902688AB103790F2B0ED8D6
:103A9000284C218841FA03F5ED070AD503F100739C
:103AA00003F59063B2EB431F03D162B6F0BD214C26
:103AB0002188002341FA03F212F0010207D00133FA
:103AC000102BF7D162B6002203710260F0BD012510
:103AD0009D402943218062B6174E184D184FDFF8DC
:103AE00068E0D9B20171346844F0020434602C6893
:103AF00044F002042C60A6F5802640F28244A5F52D
:103B0000802503F100733C6003F59063223E243D61
:103B10000C4C8EF800105B0131702970217003602D
:103B20001A605A609A60DA601A615A619A61DA61C1
:103B3000F0BD00BF9E1CFF1F408004403C8004403D
:103B4000008000401F8000401A80004003790F2B46
:103B500012D80A4A10B4137072B6094904790A8857
:103B60000123A34022EA03030B8062B61022002344
:103B70005DF8044B02710360704700BF1A8000407B
:103B80009E1CFF1F00B5064A036812885B6883B05D
:103B900001A9ADF804200222984703B05DF804FBA8
:103BA000C47E0000F0B507468BB0002A33D0012A4E
:103BB00008BF0A2251B3212400E0F4B2B1FBF2F5B0
:103BC00002FB1511C8B2092900F1300198BFC8B233
:103BD0000AA988BF3730214488BFC0B201F8240C3D
:103BE000661E2946002DE8D133B1013CE4B20AAB90
:103BF00023442D2203F8242C3B6801AA11195B6889
:103C00003846C4F1220298470BB0F0BD30228DF83F
:103C100025202124E8E70368C9B21B6898470BB048
:103C2000F0BD00BF0029BABF49422D2300230A225C
:103C3000FFF7B8BF08B5FCF76FFEFDF73DF800F0E1
:103C400027F8FAE703F02CB803F032B8FFF71CBEF0
:103C5000FFF7C6BEFFF7F2BDFFF7CCBDFFF706BE0C
:103C600008461146FFF72CBE0846FFF7ADBE00BF61
:103C7000704700BF044B054A1A604FF47A71002266
:103C800099601A711A737047A01CFF1FD07E000044
:103C900010B5224C237803B110BD01232370FFF728
:103CA000E5FDA0B900F050FBB8B900F0FBFED0B9BB
:103CB00001F0CCF9E8B901F0D5FC00BB01F078FFC8
:103CC00018BB02F095FA30BB0023237010BDFFF73C
:103CD000CFFF00F039FB0028E7D002F01FFC00F016
:103CE000E1FE0028E4D002F0CDFC01F0AFF900289D
:103CF000E1D002F07BFD01F0B5FC0028DED002F03F
:103D000029FE01F055FF0028DBD002F0D7FE02F0BB
:103D10006FFA0028D8D002F079FFD5E7B01CFF1F5A
:103D2000F0B44D1E2E46002400E00134B0FBF2F347
:103D300002FB1300092800F130078ABF3730F8B2C0
:103D4000C0B206F8010F1846002BEED10A195370C5
:103D50004CB1107815F8016F28700133E01A8342D6
:103D600002F80169F5DB0846F0BC70472DE9F84F11
:103D7000214B1B6807460BB101221A70DFF88890AF
:103D80001E4D99F80040DFF884801D4E01343F2C11
:103D90008ABF4FF0000A5FFA84FA5446AB462B788C
:103DA000A34216D1FEF736FB40281FDC33791B06F1
:103DB000F5D59BF8003001333F2B86BF0022134618
:103DC000DAB218F80330DBB2F3712A702B78A34211
:103DD000E8D00C490A4BFFB208F804700120BC225D
:103DE000087089F800A0DA70BDE8F88FFF28D6DDEA
:103DF000FFF74EFFD3E700BF441DFF1F411DFF1F0C
:103E000000A00640401DFF1F481DFF1FBC1CFF1FD8
:103E10002E4A2F491368F0B543F4806313600A7883
:103E20002C4F2D4E2D4D2E4C2E490023152A3B7024
:103E300033702B7023700B7043D01B2A3CD04AB3D5
:103E4000294B1B78052B2DD01A2B30D0012B1CD0E1
:103E5000264B274C2749C0F34436C0F347151E7044
:103E600000F01F005D7004224FF0020E88273C26F0
:103E7000402598729A704FF0004083F813E05A750D
:103E80001F74DE7025700860F0BD1B4B4FF451723B
:103E90001A60DDE7194B40F213321A60124B1B789F
:103EA000052BD1D1164B4FF451721A60D0E7154B48
:103EB0004FF451721A60CBE7134B40F213321A6081
:103EC000BEE7124B40F213321A60B9E73480044067
:103ED000FC1CFF1FB81CFF1FB91CFF1F481DFF1F44
:103EE000411DFF1F401DFF1FFC10FF1F00A00640CB
:103EF0001FE400E000E100E044A0044040A00440D2
:103F00001CC00440389004403C90044018C0044059
:103F1000194B19499B7803F0EC0200F0030313439B
:103F2000420700F00F0248BF43F01003042A8B70D1
:103F30001CD0114B104A5B79C10603F0EF0348BF58
:103F400043F0100353719379820603F0EF030A4A9A
:103F500048BF43F010039371C30506D55378117819
:103F6000DBB241F020011170537070478B7943F040
:103F700040038B71DDE700BF00A00640284B1B68A3
:103F80005B0533D510B5274C237823B1FFF780FEAE
:103F90002378002BFAD12448244A254B4FF00044C3
:103FA00000210460D1701B78152B20D01B2B32D040
:103FB0001BB9204B40F203121A601F4B1B7803F011
:103FC0007F03052B1DD01A2B20D0012B03D11B4BB7
:103FD00040F203121A601A4B1A481B491A68002350
:103FE00003700B700AB10123137010BD7047174B9B
:103FF00040F203121A60104B1B7803F07F03052B6D
:10400000E1D1134B40F203121A60E4E7114B40F286
:1040100003121A60DFE7104B40F203121A60CCE77C
:1040200034800440401DFF1F80E100E000A00640F6
:10403000FC1CFF1F40A00440FC10FF1F44A00440D4
:10404000B41CFF1FB81CFF1FB91CFF1F18C0044081
:104050001CC00440389004403C9004400A4A38B5E3
:104060000546137803F0FF04002BFAD101212846FE
:10407000FEF7FEFC21462846FEF7E6FC034A044B09
:1040800052F835201A6038BD401DFF1FC47C000067
:10409000441DFF1F09B140F080001E4A137898426A
:1040A0001BD010B41C4C2468640513D503F07F03A7
:1040B000052B2AD01A2B24D0012B14D0002900F074
:1040C0007F0114BF60234423052915D01A290ED07F
:1040D000012903D010705DF8044B70470F4943F479
:1040E00040730B60F6E70D4B00241C60E6E70C49BB
:1040F00043F440730B60EDE70A4943F440730B60EF
:10410000E8E7074B00241C60D8E7064B00241C603E
:10411000D4E700BFFC10FF1F3480044044A00440DB
:10412000389004401CC00440174A137883420ED0D4
:1041300016490968490509D5152B20D01B2B1AD023
:104140005BB115280DD01B2810D008B11070704736
:104150000F4B40F213311960F8E70D4915280B6039
:10416000F1D10C4B40F213311960EFE70A4B40F2EA
:1041700013311960EAE7084B00211960E1E7054BAC
:1041800000211960DDE700BFFC1CFF1F34800440E4
:1041900040A0044018C004403C9004400D4B1B68F4
:1041A00013F4806305D03F2805D90B4B002018601D
:1041B000704718467047094B10B5074C53F830301C
:1041C00023600121FEF754FC236800221A700120AD
:1041D00010BD00BF34800440B41CFF1FC47C00002D
:1041E0000F4B1B6813F4806308D0122808D01428E2
:1041F00011D00C4A537B03F0FE0353730020704729
:10420000094B40F202321A60064A537B43F0010325
:10421000537301207047054B40F202321A60F3E7F6
:104220003480044000A006400CA0044014C00440A8
:10423000034B1B685B0501D5FFF798BD704700BFB6
:10424000348004402DE9F84F294B1B685A0548D5A6
:10425000284B1B6805460BB101221A7005EB010AB9
:10426000554540D2DFF89C80234CDFF89C90234FCB
:104270000AE015F8012B09F80B20214A0123AA4571
:10428000137088F800602ED098F80030227803F17F
:10429000010BBBF13F0F86BF0026B3465FFA8BF6DA
:1042A0009345E6D1BC22FA7005E03A7913060BD4A7
:1042B00022789345DDD1FEF7ADF84028F5DDFF28E3
:1042C000F6DDFFF7E5FCF3E7227801323F2A86BFEF
:1042D00000210A46D1B219F80220D2B2FA71217037
:1042E000E6E7BDE8F88F054BBC22DA70BDE8F88F31
:1042F00034800440441DFF1F411DFF1F00A00640E5
:10430000401DFF1F481DFF1FBC1CFF1F10B5044CA4
:10431000237823B1FFF7BCFC2378002BFAD110BD22
:10432000401DFF1F064A074B1B781078DBB2C0B256
:1043300083422CBF3F3000F1FF30C01A704700BFEE
:10434000411DFF1F481DFF1F054A064B10781B78B3
:10435000C0B2DBB2984238BF4030C01A704700BFCD
:10436000B81CFF1FB91CFF1F30B4154B154C1A7831
:104370002378D2B2DBB29A421ED001333F2B0ED942
:104380001149124B087819680023C0B2237021B17B
:10439000D31A1A2B01DC00230B7030BC70470A487B
:1043A0000A49C05C0968DDB2C0B225700029F4D0AA
:1043B0009A4238BF4032EBE74FF0FF30EDE700BFE5
:1043C000B81CFF1FB91CFF1F001DFF1FB41CFF1FDF
:1043D000084A094B12781B78DBB29A4207D00133A6
:1043E000402B28BF0023054AD05CC0B270474FF075
:1043F000FF307047B81CFF1FB91CFF1F001DFF1FB7
:104400000D4B1B685B0516D530B40C4B0C4CDA78A1
:104410000C480D4902F0CB024025DA705D74DA7861
:1044200042F03402DA7023780268DBB20B700AB112
:104430000023137030BC70473480044000A0064055
:10444000B91CFF1FB41CFF1FB81CFF1FF0B4384B72
:104450001A7912F0300F2CD072B6997D01F0FF025C
:1044600000293DD062B6334F334938780D78334E4A
:104470001C46C0B2EDB2431C402BE17928BF00239B
:10448000AB4202F1FF32C9B21CBFF154184612F020
:10449000FF02F0D12A4B1B68C2B23A704BB1A8425E
:1044A00036BFC5F14005401B40192728C4BF012273
:1044B0001A701F49CA78D2B2150616D452060DD505
:1044C0001B4B1B795B0609D51E4B1F491B6800223D
:1044D0000A7003B11A70164B3C22DA70F0BC7047B8
:1044E0004022D9795A7462B6E3E70B791C06E5D508
:1044F000164B174E1C783378E4B2DBB29C420ED0D8
:10450000144D01E0A3420AD00133402B28BF002301
:104510000879E85CC0B2C871087D0728F2D9DBB21F
:10452000034933700B79180644BF7C23CB70C5E771
:1045300000A00640B81CFF1FB91CFF1F001DFF1F75
:10454000B41CFF1F441DFF1F401DFF1F481DFF1F00
:10455000411DFF1FBC1CFF1F264A27491368F0B4EA
:1045600043F4006313600A78244F254E254D264CF2
:1045700026490023092A3B7033702B7023700B707F
:1045800032D03B2A23D0224B1B780A2B27D03A2B40
:1045900003D1204B4FF451721A601F4B1F4D204C1A
:1045A000C0F34437C0F3471600F01F001F7004210A
:1045B0005E700222987288273C2640209970DA7437
:1045C00059751F74DE7028702260F0BC7047154B5F
:1045D00040F213321A600E4B1B780A2BD7D1124BC4
:1045E0004FF451721A60D8E7104B40F213321A6040
:1045F000C9E700BF34800440FD10FF1FBC1DFF1F32
:10460000511DFF1FC41DFF1FBD1DFF1F501DFF1F9C
:10461000FE10FF1F00D0044000B0064021E400E07F
:1046200004E100E004D0044010B004400CB00440A9
:10463000194B19499B7803F0EC0200F00303134374
:10464000420700F00F0248BF43F01003042A8B70AA
:104650001CD0114B104A5B79C10603F0EF0348BF31
:1046600043F0100353719379820603F0EF030A4A73
:1046700048BF43F010039371C30506D553781178F2
:10468000DBB241F020011170537070478B7943F019
:1046900040038B71DDE700BF00B00640204B1B6874
:1046A0001B053BD510B51F4C237823B1FFF7F0FA5B
:1046B0002378002BFAD11C481C491D4B02240022F0
:1046C0000460CA701B78092B19D03B2B01D1194B00
:1046D0001A60194B1B7803F07F030A2B19D03A2B71
:1046E00002D1164B00221A60154B164816491A685B
:1046F000002303700B700AB10123137010BD134B1C
:1047000040F203121A600C4B1B7803F07F030A2B54
:10471000E5D10F4B40F203121A60E5E7704700BF86
:1047200034800440501DFF1F84E100E000B00640CB
:10473000FD10FF1F04D00440FE10FF1F00D00440F6
:104740004C1DFF1FBC1DFF1F511DFF1F0CB004405F
:1047500010B004400A4A38B50546137803F0FF0448
:10476000002BFAD101212846FEF782F9214628467E
:10477000FEF76AF9034A044B52F835201A6038BD37
:10478000501DFF1FC47C0000C01DFF1F09B140F079
:104790008000174A1378984217D010B4154C24683B
:1047A00024050FD503F07F030A2B1DD03A2B12D01E
:1047B000002900F07F0114BF602344230A290ED092
:1047C0003A2903D010705DF8044B70470A4943F44E
:1047D00040730B60F6E7084B00241C60E8E70749CC
:1047E00043F440730B60EDE7044B00241C60DFE7EB
:1047F000FE10FF1F3480044000D0044010B004407D
:10480000124B1A7882420CD011490968090507D564
:10481000092A16D03B2A0AD009280DD03B2801D0FE
:10482000187070470B4A40F213311160F8E7094ADB
:10483000002109281160F1D1074A40F213311160BB
:10484000EEE7054A00211160E6E700BFFD10FF1FFB
:104850003480044004D004400CB004400D4B1B686D
:1048600013F4006305D03F2805D90B4B00201860D6
:10487000704718467047094B10B5074C53F8303055
:1048800023600121FEF7F4F8236800221A7001204A
:1048900010BD00BF348004404C1DFF1FC47C0000CD
:1048A0000F4B1B6813F4006308D0172808D03C286E
:1048B00011D00C4A537B03F0FE0353730020704762
:1048C000094B40F202321A60064A537B43F001035F
:1048D000537301207047054B40F202321A60F3E730
:1048E0003480044000B0064008B0044008D00440C2
:1048F0002DE9F84F234B1B681A053BD5224B1B684B
:104900000BB101221A70DFF89090204D99F8004009
:10491000DFF888801E4E0134272C8ABF4FF0000A32
:104920005FFA84FA54460746AB462B789C4216D170
:10493000FDF770FD40281FDC33791B06F5D59BF889
:1049400000300133272B86BF00221346DAB218F855
:104950000330DBB2F3712A702B789C42E8D00D490A
:104960000B4BFFB20120BC2208F80470087089F8D4
:1049700000A0DA70BDE8F88FFF28D6DDFFF788F9D0
:10498000D3E700BF34800440C01DFF1FBD1DFF1FC3
:1049900000B00640501DFF1FC41DFF1F541DFF1F08
:1049A0002DE9F84F294B1B681A0548D5284B1B6881
:1049B00005460BB101221A7005EB010A554540D29C
:1049C000DFF89C80234CDFF89C90234F0AE015F819
:1049D000012B09F80B20214A0123AA45137088F8FE
:1049E00000602ED098F80030227803F1010BBBF163
:1049F000270F86BF0026B3465FFA8BF69345E6D1B4
:104A0000BC22FA7005E03A7913060BD4227893455C
:104A1000DDD1FDF7FFFC4028F5DDFF28F6DDFFF7CF
:104A200037F9F3E722780132272A86BF00210A46A8
:104A3000D1B219F80220D2B2FA712170E6E7BDE8CE
:104A4000F88F054BBC22DA70BDE8F88F3480044043
:104A5000C01DFF1FBD1DFF1F00B00640501DFF1FE2
:104A6000C41DFF1F541DFF1F10B5044C237823B134
:104A7000FFF70EF92378002BFAD110BD501DFF1F50
:104A8000064A074B1B781078DBB2C0B283422CBFBA
:104A9000273000F1FF30C01A704700BFBD1DFF1F57
:104AA000C41DFF1F054A064B10781B78C0B2DBB24D
:104AB000984238BF4030C01A704700BFBC1DFF1F6E
:104AC000511DFF1F30B4154B154C1A782378D2B204
:104AD000DBB29A421ED001333F2B0ED91149124B43
:104AE000087819680023C0B2237021B1D31A1A2B99
:104AF00001DC00230B7030BC70470A480A49C05CD7
:104B00000968DDB2C0B225700029F4D09A4238BFDE
:104B10004032EBE74FF0FF30EDE700BFBC1DFF1F59
:104B2000511DFF1F7C1DFF1F4C1DFF1F084A094B15
:104B300012781B78DBB29A4207D00133402B28BF92
:104B40000023054AD05CC0B270474FF0FF30704779
:104B5000BC1DFF1F511DFF1F7C1DFF1F0D4B1B6840
:104B60001B0516D530B40C4B0C4CDA780C480D49AB
:104B700002F0CB024025DA705D74DA7842F034023C
:104B8000DA7023780268DBB20B700AB1002313706D
:104B900030BC70473480044000B00640511DFF1FF8
:104BA0004C1DFF1FBC1DFF1FF0B4384B1A7912F0CB
:104BB000300F2CD072B6997D01F0FF0200293DD054
:104BC00062B6334F334938780D78334E1C46C0B245
:104BD000EDB2431C402BE17928BF0023AB4202F128
:104BE000FF32C9B21CBFF154184612F0FF02F0D1D7
:104BF0002A4B1B68C2B23A704BB1A84236BFC5F10E
:104C00004005401B40192728C4BF01221A701F49C4
:104C1000CA78D2B2150616D452060DD51B4B1B7995
:104C20005B0609D51E4B1F491B6800220A7003B1A1
:104C30001A70164B3C22DA70F0BC70474022D979CA
:104C40005A7462B6E3E70B791C06E5D5164B174E8E
:104C50001C783378E4B2DBB29C420ED0144D01E0F4
:104C6000A3420AD00133282B28BF00230879E85C2F
:104C7000C0B2C871087D0728F2D9DBB2034933708E
:104C80000B79180644BF7C23CB70C5E700B0064003
:104C9000BC1DFF1F511DFF1F7C1DFF1F4C1DFF1F53
:104CA000C01DFF1F501DFF1FC41DFF1FBD1DFF1F87
:104CB000541DFF1F2DE9F84F214B1B6807460BB110
:104CC00001221A70DFF888901E4D99F80040DFF835
:104CD00084801D4E0134272C8ABF4FF0000A5FFAF2
:104CE00084FA5446AB462B78A34216D1FDF792FBCB
:104CF00040281FDC33791B06F5D59BF800300133C3
:104D0000272B86BF00221346DAB218F80330DBB235
:104D1000F3712A702B78A342E8D00C490A4BFFB2FA
:104D200008F804700120AC22087089F800A0DA703D
:104D3000BDE8F88FFF28D6DDFEF7AAFFD3E700BF56
:104D40003C1EFF1F391EFF1F00C00640381EFF1FFC
:104D5000401EFF1FD01DFF1F174A18491368F0B5EA
:104D600043F48053164C174D174FDFF874E013606F
:104D7000164E174A002323708EF80030154C2B7006
:104D80000B703B7040F213373760134D1349C0F37B
:104D900044364FF4517727601670C0F347142C2720
:104DA00000F01F0040265470907208249370137412
:104DB000D7702E700C60F0BD34800440391EFF1F88
:104DC000CC1DFF1F401EFF1F381EFF1F08C00440E0
:104DD00000C006400CC0044023E400E004E100E011
:104DE000CD1DFF1F194B19499B7803F0EC0200F011
:104DF00003031343420700F00F0248BF43F01003C0
:104E0000042A8B701CD0114B104A5B79C10603F049
:104E1000EF0348BF43F0100353719379820603F008
:104E2000EF030A4A48BF43F010039371C30506D548
:104E300053781178DBB241F0200111705370704744
:104E40008B7943F040038B71DDE700BF00C0064063
:104E5000F8B5114B1B68DB041CD5104C237823B12B
:104E6000FEF716FF2378002BFAD10D4B0D4F0E4E97
:104E70000E4D0F4C0F48104908221A600023FB709A
:104E800040F2031232602A60226803700B7012B184
:104E900001231370F8BDF8BD34800440381EFF1F95
:104EA00084E100E000C0064008C004400CC004409B
:104EB000C81DFF1FCC1DFF1FCD1DFF1F0A4A38B59F
:104EC0000546137803F0FF04002BFAD10121284690
:104ED000FDF7CEFD21462846FDF7B6FD034A044BFB
:104EE00052F835201A6038BD381EFF1FC47C000000
:104EF0003C1EFF1F09B140F08000104A1378984211
:104F00001AD010B40E4C2468E40412D503F07F03C9
:104F1000082B02D10B4B00241C60002900F07F03FA
:104F200014BF60214421082B03D1064B41F440718A
:104F3000196010705DF8044B704700BFFF10FF1F31
:104F4000348004400CC00440704700BF0D4B1B6808
:104F500013F4805305D03F2805D90B4B002018606F
:104F6000704718467047094B10B5074C53F830305E
:104F700023600121FDF77CFD236800221A700120C7
:104F800010BD00BF34800440C81DFF1FC47C00005A
:104F90000C4B1B6813F4805306D00E2806D00A4A27
:104FA000537B03F0FE03537300207047074B064A00
:104FB00040F202311960537B43F001035373012027
:104FC000704700BF3480044000C0064004C0044065
:104FD000034B1B68DB0401D5FFF76CBE704700BFB5
:104FE0003480044070B5094E04464518AC4204F1C3
:104FF00001040AD03368DB04F8D514F8010CFFF77C
:1050000059FEAC4204F10104F4D170BD3480044077
:1050100010B5044C237823B1FEF73AFE2378002B19
:10502000FAD110BD381EFF1F064A074B1B781078B7
:10503000DBB2C0B283422CBF273000F1FF30C01A70
:10504000704700BF391EFF1F401EFF1F054A064B59
:1050500010781B78C0B2DBB2984238BF4030C01A1B
:10506000704700BFCC1DFF1FCD1DFF1F30B4154B77
:10507000154C1A782378D2B2DBB29A421ED0013393
:105080003F2B0ED91149124B087819680023C0B282
:10509000237021B1D31A1A2B01DC00230B7030BC12
:1050A00070470A480A49C05C0968DDB2C0B2257081
:1050B0000029F4D09A4238BF4032EBE74FF0FF307E
:1050C000EDE700BFCC1DFF1FCD1DFF1FF81DFF1F0B
:1050D000C81DFF1F084A094B12781B78DBB29A42A1
:1050E00007D00133402B28BF0023054AD05CC0B253
:1050F00070474FF0FF307047CC1DFF1FCD1DFF1FC5
:10510000F81DFF1F054B064A1B7806491268DBB2E3
:105110000B700AB100231370704700BFCD1DFF1F35
:10512000C81DFF1FCC1DFF1F30B42B4B1A799406EE
:105130001FD52A48DA790378294901333F2B0978AA
:10514000C8BF00238B42D2B203D0264CD9B2E2545E
:105150000170254A116861B1244A1278D2B2934293
:1051600036BFC2F140029B1A9B18272BC4BF0123F4
:105170000B70194AD378DBB2180611D45A060DD534
:10518000154B1B795B0609D5194B1A491B68002280
:105190000A7003B11A70104B2C22DA7030BC7047C1
:1051A00011790906EAD5144910480C780178C9B27A
:1051B0008C420DD04A1C272A84BF00210A460F4D7D
:1051C000054C98BFD1B2AA5CD2B2E2710170D5E7AA
:1051D0006C21D170D2E700BF00C00640CC1DFF1F7C
:1051E000CD1DFF1FF81DFF1FC81DFF1F391EFF1F0C
:1051F0003C1EFF1F381EFF1F401EFF1FD01DFF1F3C
:105200002DE9F84F214B1B6807460BB101221A709C
:10521000DFF888901E4D99F80040DFF884801D4E1D
:105220000134272C8ABF4FF0000A5FFA84FA5446F3
:10523000AB462B78A34216D1FDF7ECF840281FDCD3
:1052400033791B06F5D59BF800300133272B86BF39
:1052500000221346DAB218F80330DBB2F3712A7079
:105260002B78A342E8D00C490A4BFFB208F804702F
:105270000120AC22087089F800A0DA70BDE8F88F30
:10528000FF28D6DDFEF704FDD3E700BFB81EFF1FE1
:10529000B51EFF1F00D00640B41EFF1FBC1EFF1F1F
:1052A0004C1EFF1F244A25491368F0B443F40053F1
:1052B00013600A78224F234E234D244C24490023A7
:1052C0001F2A3B7033702B7023700B702FD03F2A36
:1052D00020D0204B1B78202B24D03E2B03D11E4BFB
:1052E0004FF451721A601D4B1D4D1E49C0F34436D8
:1052F0001E70C0F3471400222C27402600F01F0028
:105300005C70987220249A701A74DF702E700C6092
:10531000F0BC7047144B40F213321A600D4B1B78EF
:10532000202BDAD1114B4FF451721A60DBE7104B8E
:1053300040F213321A60CCE7348004400011FF1FA2
:10534000481EFF1F491EFF1FBC1EFF1FB51EFF1F6B
:10535000B41EFF1F0111FF1F10D0044000D00640F3
:1053600025E400E004E100E014D004402CA0044057
:1053700028A00440194B19499B7803F0EC0200F077
:1053800003031343420700F00F0248BF43F010032A
:10539000042A8B701CD0114B104A5B79C10603F0B4
:1053A000EF0348BF43F0100353719379820603F073
:1053B000EF030A4A48BF43F010039371C30506D5B3
:1053C00053781178DBB241F02001117053707047AF
:1053D0008B7943F040038B71DDE700BF00D00640BE
:1053E000204B1B689B043BD510B51F4C237823B181
:1053F000FEF74EFC2378002BFAD11C481C491D4BAC
:10540000202400220460CA701B781F2B19D03F2B68
:1054100001D1194B1A60194B1B7803F07F03202B25
:1054200019D03E2B02D1164B00221A60154B16489C
:1054300016491A68002303700B700AB10123137018
:1054400010BD134B40F203121A600C4B1B7803F093
:105450007F03202BE5D10F4B40F203121A60E5E7E2
:10546000704700BF34800440B41EFF1F84E100E099
:1054700000D006400011FF1F14D004400111FF1F8F
:1054800010D00440441EFF1F481EFF1F491EFF1F6F
:1054900028A004402CA004400A4A38B505461378D9
:1054A00003F0FF04002BFAD101212846FDF7E0FAB2
:1054B00021462846FDF7C8FA034A044B52F8352026
:1054C0001A6038BDB41EFF1FC47C0000B81EFF1F49
:1054D00009B140F08000174A1378984217D010B4F1
:1054E000154C2468A4040FD503F07F03202B1DD096
:1054F0003E2B12D0002900F07F0114BF602344230B
:1055000020290ED03E2903D010705DF8044B70475F
:105510000A4943F440730B60F6E7084B00241C6013
:10552000E8E7074943F440730B60EDE7044B0024C0
:105530001C60DFE70111FF1F3480044010D00440DD
:105540002CA00440124B1A7882420CD011490968F1
:10555000890407D51F2A16D03F2A0AD01F280DD04C
:105560003F2801D0187070470B4A40F21331116088
:10557000F8E7094A00211F281160F1D1074A40F2DB
:1055800013311160EEE7054A00211160E6E700BF24
:105590000011FF1F3480044014D0044028A00440B0
:1055A0000D4B1B6813F4005305D03F2805D90B4B56
:1055B00000201860704718467047094B10B5074C1B
:1055C00053F8303023600121FDF752FA236800229E
:1055D0001A70012010BD00BF34800440441EFF1F1C
:1055E000C47C000000207047034B1B689B0401D55E
:1055F000FFF706BE704700BF3480044070B5094E07
:1056000004464518AC4204F101040AD033689B04F7
:10561000F8D514F8010CFFF7F3FDAC4204F10104D6
:10562000F4D170BD3480044010B5044C237823B10C
:10563000FEF72EFB2378002BFAD110BDB41EFF1FFE
:10564000064A074B1B781078DBB2C0B283422CBFEE
:10565000273000F1FF30C01A704700BFB51EFF1F92
:10566000BC1EFF1F054A064B10781B78C0B2DBB288
:10567000984238BF4030C01A704700BF481EFF1F15
:10568000491EFF1F30B4154B154C1A782378D2B23F
:10569000DBB29A421ED001333F2B0ED91149124B77
:1056A000087819680023C0B2237021B1D31A1A2BCD
:1056B00001DC00230B7030BC70470A480A49C05C0B
:1056C0000968DDB2C0B225700029F4D09A4238BF13
:1056D0004032EBE74FF0FF30EDE700BF481EFF1F01
:1056E000491EFF1F741EFF1F441EFF1F084A094B5F
:1056F00012781B78DBB29A4207D00133402B28BFC7
:105700000023054AD05CC0B270474FF0FF307047AD
:10571000481EFF1F491EFF1F741EFF1F054B064A30
:105720001B7806491268DBB20B700AB100231370B4
:10573000704700BF491EFF1F441EFF1F481EFF1F6A
:1057400030B42B4B1A7994061FD52A48DA7903789E
:10575000294901333F2B0978C8BF00238B42D2B2BD
:1057600003D0264CD9B2E2540170254A116861B1C8
:10577000244A1278D2B2934236BFC2F140029B1A39
:105780009B18272BC4BF01230B70194AD378DBB2B7
:10579000180611D45A060DD5154B1B795B0609D591
:1057A000194B1A491B6800220A7003B11A70104B7A
:1057B0002C22DA7030BC704711790906EAD51449F9
:1057C00010480C780178C9B28C420DD04A1C272AA7
:1057D00084BF00210A460F4D054C98BFD1B2AA5C88
:1057E000D2B2E2710170D5E76C21D170D2E700BF6F
:1057F00000D00640481EFF1F491EFF1F741EFF1FDA
:10580000441EFF1FB51EFF1FB81EFF1FB41EFF1F43
:10581000BC1EFF1F4C1EFF1F2DE9F84F214B1B68BC
:1058200007460BB101221A70DFF888901E4D99F8D7
:105830000040DFF884801D4E0134272C8ABF4FF0D2
:10584000000A5FFA84FA5446AB462B78A34216D17D
:10585000FCF7E0FD40281FDC33791B06F5D59BF8EB
:1058600000300133272B86BF00221346DAB218F826
:105870000330DBB2F3712A702B78A342E8D00C49D5
:105880000A4BFFB208F804700120AC22087089F8B6
:1058900000A0DA70BDE8F88FFF28D6DDFEF7F8F932
:1058A000D3E700BF341FFF1F311FFF1F00A00E40B2
:1058B000301FFF1F381FFF1FC81EFF1F174A184940
:1058C0001368F0B543F48063164C174D174FDFF89B
:1058D00074E01360164E174A002323708EF80030D0
:1058E000154C2B700B703B7040F213373760134D23
:1058F0001349C0F344364FF4517727601670C0F354
:1059000047142C2700F01F00402654709072042486
:1059100093701374D7702E700C60F0BD2880044013
:10592000311FFF1FC41EFF1F381FFF1F301FFF1F27
:1059300064D0044000A00E4060D0044042E400E087
:1059400008E100E0C51EFF1F194B19499B7803F0C1
:10595000EC0200F003031343420700F00F0248BFBC
:1059600043F01003042A8B701CD0114B104A5B7952
:10597000C10603F0EF0348BF43F01003537193795E
:10598000820603F0EF030A4A48BF43F01003937105
:10599000C30506D553781178DBB241F020011170B0
:1059A000537070478B7943F040038B71DDE700BF84
:1059B00000A00E40F8B5114B1B685B051CD5104CC0
:1059C000237823B1FEF764F92378002BFAD10D4B2D
:1059D0000D4F0E4E0E4D0F4C0F48104904221A6009
:1059E0000023FB7040F2031232602A6022680370C9
:1059F0000B7012B101231370F8BDF8BD288004406C
:105A0000301FFF1F88E100E000A00E4064D004407A
:105A100060D00440C01EFF1FC41EFF1FC51EFF1F15
:105A20000A4A38B50546137803F0FF04002BFAD173
:105A300001212846FDF71CF821462846FDF704F809
:105A4000034A044B52F835201A6038BD301FFF1F3F
:105A5000C47C0000341FFF1F09B140F08000104AD1
:105A6000137898421AD010B40E4C2468640512D5ED
:105A700003F07F03212B02D10B4B00241C60002973
:105A800000F07F0314BF60214421212B03D1064B7A
:105A900041F44071196010705DF8044B704700BF0D
:105AA0000211FF1F2880044060D00440704700BFEF
:105AB0000D4B1B6813F4806305D03F2805D90B4BB1
:105AC00000201860704718467047094B10B5074C06
:105AD00053F8303023600121FCF7CAFF236800220D
