:1000000000000320D1010000112D0000C92C0000C8
:10001000C92C0000C92C0000C92C0000C92C00000C
:10002000C92C0000C92C0000C92C0000112D0000B3
:10003000112D0000C92C0000112D0000B92C00006A
:10004000112D0000112D0000112D0000112D0000B8
:10005000112D0000112D0000112D0000112D0000A8
:10006000112D0000112D0000112D0000112D000098
:10007000112D0000112D0000112D0000112D000088
:10008000112D0000112D0000112D0000112D000078
:10009000112D0000112D0000112D0000112D000068
:1000A0003926000045260000112D0000112D00000A
:1000B000112D0000112D0000112D0000A54A000097
:1000C000112D0000D14B0000112D0000FD4C00004F
:1000D000112D0000F54D0000112D0000112D000024
:1000E000112D0000112D0000112D0000112D000018
:1000F000112D0000112D0000112D0000112D000008
:10010000112D0000112D0000112D0000112D0000F7
:10011000112D000049380000112D0000112D0000A4
:10012000112D0000112D0000112D0000112D0000D7
:10013000112D0000112D0000112D0000112D0000C7
:10014000112D0000112D0000ED4E0000112D0000BA
:10015000112D0000112D0000112D0000112D0000A7
:10016000112D0000112D000051260000112D00005E
:10017000112D0000112D0000112D0000112D000087
:10018000112D0000112D0000112D0000112D000077
:10019000112D0000112D0000E54F0000112D000071
:1001A000112D0000112D0000112D00005D26000012
:1001B000112D0000112D0000112D0000112D000047
:1001C000112D0000112D0000112D0000112D000037
:1001D0005C4B4CF2205210B51A804DF628121A8052
:1001E00000BF00BF02F098FD574B4FF030621A601D
:1001F000564A9A60564ADA60564B4FF470021A60BB
:10020000554B564A1A60564A136813F4807304D14A
:1002100054490B604FF4A8531360534B1A781107DD
:1002200003D51A7842F008021A70504B5049AA229E
:100230001A70504A504B8B4204D252F8040F43F8C4
:10024000040BF8E74D4B4E4900228B4202D243F893
:10025000042BFAE74B494C4A002352F8230041F89B
:1002600023000133742BF8D1484B494A802103F80D
:10027000011B9342FBD1474B424A1A60464B8A22EC
:100280001A70A3F5805324225A70A0221A709A790A
:100290009207FCD59A79D406FCD4404A937903F0AE
:1002A0000C03082BFAD13E4B60221A7002331A78E5
:1002B000802AFCD1394B01221A715D225A719A7938
:1002C0009006FCD59979354A4906FBD5354B364918
:1002D00019600021596020231370937903F00C03F7
:1002E0000C2BFAD1314B324A1A60324B324A1A6027
:1002F00000225A60072243F8042C304AC3F80C2D20
:1003000062B603F033F9174B1B68DA0705D52C48A2
:1003100002F034FE2B4B2C4A1A602C4B1B785B06E8
:1003200009D5284C284B22689A4204D1244802F06F
:1003300025FE0023236005F009FD02F0F3FC04F024
:1003400011FBFEE70E20054030800440823F040090
:100350000100002B88ED00E0002008E0030000858C
:1003600010D0034014D0034002D0074000E0074003
:10037000941CFF1F0C7900003007FF1F941CFF1F07
:100380007839FF1F0002FF1F0000000000E400E0BA
:1003900064E400E008ED00E0005006400040064044
:1003A00001E007404480044000000602048004404D
:1003B000C010070014E000E01FBF02000000202072
:1003C000C8C4795A1CE00340A5C3945A00F0074002
:1003D000FFFFFFFFFFFFFFFFFFFFFFFFFFFFFFFF2D
:1003E000FFFFFFFFFFFFFFFFFFFFFFFFFFFFFFFF1D
:1003F000FFFFFFFFFFFFFFFFFFFFFFFFFFFFFFFF0D
:10040000FFFFFFFFFFFFFFFFFFFFFFFFDEF9FFFF23
:1004100010B5054C237833B9044B13B10448AFF33E
:1004200000800123237010BD941CFF1F00000000FA
:1004300010790000084B10B51BB108490848AFF30C
:1004400000800848036803B910BD074B002BFBD0A0
:10045000BDE81040184700BF00000000981CFF1FB7
:1004600010790000941CFF1F00000000F0B5194A2D
:10047000194B12688FB007460092009A1A6060B15B
:100480000EAB1D18154E353D0DF10304306901F01A
:100490001DFE04F8010FAC42F8D19DF804305A1F3C
:1004A000022A00D91BB90E4A13700FB0F0BD0D4DD2
:1004B0000D4B2C68C82000FB04303A4601A902F01D
:1004C0002BF90134082CCABF00232C602B600FB01D
:1004D000F0BD00BF2835FF1FB01CFF1FF834FF1F01
:1004E0002808FF1FDC1CFF1F041DFF1F012806D961
:1004F0000238012800D97047062002F001BF10B56C
:1005000010EE104A022002F0FBFE00EE104A03201B
:1005100002F0F6FE00EE104A042002F0F1FE00EEBA
:10052000104A1D20BDE8104002F0EABE2DE9F0415E
:10053000514E524D32782B782DED028B12F0FD0F7B
:1005400084B00CBF042708275BB94D4C2368002BEF
:100550006ED02368DFF828810133236023689F422F
:1005600004DD04B0BDEC028BBDE8F08102F088FF31
:10057000444B45491A68D8F800309FED446ADFEDD6
:10058000446A801A07EE900A013BB8EEE77A07EE5C
:10059000903AF8EEE77AC7EE275AC1ED005AD1ED4E
:1005A000007A86EE270A30EE008AB4EEE68AF1EE93
:1005B00010FA36DDDFED377AB4EEE78AF1EE10FAA5
:1005C0002FD53378032B38D8334A52F823402046AE
:1005D00006F0D6F90146204603F076FE03212F48A7
:1005E000254C03F071FE18EE100A05F051F841ECAD
:1005F000100B02212A4804F06BF8294804F010F887
:10060000307800F0FD03012B2FD0032809D8DFE854
:1006100000F002251E17234A234B12680392039A07
:100620001A6001232B7004B0BDEC028BBDE8F08191
:1006300002F026FF134B18608BE71C4C0721CAE71A
:10064000184A1B4B12680092009A1A60E9E7154A93
:10065000184B12680192019A1A60E2E7114A164B90
:1006600012680292029A1A60DBE7B0EE480AFFF7BE
:100670003DFF2078C9E700BF1008FF1FF91CFF1FCE
:10068000F824FF1FD824FF1FE024FF1F0024744913
:100690000000EC420000F4424C6E0000C471000007
:1006A000A013FF1F2835FF1FDC24FF1FC06E0000B2
:1006B000BC1CFF1FB81CFF1FB41CFF1FF8B50F4D5B
:1006C0000F4B29681B68994214D00E4FC82606FBB1
:1006D0000171324602F020F82C68324606FB0470A5
:1006E000FF2105F087FE0134082CCABF00232C60CF
:1006F0002B60F8BDFF230370F8BD00BFEC24FF1F83
:10070000DC1CFF1F041DFF1F70B50B4D1A20A5F147
:100710000C060024C0B202F09FFE6400012808BF4E
:100720000134B54202D055F8040DF3E7034B012222
:100730005C701A7070BD00BF486E0000F424FF1F8B
:1007400010B5184C2368032B0BD8DFE803F0220206
:1007500019100E2002F0F6F9134A236810710012E6
:10076000D0700133032BC8BF0023236010BD1020BD
:1007700002F0E8F90C4A236810720012D071F0E719
:100780000F2002F0DFF9084A2368907100125071BF
:10079000E7E7432002F0D6F9034A2368907000127D
:1007A0005070DEE7BC34FF1FA434FF1F2DE9F8436F
:1007B0002F4C4FF00408202106462E4884F8008074
:1007C00003F082FD16212C4803F07EFD2B4803F038
:1007D00027FF0A2221782948002303F031FF274808
:1007E00003F01EFF237826480B21DDB203F06CFDD9
:1007F0000023217821480A2203F022FF1F4803F03A
:100800000FFF2378013B43452AD805F1FF38B8F1A3
:10081000000F23DDDFF87890152700250421194803
:1008200003F052FD2946154803F04AFF08211648F7
:1008300003F04AFD16F8014F10482402214603F048
:100840003FFF0E4803F0ECFE01352146F8B202F0FE
:10085000A7FB454502DA59F8047FDFE7BDE8F883D6
:1008600028210A4803F030FD044803F0D9FED1E7FF
:10087000E41CFF1FD46E0000F86E0000A013FF1FE1
:10088000106F0000486F0000506F00001C6F0000E8
:100890001C6E000070B50A4D06461B23002446FA64
:1008A00004F111F00101D8B204BF0021D8B2013423
:1008B00002F0CCFD042C02D055F8043FEFE770BDE8
:1008C0002C6E000001282DE9F04704D902380128D8
:1008D00033D9BDE8F087022204270024194E1A4DAF
:1008E000DFF868A006EB840605EB44054CF6CB491F
:1008F00043F233380AE0013402F052FBBC42A5F85F
:10090000008005F1020516DA56F8042FDAF80030F7
:10091000234113F0010F43F23331D0B2EBD1D0B207
:100920004CF6CB41013402F03BFBBC42A5F80090F1
:1009300005F10205E8DBBDE8F0870622082704245C
:10094000CCE700BFA06E0000C01CFF1FF024FF1FFB
:100950002DE9F04F2DED028BDFF878A1DFF87881DB
:1009600083B002F08DFDDAF80030514AC31A10212D
:100970009342814688F800106FDD4E4BDFF84CB192
:100980001B68019307EE903AB8EE677ADBED007AC8
:10099000F8EEE77A87EE878A03B3474C03F1804588
:1009A000013D04EB8505043C54F8043F07EE903A02
:1009B000F8EE677A77EEC87A17EE900A04F068FED0
:1009C00002460B4604F0B8FE02460B463046394656
:1009D00004F000FDA54206460F46E5D10198374DCB
:1009E00004F034FE02460B463046394604F0CEFF92
:1009F00005F052F904F03AFE41EC100B04F0B2FBA2
:100A000051EC100B05F070F92C782A4BDFF8C0C0C0
:100A10002B4FCAF8009080B208EB44080026020A67
:100A200088F8012088F802004FF6FF7E31464FF427
:100A30007A6221481E60CBF800603E60CCF800E08E
:100A400005F0D8FC631CDBB2072B94BF2B702E7013
:100A500003B0BDEC028BBDE8F08F1A4C236842F264
:100A60000F72C31A9342F3D9144A174B1278114DDF
:100A700013F82200104F124E02F064F82B6813494D
:100A800047F823000A68C4F8009001332B60104B2C
:100A9000346802440A601A68A04288BF30609042FD
:100AA00038BF186003B0BDEC028BBDE8F08F00BF0B
:100AB0003F420F00C434FF1F0025FF1FFA1CFF1F19
:100AC000C834FF1FD41CFF1F5C6E0000B434FF1F2E
:100AD0001C08FF1FCC34FF1FE81CFF1F30B5274B3D
:100AE00027491A78274B451E0124AC408DB022427D
:100AF00008BF1946684603F007FF234B23491A68CD
:100B0000234B144208BF194604A803F0FDFE214BF5
:100B100021491A78214B224218BF194608A803F030
:100B2000F3FE69461E4803F055FD06211D4803F0FB
:100B3000CBFB04A91A4803F04DFD08211A4803F025
:100B4000C3FB08A9164803F045FD0C21174803F024
:100B5000BBFB174B124833F8151003F0B1FD1048DA
:100B600003F05EFD08A803F08FFE04A803F08CFEDE
:100B7000684603F089FE0DB030BD00BF001DFF1FA9
:100B80008070000078700000F024FF1F907000005B
:100B900088700000D01CFF1F987000009C7000003F
:100BA000A013FF1FEC700000A4700000A0700000F4
:100BB000C01CFF1F10B5134C13482B2103F084FBFE
:100BC000204603F02DFD114B2046197803F078FDE7
:100BD00009210F4803F078FB0E4B2046197803F0EB
:100BE0006FFD0A210C4803F06FFB0C4B204619786F
:100BF0000A22002303F024FD2046BDE8104003F044
:100C00000FBD00BFA013FF1FB07000002008FF1F22
:100C1000DC7000001108FF1FE87000001008FF1FC3
:100C200010B52E21084803F04FFB084803F0F8FCEC
:100C3000002401342046FFF751FF082CF9D1BDE80C
:100C40001040FFF7B7BF00BFF4700000A013FF1FF4
:100C5000F0B5154E154D10234FF0020C78220424E8
:100C600001044CBFC5F800C0C6F800C011460139E8
:100C7000FDD1DFF838E02C6011460139FDD10A4F73
:100C8000346011460139FDD1013B13F0FF034FEAF7
:100C90004000E5D108224FF41673CEF80020013B46
:100CA000FDD13A60F0BD00BF48F00F4044F00F4066
:100CB0002DE9F041154E164D18234FF00208782209
:100CC000042401024CBFC5F80080C6F800807827D4
:100CD00011460139FDD1DFF838C02C6011460139C9
:100CE000FDD1DFF828E0346011460139FDD1013B28
:100CF00013F0FF034FEA4000E3D10823CCF80030A3
:100D0000013FFDD1CEF80030BDE8F08148F00F4042
:100D100044F00F400F4B104A1B78117810B40BB100
:100D200041F002010D4B0E480E4A1B7804781078F2
:100D3000012202FA03F3DB4303F00F0341EA8303CA
:100D400040EA04405BB240EA03205DF8044BFFF741
:100D5000AFBF00BF1108FF1F2008FF1F1008FF1FB3
:100D60002308FF1FD01CFF1F10B50F4C01380122B4
:100D7000237802FA00F099B923EA000020701521C7
:100D80000A4803F0A1FA217809480023102203F051
:100D900057FC074803F044FCBDE81040FFF7BABF1A
:100DA00018432070EBE700BFD01CFF1F2471000028
:100DB000A013FF1F10B500210446FFF7D5FF6420E4
:100DC00002F082FB20460121BDE81040FFF7CCBFB6
:100DD0002DE9F84F3C4EDFF824B1DFF824A13B4F5A
:100DE000044626213A4803F06FFA356839483460E2
:100DF0000E2103F069FA002310222946364803F039
:100E00001FFC0A21354803F05FFA00232146102217
:100E1000314803F015FC304803F002FC84EA050376
:100E20004FF00108DB0708F1FF3923D4336843FA98
:100E300009F313F0010F09F1FF394FEA64044FEA97
:100E4000650514BF28212C21B9F1060F05D8DFE86C
:100E500009F02F2D2A2732243500214BB8F1080F35
:100E600019602DD084EA050308F10108DB0708F1B9
:100E7000FF39DBD516211B4803F026FA49461648F0
:100E800003F01EFC0921184803F01EFA124803F073
:100E9000C7FB4046FFF78EFFC8E7CBF80010E1E73D
:100EA000124B1960DEE7124B1960DBE73960D9E7B6
:100EB000104B1960D6E7CAF80010D3E70E4B196043
:100EC000BDE8F84FFFF7ACBEF024FF1F14900340BD
:100ED0003C71000064710000A013FF1F74710000DA
:100EE0000C900B4080710000987100002C80034032
:100EF0000C800B400C90034044800340248003404E
:100F00001C8003402DE9F0410C211A481A4EDFF8ED
:100F100074801A4F03F0D8F90125194803F080FBBB
:100F20002C460BE033886BB13B78234219D1013555
:100F30006400092D64B206F102060ED098F8003064
:100F40002342EFD13B782342F1D128460121FFF71C
:100F50000BFF642002F0B8FAE9E7BDE8F041FFF7C3
:100F60005FBE28460021FFF7FFFE642002F0ACFAC6
:100F7000DDE700BFA4710000C01CFF1FD01CFF1FD5
:100F8000A013FF1F001DFF1F2DE9F04F2DED028B59
:100F9000DFF8B8815F4FDFED608A9FED608A604DBA
:100FA000604E83B0132183465F4803F08DF998F8B3
:100FB00000105E4800230A2203F042FB5B4803F066
:100FC0002FFB10215A4803F07FF900211CE0032178
:100FD000584803F079F92146544803F071FB032186
:100FE000544803F071F95146307801F0D9FFA5F863
:100FF00000A0494608290BF1020B07F1040705F18F
:10100000020506F1040677D09BF802309BF801A098
:10101000494898F8002003EB0A2A642303FB0AF3EB
:1010200080FB0304012088401C4402424FEAE37322
:10103000C3EBE43401F10109C9D14F2C40DC07EEC8
:10104000904AF8EEE77AB7EE007A67EEA87A012CBC
:1010500037EE677A67EE887A27EE087AFCEEE77A51
:10106000CDED007AFCEEC77ABDF800A0CDED017A97
:10107000BDF8042029DC314B93F800C02CEA0000B5
:1010800018702F48006840FA01F1CB0724D51146AB
:101090003878009201F084FF009A2A482A800721BC
:1010A00003F012F92146214803F00AFB03212148ED
:1010B00003F00AF9009A1D48114603F001FB98E776
:1010C00043F233324CF6CB4A50241C4B93F800C009
:1010D0004CEA00001870D4E7BAF1000F01D14FF0CC
:1010E000010A51463878CDF800A001F059FF0721D8
:1010F0001448A5F800A0D3E70021134803F0E4F852
:101100000A4803F08DFA03B0BDEC028BBDE8F04F46
:10111000FFF7F8BEA06E00000AD7233C00FF7F4710
:10112000C01CFF1F806E0000B4710000A013FF1FE1
:10113000C8710000D06E0000018000802308FF1FEE
:10114000F024FF1FDC710000AC700000001DFF1FC9
:1011500070B50A4C0A4E054633210A4803F0B4F82C
:101160002946204600231022357003F069FA2046F4
:1011700003F056FABDE87040FFF7C4BEA013FF1F8E
:10118000001DFF1FE47100002DE9F041DFF8E88148
:101190006849D8F80030684A0E68156886B040F68D
:1011A000C3120193019B9E1B9642A3EB05053ED9FA
:1011B000624B1C68002C00F0B080D8F8003003931C
:1011C000039B1C1BB4F57A7F7DDA002440F6C3171D
:1011D000BD4240D95A4B1A68002A63D0D8F8003073
:1011E0000593059B9B1AB3F57A7F67DB554D2B78EA
:1011F000002B63D03F21544803F066F8534803F0B6
:101200000FFA0023352152482B7003F05DF84F4848
:1012100003F006FA0220FFF755FB4E4B0124BE42B5
:101220001C7024D9FFF776FD06B0BDE8F0814A4F67
:10123000424A3B7800211160002BC6D13221474839
:1012400003F042F80124414803F0EAF93C7040F60B
:10125000C317BD42BED83B4D394A2B7800211160DF
:10126000002B4CD040F6C3139E4207D9394B0022C5
:101270001A70002CD6D106B0BDE8F081364E354A42
:10128000337800211170002BF3D12B78002BF0D193
:101290004221334803F018F82C4803F0C1F9012328
:1012A0003370BFE7D8F800200492049A2D481A60E2
:1012B0001C2103F009F8254803F0B2F940F6C313E6
:1012C0009E42D6D8D2E7244C2378002B3FF47DAF42
:1012D0003F21254802F0F8FF1C4803F0A1F9002740
:1012E00034212248277002F0EFFF184803F098F9E4
:1012F0003846FFF7E7FA174B01241C7066E73221E6
:101300001B4802F0E1FF114803F08AF940F6C313CD
:1013100001249E422C70B1D9A8E7D8F8002002928F
:10132000029A14481A601C2102F0CEFF074803F00D
:1013300077F94BE7B41CFF1FBC1CFF1FFC24FF1FE9
:10134000E01CFF1F1108FF1F04730000A013FF1F04
:1013500044730000D424FF1F2008FF1FB072000058
:10136000B0730000E4720000387200007872000070
:101370007C730000187200002835FF1F00B50A4B6F
:101380001A78032A9CBF0949885C0949094A0968F7
:1013900083B088BF01200191019918701160FFF797
:1013A000B9FC03B05DF804FB1008FF1F7C6E000061
:1013B0002835FF1FE824FF1FF0B52DED028BB5B0D7
:1013C000C822002102A805F015F802A8FFF776F957
:1013D0009DF80830FF2B10D0013B072B0DD8DFE81C
:1013E00013F0CE00D2000800D7000C000C000C0057
:1013F000C9009DF80900FFF7EBFC6B4DFFF7A8FA59
:1014000002F03EF8694A2B7812680192012B019C88
:1014100000F0C280022B664B1B68A4EB030300F0B4
:10142000A180B3F57A7F18D9624B1B780222032B77
:101430002A704ED8604A52F82340204605F0A0FAA0
:101440000146204602F040FF1A215C4802F03CFFB2
:101450005B4803F0E5F8FFF791FF5A4B1B78002B30
:101460007DD1594B59491A68594C01321A601A6892
:101470008A4231DC23781BB935B0BDEC028BF0BD5C
:1014800001F0FEFF534A5449136891ED007A106051
:10149000C31A07EE903A514BF8EEE77AF4EEC77AAA
:1014A00093ED007AF1EE10FAF4EEC77AC8BFC1ED01
:1014B000007AF1EE10FA48BFC3ED007A484B93ED85
:1014C000007A77EE277AC3ED007A35B0BDEC028B57
:1014D000F0BD444C0721B4E700221A60FFF730F951
:1014E000FFF712F92378002BC6D03B4F3E483B4D07
:1014F0003B4E0E2102F0E8FE386804F0C9F841ECDA
:10150000100B02212E4803F0E3F80621374802F0C1
:10151000DBFE286804F0BCF841EC100B02212848DF
:1015200003F0D6F896ED007ADFED317A314887EE98
:10153000278A062102F0C8FE18EE100A04F0A8F867
:1015400041EC100B02211E4803F0C2F81C4803F0C6
:1015500067F80023284A3B6033602A608AE7FFF778
:1015600013FE7EE7092B7FF678AF244900220A603C
:101570002A7056E79DF80900FFF7EAFD3DE702A84B
:10158000FFF702FD39E79DF80900FFF783F934E71B
:1015900002A8FFF70BF930E7FFF7F0FE044B1B68DA
:1015A0000222E31A2A703CE7F91CFF1F2835FF1FAF
:1015B000E824FF1F1008FF1F4C6E0000F4730000AA
:1015C000A013FF1F2208FF1FA034FF1F9F860100EA
:1015D000B834FF1FB034FF1FD81CFF1F1408FF1FB3
:1015E000E424FF1FC06E000010740000207400008F
:1015F0000050C3472874000000401C46F824FF1F19
:10160000F0B5914B914D012178228DB008461A60BA
:1016100001F030FF0121132001F02CFF01211120E6
:1016200001F028FF0021142001F024FF01211220E5
:1016300001F020FF01211F2001F01CFF00211F20CD
:1016400001F004FF0121202001F014FF00212020DF
:1016500001F0FCFE05F11C06022401E055F8044FE0
:10166000E4B22046012101F005FF204647F6FF7154
:1016700001F096FC20469FED760A01F041FEAE4255
:10168000ECD1744D1B2405F10C06E4B22046012177
:1016900001F0F0FE2046002101F0D8FEAE4202D05B
:1016A00055F8044FF1E700210C2001F0E3FE002182
:1016B000182001F0DFFE684C0021192001F0DAFE4D
:1016C0001A20002101F0D6FE04F11C05212001E0C2
:1016D00054F8040FC0B2002101F0CCFEAC42F7D1A7
:1016E0000121152001F0C6FE0121162001F0C2FEE5
:1016F0000121172001F0BEFE01211E2001F0BAFEDB
:101700000021432001F0B6FE00210E2001F0B2FEC0
:1017100000210F2001F0AEFE0021102001F0AAFEF2
:10172000102001F0DDFD0C2001F0A2F94FF48070D3
:1017300001F0D2F9494B4A4C4A4A4B4D4B4F0021DC
:101740001970206840F6C41113783BB12B789B07C1
:1017500004D023683E689B1B182B03D823681B1AF0
:101760008B42F1D923214248424D02F0ADFD42485F
:1017700002F056FF0C21414802F0A6FD01213E482F
:1017800002F09EFF3C4802F04BFF4FF47A7001F0EC
:101790009BFE3B4B3B4A1869597BC0F85C520026C4
:1017A0000125394BC0F860222A460393049566232D
:1017B00001950296009600F0F9FB4FF47A7001F063
:1017C00083FE2846FFF744FA0F21304802F07CFDE3
:1017D000294802F025FF23680A93DDF828E02368F2
:1017E0000993099A23680893089F23680793284B55
:1017F000079821681D700B91264B27491A60C1F884
:1018000000E0264B2649274C0B9A1A600860276097
:10181000FFF780FA244B1E6001F032FE234B24496F
:1018200018600222142001F02DFBFFF7A7FD2149CB
:10183000214A224B097812785D7003201870997044
:10184000DA700DB0F0BD00BF2408FF1FA06E0000CD
:10185000A4F0EF422C6E00005C6E0000E41CFF1F41
:101860002835FF1F0C36FF1F2436FF1F7039FF1F5E
:10187000307400006D040000A013FF1F54740000BA
:10188000F834FF1FD1180000801A060064740000AD
:101890001008FF1FB41CFF1FDC24FF1FE824FF1FDC
:1018A000BC1CFF1FB81CFF1FB01CFF1FB034FF1F64
:1018B0002D0500001808FF1F2108FF1FFC1CFF1F3B
:1018C00008B501F0DDFD014B186008BDD824FF1FED
:1018D00010B51C4B1C4C1B681C4A82B0019323782A
:1018E000019911604BB1072B0FD0052B15D0062B9A
:1018F0001BD0FF23237002B010BD042214491548E9
:1019000000F07AF82378072BEFD111221249114801
:1019100000F072F82378052BE9D109220F490D4810
:1019200000F06AF82378062BE3D102220C4909481B
:1019300000F062F80B4B00221A70FF23237002B0F4
:1019400010BD00BF2835FF1F2808FF1FB01CFF1F58
:10195000FC1CFF1FF834FF1FE81CFF1FA434FF1FEF
:10196000F424FF1FC034FF1F002070470369D3F821
:101970003801D3F83431C01A704700BF0369D3F877
:101980003411D3F83821914208D2D3F83421511CB4
:101990001A44C3F8341192F8300070474FF0FF300A
:1019A000704700BF0369D3F83411D3F8382191424E
:1019B0003DBFD3F834219B1893F830004FF0FF302F
:1019C000704700BF704700BF0369D3F84422B2F5E7
:1019D000817F03D90123037100207047D3F844228B
:1019E00010B49C180132C3F8442284F83C11012041
:1019F0005DF8044B704700BFF0B40569D5F8443278
:101A0000B3F5817F20D8D5F84462D5F84442C6F5B5
:101A100081760136964205F59E7302D20127324641
:101A200007714AB1013C23448D1811F8014B03F8AA
:101A3000014FA942F9D10569D5F844321344C5F8DC
:101A400044321046F0BC704701230371F0BC002003
:101A5000704700BF38B503690A4A026093F848220C
:101A6000022A044601D0204638BDD3F86452002D26
:101A7000F9D0284602F092FD284602F07DFF20466C
:101A800038BD00BFD07400002DE9F04F83B0002BAB
:101A900040F2645540F2647440F2035740F2037818
:101AA00040F2032602BF2F46A0464FF419769DF858
:101AB00030E041B9541EE4B2052C20D9894648468D
:101AC00003B0BDE8F08F012930D1052A38D189460D
:101AD0000C46924605469B46BEF1000F1CD090F87E
:101AE0004B2290F84A32002A0CBF00220222072B18
:101AF00012D8DFE803F0B876818C97A2AD6B5F4D0A
:101B000015F80490B9F1000FD9D00C46924605465D
:101B10009B46BEF1000FE2D14CBB0AF1FF33052B0F
:101B20001DD8DFE803F04C47423D1C38022903D1A1
:101B300032B94FF00109CBE7032901D1072AF8D0C8
:101B40004FF00009484603B0BDE8F08F032C06D1E2
:101B5000BAF1070F03D14A4A4A4B16601E60484645
:101B600085F84AA285F84BB203B0BDE8F08F012C8E
:101B700007D1BAF1050FF2D1434A444B16601E60FB
:101B8000EDE7022CE2D1BAF1000FE8D1404A414B17
:101B900017601F60E3E7404A404B16601E60DEE7B7
:101BA0003F4A404B17601F60D9E73F4A3F4B1660E2
:101BB0001E60D4E73E4A3F4B16601E60CFE73E4AA8
:101BC0003E4BC2F80080C3F80080C8E711463820B9
:101BD000019201F04FFC019A3920114601F04AFCB4
:101BE0009AE711460820019201F044FC019A07206F
:101BF000114601F03FFC8FE711461120019201F0E0
:101C000039FC019A1020114601F034FC84E711469A
:101C10001220019201F02EFC019A1320114601F0CE
:101C200029FC79E711462220019201F023FC019A58
:101C30002120114601F01EFC6EE71146262001927C
:101C400001F018FC019A2520114601F013FC63E70E
:101C500011463020019201F00DFC019A2F2011460F
:101C600001F008FC58E711460420019201F002FC43
:101C7000019A0320114601F0FDFB4DE7EC740000D2
:101C800028D004402CD004402CB0044028B004409C
:101C9000349004403090044024C0044020C00440EC
:101CA00064D0044060D004400CA0044008A004406C
:101CB00004A0044000A004400CC0044008C004403C
:101CC000F8B5C3681B789B0610D483680D46802145
:101CD0001970C3681221197090F84932012B04461B
:101CE00006D08AB980F848220120F8BD0020F8BD4E
:101CF0001A4675B9784B4FF080711960022A0FD0DF
:101D0000012084F84802F8BD531E012BF1D90120AF
:101D1000F8BD012D4AD1704B4FF000711960EDE70D
:101D2000D4F86462002E00F096803379202B30D0F6
:101D3000002D42D132686949938B694F9BB243F0C1
:101D4000080393833279531102F110009B0041F88C
:101D5000207003F1604303F56143012102F01F028B
:101D600001FA02F231681A608B8B9BB243F00203D6
:101D70008B83337903F1804303F5043392221D7082
:101D80001A700022022384F85A2284F84832012073
:101D9000F8BD304602F002FC304602F0EDFD0023B3
:101DA0000120C4F8643284F84802F8BD022D5DD1E8
:101DB0004C4B4FF480611960A0E7012D26D13268A9
:101DC0004649938B484F9BB243F008039383327983
:101DD000531102F110009B0041F8207003F16043A1
:101DE00003F5614302F01F02954032681D60938B3A
:101DF0009BB243F002039383337903F1804303F5ED
:101E000004330021932219701A70BAE7022D35D1DC
:101E1000D4F8641231480A68344E938B9BB243F075
:101E2000080393830A79531102F110059B0040F8CF
:101E3000256003F1604303F56143012002F01F02B6
:101E400000FA02F208681A60838B9BB243F0020327
:101E500083830B79D1E7082002F08CFD31460746D9
:101E60003E4602F035FBC4F864725EE7032D7FF452
:101E700045AF1C4B4FF0006119603FE7032D80D147
:101E8000D4F8641215480A68194E938B9BB243F03C
:101E9000080393830A79531102F110059B0040F85F
:101EA000256003F1604303F56143012002F01F0246
:101EB00000FA02F208681A60838B9BB243F00203B7
:101EC00083830B7903F1804303F5043300219222CD
:101ED00019701A7055E700BF00E100E00002FF1F13
:101EE0003926000008E100E04526000051260000E8
:101EF0005D260000F0B5284EDFF8ACE0A6FB0143FC
:101F0000A6FB02429E093702754696091424002357
:101F1000B7FBF6F604E00133382B1BD055F8044F1D
:101F200022029642F7DA83BB14241C4A4568B1FBAF
:101F3000F4F491422B70C0F84C4207D8184B8269D8
:101F4000A3FB0131C1F307511170F0BD8369042275
:101F50001A70F0BD002422464FF470274FF47065CC
:101F60004FF0370CB21AF71B002A87EAE776A6EB88
:101F7000E776B8BF5242964202DD0A4AD35CD4E704
:101F8000084B2C4613F80C30CFE703F1FF3C5EF80A
:101F90002C502F02E6E700BFD34D6210FF6BDC022E
:101FA000819F5E16D4750000F4740000F0B583B014
:101FB00004469DF824709DF820009DF828E09DF8C7
:101FC00030600D4679BBDFF8FCC0DCF8001041F052
:101FD0004001CCF80010002184F8492284F8511205
:101FE00092BB63692021197023681A70E3691A7023
:101FF000002173463A46009120462946FFF744FDEA
:102000000B9A2F492046FFF775FF32462946204696
:10201000FFF756FE94F84932002B38D0A368C0224F
:102020001A7003B0F0BD012926D1DFF898C0DCF8A2
:10203000001041F08001CCF80010002184F8492202
:1020400084F85112002ACCD0626960B12821117045
:102050009842226820D95B00DBB213704000E3692C
:10206000C0B21870C4E7202111705B002268D9B299
:102070001170E3691870BBE7022915D1DFF848C079
:10208000DCF8001041F04001CCF80010A3E7A36891
:1020900080221A7003B0F0BD4000C0B2107058002A
:1020A000E369C0B21870A3E7032994D1DFF818C020
:1020B000DCF8001041F08001CCF800108BE700BF85
:1020C000008793033480044028800440D0F83421F2
:1020D000D0F838319A4208D2D0F834315A1C03442F
:1020E000C0F8342193F8300070470020704700BFDB
:1020F0002DE9F041C168D0F808E00D789EF8003075
:102100008769DBB203F020023C78EDB222B313F012
:10211000100F90F85A327ED0022B00F0CC8090F84D
:102120005A32032B00F0C78090F85132012B00F097
:10213000CC8190F85132DBB2022B00F0EC8190F8A8
:102140005132042B00F0868180238EF80030C36862
:1021500002221A70BDE8F08102F0FF08EA06E6B23A
:10216000044623D405F0400202F0FF0112BB03F045
:10217000100303F0FF02002B7FD015F0010540F0A3
:102180005D81D0F84022D0F844329A4207D2D0F88C
:1021900040325A1C0344C0F8402293F83C51236952
:1021A0001D70A368D0221A70A7696BE010236F0618
:1021B0000B7029D594F851320A2B00F0D18005F02C
:1021C000040505F0FF02002D62D0A3680021D02293
:1021D000092084F85102C4F844121A702269D4F814
:1021E000601213785B0884F8523209B1884722697B
:1021F000D4F84432002B00F02A8194F83C8182F814
:1022000000800123C4F84032A3691E70E3680222F3
:102210001A70BDE8F081022B7BD090F85A32032B64
:1022200077D0D0F83831D0F854220233934200F0FE
:10223000FF8090F85132042B00F0F580D0F838314F
:102240000133934280F0CD8090F85132042B00F09E
:10225000C380D0F838310269591CC0F838110344E2
:10226000127883F8302090F85132042B00F024814A
:10227000C36802221A70BDE8F08190F851320A2B2F
:1022800000F039813E70E36802221A70BDE8F081E7
:10229000A1690B7843F020030B70A3680A20C021CA
:1022A00084F85102C4F83821197023691B785B083F
:1022B00084F85232A8E7D0F8642213689B8B1C067E
:1022C00003D590F85A32022B7BD090F85A32032B68
:1022D00052D0BF4B12791C680123934023426CD02B
:1022E000BC4BBD491A70D0F8642212790A700023E1
:1022F000E90680F85A3231D5C2681221072480F8E5
:1023000051421170826880211170C0F84032BDE8DE
:10231000F081D0F864321A68928B120603D590F8D7
:102320005A22022A3FD090F85A22032A00F09A80BB
:10233000A74C1A7924680123934023423DD0A64933
:10234000A44B0A70D0F8642212791A7082680023B4
:10235000802180F85A3280F851321170C1682CE027
:10236000D4F85C32002B3FF42AAF0022C4F83421A9
:10237000D4F83801984722E70B781D06FCD5974B17
:1023800012791A70002380F85A32D0F84432026968
:10239000013BC0F84032D0F84032034493F83C315E
:1023A0001370C16809E08B4A1B7913708368E822B7
:1023B0001A70C168032380F85A3202230B70BDE8FB
:1023C000F081844B12791A708368F0221A7003230B
:1023D000C16880F85A32F0E790F85932002B3FF488
:1023E00038AF90F851220023042A80F8593201D0E6
:1023F00080F851328368B0221A70D0F838310269FF
:10240000591CC0F838110344127883F8302090F832
:102410005032012B7FF427AF3C23013BFDD1836871
:1024200080221A701FE790F85932002B7FF406AF14
:10243000E8238EF80030D0F85422FFE6C0238EF84F
:102440000030036987691B7880F851121AE784F815
:102450003C31D4E690F85032012B48D0B0238EF8AE
:10246000003005E75D4A1B791370002380F85A326B
:1024700090F85122042A18BF80F851328368B022A4
:102480001A70D0F854320269013BC0F83831D0F8E4
:102490003831591CC0F838110344127883F83020C1
:1024A00090F85032012B7FF459AF3C23013BFDD112
:1024B000836880221A7051E790F85932002B7FF41C
:1024C000D7AE012380F85932D2E605F0100303F0AD
:1024D000FF02002B3CD115F0010548D080F85A22AC
:1024E000D0F84032002B6FD1052380F85132802381
:1024F0008EF80030BCE6750618D5D0F85C3280F84E
:102500005122002B3FF4BEAEC0F83421D0F8380180
:102510009847A769B6E6EC063AD4E90742D5052202
:10252000802380F851228EF80030A1E603691B78E1
:10253000D0F83821B2F5817FDBB23FF6A3AED0F8F8
:10254000382181180132C0F8382181F8303099E6FD
:1025500000231222072480F85A3280F851420A7070
:10256000826880211170C0F84032BDE8F081D0F857
:1025700040320133C0F84032D0F8442293422FD386
:1025800090F8503280F85152012B7FF467AFAEE7DC
:102590000722122380F851220B70836880221A7060
:1025A000BDE8F08190F85A22012A25D0D0F85432A3
:1025B000012B0CBFE823E023032280F851228EF880
:1025C000003003691B7853E6062380F851328EE70A
:1025D0002C8000401F8000401E8000401C80004076
:1025E00090F85A32012B14D0D0F8403202690344DB
:1025F00093F83C3113703BE6E12280F85A328EF8B2
:102600000020D0F864220B4B12791A7003691B78F2
:102610002EE60222F12380F85A228EF80030D0F8FC
:102620006422044B12791A70036990F83D211A70E4
:102630001EE600BF1B80004000210148FFF758BD87
:102640002C08FF1F01210148FFF752BD980AFF1F08
:1026500002210148FFF74CBD040DFF1F0321014873
:10266000FFF746BD700FFF1F2DE9F843224BDFF83F
:10267000A090DFF8A080214E214D1E6000244FF471
:102680007A774A4641461C711C739F6018465C73FA
:102690001D6103F049FB1B4B05F51B7201211A61FB
:1026A0001C714A469F601C735973184641461E6050
:1026B00003F03AFB144B05F59B6202211A611C7171
:1026C0004A469F601C735973184641461E6003F0CA
:1026D0002BFB0E4B4FF0030E05F244751C711C735F
:1026E00083F80DE04A46414618461D619F601E6012
:1026F000BDE8F84303F018BBF834FF1FD0740000A6
:102700002C08FF1FD034FF1FE434FF1F0C35FF1FC0
:102710000C08FF1F551A0000844641EA000313F01D
:1027200003036DD1403A41D351F8043B40F8043BD8
:1027300051F8043B40F8043B51F8043B40F8043B9B
:1027400051F8043B40F8043B51F8043B40F8043B8B
:1027500051F8043B40F8043B51F8043B40F8043B7B
:1027600051F8043B40F8043B51F8043B40F8043B6B
:1027700051F8043B40F8043B51F8043B40F8043B5B
:1027800051F8043B40F8043B51F8043B40F8043B4B
:1027900051F8043B40F8043B51F8043B40F8043B3B
:1027A00051F8043B40F8043B403ABDD2303211D3DB
:1027B00051F8043B40F8043B51F8043B40F8043B1B
:1027C00051F8043B40F8043B51F8043B40F8043B0B
:1027D000103AEDD20C3205D351F8043B40F8043BDB
:1027E000043AF9D2043208D0D2071CBF11F8013BD9
:1027F00000F8013B01D30B8803806046704700BF9F
:10280000082A13D38B078DD010F003038AD0C3F1AD
:102810000403D21ADB071CBF11F8013B00F8013B8F
:1028200080D331F8023B20F8023B7BE7043AD9D34E
:10283000013A11F8013B00F8013BF9D20B78037023
:102840004B7843708B78837060467047374A3849BD
:1028500013681B06FCD40B6813F08003F8D172B622
:1028600034490A78002A5FD0334A3448F0B4344CF3
:10287000176806682568D4680C303E441432006836
:102880001268304F35442C4420440244C2F34E02B7
:102890002D4E2E482E4D2F4C42F400423A603768A0
:1028A00006682D682C4A24680C303E440068126883
:1028B0002A4F35442C4420440244C2F34E02284E91
:1028C0002848294D294C42F400423A60376806688E
:1028D0002D68274A24680C303E4400681268254F52
:1028E00035442C4420440244C2F34E02224E234875
:1028F000234D244C42F400423A60376806682D6844
:10290000214A24680C303E440068126835442C4447
:1029100020440244C2F34E021C4842F400420260CA
:102920000B7062B6F0BC704762B6704724B00340CB
:1029300024B00B402135FF1F38B003403CB00340AA
:1029400040B003402CB0034058B003405CB003409B
:1029500060B0034064B003406CB0034030B003404B
:1029600038B00B403CB00B4040B00B4044B00B4083
:102970004CB00B402CB00B4058B00B405CB00B403F
:1029800060B00B4064B00B406CB00B4030B00B40FB
:1029900030B42948294A2A4B2A4D6024E121047089
:1029A00011701B78284C082B30D00A2B2748284957
:1029B00037D00C2B0CBF35225D2212232A602360F6
:1029C00002600B60234B24491B78244ABBB10123CE
:1029D0000B601360224B23491B78234A012B26D915
:1029E000042B0FD9082B1ED9102B94BF86238723C5
:1029F0000B6013601D4B01221A7030BC70470B60D6
:102A00001360E7E784230B601360F3E700F58E2083
:102A10000F490830212213232A60236002600B60D3
:102A2000D0E73922F7E785230B601360E2E78023C4
:102A30000B601360DEE700BF004007400140074025
:102A4000DC11FF1F08B003400CB0034008B00B407E
:102A50000CB00B402435FF1F20B0034020B00B40CA
:102A6000DD11FF1F24B0034024B00B402135FF1FB0
:102A70000C2830B417D91023984228BF18461C469A
:102A8000104A114D1178181A8C42287018D00F492D
:102A900013700B7823B10E490E4A00230B601360AC
:102AA00030BCFFF775BF0A2802D90C231C46E7E7A4
:102AB000082802D90A231C46E2E708231C46DFE760
:102AC00030BC7047DC11FF1F2035FF1F2135FF1F71
:102AD00024B0034024B00B4010B5174B1B780446BC
:102AE000A3B9012C16D9042C0AD9082C134B1DD9D3
:102AF000102C15D907221A60114A2023137010BD1B
:102B00000E4A042313600E4A137010BDFFF79EFE99
:102B1000012CE8D8094A00231360094A137010BD3C
:102B200006221A60064A1023137010BD05221A608F
:102B3000034A0823137010BD2135FF1F24B0034042
:102B4000DD11FF1F47282FD8334B2DE9F0411E5CC4
:102B5000FF2E2BD0314B1B78002B2AD132062CD4E0
:102B600072B62F4D2F4C2F46012326602B7062B674
:102B700072B623681B060CD43B781BB9F4E72B789C
:102B8000002BF1D062B601F00FFF72B62368180671
:102B9000F5D5254B1B6800222A7062B6234A1078AF
:102BA00043FA00F0BDE8F081002070470020BDE846
:102BB000F081FFF74BFE3206D2D572B61C4DDFF81E
:102BC0007C801C4C06F04007FFB206F03F06D8F8A8
:102BD0000030DFB123F01003C8F800300123266075
:102BE000134A2B7062B672B6236819060CD4137898
:102BF0001BB9ECE72B78002BE9D062B601F0D4FECC
:102C000072B623681B06F5D50B4BC3E743F01003E0
:102C1000C8F80030E2E700BF0C7600002135FF1F46
:102C20002335FF1F00B0034010B003402035FF1FC5
:102C30002235FF1F00B00B4010B00B400CB00B4012
:102C40000A4A0B49136843F4805313600B7843B16D
:102C5000084B80221A7080F30C00074B00B21880DA
:102C60007047044BC0221A70F5E700BF2C80044067
:102C70002435FF1F21C00C4000C00C400A4A0B49FC
:102C8000136843F4005313600B7843B1084B802260
:102C90001A7080F30C00074B00B218807047044B89
:102CA000C0221A70F5E700BF2C8004402435FF1FB6
:102CB00021D00C4000D00C40024A1368013313604D
:102CC000704700BF2835FF1F08B5104C08E0236887
:102CD00059050DD423681A050FD42368DB0411D4D9
:102CE00023685803F3D500F0AFFD23685905F1D5EB
:102CF00001F0D8FE23681A05EFD501F069FF2368BB
:102D0000DB04EDD501F0FAFFEAE700BF34800440B0
:102D100008B5FFF7D9FF00BF014B10221A8070479A
:102D200000200540704700BF094908B50B6830B165
:102D30006A461844A2F50052904202D20860184632
:102D400008BD02F0FDFF0C2303604FF0FF3008BD0B
:102D5000E011FF1F084A1378802B01D00020704734
:102D60000649074B07480860002119701378802B2B
:102D7000FCD00120704700BF03E0074044800440BE
:102D800001E0074000002822094A1378012B01D0F6
:102D90000020704703F1804303F5FC236021197084
:102DA0001378802BFCD1034B034A1A600120704733
:102DB00003E007404480044000000602704700BF63
:102DC00010B4114B53F8302092F8804234B10123F3
:102DD00079B182F880305DF8044B704703EBC00393
:102DE0005B681A6851B922F002021A605DF8044B60
:102DF000704782F800315DF8044B704742F00302DF
:102E00001A605DF8044B7047547600001C4A02EBD0
:102E1000C00301295B6811D004291BD052F830008F
:102E2000002280F8802229B1022920D0032922D053
:102E30001A6070474FF480721A60704752F8300081
:102E40004FF4A27280F880121A601A6822F02002F1
:102E50001A60704752F830104FF4A272012081F8C6
:102E600080021A601A6842F020021A60704740F22D
:102E700003121A6070474FF481721A60704700BFE6
:102E8000547600003F2817D8F8B5042A13D8DFE895
:102E900002F0494C4F1446002C4872B6236823F4C4
:102EA000702343F08072C4F384011643236040F81A
:102EB0002150266062B6F8BD70474FF41026244BAF
:102EC00003EBC0030D465C68216811F4E06134D067
:102ED000204B214A2149C3F82C2104F140422048CB
:102EE000C3F83411A2F592211E4FC3F830017C299A
:102EF0001D48C3F83871C3F83C01CDD9A2F594231D
:102F00007C2B18D9A2F596237C2B19D9A2F59823EE
:102F10007C2B17D9A2F59A227C2A15D9F8BD4FF43B
:102F20003026CCE74FF40026C9E74FF44026C6E729
:102F30004FF42026C3E70D48AFE7FFF767FFC7E769
:102F40000B48AAE70B48A8E70B48A6E7E411FF1FC8
:102F5000547600000002FF1FE107FF1F8907FF1FD3
:102F6000B507FF1F5D07FF1F3107FF1F5C12FF1F23
:102F7000BC12FF1FEC12FF1F2C13FF1F30B4054BB8
:102F8000054D064C002210211A602A60206019604D
:102F900030BC704714D0034004D0034000D003403D
:102FA00038B5A0F14203012B044624D900297ADD6B
:102FB000994B1B78012505FA03F28A4202D83F2873
:102FC0002CD938BDC21E012A30D9A0F11D02012A18
:102FD00078D90E285BD9A4F12302032A5CD9A4F185
:102FE0001002012A94BF8D4A8D4A126802FB011219
:102FF00022FA03F320E0884B1B780B2B0AD90C2B09
:103000001CBF0C3B1941422C084657D0BDE8384044
:10301000FFF734BEC3F10C039940F4E72946FFF7EC
:10302000CFFE2946BDE83840FFF7F0BE7D4A126862
:1030300002FB011222FA03F3A21E242A00F2E3800B
:10304000DFE812F0DA00D300CC00C500BE00B70004
:10305000B000A900A200E100E100E1009B00E10056
:1030600094008D00E100E10086007F00780071008F
:10307000E100E100E100E100E1006A006300E1003D
:10308000E100E100E1005C0055004E00470044F221
:103090008412C240D2079ED5634A126802FB011215
:1030A00022FA03F3C8E73F288BD80021FFF788FEF8
:1030B00020460121BDE83840FFF7A8BEBDE83840F2
:1030C000FFF7BEBD594A126802FB011222FA03F350
:1030D000B2E75749574A0B604FF45173136038BD3C
:1030E0005549564A0B604FF45173136038BD54492B
:1030F000544A0B604FF45173136038BD5249534A20
:103100000B604FF45173136038BD5149514A0B6045
:103110004FF45173136038BD4F49504A0B604FF460
:103120005173136038BD4E494E4A0B6040F2444320
:10313000136038BD4C494D4A0B6040F24443136064
:1031400038BD4B494B4A0B6040F24443136038BDD5
:1031500049494A4A0B6040F24443136038BD48492C
:10316000484A0B6040F24463136038BD4649474A01
:103170000B6040F24463136038BD4549454A0B601B
:1031800040F24443136038BD4349444A0B6040F267
:103190004443136038BD4249424A0B6040F2444305
:1031A000136038BD4049414A0B6040F2444313600C
:1031B00038BD3F493F4A0B6040F24443136038BD7D
:1031C0003D493E4A0B6040F24443136038BD3C49E0
:1031D0003C4A0B6040F24443136038BD3A493B4AD5
:1031E0000B604FF45173136038BD3949394A0B6095
:1031F0004FF45173136038BD3749384A0B6040F2C1
:103200004443136038BD3F2C3FF6DBAE7F29D4BF6B
:1032100000210121204649E79813FF1F08900C4028
:10322000088003400890034008900B4008800B4042
:1032300048900B402CB0044040900B4028B0044014
:1032400038900B4024B0044030900B4020B0044034
:1032500018800B404CA0044010800B4048A0044054
:103260001880034008B004401080034004B00440BC
:103270004080034018C004403880034014C004401C
:1032800018900C4004A0044010900C4000A0044092
:1032900018900B4004C004402880034010B0044044
:1032A000208003400CB0044028900B400CC0044028
:1032B00020900B4008C004403080034010C0044000
:1032C000488003401CC004401890034034900440E0
:1032D000109003403090044010900B4000C0044018
:1032E00038B1102828BF1020044AC3B210781370D8
:1032F0007047024A01231078137070479813FF1F1C
:10330000A0F11001C9B2012970B45BD9DFED3B7A9D
:103310003B4AB4EEE70AF1EE10FA47F6122346BF35
:103320001A4602250125DFED376A002322FA03F44D
:1033300007EE904AF8EEE77A27EEA67AB4EEC70ACF
:10334000F1EE10FA07DA0133072BEFD1D20907EEBD
:10335000902AF8EEE77A87EE807A4FF6FF74C21E65
:10336000F6EE007A77EE677AFCEEE77A17EE906A6F
:10337000A64228BF2646012A344637D917280ED937
:10338000A0F11D02012A35D90E281ED923380328A1
:1033900020D9012914D81C4A1C4E1D481DE01D4A85
:1033A000C24002F0010282F00106002AE8D01A4A67
:1033B0001A481B49166043EAC50306600C60136097
:1033C00070BC7047174A0125ADE744F28412C24031
:1033D000D207DBD5144A154E154843EAC503002130
:1033E000116031600460136070BC7047114A124E66
:1033F0001248F2E7124A134E1348EEE7C0E1E440E8
:10340000008793030000803700900C4004900C402C
:1034100008900C406006F0000080034004800340E8
:10342000088003400024F40000900B4004900B40FF
:1034300008900B4000900340049003400890034024
:1034400000800B4004800B4008800B403F2801D8CF
:10345000FFF7B6BC704700BF3F2806D8044B53F8AF
:10346000303093F80002C0B270470020704700BFB0
:10347000547600003F2801D8FFF7C8BC704700BF52
:1034800072B60D490D4B0E4A1B680868126862B689
:10349000520102D5322B88BF0130C3F52F330949C1
:1034A00003F21F334FF47A729B08A1FB031302FB54
:1034B00000F000EB930070472835FF1F18E000E094
:1034C00004ED00E0176CC1162DE9F843054672B60D
:1034D000224F234B234A1B683C68126862B6520194
:1034E00002D5322B88BF0134B5B3C3F52F3303F2B5
:1034F0001F331D4EDFF86890DFF868809B084FF49B
:103500007A72A6FB031302FB04F404EB930472B675
:10351000D9F800103A68D8F800E062B6C1F52F3348
:1035200003F21F339B08A6FB03031EF0806FC4EB5E
:1035300093034FF47A7002D0322988BF013200FB26
:103540000233B3F57A7F04D3013D05D004F57A74D4
:10355000DDE701F029FADAE7BDE8F8832835FF1F37
:1035600018E000E004ED00E0176CC116F8B54E4B12
:103570004E48DFF85CC14E4C4E49DFF858E14E4EE4
:103580004E4D4F4F4FF000621A604FF080521A605C
:103590004FF000521A604FF080421A604FF0004224
:1035A0001A600022026028234EF6FF70CCF800005B
:1035B000CEF8003023600EF5012E0B6033602B60D7
:1035C00006F500263B6005F50025A36207F50027F8
:1035D0008B6204F5012401F5012106F6E87605F673
:1035E000E87507F57F6710310EF1100E2034336057
:1035F0002B60CEF800303B600B602360314CBB6128
:103600008B6109212160A7F5002704F58054203F34
:1036100008343A602060BB60E36047F8041C04F59E
:10362000FD2407F5FE27043704F2FC74226038609D
:10363000A360FB6044F8041C083404F6FC74C7F86B
:10364000FC2F2060A4F5E124A4F2DC7433602B602D
:10365000C7F8F81F21681C4841F400712160016817
:103660001A4C0EF57F4E0EF1E80E07F5883706F579
:10367000803605F5803541F000710160CEF80020FC
:1036800047F6FF710822396033602B602260FFF734
:103690007FF93220FFF718FF00F002FD4FF4AF7002
:1036A000BDE8F840FFF710BF04E100E004800340EC
:1036B000148003401C800340248003402C8003407E
:1036C00034800340008003400480044000900C409C
:1036D000088003400C800340431E032B14D872B6AD
:1036E0000A4951F8230068B170B4094C058834F8D0
:1036F0001320466841F82360521B24F8132062B659
:1037000070BC704762B67047002070478435FF1F59
:103710006039FF1F013803280BD872B6074B53F8E6
:10372000203043B100205B680130002BFBD162B632
:103730007047002070471846F9E700BFD835FF1FD3
:10374000F0B472B61A491B4E012311F8014B194F00
:103750009A00240742F0010505D556F8324064B1BD
:1037600056F83520BAB10133052BEED162B6124BB3
:1037700000221A70F0BC00F01BBD0F4C0F4D2178D9
:1037800047F8325007EB431308304A1E5860227046
:1037900062B6F0BC70470849094B0A7847F83530E3
:1037A00007EBC5030830013A58600A7062B6F0E7CB
:1037B0008C7800000000FF1F0136FF1F88004000CA
:1037C000C8004000431E032B1DD81B4A400140F097
:1037D000100030B4104472B6184CE25C032A1BD8B7
:1037E000DFE802F00212151703220D88E25410F0F0
:1037F000080F14BFC823882343EA05430831036038
:10380000416062B630BC704708300222EDE7052205
:10381000EBE708300422E8E7094A52F8230038B100
:10382000084A52F82300416042F8231062B6E9E7E3
:1038300042F82310034AF7E70000FF1F1036FF1F6E
:10384000D835FF1FE835FF1F2DE9F04FDFF804A33F
:10385000DFF804B387B044E0A94F4FEA930807EBC1
:10386000C809013ED9F8042003F00803F6B2A2F11A
:10387000080003F0FF04002B40F0FE8057F83830BA
:103880001B0C99B222F8081C002B00F0EC809D4B19
:1038900022F8064C42F8044C53F82620002A00F087
:1038A0002B82994D55F826305860984C45F82600E3
:1038B00034F81630194424F8161000F059FC00288A
:1038C00000F01382924A934B19F0080F00F10800A0
:1038D00018BF1346C9F8040047F8383008238AF89F
:1038E00000309AF80040E4B260071AD58A4B1B7882
:1038F000A3B18A490A7802F0FF0322B1013BDBB28F
:103900000B7003B900BE86490A7802F0FF032AB1A2
:10391000013BDBB20B70002B00F0BD8104238AF861
:10392000003004F0080303F0FF02002B00F0C88011
:103930009BF80030DBB21E098ED19C08704F57F8FF
:10394000342007EBC401C2F38302013A49680C2A10
:1039500000F28580DFE802F07979838383838383B3
:1039600042838383070008686E4B6F4D0193684B59
:103970004A686E4E47F8343081B240F28164694B38
:103980006A60286000220120A1421A603A61BA618F
:10399000307000F2E380B1F5D06F80F02782B1F58E
:1039A000817F00F0E08100F2C381802900F036823F
:1039B000822940F0DE81A9885D4B01F07F01042956
:1039C00000F2D8815B4C89000B44227062701A7837
:1039D000930740F122832070022023E2514B019390
:1039E0001A683AB3544B514E5449188834780D78BC
:1039F0004028864645F0020828BF4FF0400E002CB4
:103A000084F001043470CEEB00000CBF8824C8247D
:103A100007EBC80680B285F0010544EA0E447260E7
:103A2000188047F8384072440D70002800F0B780C5
:103A3000019B1A603C4B1A88B2F5A06F0FD1002190
:103A40009A7859703E4B1A7009E0374A108842F252
:103A50002102904200F0A8802D4A47F83420394ACC
:103A6000012313703AE72A4A2A4B19F0080F18BFAE
:103A7000134647F8383031E700F09AFB324A3349B1
:103A800052F82630002B00F03B8158688C5D42F8DC
:103A9000260003F10802C9F80420032C05D8DFE84A
:103AA00004F02C02292602228A551A8819F0080FE0
:103AB0000CBF8823C82343EA024347F838300DE798
:103AC000E00700F1EB80210600F12881A20706D56E
:103AD0001F4A204913780220DBB213700870E306F6
:103AE00002D51C4B10221A7007B0BDE8F08F0422DB
:103AF0008A55DAE705228A55D7E703228A55D4E7A3
:103B00000000FF1F8435FF1F3035FF1F6039FF1F86
:103B1000C8004000880040000C36FF1F9535FF1F8D
:103B20001436FF1F2C35FF1FF835FF1F9435FF1F7C
:103B3000C02007400436FF1F4035FF1F0036FF1F1F
:103B40009820074094200740D835FF1F1036FF1FEC
:103B500088200740802007409020074042F221043F
:103B6000A14200F0948043D8B1F5086F00F0A8811D
:103B7000B1F5106F40F0FD80B84AB94CA9781170CA
:103B800004F1800503E00834AC4200F09E81236A12
:103B90001906F8D5606A083800F00AFBF3E7BEF1B1
:103BA000400F18BF002243E7AE4ACD1D11F8013B7C
:103BB00002F8013FA942F9D1AB4A1268862A00F007
:103BC0001181AA49AA4E0A78307882F001050028AE
:103BD00042F002020D700CBF8821C82147F8321054
:103BE00007EBC20280F0010000213070516033E722
:103BF00042F22124A14240F0FE81DFF8BCC29D4B7D
:103C00009D49AC78DCF800501D6081460C700020A6
:103C1000029080468446044694490D7845F0020E91
:103C200007EBCE03B9F1000F5C600CBF8824C824F9
:103C300044EA080385F0010447F83E3032700C7006
:103C4000DFF81CE28A4BDFF82482002840F09880DD
:103C5000BCF1400F1BD144F0020407EBC403029FE8
:103C6000DFF8FCE15F60002A40F09F80020442F030
:103C7000880207444EF8342086F800900D703B46C9
:103C8000402804D100207D4A019910800B607C4AB5
:103C900001231370E3E600F0F7FB3FE6704B784832
:103CA00072491A614FF0020E80F800E0754F0A70F9
:103CB000754919609960754E754D764C9A610D2164
:103CC0003970FF213170DFF8F4E129702270724DF4
:103CD000724A8EF800109F27012406F8047C5D606C
:103CE0000470DA6007B0BDE8F08F6D4A47F838001D
:103CF000137801331370F1E543F82600694DD4E5DC
:103D00008B5D032B67D801A252F823F0DD38000049
:103D1000DD380000613D00005B3D000059495C4B0F
:103D200080220D2008701A70A2077FF5D8AECFE66A
:103D300040F20232914240F05681A98801F07F01A1
:103D4000042916D86A88A2B94E4C89000C448146D1
:103D5000217841F00201217059E701238B55BDE51F
:103D600000238B55BAE5A98801F07F01042940F2B0
:103D70004781444B0F221A70414A012313706EE6AB
:103D800040287FF668AF44F002040EEBC401029EA7
:103D90004E60AAB1444A83F800903346403888F810
:103DA000005040334EF834206DE70204029B86F841
:103DB000009042F0C8020D7003444EF834205FE7D3
:103DC00083F80090029B304A88F800504038403316
:103DD0004EF8342057E719F0080F0CBF02230323D5
:103DE0008B557BE5314A0F211170EAE6304A546861
:103DF000002CBED06888B5F804E003E00C325468AB
:103E0000002CB6D013888342F8D153887345F5D17E
:103E1000000A03280CBF2078108903E0254C0220FB
:103E200022706270EA88824280F00C810F490D781E
:103E3000402A45F0020E944607EBCE0028BF4FF013
:103E4000400C04EB0C0344600293CCEB02004FEAFD
:103E50000C484FF001090022C824E9E60C36FF1F88
:103E60000000FF1F6739FF1F6839FF1F0036FF1F63
:103E70009435FF1F7039FF1F2436FF1F4035FF1F89
:103E800094200740C0200740880040008820074059
:103E900080200740982007404435FF1F9835FF1FBA
:103EA0000136FF1F3035FF1FC80040009535FF1F4A
:103EB000907800000436FF1F2835FF1F8C20074034
:103EC000684A694C12782270ACE76849684B694AC5
:103ED00002916949694C6A4D039405964FF00009B7
:103EE00088461C4616460495206828B1456800F0AF
:103EF0005FF92846002DF9D100232360049B306828
:103F00001A46002342F8293028B1456800F050F9DC
:103F10002846002DF9D100223260029A98F800302C
:103F20001146002241F8042B039A0291023B4FF004
:103F3000000122F81910032B07D8DFE803F0340240
:103F400034024FF0010388F8003009F10109B9F19A
:103F5000040F04F1040406F1040608F10108C3D1BA
:103F6000484B059EDFF83091DFF830810021197051
:103F7000012518F8013B09F8043B1A0718D4AC00D6
:103F800044F0020244F00304002347F8323047F8BB
:103F900034303D4B994505F10105EAD196F8009082
:103FA00089F0010233E64FF0000388F80030CCE7D7
:103FB00000F0DEF8AC0007EB451300F10802002822
:103FC00037D05A60314B47F8343000F0D1F844F024
:103FD000010307EBC30200F1080100B351602C4A52
:103FE00047F83320CCE7B1F5A06F7FF4C2AE0022D2
:103FF0004FF001090BE642F221329142F7D0B8E6C8
:104000006A88002A7FF4B5AE224C89000C448146B0
:10401000217821F002012170F9E5022002E7194B15
:1040200044F001021B7847F83200164A013313703E
:10403000A6E7144B134A1B78AC00013347F8340051
:104040001370C2E74028844628BF4FF0400C04EBB1
:104050000C03CCEB00004FEA0C48029300224FF017
:104060000109D9E50C36FF1F0436FF1FE835FF1F95
:104070008435FF1FD835FF1F1036FF1F6039FF1F23
:104080003035FF1F0136FF1FD42007408800400055
:10409000C8004000C0200740C42007408C780000C2
:1040A0002DE9F041274C01F00FF8002204F18800BF
:1040B00023461A605A60083383424FF00001F8D15A
:1040C0002148224A0368DFF89CE0214E214D224F0F
:1040D000DFF894C0DFF8948043F480230360136812
:1040E00043F04073136003238EF80030A023337035
:1040F00002F5C922C4F3072300F528302B70803065
:10410000C4F3074310323B70240EFF230470134D99
:104110008CF80030124888F800301370012306F83C
:10412000AC3C4FF400140EF8441C7026102107F824
:104130002C3C2E70046082F8F810AEF1440EBDE8FD
:10414000F08100BF0000FF1F3480044000D8004011
:10415000402107409C200740B020074035E400E0A4
:1041600004E100E044210740802007408820074008
:1041700072B60D480268B2FA82F30B2B10DC4FF0D6
:104180000041D94022EA0102026062B6074803EB0F
:10419000C303DB00C2180021C150104651607047B4
:1041A00062B60020704700BF9C13FF1FD003FF1FA3
:1041B0000D4B0E4AC31AA2FB03231B090B2B0CD871
:1041C0000B4A127852B972B60A484FF000410268A1
:1041D00021FA03F31A43026062B67047064A127866
:1041E000002AF0D0FFF7ACBAD003FF1F398EE338B6
:1041F0000136FF1F9C13FF1F0C36FF1F38B50F4DF4
:10420000286878B143880288C118013393420C7A38
:1042100002D24380204638BDFFF7CAFF0023204664
:104220002B6038BD064B1B782BB10320FFF754FAE7
:1042300028600028E6D14FF0FF3038BD2036FF1F40
:104240000C36FF1F10B5094C206818B1438818447C
:10425000007A10BD064B1B782BB10320FFF73CFA08
:1042600020600028F2D14FF0FF3010BD2036FF1F34
:104270000C36FF1F044B054A1B6890881BB11A8837
:104280005B88D31A184470472036FF1F6039FF1F20
:104290000B4B1B789BB110B50A4C206848B1FFF757
:1042A00087FF002303202360FFF716FA30B1FFF7E2
:1042B0007FFF0320FFF710FA0028F8D110BD7047E8
:1042C0000C36FF1F2036FF1F2DE9F04FDFF8F89066
:1042D00083B0012289F80020019169B3DFF8EC80F6
:1042E000354F019E8346D8F80000B0B3334D448863
:1042F000C4F14001B14228BF314604EB010E002257
:104300001FFA8EFE2A70761AA0F802E000F1080269
:1043100051B1013C224459441BF8014B02F8014FB2
:104320008B45F9D1B0F802E0BEF13F0F0BD8244A1B
:1043300005211170002ED6D10198002389F8003094
:1043400003B0BDE8F08F4022028001460420FFF751
:1043500039FA0022C8F80020E9E73A7822B3194C6C
:10436000164D4FF0010A07E0013C16D02A78A2B999
:1043700000F01AFB3A78BAB10420FFF7CBF907280E
:10438000F2D889F800A0FFF7F3FEC8F80000002873
:10439000ADD10D4B013C1870E8D101234FF0FF3037
:1043A0002B7003B0BDE8F08F00234FF0FF3089F889
:1043B000003003B0BDE8F08F0C36FF1F1C36FF1F26
:1043C0001436FF1F214801001536FF1F1836FF1F46
:1043D00000B583B002AB012103F8010D1846FFF7C9
:1043E00073FF03B05DF804FB38B50E4D0E4C286822
:1043F0000123237028B1408800232370C0F14000BE
:1044000038BD0A4B1B7813B90020207038BD04203A
:10441000FFF780F90728F7D8FFF7AAFE28600028E1
:10442000E9D1F1E71836FF1F1536FF1F0C36FF1FC5
:10443000F8B5114B1B788BB1104E114D3468012724
:104440002F7064B10F4A63880027177021462380BC
:104450000420FFF7B7F9376000232B70F8BDFFF792
:1044600087FE084B28B1014604201C70FFF7AAF90B
:10447000F2E71F70F0E700BF0C36FF1F1836FF1F72
:104480001536FF1F1436FF1F38B50E4B1B7873B956
:104490000D4C216861B103F0FF054B880B800420AF
:1044A000FFF790F9256038BD084B01221A7038BD1E
:1044B000FFF75EFE0028F7D00146BDE83840042033
:1044C000FFF780B91536FF1F1836FF1F1436FF1F80
:1044D000F0B572B699B902688AB103790F2B0ED87C
:1044E000284C218841FA03F5ED070AD503F1007342
:1044F00003F59063B2EB431F03D162B6F0BD214CCC
:104500002188002341FA03F212F0010207D001339F
:10451000102BF7D162B6002203710260F0BD0125B5
:104520009D402943218062B6174E184D184FDFF881
:1045300068E0D9B20171346844F0020434602C6838
:1045400044F002042C60A6F5802640F28244A5F5D2
:10455000802503F100733C6003F59063223E243D07
:104560000C4C8EF800105B013170297021700360D3
:104570001A605A609A60DA601A615A619A61DA6167
:10458000F0BD00BF2636FF1F408004403C80044041
:10459000008000401F8000401A80004003790F2BEC
:1045A00012D80A4A10B4137072B6094904790A88FD
:1045B0000123A34022EA03030B8062B610220023EA
:1045C0005DF8044B02710360704700BF1A80004021
:1045D0002636FF1F2DE9F0438C688BB0ECB1002527
:1045E000064689462F462B46212201A9484600F05F
:1045F0009FF93268202C234628BF2023D2F804805C
:1046000001A91A4630461D44E41AC0470744002C4D
:10461000E9D138460BB0BDE8F0832746F9E700BF83
:1046200000B5064A036812885B6883B001A9ADF83B
:1046300004200222984703B05DF804FB5478000080
:10464000F0B507468BB0002A33D0012A08BF0A22F2
:1046500051B3212400E0F4B2B1FBF2F502FB1511D5
:10466000C8B2092900F1300198BFC8B20AA988BFB1
:104670003730214488BFC0B201F8240C661E294699
:10468000002DE8D133B1013CE4B20AAB23442D2222
:1046900003F8242C3B6801AA11195B683846C4F161
:1046A000220298470BB0F0BD30228DF8252021243E
:1046B000E8E70368C9B21B6898470BB0F0BD00BFBC
:1046C0000029BABF49422D2300230A22FFF7B8BFB1
:1046D0002DE9F04357EC106B85B005460C4610EE03
:1046E000102A3B4610EE100A394601F0BFFA0028A6
:1046F00040F0B28027F00049304649464FF0FF3283
:10470000594B01F0B3FA90B9304649464FF0FF32A9
:10471000554B01F08DFA50B92B6854495B68284617
:10472000032298478046404605B0BDE8F0834FF02D
:1047300060424F4B3046394601F08EFA002872D164
:104740004FF060424B4B3046394601F067FA002883
:1047500069D1002200233046394601F05FFA002873
:1047600064D18146002C67D0434900204FF00008F7
:104770003BA3D3E9002308F1010800F0DDFF5FFA55
:1047800088F39C42F4D802460B463046394600F086
:1047900021FE0F46064601F0A7FA804600F056FFBC
:1047A00002460B463046394600F012FE4B4606469E
:1047B0000F460A2241462846FFF742FF0F2C28BF2A
:1047C0000F2404F101092E2380465FFA89F98DF840
:1047D000003001240022294B3046394600F0ACFF5E
:1047E0000F46064601F080FA04AB2344C0B200F144
:1047F000300203F8102C00F039FF02460B46304619
:10480000394600F0E5FD0134E4B2A14506460F4605
:10481000E0D12B684A465B6828466946984740467F
:1048200005B0BDE8F0832B68154977E707F1004331
:104830001F464FF0010995E700220F4B30463946DD
:1048400000F0C8FD01F050FA4B4601460A22284606
:10485000FFF7F6FE804666E72B680A495EE700BF71
:10486000000000A09999B93FFFFFEF7F607800003A
:10487000FFFFEF41FFFFEFC10000E03F00002440D9
:104880005C7800005878000010B50446006801F01C
:104890008DFA204610BD00BF38B543688B4201D366
:1048A000012038BD0D4604460131006801F0F4FDD9
:1048B0000028F6D0A36884E82100002BF0D1037013
:1048C000EEE700BFF8B50446154632B9036803B1F8
:1048D0001A700023A3602046F8BD0E461146FFF76C
:1048E000DBFF074648B9206810B101F05FFA276086
:1048F00000236360A3602046F8BDA56031462068B0
:1049000001F0D4FFE7E700BF38B500230446036099
:1049100043608360037341B108460D4602F030F8EE
:10492000294602462046FFF7CDFF204638BD00BF8E
:10493000B2B1A9B138B584689C420ED9E41A013AE3
:104940000D469442016828BF144619442246284661
:1049500002F084F800232B5538BD00230B7038BDBE
:10496000704700BF08B5FCF74BFEFCF725FD00F0D3
:104970001BF8FAE701F012BA01F018BAFFF788BC89
:10498000FFF760BCFFF73ABCFFF774BCFFF750BD00
:10499000FFF72ABD08461146FFF796BC0846FFF709
:1049A00017BD00BF704700BF10B5224C237803B17C
:1049B00010BD01232370FFF75DFCA0B900F062F881
:1049C000B8B900F0F5F8D0B900F088F9E8B900F00E
:1049D00001FA00BB00F07AFA18BB00F0F3FA30BB22
:1049E0000023237010BDFFF7DDFF00F04BF8002817
:1049F000E7D000F0ABFB00F0DBF80028E4D000F0DB
:104A0000A7FB00F06BF90028E1D000F0A3FB00F059
:104A1000E1F90028DED000F09FFB00F057FA0028F3
:104A2000DBD000F09BFB00F0CDFA0028D8D000F0DE
:104A300097FBD5E72836FF1FF0B44D1E2E46002405
:104A400000E00134B0FBF2F302FB1300092800F18F
:104A500030078ABF3730F8B2C0B206F8010F1846E7
:104A6000002BEED10A1953704CB1107815F8016F74
:104A700028700133E01A834202F80169F5DB084629
:104A8000F0BC7047054A064B10781B78C0B2DBB209
:104A9000984238BF4030C01A704700BF3036FF1F01
:104AA0003136FF1FF0B4384B1A7912F0300F2CD08A
:104AB00072B6997D01F0FF0200293DD062B6334FF6
:104AC000334938780D78334E1C46C0B2EDB2431CE2
:104AD000402BE17928BF0023AB4202F1FF32C9B27B
:104AE0001CBFF154184612F0FF02F0D12A4B1B688C
:104AF000C2B23A704BB1A84236BFC5F14005401B67
:104B000040192728C4BF01221A701F49CA78D2B29F
:104B1000150616D452060DD51B4B1B795B0609D51D
:104B20001E4B1F491B6800220A7003B11A70164BF6
:104B30003C22DA70F0BC70474022D9795A7462B6D0
:104B4000E3E70B791C06E5D5164B174E1C78337836
:104B5000E4B2DBB29C420ED0144D01E0A3420AD075
:104B60000133402B28BF00230879E85CC0B2C8712C
:104B7000087D0728F2D9DBB2034933700B79180698
:104B800044BF7C23CB70C5E700A006403036FF1F32
:104B90003136FF1F7436FF1F2C36FF1FB836FF1F3C
:104BA000B436FF1FBC36FF1FB536FF1F3436FF1F5C
:104BB000054A064B10781B78C0B2DBB2984238BF6A
:104BC0004030C01A704700BF3037FF1FC536FF1F87
:104BD000F0B4384B1A7912F0300F2CD072B6997DA0
:104BE00001F0FF0200293DD062B6334F33493878D7
:104BF0000D78334E1C46C0B2EDB2431C402BE17918
:104C000028BF0023AB4202F1FF32C9B21CBFF154EE
:104C1000184612F0FF02F0D12A4B1B68C2B23A705C
:104C20004BB1A84236BFC5F14005401B40192728AB
:104C3000C4BF01221A701F49CA78D2B2150616D411
:104C400052060DD51B4B1B795B0609D51E4B1F4920
:104C50001B6800220A7003B11A70164B3C22DA70EE
:104C6000F0BC70474022D9795A7462B6E3E70B79F9
:104C70001C06E5D5164B174E1C783378E4B2DBB230
:104C80009C420ED0144D01E0A3420AD00133282BE0
:104C900028BF00230879E85CC0B2C871087D0728E6
:104CA000F2D9DBB2034933700B79180644BF7C2379
:104CB000CB70C5E700B006403037FF1FC536FF1F79
:104CC000F036FF1FC036FF1F3437FF1FC436FF1FEB
:104CD0003837FF1F3137FF1FC836FF1F054A064B05
:104CE00010781B78C0B2DBB2984238BF4030C01A8F
:104CF000704700BF4037FF1F4137FF1F30B42B4BB9
:104D00001A7994061FD52A48DA790378294901339C
:104D10003F2B0978C8BF00238B42D2B203D0264C68
:104D2000D9B2E2540170254A116861B1244A12785F
:104D3000D2B2934236BFC2F140029B1A9B18272B76
:104D4000C4BF01230B70194AD378DBB2180611D403
:104D50005A060DD5154B1B795B0609D5194B1A4917
:104D60001B6800220A7003B11A70104B2C22DA70F3
:104D700030BC704711790906EAD5144910480C78FF
:104D80000178C9B28C420DD04A1C272A84BF002169
:104D90000A460F4D054C98BFD1B2AA5CD2B2E2715F
:104DA0000170D5E76C21D170D2E700BF00C006408A
:104DB0004037FF1F4137FF1F6C37FF1F3C37FF1F76
:104DC000AD37FF1FB037FF1FAC37FF1FB437FF1FD2
:104DD0004437FF1F054A064B10781B78C0B2DBB280
:104DE000984238BF4030C01A704700BFBC37FF1F21
:104DF000BD37FF1F30B42B4B1A7994061FD52A48B4
:104E0000DA790378294901333F2B0978C8BF002399
:104E10008B42D2B203D0264CD9B2E2540170254A5B
:104E2000116861B1244A1278D2B2934236BFC2F1FE
:104E300040029B1A9B18272BC4BF01230B70194AF1
:104E4000D378DBB2180611D45A060DD5154B1B7951
:104E50005B0609D5194B1A491B6800220A7003B179
:104E60001A70104B2C22DA7030BC70471179090689
:104E7000EAD5144910480C780178C9B28C420DD09B
:104E80004A1C272A84BF00210A460F4D054C98BFB3
:104E9000D1B2AA5CD2B2E2710170D5E76C21D170B7
:104EA000D2E700BF00D00640BC37FF1FBD37FF1F51
:104EB000E837FF1FB837FF1F2938FF1F2C38FF1FA7
:104EC0002838FF1F3038FF1FC037FF1F054A064B29
:104ED00010781B78C0B2DBB2984238BF4030C01A9D
:104EE000704700BF3838FF1F3938FF1F30B42B4BD5
:104EF0001A7994061FD52A48DA79037829490133AB
:104F00003F2B0978C8BF00238B42D2B203D0264C76
:104F1000D9B2E2540170254A116861B1244A12786D
:104F2000D2B2934236BFC2F140029B1A9B18272B84
:104F3000C4BF01230B70194AD378DBB2180611D411
:104F40005A060DD5154B1B795B0609D5194B1A4925
:104F50001B6800220A7003B11A70104B2C22DA7001
:104F600030BC704711790906EAD5144910480C780D
:104F70000178C9B28C420DD04A1C272A84BF002177
:104F80000A460F4D054C98BFD1B2AA5CD2B2E2716D
:104F90000170D5E76C21D170D2E700BF00A00E40B0
:104FA0003838FF1F3938FF1F6438FF1F3438FF1FA0
:104FB000A538FF1FA838FF1FA438FF1FAC38FF1FFC
:104FC0003C38FF1F054A064B10781B78C0B2DBB295
:104FD000984238BF4030C01A704700BFB438FF1F36
:104FE000B538FF1F30B42C4B5A6894021FD52B489C
:104FF000DA6803782A4901333F2B0978C8BF0023B8
:105000008B4204D0274CD2B2D9B2E2540170264A66
:10501000116861B1254A1278D2B2934236BFC2F10B
:1050200040029B1A9B18272BC4BF01230B701A4AFE
:105030009368180202D55268110211D45A020DD594
:10504000154B5B685B0209D5194B1A491B68002296
:105050000A7003B11A70184B00221A6030BC7047F6
:10506000164A124910780A78D2B290420DD0013215
:10507000272A84BF00200246114D074C98BFD0B2AA
:10508000AA5CD2B2E2600870D8E70E480A4A00244F
:10509000012104601160D1E700400C40B438FF1FCB
:1050A000B538FF1FE038FF1FB038FF1F2139FF1F41
:1050B0002439FF1F2039FF1F580188432839FF1F5B
:1050C000B838FF1F5C01884310B584B072B6FDF795
:1050D00041FE184A184B19491160702280211A703C
:1050E0001A46197013781B06FCD5154B1C68FDF782
:1050F0004BFE62B6134B9C429CBF04EB84046400DD
:105100002046114C01A90A22FFF796FC01A920466E
:10511000002311F8012B01333AB10A2B20F8022F9A
:10512000F7D11623237004B010BD5B00DBB22370EF
:1051300004B010BD0400024000000240000007411E
:105140000C0002407F9698003C14FF1F704700BF80
:10515000704700BF704700BF704700BF704700BF77
:10516000704700BF2DE9F0432DED028B8BB055EC5D
:10517000104B00F057F8294BB0EE408AF0EE608AF1
:1051800093F90060731C12D022462B462046294614
:1051900000F06CFD074650B94FF000084FF00009D1
:1051A0002046294642464B4600F038FD40B9B0EE55
:1051B000480AF0EE680A0BB0BDEC028BBDE8F08344
:1051C000174B08970122CDE90445CDE902458DE84A
:1051D0000C00B6B142464B464046494600F0D6FB6D
:1051E000022ECDE906010ED100F0AAFD21230360B5
:1051F000089B73B99DED060B0BB0BDEC028BBDE8AF
:10520000F083CDE90689684600F0DCF80028EFD18C
:10521000EAE700F095FD089B0360EBE75214FF1FDF
:10522000E47800002DE9F041654955EC104B0E463D
:105230002940B14200F09780002D2B4610EE102A35
:1052400074DD2F157FD0A7F2FF37C3F31303F907DF
:1052500043F4801365D403EBD27100260B447F1016
:105260005200B64616204FF400110EEB01049C428A
:105270004FEAD2754FEA420203DC1B1B04EB010E1E
:105280000E44013805EB43034FEA5101EDD184464A
:1052900020244FF0004109E020D003EBD275013CFF
:1052A0004FEA51012B444FEA420220D09E4501EBC8
:1052B0000C05F1DA002D05EB010C09DBF0469542F7
:1052C000CEEB030300D9013B521B0844C646E4E77A
:1052D000BCF1000FF2DB0EF10108F0E795421ED899
:1052E000002D05EB010C50DB98460023ECE713433F
:1052F00004D0421C4DD000F0010318444008711046
:10530000F30701F17F5101F5001148BF40F0004063
:1053100001EB0753024643EC102BBDE8F0817346C6
:10532000BBE75B0003EBD273520094E725F000412A
:10533000214328D0ADBB2F46D30A153F5205002B81
:10534000FAD0DD0228D4002100E001465B00DC0237
:1053500001F10100F9D5C0F1200422FA04F423433D
:105360007F1A82406FE710EE102A2B4610EE100ACB
:10537000294600F0E1F922462B4600F02BF841ECDB
:10538000100BBDE8F081BDE8F081BCF1000FA2DA9E
:10539000AAE701362046B2E720244FF0FF31002073
:1053A000DBE710EE102A2B462046294600F010F8C5
:1053B00002460B4600F0EAFA41EC100BBDE8F08122
:1053C0000000F07F0020704781F0004102E000BF44
:1053D00083F0004330B54FEA41044FEA430594EAB5
:1053E000050F08BF90EA020F1FBF54EA000C55EAF0
:1053F000020C7FEA645C7FEA655C00F0E2804FEAC1
:105400005454D4EB5555B8BF6D420CDD2C4480EAA2
:10541000020281EA030382EA000083EA010180EAD2
:10542000020281EA0303362D88BF30BD11F0004F20
:105430004FEA01314FF4801C4CEA113102D0404256
:1054400061EB410113F0004F4FEA03334CEA133391
:1054500002D0524263EB430394EA050F00F0A780A9
:10546000A4F10104D5F1200E0DDB02FA0EFC22FAA4
:1054700005F2801841F1000103FA0EF2801843FA98
:1054800005F359410EE0A5F120050EF1200E012A89
:1054900003FA0EFC28BF4CF0020C43FA05F3C018C7
:1054A00051EBE37101F0004507D54FF0000EDCF140
:1054B000000C7EEB00006EEB0101B1F5801F1BD3E9
:1054C000B1F5001F0CD349085FEA30004FEA3C0CED
:1054D00004F101044FEA445212F5800F80F09A80E3
:1054E000BCF1004F08BF5FEA500C50F1000041EBE7
:1054F000045141EA050130BD5FEA4C0C404141EBEB
:10550000010111F4801FA4F10104E9D191F0000F11
:1055100004BF01460020B1FA81F308BF2033A3F194
:105520000B03B3F120020CDA0C3208DD02F1140C8B
:10553000C2F10C0201FA0CF021FA02F10CE002F1C6
:105540001402D8BFC2F1200C01FA02F120FA0CFCBF
:10555000DCBF41EA0C019040E41AA2BF01EB045108
:10556000294330BD6FEA04041F3C1CDA0C340EDC06
:1055700004F11404C4F1200220FA04F001FA02F349
:1055800040EA030021FA04F345EA030130BDC4F107
:105590000C04C4F1200220FA02F001FA04F340EAFC
:1055A0000300294630BD21FA04F0294630BD94F0AD
:1055B000000F83F4801306BF81F480110134013D94
:1055C0004EE77FEA645C18BF7FEA655C29D094EA05
:1055D000050F08BF90EA020F05D054EA000C04BF83
:1055E0001946104630BD91EA030F1EBF002100206E
:1055F00030BD5FEA545C05D14000494128BF41F00D
:10560000004130BD14F580043CBF01F5801130BD70
:1056100001F0004545F0FE4141F470014FF00000FB
:1056200030BD7FEA645C1ABF194610467FEA655CAC
:105630001CBF0B46024650EA013406BF52EA03354E
:1056400091EA030F41F4002130BD00BF90F0000F3C
:1056500004BF0021704730B54FF4806404F1320478
:105660004FF000054FF0000150E700BF90F0000F31
:1056700004BF0021704730B54FF4806404F1320458
:1056800010F0004548BF40424FF000013EE700BF28
:1056900042004FEAE2014FEA31014FEA02701FBFB8
:1056A00012F07F4393F07F4F81F06051704792F08A
:1056B000000F14BF93F07F4F704730B54FF4607404
:1056C00001F0004521F0004120E700BF50EA01024F
:1056D00008BF704730B54FF000050AE050EA0102FC
:1056E00008BF704730B511F0004502D5404261EB6C
:1056F00041014FF4806404F132045FEA915C3FF4AD
:10570000DCAE4FF003025FEADC0C18BF03325FEA45
:10571000DC0C18BF033202EBDC02C2F1200300FAFA
:1057200003FC20FA02F001FA03FE40EA0E0021FA1F
:1057300002F11444C1E600BF70B54FF0FF0C4CF409
:10574000E06C1CEA11541DBF1CEA135594EA0C0FBF
:1057500095EA0C0F00F0DEF82C4481EA030621EAFA
:105760004C5123EA4C5350EA013518BF52EA033535
:1057700041F4801143F4801338D0A0FB02CE4FF0E7
:105780000005E1FB02E506F00042E0FB03E54FF017
:105790000006E1FB03569CF0000F18BF4EF0010E0F
:1057A000A4F1FF04B6F5007F64F5407404D25FEA0B
:1057B0004E0E6D4146EB060642EAC62141EA5551BE
:1057C0004FEAC52040EA5E504FEACE2EB4F1FD0C00
:1057D00088BFBCF5E06F1ED8BEF1004F08BF5FEA7E
:1057E000500E50F1000041EB045170BD06F0004630
:1057F00046EA010140EA020081EA0301B4EB5C04DD
:10580000C2BFD4EB0C0541EA045170BD41F48011D4
:105810004FF0000E013C00F3AB8014F1360FDEBFF9
:10582000002001F0004170BDC4F10004203C35DAD5
:105830000C341BDC04F11404C4F1200500FA05F358
:1058400020FA04F001FA05F240EA020001F00042F9
:1058500021F0004110EBD37021FA04F642EB06016F
:105860005EEA430E08BF20EAD37070BDC4F10C0499
:10587000C4F1200500FA04F320FA05F001FA04F25D
:1058800040EA020001F0004110EBD37041F1000149
:105890005EEA430E08BF20EAD37070BDC4F1200554
:1058A00000FA05F24EEA020E20FA04F301FA05F2BC
:1058B00043EA020321FA04F001F0004121FA04F264
:1058C00020EA020000EBD3705EEA430E08BF20EA34
:1058D000D37070BD94F0000F0FD101F0004640006E
:1058E00041EB010111F4801F08BF013CF7D041EAF0
:1058F000060195F0000F18BF704703F000465200F4
:1059000043EB030313F4801F08BF013DF7D043EAC4
:105910000603704794EA0C0F0CEA135518BF95EA7A
:105920000C0F0CD050EA410618BF52EA4306D1D101
:1059300081EA030101F000414FF0000070BD50EA20
:10594000410606BF1046194652EA430619D094EAAA
:105950000C0F02D150EA013613D195EA0C0F05D194
:1059600052EA03361CBF104619460AD181EA0301E8
:1059700001F0004141F0FE4141F470014FF00000A0
:1059800070BD41F0FE4141F4780170BD70B54FF03B
:10599000FF0C4CF4E06C1CEA11541DBF1CEA1355BB
:1059A00094EA0C0F95EA0C0F00F0A7F8A4EB05049D
:1059B00081EA030E52EA03354FEA013100F0888094
:1059C0004FEA03334FF0805545EA131343EA12635D
:1059D0004FEA022245EA111545EA10654FEA002612
:1059E0000EF000419D4208BF964244F1FD0404F5CB
:1059F000407402D25B084FEA3202B61A65EB030527
:105A00005B084FEA32024FF480104FF4002CB6EBE3
:105A1000020E75EB030E22BFB61A754640EA0C0063
:105A20005B084FEA3202B6EB020E75EB030E22BFA3
:105A3000B61A754640EA5C005B084FEA3202B6EBE4
:105A4000020E75EB030E22BFB61A754640EA9C00A3
:105A50005B084FEA3202B6EB020E75EB030E22BF73
:105A6000B61A754640EADC0055EA060E18D04FEA31
:105A7000051545EA16754FEA06164FEAC30343EAD1
:105A800052734FEAC2025FEA1C1CC0D111F4801F9E
:105A90000BD141EA00014FF000004FF0004CB6E797
:105AA00011F4801F04BF01430020B4F1FD0C88BF36
:105AB000BCF5E06F3FF6AFAEB5EB030C04BFB6EB41
:105AC000020C5FEA500C50F1000041EB045170BD34
:105AD0000EF0004E4EEA113114EB5C04C2BFD4EB61
