:1000000000000320D101000021220000D9210000BE
:10001000D9210000D9210000D9210000D9210000F8
:10002000D9210000D9210000D9210000212200009F
:1000300021220000D921000021220000C921000056
:1000400021220000212200002122000021220000A4
:100050002122000021220000212200002122000094
:100060002122000021220000212200002122000084
:100070002122000021220000212200002122000074
:100080002122000021220000212200002122000064
:100090002122000021220000212200002122000054
:1000A000751C0000811C000021220000212200009C
:1000B0002122000021220000212200009D42000098
:1000C00021220000F949000021220000794F0000A0
:1000D0002122000091550000212200002122000071
:1000E0002122000021220000212200002122000004
:1000F00021220000212200002122000021220000F4
:1001000021220000212200002122000021220000E3
:1001100021220000952C0000212200002122000055
:1001200021220000212200002122000021220000C3
:1001300021220000212200002122000021220000B3
:100140002122000021220000DD5A000021220000AF
:100150002122000021220000212200002122000093
:1001600021220000212200008D1C0000212200001D
:100170002122000021220000212200002122000073
:100180002122000021220000212200002122000063
:1001900021220000212200001D6100002122000018
:1001A000212200002122000021220000991C0000D1
:1001B0002122000021220000212200002122000033
:1001C0002122000021220000212200002122000023
:1001D0005C4B4CF2205210B51A804DF628121A8052
:1001E00000BF00BF02F020F8574B4FF030621A609A
:1001F000564A9A60564ADA60564B4FF470021A60BB
:10020000554B564A1A60564A136813F4807304D14A
:1002100054490B604FF4A8531360534B1A781107DD
:1002200003D51A7842F008021A70504B5049AA229E
:100230001A70504A504B8B4204D252F8040F43F8C4
:10024000040BF8E74D4B4E4900228B4202D243F893
:10025000042BFAE74B494C4A002352F8230041F89B
:1002600023000133742BF8D1484B494A802103F80D
:10027000011B9342FBD1474B424A1A60464B8A22EC
:100280001A70A3F5805324225A70A0221A709A790A
:100290009207FCD59A79D406FCD4404A937903F0AE
:1002A0000C03082BFAD13E4B60221A7002331A78E5
:1002B000802AFCD1394B01221A715D225A719A7938
:1002C0009006FCD59979354A4906FBD5354B364918
:1002D00019600021596020231370937903F00C03F7
:1002E0000C2BFAD1314B324A1A60324B324A1A6027
:1002F00000225A60072243F8042C304AC3F80C2D20
:1003000062B602F059FB174B1B68DA0705D52C487B
:1003100002F05CF82B4B2C4A1A602C4B1B785B06C6
:1003200009D5284C284B22689A4204D1244802F06F
:100330004DF80023236006F0B3FB01F07BFF03F0D0
:10034000A1FBFEE70E20054030800440823F040000
:100350000100002B88ED00E0002008E0030000858C
:1003600010D0034014D0034002D0074000E0074003
:10037000E419FF1F348000003007FF1FE419FF1F3E
:100380006020FF1F0002FF1F0000000000E400E0EB
:1003900064E400E008ED00E0005006400040064044
:1003A00001E007404480044000000602048004404D
:1003B000C010070014E000E01FBF02000000202072
:1003C000FB8D53591CE00340A5C3945A00F007402D
:1003D000FFFFFFFFFFFFFFFFFFFFFFFFFFFFFFFF2D
:1003E000FFFFFFFFFFFFFFFFFFFFFFFFFFFFFFFF1D
:1003F000FFFFFFFFFFFFFFFFFFFFFFFFFFFFFFFF0D
:10040000FFFFFFFFFFFFFFFFFFFFFFFFDEF9FFFF23
:1004100010B5054C237833B9044B13B10448AFF33E
:1004200000800123237010BDE419FF1F00000000AD
:1004300038800000084B10B51BB108490848AFF3DD
:1004400000800848036803B910BD074B002BFBD0A0
:10045000BDE81040184700BF00000000E819FF1F6A
:1004600038800000E419FF1F000000002DE9F04172
:10047000384B1A7882B00646002A4AD1364A3749A4
:1004800012680092009A36480A60012102601970D1
:10049000012E56D9334FDFF8F880002406E001F032
:1004A00033F908F804002C46A64208D9FF2C386915
:1004B00004F10105F3D901F027F9A642F6D81B2172
:1004C00029482A4C03F024F900230A2231462848FF
:1004D00003F090FA264803F07DFA0621254803F040
:1004E00017F904F1100514F8011F214800230A220E
:1004F00003F080FA0121204803F00AF9A542F2D165
:100500001B4803F067FA1D4BF6B21E7002B0BDE83F
:10051000F081114A114B126801921968019A184C26
:100520000F481A60531A0A2B23600160B0D915498D
:10053000B3F57A7F0A60ABD2134B0022012E1A600A
:10054000A8D8084B186901F0DFF8104B187002B0FA
:10055000BDE8F081101BFF1F9C1BFF1F041AFF1F2B
:10056000141BFF1F581BFF1FF47500000F1AFF1FFD
:100570009C1CFF1F1076000044790000211BFF1F08
:100580000C1AFF1F081AFF1F1C1BFF1F401BFF1F19
:10059000101AFF1F38B50D4D04460B210C4803F00F
:1005A000B7F8284603F016FA13210A4803F0B0F80A
:1005B000214600231022284603F01CFA284603F0A7
:1005C00009FA054BE4431C6038BD00BF9C1CFF1FAB
:1005D0001876000024760000381BFF1F38B54FF452
:1005E0007A701A4C1A4D02F095F91021194803F04F
:1005F0008FF8204603F0EEF92021174803F088F821
:10060000204603F0E7F90121202002F045F94FF4DC
:100610007A7002F07FF90421284603F079F8204629
:1006200003F0D8F923210D4803F072F8204603F0B7
:10063000D1F90021202002F02FF92846042103F0EF
:1006400067F82046BDE8384003F0C4B99C1CFF1F82
:1006500070760000387600004C7600007876000056
:1006600070B5214E214C224D1D21304603F050F82B
:10067000204603F0AFF910211E4803F049F8204648
:1006800003F0A8F91D21304603F042F8204603F09C
:10069000A1F91721184803F03BF8204603F09AF916
:1006A00001211F2002F0F8F84FF47A7002F032F9BD
:1006B0000421284603F02CF8204603F08BF91A2178
:1006C0000E4803F025F8204603F084F900211F208E
:1006D00002F0E2F82846042103F01AF82046BDE8AB
:1006E000704003F077B900BF9C7600009C1CFF1F90
:1006F00070760000BC760000D0760000E87600003E
:100700002DE9F0415A4B5B4A1B6812685A4C5B4812
:1007100082B019210193019B9B1A236002F0F8FF1C
:100720000023216856480A2203F064F9544803F074
:1007300051F92368B3F57A7F07D9524D524E2B6891
:100740003268934204DB9A425ED002B0BDE8F08189
:100750001E214E484E4FDFF8548102F0D9FF484821
:1007600003F038F914214B4802F0D2FF06214A4821
:1007700002F0CEFF29684248013103F07BF90121E4
:10078000464802F0C5FF31683D4803F073F93C4824
:1007900003F020F91E213D4802F0BAFF384803F06B
:1007A00019F9FFF71BFF08213D4802F0B1FF396836
:1007B0003348A8FB01310A220023890903F01AF902
:1007C0001321384802F0A4FF2D4803F003F93868DC
:1007D00002F0A0F839682A48A8FB01310A22002358
:1007E000890903F007F914212F4802F091FF2448EA
:1007F00003F0F0F82B6822680133B2F57A7F2B60A2
:10080000A3D932689A42A0D1FFF72AFF204E274F82
:100810004FF4FA6002F07EF80024082120482C6092
:1008200002F076FF31681648A7FB01310A22234601
:10083000890903F0DFF813211A4802F069FF104814
:1008400003F0C8F8306802F065F831680C48A7FB7F
:1008500001310A222346890903F0CCF814211248F9
:1008600002F056FF064803F0B5F802B0BDE8F0818B
:100870009C1BFF1F081AFF1F3C1BFF1F0477000073
:100880009C1CFF1F1C1BFF1F3807FF1F2077000049
:100890003407FF1F407700005877000060770000A2
:1008A000647700007077000084770000D34D6210F9
:1008B0002DE9F041164E174D08234FF002084FF472
:1008C0001672042401064CBFC5F80080C6F80080EB
:1008D0004FF4167711460139FDD1DFF838C02C608E
:1008E00011460139FDD1DFF828E0346011460139A5
:1008F000FDD1013B13F0FF034FEA4000E2D1082392
:10090000CCF80030013FFDD1CEF80030BDE8F081D9
:1009100048F00F4044F00F402DE9F0478C4B1B7816
:1009200082B053B18B4B8C4A1B6801931168019BB9
:100930004AF6C8725B1A93420AD8884B1C7824B9CD
:10094000874E337853B90023337002B0BDE8F08787
:10095000844C237813B3FFF7D3FEEEE71A218248C5
:10096000824D02F0D5FE824803F034F82F78012F33
:100970002ED0022F69D0032F00F08C80042F00F0BE
:10098000A080082FDFD16878FFF704FE092179489D
:1009900002F0BEFE764803F01DF8D4E71A2176482F
:1009A00002F0B6FE724803F015F81A21734802F0FF
:1009B000AFFE6F4803F00EF81A216F4802F0A8FE50
:1009C0006B4803F007F801232370FFF799FEB4E7A3
:1009D00003216B4802F09CFE654802F0FBFF0B21EF
:1009E000684802F095FE33785B08ACD0664FDFF8BC
:1009F000C481A9464FF0020A01E058F804AF6348E9
:100A0000042102F085FE2146594803F033F80821FD
:100A10005F4802F07DFE99F8015019F8022F544802
:100A200002EB0525294603F025F8514802F0D2FFD4
:100A300029465FFA8AF027F8025F01F0D9FC337883
:100A40000134B4EB530FD8DB7DE704215148DFF8C4
:100A5000688102F05DFE6D784F480A2102F058FE71
:100A6000234629460A22424802F0C4FF39464B4831
:100A700002F04EFE08F10C041B2005F00101C0B28B
:100A800001F00AFFA0454FEA55053FF45CAF58F866
:100A9000040FF2E71021424802F03AFE6D78414817
:100AA000162102F035FE234629460A22304802F07C
:100AB000A1FF0221394802F02BFE2846FFF7F8FE7D
:100AC00041E70B21384802F023FE294802F082FF5B
:100AD0001321364802F01CFE33783278013A042A9A
:100AE000DBB22CD85F1E002F7FF72DAFDFF87C80A4
:100AF000DFF8C8A04FF0150900250421234802F0B3
:100B000007FE29461A4802F0B5FF0821204802F0E6
:100B1000FFFD18F8014F16482402214602F0AAFFF3
:100B2000134802F057FF013521465FFA89F001F0C2
:100B30005FFCBD42BFF607AF5AF8049FDDE72821EE
:100B40001B4802F0E5FD0A4802F044FFCEE700BF73
:100B5000341BFF1F9C1BFF1F001AFF1F181BFF1FCA
:100B6000211BFF1F201BFF1FB8770000101AFF1F5B
:100B70009C1CFF1F88780000247700009C770000F1
:100B8000D4770000D8770000221BFF1FE477000015
:100B9000EC770000F8770000007800000C78000087
:100BA00010780000247800003C78000048780000AD
:100BB0005C7800008479000074790000B47500004E
:100BC0002DE9F041164E174D10234FF002084FF457
:100BD0001672042401044CBFC5F80080C6F80080DA
:100BE0004FF4167711460139FDD1DFF838C02C607B
:100BF00011460139FDD1DFF828E034601146013992
:100C0000FDD1013B13F0FF034FEA4000E2D108237E
:100C1000CCF80030013FFDD1CEF80030BDE8F081C6
:100C200048F00F4044F00F4070B5012188B00846ED
:100C300001F046FE0121132001F042FE01211120A6
:100C400001F03EFE0121122001F03AFE01211F2099
:100C500001F036FE012120205F4D01F031FE05F14B
:100C60000C061B24E4B22046012101F029FE204697
:100C7000002101F011FEAE4202D055F8044FF1E719
:100C8000564D022405F11C0601E055F8044FE4B26C
:100C90000121204601F014FE20469FED510A01F08B
:100CA00055FD2046002101F0A3FBAE42EDD100210D
:100CB0000C2001F005FE0021182001F001FE494C36
:100CC0000021192001F0FCFD1A20002101F0F8FD9F
:100CD00004F11C05212001E054F8040FC0B20021EA
:100CE00001F0EEFDA542F7D13F4D152405F10C06AC
:100CF000E4B22046012101F0E3FD20469FED3B0ACE
:100D000001F024FDB54202D055F8044FF0E7002170
:100D1000432001F0D5FD00210E2001F0D1FD00217E
:100D20000F2001F0CDFD0021102001F0C9FD1020A1
:100D300001F0FEFC0C2001F01FF94FF4807001F06F
:100D40004FF92B4C2B4D2C482C4E002319464FF4B9
:100D500080722B7006F094F92168294A294813788B
:100D60003BB103789B0704D0236835685B1B182BC5
:100D700004D823685B1AB3F57A7FF0D9232122487F
:100D8000224D02F0C5FC224802F024FE236807939E
:100D9000204B079A1A604FF47A7001F0BBFD1E4B8E
:100DA0001E4C1869597BC0F85C42002301241C4A80
:100DB000C0F86022224602930093049466230194B3
:100DC000039500F011FC4FF47A7001F0A3FD20466A
:100DD000FFF7F6FE08B070BD74790000847900005A
:100DE00000004843D4750000B475000000401C4664
:100DF0009C1BFF1F211BFF1F101AFF1F5820FF1FE6
:100E0000801CFF1F981CFF1F94780000801A0600AA
:100E10009C1CFF1F001AFF1F581BFF1F6D040000C2
:100E2000250E00002DE9F04F594D2B7889B07BB984
:100E3000584A03200521537093701070D1705549A2
:100E400055484FF4807209B0BDE8F04F00F0FAB891
:100E5000052B17D14F4C514F0823237004264320F4
:100E6000C0B201F0F3F800280346B8BF00F1FF0359
:100E70001B12013E637004F8020F02D057F8040FF2
:100E8000EEE72B78062B2ED1454E1A20A6F10C0743
:100E90000024C0B201F006FD6400012808BF01343F
:100EA000B74202D056F8040DF3E700213D4802F0A6
:100EB0002FFC3D4802F08EFD364B3C485C70012211
:100EC00013211A7002F024FC374802F083FD092137
:100ED000374802F01DFC2146334802F0CBFD324872
:100EE00002F078FD2B78072BA9D12A4B0021202274
:100EF000102568460C461D70894606F0C1F801F0C1
:100F0000E5FC824601F0E2FC41F2873BCAEB0000BF
:100F1000584523D8DFF89C806F462126002503E042
:100F200058F8046F57F8044F0121084601F0B4FC4B
:100F3000F0B201F08BF820444DF825000021013576
:100F4000012001F0A9FC082DEAD1009C01F0BEFCB3
:100F5000CAEB0000584509F10109DBD96B46ADF138
:100F600004050C48002101E053F8044F94FBF9F408
:100F7000002C224601F10101B8BF04F1FF02121258
:100F80000829427045F8044F00F8024FECD156E7AB
:100F9000401BFF1F101AFF1F581BFF1FA4790000E2
:100FA000D0750000FC7700009C1CFF1F54790000E6
:100FB00068790000D47500000369D3F83801D3F8CC
:100FC0003431C01A704700BF0369D3F83411D3F825
:100FD0003821914208D2D3F83421511C1A44C3F865
:100FE000341192F8300070474FF0FF30704700BF67
:100FF0000369D3F83411D3F8382191423DBFD3F8B7
:1010000034219B1893F830004FF0FF30704700BF39
:10101000704700BF0369D3F84422B2F5817F03D93A
:101020000123037100207047D3F8442210B49C18A8
:101030000132C3F8442284F83C1101205DF8044BCE
:10104000704700BFF0B40569D5F84432B3F5817F2D
:1010500020D8D5F84462D5F84442C6F581760136E9
:10106000964205F59E7302D20127324607714AB1B6
:10107000013C23448D1811F8014B03F8014FA9429C
:10108000F9D10569D5F844321344C5F84432104605
:10109000F0BC704701230371F0BC0020704700BF13
:1010A00038B503690A4A026093F84822022A0446C6
:1010B00001D0204638BDD3F86452002DF9D028461F
:1010C00002F06CFC284602F0E7FC204638BD00BF69
:1010D000BC7900002DE9F04F83B0002B40F264553D
:1010E00040F2647440F2035740F2037840F2032662
:1010F00002BF2F46A0464FF419769DF830E041B963
:10110000541EE4B2052C20D98946484603B0BDE8F8
:10111000F08F012930D1052A38D189460C469246F4
:1011200005469B46BEF1000F1CD090F84B2290F86C
:101130004A32002A0CBF00220222072B12D8DFE815
:1011400003F0B876818C97A2AD6B5F4D15F80490D3
:10115000B9F1000FD9D00C46924605469B46BEF128
:10116000000FE2D14CBB0AF1FF33052B1DD8DFE89D
:1011700003F04C47423D1C38022903D132B94FF0ED
:101180000109CBE7032901D1072AF8D04FF0000964
:10119000484603B0BDE8F08F032C06D1BAF1070F23
:1011A00003D14A4A4A4B16601E60484685F84AA257
:1011B00085F84BB203B0BDE8F08F012C07D1BAF12E
:1011C000050FF2D1434A444B16601E60EDE7022C36
:1011D000E2D1BAF1000FE8D1404A414B17601F60DD
:1011E000E3E7404A404B16601E60DEE73F4A404B53
:1011F00017601F60D9E73F4A3F4B16601E60D4E777
:101200003E4A3F4B16601E60CFE73E4A3E4BC2F857
:101210000080C3F80080C8E711463820019201F031
:101220004FFB019A3920114601F04AFB9AE711461B
:101230000820019201F044FB019A0720114601F0B9
:101240003FFB8FE711461120019201F039FB019A13
:101250001020114601F034FB84E711461220019260
:1012600001F02EFB019A1320114601F029FB79E7CA
:1012700011462220019201F023FB019A2120114600
:1012800001F01EFB6EE711462620019201F018FBCB
:10129000019A2520114601F013FB63E71146302027
:1012A000019201F00DFB019A2F20114601F008FB7D
:1012B00058E711460420019201F002FB019A032035
:1012C000114601F0FDFA4DE7D479000028D0044022
:1012D0002CD004402CB0044028B00440349004408A
:1012E0003090044024C0044020C0044064D0044036
:1012F00060D004400CA0044008A0044004A00440B6
:1013000000A004400CC0044008C00440F8B5C36805
:101310001B789B0610D483680D4680211970C36822
:101320001221197090F84932012B044606D08AB96F
:1013300080F848220120F8BD0020F8BD1A4675B992
:10134000744B4FF080711960022A0FD0012084F88D
:101350004802F8BD531E012BF1D90120F8BD012D23
:1013600048D16C4B4FF000711960EDE7D4F864621E
:10137000002E00F090803379202B2ED0002D40D10C
:1013800032686549938B654F43F008039383327944
:10139000531102F110009B0041F8207003F16043EB
:1013A00003F56143012102F01F0201FA02F23168E4
:1013B0001A608B8B43F002038B83337903F18043F4
:1013C00003F5043392221D701A700022022384F860
:1013D0005A2284F848320120F8BD304602F0DEFA85
:1013E000304602F059FB00230120C4F8643284F82F
:1013F0004802F8BD022D59D1494B4FF48061196064
:10140000A2E7012D24D132684349938B454F43F025
:10141000080393833279531102F110009B0041F8C5
:10142000207003F1604303F5614302F01F02954011
:1014300032681D60938B43F002039383337903F189
:10144000804303F504330021932219701A70BCE71E
:10145000022D33D1D4F864122F480A68324E938B90
:1014600043F0080393830A79531102F110059B009E
:1014700040F8256003F1604303F56143012002F069
:101480001F0200FA02F208681A60838B43F002031D
:1014900083830B79D3E7082002F0FCFA3146074634
:1014A0003E4602F015FAC4F8647264E7032D7FF437
:1014B0004BAF1B4B4FF00061196045E7032D84D102
:1014C000D4F8641214480A68184E938B43F008034A
:1014D00093830A79531102F110059B0040F82560AF
:1014E00003F1604303F56143012002F01F0200FA9B
:1014F00002F208681A60838B43F0020383830B793E
:1015000003F1804303F504330021922219701A700D
:101510005BE700BF00E100E00002FF1F751C000058
:1015200008E100E0811C00008D1C0000991C0000F7
:10153000F0B5284EDFF8ACE0A6FB0143A6FB024263
:101540009E0937027546960914240023B7FBF6F668
:1015500004E00133382B1BD055F8044F2202964289
:10156000F7DA83BB14241C4A4568B1FBF4F49142BA
:101570002B70C0F84C4207D8184B8269A3FB01318D
:10158000C1F307511170F0BD836904221A70F0BDD8
:10159000002422464FF470274FF470654FF0370C4B
:1015A000B21AF71B002A87EAE776A6EBE776B8BF00
:1015B0005242964202DD0A4AD35CD4E7084B2C46DD
:1015C00013F80C30CFE703F1FF3C5EF82C502F02EC
:1015D000E6E700BFD34D6210FF6BDC02819F5E1611
:1015E000DC790000147A0000F0B583B004469DF861
:1015F00024709DF820009DF828E09DF830600D468D
:1016000079BBDFF8FCC0DCF8001041F04001CCF8F9
:101610000010002184F8492284F8511292BB6369BA
:101620002021197023681A70E3691A70002173462B
:101630003A46009120462946FFF74CFD0B9A2F4968
:101640002046FFF775FF324629462046FFF75EFE2B
:1016500094F84932002B38D0A368C0221A7003B026
:10166000F0BD012926D1DFF898C0DCF8001041F068
:101670008001CCF80010002184F8492284F851122E
:10168000002ACCD0626960B128211170984222688A
:1016900020D95B00DBB213704000E369C0B2187060
:1016A000C4E7202111705B002268D9B21170E36990
:1016B0001870BBE7022915D1DFF848C0DCF800102C
:1016C00041F04001CCF80010A3E7A36880221A7013
:1016D00003B0F0BD4000C0B210705800E369C0B262
:1016E0001870A3E7032994D1DFF818C0DCF80010C4
:1016F00041F08001CCF800108BE700BF0087930316
:101700003480044028800440D0F83421D0F83831A7
:101710009A4208D2D0F834315A1C0344C0F834211C
:1017200093F8300070470020704700BF2DE9F0416A
:10173000C168D0F808E00D789EF800308769DBB208
:1017400003F020023C78EDB222B313F0100F90F8B2
:101750005A327ED0022B00F0CC8090F85A32032B04
:1017600000F0C78090F85132012B00F0CC8190F846
:101770005132DBB2022B00F0EC8190F85132042B95
:1017800000F0868180238EF80030C36802221A7030
:10179000BDE8F08102F0FF08EA06E6B2044623D471
:1017A00005F0400202F0FF0112BB03F0100303F04A
:1017B000FF02002B7FD015F0010540F05D81D0F8CD
:1017C0004022D0F844329A4207D2D0F840325A1C14
:1017D0000344C0F8402293F83C5123691D70A3686C
:1017E000D0221A70A7696BE010236F060B7029D501
:1017F00094F851320A2B00F0D18005F0040505F071
:10180000FF02002D62D0A3680021D022092084F8B5
:101810005102C4F844121A702269D4F86012137885
:101820005B0884F8523209B188472269D4F84432FF
:10183000002B00F02A8194F83C8182F8008001237B
:10184000C4F84032A3691E70E36802221A70BDE832
:10185000F081022B7BD090F85A32032B77D0D0F84E
:101860003831D0F854220233934200F0FF8090F8D0
:101870005132042B00F0F580D0F838310133934217
:1018800080F0CD8090F85132042B00F0C380D0F866
:1018900038310269591CC0F838110344127883F8B2
:1018A000302090F85132042B00F02481C3680222CA
:1018B0001A70BDE8F08190F851320A2B00F039819E
:1018C0003E70E36802221A70BDE8F081A1690B78CE
:1018D00043F020030B70A3680A20C02184F8510252
:1018E000C4F83821197023691B785B0884F85232D8
:1018F000A8E7D0F8642213689B8B1C0603D590F8E8
:101900005A32022B7BD090F85A32032B52D0BF4B65
:1019100012791C680123934023426CD0BC4BBD4913
:101920001A70D0F8642212790A700023E90680F850
:101930005A3231D5C2681221072480F85142117001
:10194000826880211170C0F84032BDE8F081D0F883
:1019500064321A68928B120603D590F85A22022A32
:101960003FD090F85A22032A00F09A80A74C1A79A7
:1019700024680123934023423DD0A649A44B0A701A
:10198000D0F8642212791A7082680023802180F8CE
:101990005A3280F851321170C1682CE0D4F85C32B0
:1019A000002B3FF42AAF0022C4F83421D4F83801C8
:1019B000984722E70B781D06FCD5974B12791A70D1
:1019C000002380F85A32D0F844320269013BC0F853
:1019D0004032D0F84032034493F83C311370C16870
:1019E00009E08B4A1B7913708368E8221A70C1687A
:1019F000032380F85A3202230B70BDE8F081844B38
:101A000012791A708368F0221A700323C16880F873
:101A10005A32F0E790F85932002B3FF438AF90F883
:101A200051220023042A80F8593201D080F8513223
:101A30008368B0221A70D0F838310269591CC0F896
:101A400038110344127883F8302090F85032012B7B
:101A50007FF427AF3C23013BFDD1836880221A70BD
:101A60001FE790F85932002B7FF406AFE8238EF879
:101A70000030D0F85422FFE6C0238EF8003003690E
:101A800087691B7880F851121AE784F83C31D4E654
:101A900090F85032012B48D0B0238EF8003005E783
:101AA0005D4A1B791370002380F85A3290F8512256
:101AB000042A18BF80F851328368B0221A70D0F817
:101AC00054320269013BC0F83831D0F83831591C22
:101AD000C0F838110344127883F8302090F850325F
:101AE000012B7FF459AF3C23013BFDD18368802259
:101AF0001A7051E790F85932002B7FF4D7AE0123CA
:101B000080F85932D2E605F0100303F0FF02002BF3
:101B10003CD115F0010548D080F85A22D0F8403267
:101B2000002B6FD1052380F8513280238EF80030CE
:101B3000BCE6750618D5D0F85C3280F85122002B2F
:101B40003FF4BEAEC0F83421D0F838019847A769F9
:101B5000B6E6EC063AD4E90742D50522802380F8A0
:101B600051228EF80030A1E603691B78D0F83821A5
:101B7000B2F5817FDBB23FF6A3AED0F838218118F1
:101B80000132C0F8382181F8303099E60023122262
:101B9000072480F85A3280F851420A708268802106
:101BA0001170C0F84032BDE8F081D0F84032013306
:101BB000C0F84032D0F8442293422FD390F85032EC
:101BC00080F85152012B7FF467AFAEE70722122352
:101BD00080F851220B70836880221A70BDE8F08172
:101BE00090F85A22012A25D0D0F85432012B0CBF8C
:101BF000E823E023032280F851228EF800300369A5
:101C00001B7853E6062380F851328EE72C80004083
:101C10001F8000401E8000401C80004090F85A3217
:101C2000012B14D0D0F840320269034493F83C31C0
:101C300013703BE6E12280F85A328EF80020D0F88B
:101C400064220B4B12791A7003691B782EE602226C
:101C5000F12380F85A228EF80030D0F86422044B29
:101C600012791A70036990F83D211A701EE600BFC0
:101C70001B80004000210148FFF758BD3C07FF1FB3
:101C800001210148FFF752BDA809FF1F02210148A9
:101C9000FFF74CBD140CFF1F03210148FFF746BDA1
:101CA000800EFF1F2DE9F843224BDFF8A090DFF8EC
:101CB000A080214E214D1E6000244FF47A774A46C1
:101CC00041461C711C739F6018465C731D6104F0D3
:101CD000D5FE1B4B05F51B7201211A611C714A468A
:101CE0009F601C735973184641461E6004F0C6FE7F
:101CF000144B05F59B6202211A611C714A469F60D4
:101D00001C735973184641461E6004F0B7FE0E4B13
:101D10004FF0030E05F244751C711C7383F80DE03F
:101D20004A46414618461D619F601E60BDE8F84363
:101D300004F0A4BE581BFF1FBC7900003C07FF1F26
:101D4000441BFF1F801BFF1F6C1BFF1F3007FF1F63
:101D5000A1100000374A384913681B06FCD40B68F1
:101D600013F08003F8D172B634490A78002A5FD0A4
:101D7000334A3448F0B4344C176806682568D46890
:101D80000C303E44143200681268304F35442C4405
:101D900020440244C2F34E022D4E2E482E4D2F4CAD
:101DA00042F400423A60376806682D682C4A24687D
:101DB0000C303E44006812682A4F35442C442044BD
:101DC0000244C2F34E02284E2848294D294C42F4C1
:101DD00000423A60376806682D68274A24680C304C
:101DE0003E4400681268254F35442C442044024488
:101DF000C2F34E02224E2348234D244C42F40042AB
:101E00003A60376806682D68214A24680C303E44E1
:101E10000068126835442C4420440244C2F34E0248
:101E20001C4842F4004202600B7062B6F0BC70477E
:101E300062B6704724B0034024B00B40951BFF1FCF
:101E400038B003403CB0034040B003402CB00340E6
:101E500058B003405CB0034060B0034064B003403E
:101E60006CB0034030B0034038B00B403CB00B4086
:101E700040B00B4044B00B404CB00B402CB00B407A
:101E800058B00B405CB00B4060B00B4064B00B40EE
:101E90006CB00B4030B00B4030B42948294A2A4B73
:101EA0002A4D6024E121047011701B78284C082B06
:101EB00030D00A2B2748284937D00C2B0CBF3522AD
:101EC0005D2212232A60236002600B60234B2449A9
:101ED0001B78244ABBB101230B601360224B2349BA
:101EE0001B78234A012B26D9042B0FD9082B1ED986
:101EF000102B94BF862387230B6013601D4B012298
:101F00001A7030BC70470B601360E7E784230B60E6
:101F10001360F3E700F58E200F49083021221323C8
:101F20002A60236002600B60D0E73922F7E785233F
:101F30000B601360E2E780230B601360DEE700BFF5
:101F40000040074001400740EC10FF1F08B003406D
:101F50000CB0034008B00B400CB00B40981BFF1FA7
:101F600020B0034020B00B40ED10FF1F24B0034011
:101F700024B00B40951BFF1F0C2830B417D9102339
:101F8000984228BF18461C46104A114D1178181A5D
:101F90008C42287018D00F4913700B7823B10E496A
:101FA0000E4A00230B60136030BCFFF775BF0A2890
:101FB00002D90C231C46E7E7082802D90A231C464D
:101FC000E2E708231C46DFE730BC7047EC10FF1F38
:101FD000941BFF1F951BFF1F24B0034024B00B4030
:101FE00010B5174B1B780446A3B9012C16D9042C45
:101FF0000AD9082C134B1DD9102C15D907221A60A9
:10200000114A2023137010BD0E4A042313600E4A98
:10201000137010BDFFF79EFE012CE8D8094A00237B
:102020001360094A137010BD06221A60064A102375
:10203000137010BD05221A60034A0823137010BDE7
:10204000951BFF1F24B00340ED10FF1F47282FD81A
:10205000334B2DE9F0411E5CFF2E2BD0314B1B780A
:10206000002B2AD132062CD472B62F4D2F4C2F467E
:10207000012326602B7062B672B623681B060CD44F
:102080003B781BB9F4E72B78002BF1D062B601F056
:1020900027FD72B623681806F5D5254B1B6800226C
:1020A0002A7062B6234A107843FA00F0BDE8F08146
:1020B000002070470020BDE8F081FFF74BFE32069C
:1020C000D2D572B61C4DDFF87C801C4C06F0400760
:1020D000FFB206F03F06D8F80030DFB123F010035E
:1020E000C8F8003001232660134A2B7062B672B61E
:1020F000236819060CD413781BB9ECE72B78002B56
:10210000E9D062B601F0ECFC72B623681B06F5D587
:102110000B4BC3E743F01003C8F80030E2E700BF01
:10212000F47A0000951BFF1F971BFF1F00B00340B0
:1021300010B00340941BFF1F961BFF1F00B00B4005
:1021400010B00B400CB00B400B4A0C49136843F421
:10215000805313600B783BB1094B80221A70094BF6
:1021600080F30C0018807047054BC0221A70054B95
:1021700080F30C00188070472C800440981BFF1FD0
:1021800021C00C4000C00C400B4A0C49136843F4BA
:10219000005313600B783BB1094B80221A70094B36
:1021A00080F30C0018807047054BC0221A70054B55
:1021B00080F30C00188070472C800440981BFF1F90
:1021C00021D00C4000D00C40024A13680133136048
:1021D000704700BF9C1BFF1F08B5104C08E0236828
:1021E00059050DD423681A050FD42368DB0411D4D4
:1021F00023685803F3D500F04DFD23685905F1D548
:1022000002F04CF823681A05EFD502F0F5FB2368BD
:10221000DB04EDD502F0B0FEEAE700BF34800440F5
:1022200008B5FFF7D9FF00BF014B10221A80704795
:1022300000200540704700BF094908B50B6830B160
:102240006A461844A2F50052904202D2086018462D
:1022500008BD04F01FFC0C2303604FF0FF3008BDE5
:10226000F010FF1FEFF3138070B9EFF310836BB919
:10227000EFF305825AB94FF48070EFF311832BB15D
:10228000984228BF184670474FF0FF3070470F2A1A
:1022900001D81846F1E7014BD05CEEE7F0E300E02F
:1022A000084A1378802B01D0002070470649074B5D
:1022B00007480860002119701378802BFCD001209A
:1022C000704700BF03E007404480044001E007403E
:1022D00000002822094A1378012B01D00020704702
:1022E00003F1804303F5FC23602119701378802BE0
:1022F000FCD1034B034A1A600120704703E00740FA
:10230000448004400000060210B4114B53F8302002
:1023100092F8804234B1012379B182F880305DF8BF
:10232000044B704703EBC0035B681A6851B922F095
:1023300002021A605DF8044B704782F800315DF8C4
:10234000044B704742F003021A605DF8044B70477B
:102350003C7B00001C4A02EBC00301295B6811D0E2
:1023600004291BD052F83000002280F8802229B1C5
:10237000022920D0032922D01A6070474FF48072BE
:102380001A60704752F830004FF4A27280F8801241
:102390001A601A6822F020021A60704752F8301052
:1023A0004FF4A272012081F880021A601A6842F08C
:1023B00020021A60704740F203121A6070474FF40F
:1023C00081721A60704700BF3C7B000030B4054B3F
:1023D000054D064C002210211A602A602060196009
:1023E00030BC704714D0034004D0034000D00340F9
:1023F00038B5A0F14203012B044624D900297ADD27
:10240000994B1B78012505FA03F28A4202D83F282E
:102410002CD938BDC21E012A30D9A0F11D02012AD3
:1024200078D90E285BD9A4F12302032A5CD9A4F140
:102430001002012A94BF8D4A8D4A126802FB0112D4
:1024400022FA03F320E0884B1B780B2B0AD90C2BC4
:102450001CBF0C3B1941422C084657D0BDE8384000
:10246000FFF792BEC3F10C039940F4E72946FFF74A
:102470004BFF2946BDE83840FFF76CBF7D4A126824
:1024800002FB011222FA03F3A21E242A00F2E380C7
:10249000DFE812F0DA00D300CC00C500BE00B700C0
:1024A000B000A900A200E100E100E1009B00E10012
:1024B00094008D00E100E10086007F00780071004B
:1024C000E100E100E100E100E1006A006300E100F9
:1024D000E100E100E1005C0055004E00470044F2DD
:1024E0008412C240D2079ED5634A126802FB0112D1
:1024F00022FA03F3C8E73F288BD80021FFF704FF37
:1025000020460121BDE83840FFF724BFBDE8384030
:10251000FFF71ABE594A126802FB011222FA03F3AE
:10252000B2E75749574A0B604FF45173136038BDF7
:102530005549564A0B604FF45173136038BD5449E6
:10254000544A0B604FF45173136038BD5249534ADB
:102550000B604FF45173136038BD5149514A0B6001
:102560004FF45173136038BD4F49504A0B604FF41C
:102570005173136038BD4E494E4A0B6040F24443DC
:10258000136038BD4C494D4A0B6040F24443136020
:1025900038BD4B494B4A0B6040F24443136038BD91
:1025A00049494A4A0B6040F24443136038BD4849E8
:1025B000484A0B6040F24463136038BD4649474ABD
:1025C0000B6040F24463136038BD4549454A0B60D7
:1025D00040F24443136038BD4349444A0B6040F223
:1025E0004443136038BD4249424A0B6040F24443C1
:1025F000136038BD4049414A0B6040F244431360C8
:1026000038BD3F493F4A0B6040F24443136038BD38
:102610003D493E4A0B6040F24443136038BD3C499B
:102620003C4A0B6040F24443136038BD3A493B4A90
:102630000B604FF45173136038BD3949394A0B6050
:102640004FF45173136038BD3749384A0B6040F27C
:102650004443136038BD3F2C3FF6DBAE7F29D4BF27
:1026600000210121204649E7F410FF1F08900C408B
:10267000088003400890034008900B4008800B40FE
:1026800048900B402CB0044040900B4028B00440D0
:1026900038900B4024B0044030900B4020B00440F0
:1026A00018800B404CA0044010800B4048A0044010
:1026B0001880034008B004401080034004B0044078
:1026C0004080034018C004403880034014C00440D8
:1026D00018900C4004A0044010900C4000A004404E
:1026E00018900B4004C004402880034010B0044000
:1026F000208003400CB0044028900B400CC00440E4
:1027000020900B4008C004403080034010C00440BB
:10271000488003401CC0044018900340349004409B
:10272000109003403090044010900B4000C00440D3
:1027300030B1102828BF1020034BC0B2187070476A
:10274000014B012018707047F410FF1FA0F1100119
:10275000C9B2012970B45BD9DFED3B7A3B4AB4EED4
:10276000E70AF1EE10FA47F6122346BF1A46022591
:102770000125DFED376A002322FA03F407EE904AC1
:10278000F8EEE77A27EEA67AB4EEC70AF1EE10FA71
:1027900007DA0133072BEFD1D20907EE902AF8EEC2
:1027A000E77A87EE807A4FF6FF74C21EF6EE007A63
:1027B00077EE677AFCEEE77A17EE906AA64228BFBA
:1027C0002646012A344637D917280ED9A0F11D0212
:1027D000012A35D90E281ED92338032820D90129EA
:1027E00014D81C4A1C4E1D481DE01D4AC24002F070
:1027F000010282F00106002AE8D01A4A1A481B4951
:10280000166043EAC50306600C60136070BC704735
:10281000174A0125ADE744F28412C240D207DBD546
:10282000144A154E154843EAC50300211160316072
:102830000460136070BC7047114A124E1248F2E7F0
:10284000124A134E1348EEE7C0E1E44000879303B9
:102850000000803700900C4004900C4008900C4021
:102860006006F000008003400480034008800340BD
:102870000024F40000900B4004900B4008900B40A3
:1028800000900340049003400890034000800B40F8
:1028900004800B4008800B403F2801D8FFF734BD6F
:1028A000704700BF3F2806D8044B53F8303093F8E8
:1028B0000002C0B270470020704700BF3C7B0000A0
:1028C0003F2801D8FFF746BD704700BF72B60D49DB
:1028D0000D4B0E4A1B680868126862B6520102D599
:1028E000322B88BF0130C3F52F33094903F21F3360
:1028F0004FF47A729B08A1FB031302FB00F000EB7C
:10290000930070479C1BFF1F18E000E004ED00E0FF
:10291000176CC1162DE9F843054672B6224F234BBA
:10292000234A1B683C68126862B6520102D5322BFA
:1029300088BF0134B5B3C3F52F3303F21F331D4EE7
:10294000DFF86890DFF868809B084FF47A72A6FB86
:10295000031302FB04F404EB930472B6D9F80010DD
:102960003A68D8F800E062B6C1F52F3303F21F339E
:102970009B08A6FB03031EF0806FC4EB93034FF488
:102980007A7002D0322988BF013200FB0233B3F5DE
:102990007A7F04D3013D05D004F57A74DDE701F0B8
:1029A0009FF8DAE7BDE8F8839C1BFF1F18E000E002
:1029B00004ED00E0176CC116F8B54E4B4E48DFF839
:1029C0005CC14E4C4E49DFF858E14E4E4E4D4F4FD4
:1029D0004FF000621A604FF080521A604FF00052C0
:1029E0001A604FF080421A604FF000421A600022D5
:1029F000026028234EF6FF70CCF80000CEF80030BD
:102A000023600EF5012E0B6033602B6006F5002667
:102A10003B6005F50025A36207F500278B6204F5EE
:102A2000012401F5012106F6E87605F6E87507F5BB
:102A30007F6710310EF1100E203433602B60CEF81A
:102A400000303B600B602360314CBB618B6109211E
:102A50002160A7F5002704F58054203F08343A6030
:102A60002060BB60E36047F8041C04F5FD2407F513
:102A7000FE27043704F2FC7422603860A360FB6018
:102A800044F8041C083404F6FC74C7F8FC2F2060DA
:102A9000A4F5E124A4F2DC7433602B60C7F8F81FBE
:102AA00021681C4841F40071216001681A4C0EF540
:102AB0007F4E0EF1E80E07F5883706F5803605F5EE
:102AC000803541F000710160CEF8002047F6FF71BB
:102AD0000822396033602B602260FFF7DDF9322075
:102AE000FFF718FF00F000FD4FF4AF70BDE8F840AD
:102AF000FFF710BF04E100E00480034014800340AE
:102B00001C800340248003402C8003403480034019
:102B1000008003400480044000900C400880034083
:102B20000C800340431E032B14D872B60A4951F897
:102B3000230068B170B4094C058834F81320466846
:102B400041F82360521B24F8132062B670BC704712
:102B500062B6704700207047F81BFF1F4820FF1F18
:102B6000013803280BD872B6074B53F8203043B115
:102B700000205B680130002BFBD162B6704700205B
:102B800070471846F9E700BF4C1CFF1FF0B472B63F
:102B90001A491B4E012311F8014B194F9A002407C3
:102BA00042F0010505D556F8324064B156F835209B
:102BB000BAB10133052BEED162B6124B00221A7066
:102BC000F0BC00F019BD0F4C0F4D217847F8325082
:102BD00007EB431308304A1E5860227062B6F0BCFF
:102BE00070470849094B0A7847F8353007EBC503A9
:102BF0000830013A58600A7062B6F0E7647D000060
:102C00000000FF1F751CFF1F88004000C800400027
:102C1000431E032B1DD81B4A400140F0100030B466
:102C2000104472B6184CE25C032A1BD8DFE802F0AD
:102C30000212151703220D88E25410F0080F14BF7A
:102C4000C823882343EA054308310360416062B624
:102C500030BC704708300222EDE70522EBE7083070
:102C60000422E8E7094A52F8230038B1084A52F82A
:102C70002300416042F8231062B6E9E742F82310CE
:102C8000034AF7E70000FF1F841CFF1F4C1CFF1FB7
:102C90005C1CFF1F2DE9F04FDFF800A3DFF800B345
:102CA00087B044E0A84F4FEA930807EBC809013EFC
:102CB000D9F8042003F00803F6B2A2F1080003F0EB
:102CC000FF04002B40F0FC8057F838301B0C99B201
:102CD00022F8081C002B00F0EA809C4B22F8064CDE
:102CE00042F8044C53F82620002A00F02982984D1F
:102CF00055F826305860974C45F8260034F81630C1
:102D0000194424F8161000F057FC002800F0118236
:102D1000914A924B19F0080F00F1080018BF1346B2
:102D2000C9F8040047F8383008238AF800309AF8C8
:102D30000040E4B260071AD5894B1B78A3B18949DA
:102D40000A7802F0FF0322B1013BDBB20B7003B93A
:102D500000BE85490A7802F0FF032AB1013BDBB2CD
:102D60000B70002B00F0BB8104238AF8003004F0C4
:102D7000080303F0FF02002B00F0C6809BF8003030
:102D8000DBB21E098ED19C086F4F57F8342007EB39
:102D9000C401C2F38302013A49680C2A00F283801D
:102DA000DFE802F0777781818181818140818181B3
:102DB000070008686D4B6E4D0193674B4A686D4E76
:102DC00047F8343081B240F28164684B6A60286011
:102DD00000220120A1421A603A61BA61307000F20B
:102DE000E180B1F5D06F80F02582B1F5817F00F0F0
:102DF000DE8100F2C181802900F03482822940F016
:102E0000DC81A9885C4B042900F2D8815B4C8900E5
:102E10000B44227062701A78930740F1228320706D
:102E2000022023E2514B01931A683AB3544B514E9E
:102E30005449188834780D784028864645F00208B1
:102E400028BF4FF0400E002C84F001043470CEEB0C
:102E500000000CBF8824C82407EBC80680B285F0A8
:102E6000010544EA0E447260188047F83840724405
:102E70000D70002800F0B780019B1A603C4B1A8847
:102E8000B2F5A06F0FD100219A7859703E4B1A709D
:102E900009E0374A108842F22102904200F0A880EF
:102EA0002D4A47F83420394A012313703CE72A4A57
:102EB0002A4B19F0080F18BF134647F8383033E78C
:102EC00000F09AFB324A334952F82630002B00F0CA
:102ED0003B8158688C5D42F8260003F10802C9F86E
:102EE0000420032C05D8DFE804F02C022926022256
:102EF0008A551A8819F0080F0CBF8823C82343EAA3
:102F0000024347F838300FE7E00700F1EB80210675
:102F100000F12881A20706D51F4A20491378022014
:102F2000DBB213700870E30602D51C4B10221A7036
:102F300007B0BDE8F08F04228A55DAE705228A55EA
:102F4000D7E703228A55D4E70000FF1FF81BFF1FB5
:102F5000A41BFF1F4820FF1FC8004000880040003E
:102F6000801CFF1F091CFF1F881CFF1FA01BFF1FC9
:102F70006C1CFF1F081CFF1FC0200740781CFF1F90
:102F8000B41BFF1F741CFF1F9820074094200740AC
:102F90004C1CFF1F841CFF1F882007408020074017
:102FA0009020074042F22104A14200F0948043D8CF
:102FB000B1F5086F00F0A881B1F5106F40F0FD8009
:102FC000B84AB94CA978117004F1800503E00834BF
:102FD000AC4200F09E81236A1906F8D5606A083871
:102FE00000F00AFBF3E7BEF1400F18BF002243E7F1
:102FF000AE4ACD1D11F8013B02F8013FA942F9D1BB
:10300000AB4A1268862A00F01181AA49AA4E0A78B2
:10301000307882F00105002842F002020D700CBFEA
:103020008821C82147F8321007EBC20280F0010066
:1030300000213070516033E742F22124A14240F078
:10304000FE81DFF8BCC29D4B9D49AC78DCF8005096
:103050001D6081460C700020029080468446044624
:1030600094490D7845F0020E07EBCE03B9F1000F3D
:103070005C600CBF8824C82444EA080385F001047E
:1030800047F83E3032700C70DFF81CE28A4BDFF8F4
:103090002482002840F09880BCF1400F1BD144F0FE
:1030A000020407EBC403029FDFF8FCE15F60002A23
:1030B00040F09F80020442F0880207444EF834201A
:1030C00086F800900D703B46402804D100207D4AD0
:1030D000019910800B607C4A01231370E3E600F035
:1030E000D3FB41E6704B784872491A614FF0020EEB
:1030F00080F800E0754F0A70754919609960754E47
:10310000754D764C9A610D213970FF213170DFF8D1
:10311000F4E129702270724D724A8EF800109F27D8
:10312000012406F8047C5D600470DA6007B0BDE835
:10313000F08F6D4A47F83800137801331370F3E5C8
:1031400043F82600694DD6E58B5D032B67D801A2B5
:1031500052F823F0292D0000292D0000A93100008C
:10316000A331000059495C4B80220D2008701A7071
:10317000A2077FF5D8AECFE640F20232914240F08E
:103180005681A98801F07F01042916D86A88A2B95E
:103190004E4C89000C448146217841F00201217097
:1031A00059E701238B55BFE500238B55BCE5A98862
:1031B00001F07F01042940F24781444B0F221A702D
:1031C000414A012313706EE640287FF668AF44F051
:1031D00002040EEBC401029E4E60AAB1444A83F879
:1031E00000903346403888F8005040334EF8342081
:1031F0006DE70204029B86F8009042F0C8020D7051
:1032000003444EF834205FE783F80090029B304A75
:1032100088F80050403840334EF8342057E719F012
:10322000080F0CBF022303238B557DE5314A0F2184
:103230001170EAE6304A5468002CBED06888B5F8B0
:1032400004E003E00C325468002CB6D013888342AB
:10325000F8D153887345F5D1000A03280CBF2078B4
:10326000108903E0254C022022706270EA888242B5
:1032700080F00C810F490D78402A45F0020E9446EB
:1032800007EBCE0028BF4FF0400C04EB0C0344606A
:103290000293CCEB02004FEA0C484FF001090022E8
:1032A000C824E9E6801CFF1F0000FF1F4F20FF1FFE
:1032B0005020FF1F741CFF1F081CFF1F5820FF1FFA
:1032C000981CFF1FB41BFF1F94200740C02007401D
:1032D0008800400088200740802007409820074051
:1032E000B81BFF1F0C1CFF1F751CFF1FA41BFF1F1B
:1032F000C8004000091CFF1F687D0000781CFF1FEC
:103300009C1BFF1F8C200740684A694C1278227072
:10331000ACE76849684B694A02916949694C6A4D52
:10332000039405964FF0000988461C4616460495FE
:10333000206828B1456800F05FF92846002DF9D1D2
:1033400000232360049B30681A46002342F829308A
:1033500028B1456800F050F92846002DF9D1002227
:103360003260029A98F800301146002241F8042B8E
:10337000039A0291023B4FF0000122F81910032B2F
:1033800007D8DFE803F0340234024FF0010388F875
:10339000003009F10109B9F1040F04F1040406F148
:1033A000040608F10108C3D1484B059EDFF83091AF
:1033B000DFF8308100211970012518F8013B09F868
:1033C000043B1A0718D4AC0044F0020244F0030492
:1033D000002347F8323047F834303D4B994505F12A
:1033E0000105EAD196F8009089F0010233E64FF02A
:1033F000000388F80030CCE700F0DEF8AC0007EB03
:10340000451300F10802002837D05A60314B47F8C5
:10341000343000F0D1F844F0010307EBC30200F1AF
:10342000080100B351602C4A47F83320CCE7B1F5CE
:10343000A06F7FF4C2AE00224FF001090BE642F20A
:1034400021329142F7D0B8E66A88002A7FF4B5AEFF
:10345000224C89000C448146217821F00201217020
:10346000F9E5022002E7194B44F001021B7847F806
:103470003200164A01331370A6E7144B134A1B7827
:10348000AC00013347F834001370C2E7402884468B
:1034900028BF4FF0400C04EB0C03CCEB00004FEACC
:1034A0000C48029300224FF00109D9E5801CFF1F50
:1034B000781CFF1F5C1CFF1FF81BFF1F4C1CFF1F0D
:1034C000841CFF1F4820FF1FA41BFF1F751CFF1F2C
:1034D000D420074088004000C8004000C0200740BA
:1034E000C4200740647D00002DE9F041274C02F024
:1034F00087FE002204F1880023461A605A600833D0
:1035000083424FF00001F8D12148224A0368DFF8D6
:103510009CE0214E214D224FDFF894C0DFF89480CB
:1035200043F480230360136843F040731360032364
:103530008EF80030A023337002F5C922C4F30723AC
:1035400000F528302B708030C4F3074310323B70F5
:10355000240EFF230470134D8CF80030124888F8B5
:1035600000301370012306F8AC3C4FF400140EF841
:10357000441C7026102107F82C3C2E70046082F841
:10358000F810AEF1440EBDE8F08100BF0000FF1F4F
:103590003480044000D80040402107409C20074070
:1035A000B020074035E400E004E100E0442107409A
:1035B000802007408820074072B60D480268B2FAA2
:1035C00082F30B2B10DC4FF00041D94022EA0102BC
:1035D000026062B6074803EBC303DB00C218002198
:1035E000C15010465160704762B60020704700BF5E
:1035F000F810FF1FD003FF1F0D4B0E4AC31AA2FB8A
:1036000003231B090B2B0CD80B4A127852B972B644
:103610000A484FF00041026821FA03F31A4302609E
:1036200062B67047064A1278002AF0D0FFF7AEBAA9
:10363000D003FF1F398EE338751CFF1FF810FF1FE2
:10364000801CFF1F38B50F4D286878B14388028869
:10365000C118013393420C7A02D24380204638BD10
:10366000FFF7CAFF002320462B6038BD064B1B78AE
:103670002BB10320FFF756FA28600028E6D14FF05F
:10368000FF3038BD941CFF1F801CFF1F10B5094C74
:10369000206818B143881844007A10BD064B1B7887
:1036A0002BB10320FFF73EFA20600028F2D14FF043
:1036B000FF3010BD941CFF1F801CFF1F044B054AE8
:1036C0001B6890881BB11A885B88D31A184470470E
:1036D000941CFF1F4820FF1F0B4B1B789BB110B59C
:1036E0000A4C206848B1FFF787FF002303202360BE
:1036F000FFF718FA30B1FFF77FFF0320FFF712FA48
:103700000028F8D110BD7047801CFF1F941CFF1FBC
:103710002DE9F04FDFF8F89083B0012289F80020FE
:10372000019169B3DFF8EC80354F019E8346D8F8EC
:103730000000B0B3334D4488C4F14001B14228BF0A
:10374000314604EB010E00221FFA8EFE2A70761A13
:10375000A0F802E000F1080251B1013C22445944B2
:103760001BF8014B02F8014F8B45F9D1B0F802E08C
:10377000BEF13F0F0BD8244A05211170002ED6D17F
:103780000198002389F8003003B0BDE8F08F402293
:10379000028001460420FFF73BFA0022C8F800200F
:1037A000E9E73A7822B3194C164D4FF0010A07E0C9
:1037B000013C16D02A78A2B900F092F93A78BAB151
:1037C0000420FFF7CDF90728F2D889F800A0FFF709
:1037D000F3FEC8F800000028ADD10D4B013C187075
:1037E000E8D101234FF0FF302B7003B0BDE8F08F1C
:1037F00000234FF0FF3089F8003003B0BDE8F08FB0
:10380000801CFF1F901CFF1F881CFF1F2148010008
:10381000891CFF1F8C1CFF1F00B583B002AB012168
:1038200003F8010D1846FFF773FF03B05DF804FBC2
:10383000F8B5114B1B788BB1104E114D3468012730
:103840002F7064B10F4A63880027177021462380C8
:103850000420FFF7DDF9376000232B70F8BDFFF778
:10386000ABFE084B28B1014604201C70FFF7D0F9CD
:10387000F2E71F70F0E700BF801CFF1F8C1CFF1FCA
:10388000891CFF1F881CFF1F38B50E4B1B7873B9AE
:103890000D4C216861B103F0FF054B880B800420BB
:1038A000FFF7B6F9256038BD084B01221A7038BD04
:1038B000FFF782FE0028F7D00146BDE8384004201B
:1038C000FFF7A6B9891CFF1F8C1CFF1F881CFF1F58
:1038D000F0B572B699B902688AB103790F2B0ED888
:1038E000284C218841FA03F5ED070AD503F100734E
:1038F00003F59063B2EB431F03D162B6F0BD214CD8
:103900002188002341FA03F212F0010207D00133AB
:10391000102BF7D162B6002203710260F0BD0125C1
:103920009D402943218062B6174E184D184FDFF88D
:1039300068E0D9B20171346844F0020434602C6844
:1039400044F002042C60A6F5802640F28244A5F5DE
:10395000802503F100733C6003F59063223E243D13
:103960000C4C8EF800105B013170297021700360DF
:103970001A605A609A60DA601A615A619A61DA6173
:10398000F0BD00BF9A1CFF1F408004403C800440F3
:10399000008000401F8000401A80004003790F2BF8
:1039A00012D80A4A10B4137072B6094904790A8809
:1039B0000123A34022EA03030B8062B610220023F6
:1039C0005DF8044B02710360704700BF1A8000402D
:1039D0009A1CFF1F00B5064A036812885B6883B013
:1039E00001A9ADF804200222984703B05DF804FB5A
:1039F0003C7D0000F0B507468BB0002A33D0012A89
:103A000008BF0A2251B3212400E0F4B2B1FBF2F561
:103A100002FB1511C8B2092900F1300198BFC8B2E4
:103A20000AA988BF3730214488BFC0B201F8240CEE
:103A3000661E2946002DE8D133B1013CE4B20AAB41
:103A400023442D2203F8242C3B6801AA11195B683A
:103A50003846C4F1220298470BB0F0BD30228DF8F1
:103A600025202124E8E70368C9B21B6898470BB0FA
:103A7000F0BD00BF0029BABF49422D2300230A220E
:103A8000FFF7B8BF08B5FDF7CFF8FCF745FF00F02A
:103A900027F8FAE703F02CB803F032B8FFF71CBEA2
:103AA000FFF7C6BEFFF7F2BDFFF7CCBDFFF706BEBE
:103AB00008461146FFF72CBE0846FFF7ADBE00BF13
:103AC000704700BF044B054A1A604FF47A71002218
:103AD00099601A711A7370479C1CFF1F487D000083
:103AE00010B5224C237803B110BD01232370FFF7DA
:103AF000E5FDA0B900F050FBB8B900F0FBFED0B96D
:103B000001F0CCF9E8B901F0D5FC00BB01F078FF79
:103B100018BB02F095FA30BB0023237010BDFFF7ED
:103B2000CFFF00F039FB0028E7D002F01FFC00F0C7
:103B3000E1FE0028E4D002F0CDFC01F0AFF900284E
:103B4000E1D002F07BFD01F0B5FC0028DED002F0F0
:103B500029FE01F055FF0028DBD002F0D7FE02F06D
:103B60006FFA0028D8D002F079FFD5E7AC1CFF1F10
:103B7000F0B44D1E2E46002400E00134B0FBF2F3F9
:103B800002FB1300092800F130078ABF3730F8B272
:103B9000C0B206F8010F1846002BEED10A19537077
:103BA0004CB1107815F8016F28700133E01A834288
:103BB00002F80169F5DB0846F0BC70472DE9F84FC3
:103BC000214B1B6807460BB101221A70DFF8889061
:103BD0001E4D99F80040DFF884801D4E01343F2CC3
:103BE0008ABF4FF0000A5FFA84FA5446AB462B783E
:103BF000A34216D1FEF736FB40281FDC33791B06A3
:103C0000F5D59BF8003001333F2B86BF00221346C9
:103C1000DAB218F80330DBB2F3712A702B78A342C2
:103C2000E8D00C490A4BFFB208F804700120BC220E
:103C3000087089F800A0DA70BDE8F88FFF28D6DD9B
:103C4000FFF74EFFD3E700BF401DFF1F3D1DFF1FC5
:103C500000A006403C1DFF1F441DFF1FB81CFF1F96
:103C60002E4A2F491368F0B543F4806313600A7835
:103C70002C4F2D4E2D4D2E4C2E490023152A3B70D6
:103C800033702B7023700B7043D01B2A3CD04AB387
:103C9000294B1B78052B2DD01A2B30D0012B1CD093
:103CA000264B274C2749C0F34436C0F347151E70F6
:103CB00000F01F005D7004224FF0020E88273C26A2
:103CC000402598729A704FF0004083F813E05A75BF
:103CD0001F74DE7025700860F0BD1B4B4FF45172ED
:103CE0001A60DDE7194B40F213321A60124B1B7851
:103CF000052BD1D1164B4FF451721A60D0E7154BFA
:103D00004FF451721A60CBE7134B40F213321A6032
:103D1000BEE7124B40F213321A60B9E73480044018
:103D2000F81CFF1FB41CFF1FB51CFF1F441DFF1F05
:103D30003D1DFF1F3C1DFF1FFC10FF1F00A0064084
:103D40001FE400E000E100E044A0044040A0044083
:103D50001CC00440389004403C90044018C004400B
:103D6000194B19499B7803F0EC0200F0030313434D
:103D7000420700F00F0248BF43F01003042A8B7083
:103D80001CD0114B104A5B79C10603F0EF0348BF0A
:103D900043F0100353719379820603F0EF030A4A4C
:103DA00048BF43F010039371C30506D553781178CB
:103DB000DBB241F020011170537070478B7943F0F2
:103DC00040038B71DDE700BF00A00640284B1B6855
:103DD0005B0533D510B5274C237823B1FFF780FE60
:103DE0002378002BFAD12448244A254B4FF0004475
:103DF00000210460D1701B78152B20D01B2B32D0F2
:103E00001BB9204B40F203121A601F4B1B7803F0C2
:103E10007F03052B1DD01A2B20D0012B03D11B4B68
:103E200040F203121A601A4B1A481B491A68002301
:103E300003700B700AB10123137010BD7047174B4C
:103E400040F203121A60104B1B7803F07F03052B1E
:103E5000E1D1134B40F203121A60E4E7114B40F238
:103E600003121A60DFE7104B40F203121A60CCE72E
:103E7000348004403C1DFF1F80E100E000A00640AC
:103E8000F81CFF1F40A00440FC10FF1F44A004408A
:103E9000B01CFF1FB41CFF1FB51CFF1F18C004403F
:103EA0001CC00440389004403C9004400A4A38B595
:103EB0000546137803F0FF04002BFAD101212846B0
:103EC000FEF7FEFC21462846FEF7E6FC034A044BBB
:103ED00052F835201A6038BD3C1DFF1F3C7B0000A6
:103EE000401DFF1F09B140F080001E4A1378984220
:103EF0001BD010B41C4C2468640513D503F07F0359
:103F0000052B2AD01A2B24D0012B14D0002900F025
:103F10007F0114BF60234423052915D01A290ED030
:103F2000012903D010705DF8044B70470F4943F42A
:103F300040730B60F6E70D4B00241C60E6E70C496C
:103F400043F440730B60EDE70A4943F440730B60A0
:103F5000E8E7074B00241C60D8E7064B00241C60F0
:103F6000D4E700BFFC10FF1F3480044044A004408D
:103F7000389004401CC00440174A137883420ED086
:103F800016490968490509D5152B20D01B2B1AD0D5
:103F90005BB115280DD01B2810D008B110707047E8
:103FA0000F4B40F213311960F8E70D4915280B60EB
:103FB000F1D10C4B40F213311960EFE70A4B40F29C
:103FC00013311960EAE7084B00211960E1E7054B5E
:103FD00000211960DDE700BFF81CFF1F348004409A
:103FE00040A0044018C004403C9004400D4B1B68A6
:103FF00013F4806305D03F2805D90B4B00201860CF
:10400000704718467047094B10B5074C53F83030CD
:1040100023600121FEF754FC236800221A7001205E
:1040200010BD00BF34800440B01CFF1F3C7B00006B
:104030000F4B1B6813F4806308D0122808D0142893
:1040400011D00C4A537B03F0FE03537300207047DA
:10405000094B40F202321A60064A537B43F00103D7
:10406000537301207047054B40F202321A60F3E7A8
:104070003480044000A006400CA0044014C004405A
:10408000034B1B685B0501D5FFF798BD704700BF68
:10409000348004402DE9F84F294B1B685A0548D558
:1040A000284B1B6805460BB101221A7005EB010A6B
:1040B000554540D2DFF89C80234CDFF89C90234F7D
:1040C0000AE015F8012B09F80B20214A0123AA4523
:1040D000137088F800602ED098F80030227803F131
:1040E000010BBBF13F0F86BF0026B3465FFA8BF68C
:1040F0009345E6D1BC22FA7005E03A7913060BD459
:1041000022789345DDD1FEF7ADF84028F5DDFF2894
:10411000F6DDFFF7E5FCF3E7227801323F2A86BFA0
:1041200000210A46D1B219F80220D2B2FA712170E8
:10413000E6E7BDE8F88F054BBC22DA70BDE8F88FE2
:1041400034800440401DFF1F3D1DFF1F00A006409E
:104150003C1DFF1F441DFF1FB81CFF1F10B5044C62
:10416000237823B1FFF7BCFC2378002BFAD110BDD4
:104170003C1DFF1F064A074B1B781078DBB2C0B20C
:1041800083422CBF3F3000F1FF30C01A704700BFA0
:104190003D1DFF1F441DFF1F054A064B10781B786D
:1041A000C0B2DBB2984238BF4030C01A704700BF7F
:1041B000B41CFF1FB51CFF1F30B4154B154C1A78EB
:1041C0002378D2B2DBB29A421ED001333F2B0ED9F4
:1041D0001149124B087819680023C0B2237021B12D
:1041E000D31A1A2B01DC00230B7030BC70470A482D
:1041F0000A49C05C0968DDB2C0B225700029F4D05C
:104200009A4238BF4032EBE74FF0FF30EDE700BF96
:10421000B41CFF1FB51CFF1FFC1CFF1FB01CFF1FA1
:10422000084A094B12781B78DBB29A4207D0013357
:10423000402B28BF0023054AD05CC0B270474FF026
:10424000FF307047B41CFF1FB51CFF1FFC1CFF1F75
:104250000D4B1B685B0516D530B40C4B0C4CDA7853
:104260000C480D4902F0CB024025DA705D74DA7813
:1042700042F03402DA7023780268DBB20B700AB1C4
:104280000023137030BC70473480044000A0064007
:10429000B51CFF1FB01CFF1FB41CFF1FF0B4384B30
:1042A0001A7912F0300F2CD072B6997D01F0FF020E
:1042B00000293DD062B6334F334938780D78334EFC
:1042C0001C46C0B2EDB2431C402BE17928BF00234D
:1042D000AB4202F1FF32C9B21CBFF154184612F0D2
:1042E000FF02F0D12A4B1B68C2B23A704BB1A84210
:1042F00036BFC5F14005401B40192728C4BF012225
:104300001A701F49CA78D2B2150616D452060DD5B6
:104310001B4B1B795B0609D51E4B1F491B680022EE
:104320000A7003B11A70164B3C22DA70F0BC704769
:104330004022D9795A7462B6E3E70B791C06E5D5B9
:10434000164B174E1C783378E4B2DBB29C420ED089
:10435000144D01E0A3420AD00133402B28BF0023B3
:104360000879E85CC0B2C871087D0728F2D9DBB2D1
:10437000034933700B79180644BF7C23CB70C5E723
:1043800000A00640B41CFF1FB51CFF1FFC1CFF1F34
:10439000B01CFF1F401DFF1F3C1DFF1F441DFF1FC2
:1043A0003D1DFF1FB81CFF1F264A27491368F0B4A4
:1043B00043F4006313600A78244F254E254D264CA4
:1043C00026490023092A3B7033702B7023700B7031
:1043D00032D03B2A23D0224B1B780A2B27D03A2BF2
:1043E00003D1204B4FF451721A601F4B1F4D204CCC
:1043F000C0F34437C0F3471600F01F001F700421BC
:104400005E700222987288273C2640209970DA74E8
:1044100059751F74DE7028702260F0BC7047154B10
:1044200040F213321A600E4B1B780A2BD7D1124B75
:104430004FF451721A60D8E7104B40F213321A60F1
:10444000C9E700BF34800440FD10FF1FB81DFF1FE7
:104450004D1DFF1FC01DFF1FB91DFF1F4C1DFF1F5E
:10446000FE10FF1F00D0044000B0064021E400E031
:1044700004E100E004D0044010B004400CB004405B
:10448000194B19499B7803F0EC0200F00303134326
:10449000420700F00F0248BF43F01003042A8B705C
:1044A0001CD0114B104A5B79C10603F0EF0348BFE3
:1044B00043F0100353719379820603F0EF030A4A25
:1044C00048BF43F010039371C30506D553781178A4
:1044D000DBB241F020011170537070478B7943F0CB
:1044E00040038B71DDE700BF00B00640204B1B6826
:1044F0001B053BD510B51F4C237823B1FFF7F0FA0D
:104500002378002BFAD11C481C491D4B02240022A1
:104510000460CA701B78092B19D03B2B01D1194BB1
:104520001A60194B1B7803F07F030A2B19D03A2B22
:1045300002D1164B00221A60154B164816491A680C
:10454000002303700B700AB10123137010BD134BCD
:1045500040F203121A600C4B1B7803F07F030A2B06
:10456000E5D10F4B40F203121A60E5E7704700BF38
:10457000348004404C1DFF1F84E100E000B0064081
:10458000FD10FF1F04D00440FE10FF1F00D00440A8
:10459000481DFF1FB81DFF1F4D1DFF1F0CB004401D
:1045A00010B004400A4A38B50546137803F0FF04FA
:1045B000002BFAD101212846FEF782F92146284630
:1045C000FEF76AF9034A044B52F835201A6038BDE9
:1045D0004C1DFF1F3C7B0000BC1DFF1F09B140F0BC
:1045E0008000174A1378984217D010B4154C2468ED
:1045F00024050FD503F07F030A2B1DD03A2B12D0D0
:10460000002900F07F0114BF602344230A290ED043
:104610003A2903D010705DF8044B70470A4943F4FF
:1046200040730B60F6E7084B00241C60E8E707497D
:1046300043F440730B60EDE7044B00241C60DFE79C
:10464000FE10FF1F3480044000D0044010B004402E
:10465000124B1A7882420CD011490968090507D516
:10466000092A16D03B2A0AD009280DD03B2801D0B0
:10467000187070470B4A40F213311160F8E7094A8D
:10468000002109281160F1D1074A40F2133111606D
:10469000EEE7054A00211160E6E700BFFD10FF1FAD
:1046A0003480044004D004400CB004400D4B1B681F
:1046B00013F4006305D03F2805D90B4B0020186088
:1046C000704718467047094B10B5074C53F8303007
:1046D00023600121FEF7F4F8236800221A700120FC
:1046E00010BD00BF34800440481DFF1F3C7B00000C
:1046F0000F4B1B6813F4006308D0172808D03C2820
:1047000011D00C4A537B03F0FE0353730020704713
:10471000094B40F202321A60064A537B43F0010310
:10472000537301207047054B40F202321A60F3E7E1
:104730003480044000B0064008B0044008D0044073
:104740002DE9F84F234B1B681A053BD5224B1B68FC
:104750000BB101221A70DFF89090204D99F80040BB
:10476000DFF888801E4E0134272C8ABF4FF0000AE4
:104770005FFA84FA54460746AB462B789C4216D122
:10478000FDF770FD40281FDC33791B06F5D59BF83B
:1047900000300133272B86BF00221346DAB218F807
:1047A0000330DBB2F3712A702B789C42E8D00D49BC
:1047B0000B4BFFB20120BC2208F80470087089F886
:1047C00000A0DA70BDE8F88FFF28D6DDFFF788F982
:1047D000D3E700BF34800440BC1DFF1FB91DFF1F7D
:1047E00000B006404C1DFF1FC01DFF1F501DFF1FC6
:1047F0002DE9F84F294B1B681A0548D5284B1B6833
:1048000005460BB101221A7005EB010A554540D24D
:10481000DFF89C80234CDFF89C90234F0AE015F8CA
:10482000012B09F80B20214A0123AA45137088F8AF
:1048300000602ED098F80030227803F1010BBBF114
:10484000270F86BF0026B3465FFA8BF69345E6D165
:10485000BC22FA7005E03A7913060BD4227893450E
:10486000DDD1FDF7FFFC4028F5DDFF28F6DDFFF781
:1048700037F9F3E722780132272A86BF00210A465A
:10488000D1B219F80220D2B2FA712170E6E7BDE880
:10489000F88F054BBC22DA70BDE8F88F34800440F5
:1048A000BC1DFF1FB91DFF1F00B006404C1DFF1FA0
:1048B000C01DFF1F501DFF1F10B5044C237823B1EE
:1048C000FFF70EF92378002BFAD110BD4C1DFF1F06
:1048D000064A074B1B781078DBB2C0B283422CBF6C
:1048E000273000F1FF30C01A704700BFB91DFF1F0D
:1048F000C01DFF1F054A064B10781B78C0B2DBB203
:10490000984238BF4030C01A704700BFB81DFF1F23
:104910004D1DFF1F30B4154B154C1A782378D2B2B9
:10492000DBB29A421ED001333F2B0ED91149124BF4
:10493000087819680023C0B2237021B1D31A1A2B4A
:1049400001DC00230B7030BC70470A480A49C05C88
:104950000968DDB2C0B225700029F4D09A4238BF90
:104960004032EBE74FF0FF30EDE700BFB81DFF1F0F
:104970004D1DFF1F781DFF1F481DFF1F084A094BD3
:1049800012781B78DBB29A4207D00133402B28BF44
:104990000023054AD05CC0B270474FF0FF3070472B
:1049A000B81DFF1F4D1DFF1F781DFF1F0D4B1B68FE
:1049B0001B0516D530B40C4B0C4CDA780C480D495D
:1049C00002F0CB024025DA705D74DA7842F03402EE
:1049D000DA7023780268DBB20B700AB1002313701F
:1049E00030BC70473480044000B006404D1DFF1FAE
:1049F000481DFF1FB81DFF1FF0B4384B1A7912F085
:104A0000300F2CD072B6997D01F0FF0200293DD005
:104A100062B6334F334938780D78334E1C46C0B2F6
:104A2000EDB2431C402BE17928BF0023AB4202F1D9
:104A3000FF32C9B21CBFF154184612F0FF02F0D188
:104A40002A4B1B68C2B23A704BB1A84236BFC5F1BF
:104A50004005401B40192728C4BF01221A701F4976
:104A6000CA78D2B2150616D452060DD51B4B1B7947
:104A70005B0609D51E4B1F491B6800220A7003B153
:104A80001A70164B3C22DA70F0BC70474022D9797C
:104A90005A7462B6E3E70B791C06E5D5164B174E40
:104AA0001C783378E4B2DBB29C420ED0144D01E0A6
:104AB000A3420AD00133282B28BF00230879E85CE1
:104AC000C0B2C871087D0728F2D9DBB20349337040
:104AD0000B79180644BF7C23CB70C5E700B00640B5
:104AE000B81DFF1F4D1DFF1F781DFF1F481DFF1F15
:104AF000BC1DFF1F4C1DFF1FC01DFF1FB91DFF1F49
:104B0000501DFF1F2DE9F84F214B1B6807460BB1C5
:104B100001221A70DFF888901E4D99F80040DFF8E6
:104B200084801D4E0134272C8ABF4FF0000A5FFAA3
:104B300084FA5446AB462B78A34216D1FDF792FB7C
:104B400040281FDC33791B06F5D59BF80030013374
:104B5000272B86BF00221346DAB218F80330DBB2E7
:104B6000F3712A702B78A342E8D00C490A4BFFB2AC
:104B700008F804700120AC22087089F800A0DA70EF
:104B8000BDE8F88FFF28D6DDFEF7AAFFD3E700BF08
:104B9000381EFF1F351EFF1F00C00640341EFF1FBA
:104BA0003C1EFF1FCC1DFF1F174A18491368F0B5A4
:104BB00043F48053164C174D174FDFF874E0136021
:104BC000164E174A002323708EF80030154C2B70B8
:104BD0000B703B7040F213373760134D1349C0F32D
:104BE00044364FF4517727601670C0F347142C27D2
:104BF00000F01F00402654709072082493701374C4
:104C0000D7702E700C60F0BD34800440351EFF1F3D
:104C1000C81DFF1F3C1EFF1F341EFF1F08C004409D
:104C200000C006400CC0044023E400E004E100E0C2
:104C3000C91DFF1F194B19499B7803F0EC0200F0C6
:104C400003031343420700F00F0248BF43F0100371
:104C5000042A8B701CD0114B104A5B79C10603F0FB
:104C6000EF0348BF43F0100353719379820603F0BA
:104C7000EF030A4A48BF43F010039371C30506D5FA
:104C800053781178DBB241F02001117053707047F6
:104C90008B7943F040038B71DDE700BF00C0064015
:104CA000F8B5114B1B68DB041CD5104C237823B1DD
:104CB000FEF716FF2378002BFAD10D4B0D4F0E4E49
:104CC0000E4D0F4C0F48104908221A600023FB704C
:104CD00040F2031232602A60226803700B7012B136
:104CE00001231370F8BDF8BD34800440341EFF1F4B
:104CF00084E100E000C0064008C004400CC004404D
:104D0000C41DFF1FC81DFF1FC91DFF1F0A4A38B55C
:104D10000546137803F0FF04002BFAD10121284641
:104D2000FDF7CEFD21462846FDF7B6FD034A044BAC
:104D300052F835201A6038BD341EFF1F3C7B00003E
:104D4000381EFF1F09B140F08000104A13789842C6
:104D50001AD010B40E4C2468E40412D503F07F037B
:104D6000082B02D10B4B00241C60002900F07F03AC
:104D700014BF60214421082B03D1064B41F440713C
:104D8000196010705DF8044B704700BFFF10FF1FE3
:104D9000348004400CC00440704700BF0D4B1B68BA
:104DA00013F4805305D03F2805D90B4B0020186021
:104DB000704718467047094B10B5074C53F8303010
:104DC00023600121FDF77CFD236800221A70012079
:104DD00010BD00BF34800440C41DFF1F3C7B000099
:104DE0000C4B1B6813F4805306D00E2806D00A4AD9
:104DF000537B03F0FE03537300207047074B064AB2
:104E000040F202311960537B43F0010353730120D8
:104E1000704700BF3480044000C0064004C0044016
:104E2000034B1B68DB0401D5FFF76CBE704700BF66
:104E30003480044070B5094E04464518AC4204F174
:104E400001040AD03368DB04F8D514F8010CFFF72D
:104E500059FEAC4204F10104F4D170BD3480044029
:104E600010B5044C237823B1FEF73AFE2378002BCB
:104E7000FAD110BD341EFF1F064A074B1B7810786D
:104E8000DBB2C0B283422CBF273000F1FF30C01A22
:104E9000704700BF351EFF1F3C1EFF1F054A064B13
:104EA00010781B78C0B2DBB2984238BF4030C01ACD
:104EB000704700BFC81DFF1FC91DFF1F30B4154B31
:104EC000154C1A782378D2B2DBB29A421ED0013345
:104ED0003F2B0ED91149124B087819680023C0B234
:104EE000237021B1D31A1A2B01DC00230B7030BCC4
:104EF00070470A480A49C05C0968DDB2C0B2257033
:104F00000029F4D09A4238BF4032EBE74FF0FF302F
:104F1000EDE700BFC81DFF1FC91DFF1FF41DFF1FC8
:104F2000C41DFF1F084A094B12781B78DBB29A4256
:104F300007D00133402B28BF0023054AD05CC0B204
:104F400070474FF0FF307047C81DFF1FC91DFF1F7E
:104F5000F41DFF1F054B064A1B7806491268DBB299
:104F60000B700AB100231370704700BFC91DFF1FEB
:104F7000C41DFF1FC81DFF1F30B42B4B1A799406A8
:104F80001FD52A48DA790378294901333F2B09785C
:104F9000C8BF00238B42D2B203D0264CD9B2E25410
:104FA0000170254A116861B1244A1278D2B2934245
:104FB00036BFC2F140029B1A9B18272BC4BF0123A6
:104FC0000B70194AD378DBB2180611D45A060DD5E6
:104FD000154B1B795B0609D5194B1A491B68002232
:104FE0000A7003B11A70104B2C22DA7030BC704773
:104FF00011790906EAD5144910480C780178C9B22C
:105000008C420DD04A1C272A84BF00210A460F4D2E
:10501000054C98BFD1B2AA5CD2B2E2710170D5E75B
:105020006C21D170D2E700BF00C00640C81DFF1F31
:10503000C91DFF1FF41DFF1FC41DFF1F351EFF1FCD
:10504000381EFF1F341EFF1F3C1EFF1FCC1DFF1FFD
:105050002DE9F84F214B1B6807460BB101221A704E
:10506000DFF888901E4D99F80040DFF884801D4ECF
:105070000134272C8ABF4FF0000A5FFA84FA5446A5
:10508000AB462B78A34216D1FDF7ECF840281FDC85
:1050900033791B06F5D59BF800300133272B86BFEB
:1050A00000221346DAB218F80330DBB2F3712A702B
:1050B0002B78A342E8D00C490A4BFFB208F80470E1
:1050C0000120AC22087089F800A0DA70BDE8F88FE2
:1050D000FF28D6DDFEF704FDD3E700BFB41EFF1F97
:1050E000B11EFF1F00D00640B01EFF1FB81EFF1FDD
:1050F000481EFF1F244A25491368F0B443F40053A7
:1051000013600A78224F234E234D244C2449002358
:105110001F2A3B7033702B7023700B702FD03F2AE7
:1051200020D0204B1B78202B24D03E2B03D11E4BAC
:105130004FF451721A601D4B1D4D1E49C0F3443689
:105140001E70C0F3471400222C27402600F01F00D9
:105150005C70987220249A701A74DF702E700C6044
:10516000F0BC7047144B40F213321A600D4B1B78A1
:10517000202BDAD1114B4FF451721A60DBE7104B40
:1051800040F213321A60CCE7348004400011FF1F54
:10519000441EFF1F451EFF1FB81EFF1FB11EFF1F2D
:1051A000B01EFF1F0111FF1F10D0044000D00640A9
:1051B00025E400E004E100E014D004402CA0044009
:1051C00028A00440194B19499B7803F0EC0200F029
:1051D00003031343420700F00F0248BF43F01003DC
:1051E000042A8B701CD0114B104A5B79C10603F066
:1051F000EF0348BF43F0100353719379820603F025
:10520000EF030A4A48BF43F010039371C30506D564
:1052100053781178DBB241F0200111705370704760
:105220008B7943F040038B71DDE700BF00D006406F
:10523000204B1B689B043BD510B51F4C237823B132
:10524000FEF74EFC2378002BFAD11C481C491D4B5D
:10525000202400220460CA701B781F2B19D03F2B1A
:1052600001D1194B1A60194B1B7803F07F03202BD7
:1052700019D03E2B02D1164B00221A60154B16484E
:1052800016491A68002303700B700AB101231370CA
:1052900010BD134B40F203121A600C4B1B7803F045
:1052A0007F03202BE5D10F4B40F203121A60E5E794
:1052B000704700BF34800440B01EFF1F84E100E04F
:1052C00000D006400011FF1F14D004400111FF1F41
:1052D00010D00440401EFF1F441EFF1F451EFF1F2D
:1052E00028A004402CA004400A4A38B5054613788B
:1052F00003F0FF04002BFAD101212846FDF7E0FA64
:1053000021462846FDF7C8FA034A044B52F83520D7
:105310001A6038BDB01EFF1F3C7B0000B41EFF1F8B
:1053200009B140F08000174A1378984217D010B4A2
:10533000154C2468A4040FD503F07F03202B1DD047
:105340003E2B12D0002900F07F0114BF60234423BC
:1053500020290ED03E2903D010705DF8044B704711
:105360000A4943F440730B60F6E7084B00241C60C5
:10537000E8E7074943F440730B60EDE7044B002472
:105380001C60DFE70111FF1F3480044010D004408F
:105390002CA00440124B1A7882420CD011490968A3
:1053A000890407D51F2A16D03F2A0AD01F280DD0FE
:1053B0003F2801D0187070470B4A40F2133111603A
:1053C000F8E7094A00211F281160F1D1074A40F28D
:1053D00013311160EEE7054A00211160E6E700BFD6
:1053E0000011FF1F3480044014D0044028A0044062
:1053F0000D4B1B6813F4005305D03F2805D90B4B08
:1054000000201860704718467047094B10B5074CCC
:1054100053F8303023600121FDF752FA236800224F
:105420001A70012010BD00BF34800440401EFF1FD1
:105430003C7B000000207047034B1B689B0401D598
:10544000FFF706BE704700BF3480044070B5094EB8
:1054500004464518AC4204F101040AD033689B04A9
:10546000F8D514F8010CFFF7F3FDAC4204F1010488
:10547000F4D170BD3480044010B5044C237823B1BE
:10548000FEF72EFB2378002BFAD110BDB01EFF1FB4
:10549000064A074B1B781078DBB2C0B283422CBFA0
:1054A000273000F1FF30C01A704700BFB11EFF1F48
:1054B000B81EFF1F054A064B10781B78C0B2DBB23E
:1054C000984238BF4030C01A704700BF441EFF1FCB
:1054D000451EFF1F30B4154B154C1A782378D2B2F5
:1054E000DBB29A421ED001333F2B0ED91149124B29
:1054F000087819680023C0B2237021B1D31A1A2B7F
:1055000001DC00230B7030BC70470A480A49C05CBC
:105510000968DDB2C0B225700029F4D09A4238BFC4
:105520004032EBE74FF0FF30EDE700BF441EFF1FB6
:10553000451EFF1F701EFF1F401EFF1F084A094B1C
:1055400012781B78DBB29A4207D00133402B28BF78
:105550000023054AD05CC0B270474FF0FF3070475F
:10556000441EFF1F451EFF1F701EFF1F054B064AEE
:105570001B7806491268DBB20B700AB10023137066
:10558000704700BF451EFF1F401EFF1F441EFF1F28
:1055900030B42B4B1A7994061FD52A48DA79037850
:1055A000294901333F2B0978C8BF00238B42D2B26F
:1055B00003D0264CD9B2E2540170254A116861B17A
:1055C000244A1278D2B2934236BFC2F140029B1AEB
:1055D0009B18272BC4BF01230B70194AD378DBB269
:1055E000180611D45A060DD5154B1B795B0609D543
:1055F000194B1A491B6800220A7003B11A70104B2C
:105600002C22DA7030BC704711790906EAD51449AA
:1056100010480C780178C9B28C420DD04A1C272A58
:1056200084BF00210A460F4D054C98BFD1B2AA5C39
:10563000D2B2E2710170D5E76C21D170D2E700BF20
:1056400000D00640441EFF1F451EFF1F701EFF1F97
:10565000401EFF1FB11EFF1FB41EFF1FB01EFF1F05
:10566000B81EFF1F481EFF1F2DE9F84F214B1B6876
:1056700007460BB101221A70DFF888901E4D99F889
:105680000040DFF884801D4E0134272C8ABF4FF084
:10569000000A5FFA84FA5446AB462B78A34216D12F
:1056A000FCF7E0FD40281FDC33791B06F5D59BF89D
:1056B00000300133272B86BF00221346DAB218F8D8
:1056C0000330DBB2F3712A702B78A342E8D00C4987
:1056D0000A4BFFB208F804700120AC22087089F868
:1056E00000A0DA70BDE8F88FFF28D6DDFEF7F8F9E4
:1056F000D3E700BF301FFF1F2D1FFF1F00A00E406C
:105700002C1FFF1F341FFF1FC41EFF1F174A1849FD
:105710001368F0B543F48063164C174D174FDFF84C
:1057200074E01360164E174A002323708EF8003081
:10573000154C2B700B703B7040F213373760134DD4
:105740001349C0F344364FF4517727601670C0F305
:1057500047142C2700F01F00402654709072042438
:1057600093701374D7702E700C60F0BD28800440C5
:105770002D1FFF1FC01EFF1F341FFF1F2C1FFF1FE9
:1057800064D0044000A00E4060D0044042E400E039
:1057900008E100E0C11EFF1F194B19499B7803F077
:1057A000EC0200F003031343420700F00F0248BF6E
:1057B00043F01003042A8B701CD0114B104A5B7904
:1057C000C10603F0EF0348BF43F010035371937910
:1057D000820603F0EF030A4A48BF43F010039371B7
:1057E000C30506D553781178DBB241F02001117062
:1057F000537070478B7943F040038B71DDE700BF36
:1058000000A00E40F8B5114B1B685B051CD5104C71
:10581000237823B1FEF764F92378002BFAD10D4BDE
:105820000D4F0E4E0E4D0F4C0F48104904221A60BA
:105830000023FB7040F2031232602A60226803707A
:105840000B7012B101231370F8BDF8BD288004401D
:105850002C1FFF1F88E100E000A00E4064D0044030
:1058600060D00440BC1EFF1FC01EFF1FC11EFF1FD3
:105870000A4A38B50546137803F0FF04002BFAD125
:1058800001212846FDF71CF821462846FDF704F8BB
:10589000034A044B52F835201A6038BD2C1FFF1FF5
:1058A0003C7B0000301FFF1F09B140F08000104A10
:1058B000137898421AD010B40E4C2468640512D59F
:1058C00003F07F03212B02D10B4B00241C60002925
:1058D00000F07F0314BF60214421212B03D1064B2C
:1058E00041F44071196010705DF8044B704700BFBF
:1058F0000211FF1F2880044060D00440704700BFA1
:105900000D4B1B6813F4806305D03F2805D90B4B62
:1059100000201860704718467047094B10B5074CB7
:1059200053F8303023600121FCF7CAFF23680022BE
:105930001A70012010BD00BF28800440BC1EFF1F4C
:105940003C7B00000C4B1B6813F4806306D01828C6
:1059500006D00A4A537B03F0FE03537300207047BE
:10596000074B064A40F202311960537B43F00103B2
:1059700053730120704700BF2880044000A00E40F0
:1059800068D00440034B1B685B0501D5FFF76CBE74
:10599000704700BF2880044070B5094E0446451882
:1059A000AC4204F101040AD033685B05F8D514F861
:1059B000010CFFF759FEAC4204F10104F4D170BDB3
:1059C0002880044010B5044C237823B1FEF788F8F2
:1059D0002378002BFAD110BD2C1FFF1F064A074B5E
:1059E0001B781078DBB2C0B283422CBF273000F1A5
:1059F000FF30C01A704700BF2D1FFF1F341FFF1F4D
:105A0000054A064B10781B78C0B2DBB2984238BF0B
:105A10004030C01A704700BFC01EFF1FC11EFF1FCD
:105A200030B4154B154C1A782378D2B2DBB29A42B7
:105A30001ED001333F2B0ED91149124B087819683B
:105A40000023C0B2237021B1D31A1A2B01DC00232A
:105A50000B7030BC70470A480A49C05C0968DDB267
:105A6000C0B225700029F4D09A4238BF4032EBE72B
:105A70004FF0FF30EDE700BFC01EFF1FC11EFF1F2C
:105A8000EC1EFF1FBC1EFF1F084A094B12781B7833
:105A9000DBB29A4207D00133402B28BF0023054ACE
:105AA000D05CC0B270474FF0FF307047C01EFF1F80
:105AB000C11EFF1FEC1EFF1F054B064A1B7806493F
:105AC0001268DBB20B700AB100231370704700BF7D
:105AD000C11EFF1FBC1EFF1FC01EFF1F30B42B4B7B
