:1000000000000320D1010000651F00001D1F00003B
:100010001D1F00001D1F00001D1F00001D1F0000F0
:100020001D1F00001D1F00001D1F0000651F000098
:10003000651F00001D1F0000651F00000D1F000050
:10004000651F0000651F0000651F0000651F0000A0
:10005000651F0000651F0000651F0000651F000090
:10006000651F0000651F0000651F0000651F000080
:10007000651F0000651F0000651F0000651F000070
:10008000651F0000651F0000651F0000651F000060
:10009000651F0000651F0000651F0000651F000050
:1000A0008D18000099180000651F0000651F0000F2
:1000B000651F0000651F0000651F00000D3900006E
:1000C000651F0000393A0000651F0000653B000015
:1000D000651F00005D3C0000651F0000651F0000FB
:1000E000651F0000651F0000651F0000651F000000
:1000F000651F0000651F0000651F0000651F0000F0
:10010000651F0000651F0000651F0000651F0000DF
:10011000651F0000A1290000651F0000651F000089
:10012000651F0000651F0000651F0000651F0000BF
:10013000651F0000651F0000651F0000651F0000AF
:10014000651F0000651F0000553D0000651F000091
:10015000651F0000651F0000651F0000651F00008F
:10016000651F0000651F0000A5180000651F000046
:10017000651F0000651F0000651F0000651F00006F
:10018000651F0000651F0000651F0000651F00005F
:10019000651F0000651F00004D3E0000651F000048
:1001A000651F0000651F0000651F0000B1180000FA
:1001B000651F0000651F0000651F0000651F00002F
:1001C000651F0000651F0000651F0000651F00001F
:1001D0005C4B4CF2205210B51A804DF628121A8052
:1001E00000BF00BF01F0C2FE574B4FF030621A60F3
:1001F000564A9A60564ADA60564B4FF470021A60BB
:10020000554B564A1A60564A136813F4807304D14A
:1002100054490B604FF4A8531360534B1A781107DD
:1002200003D51A7842F008021A70504B5049AA229E
:100230001A70504A504B8B4204D252F8040F43F8C4
:10024000040BF8E74D4B4E4900228B4202D243F893
:10025000042BFAE74B494C4A002352F8230041F89B
:1002600023000133742BF8D1484B494A802103F80D
:10027000011B9342FBD1474B424A1A60464B8A22EC
:100280001A70A3F5805324225A70A0221A709A790A
:100290009207FCD59A79D406FCD4404A937903F0AE
:1002A0000C03082BFAD13E4B60221A7002331A78E5
:1002B000802AFCD1394B01221A715D225A719A7938
:1002C0009006FCD59979354A4906FBD5354B364918
:1002D00019600021596020231370937903F00C03F7
:1002E0000C2BFAD1314B324A1A60324B324A1A6027
:1002F00000225A60072243F8042C304AC3F80C2D20
:1003000062B602F0DFF9174B1B68DA0705D52C48F7
:1003100001F0E0FE2B4B2C4A1A602C4B1B785B063D
:1003200009D5284C284B22689A4204D1244801F070
:10033000D1FE0023236003F05BFE01F01DFE03F0FD
:1003400045FAFEE70E20054030800440823F04005D
:100350000100002B88ED00E0002008E0030000858C
:1003600010D0034014D0034002D0074000E0074003
:10037000EC19FF1F745100003007FF1FEC19FF1F1D
:10038000CC26FF1F0002FF1F0000000000E400E079
:1003900064E400E008ED00E0005006400040064044
:1003A00001E007404480044000000602048004404D
:1003B000C010070014E000E01FBF02000000202072
:1003C000085A56591CE00340A5C3945A00F0074050
:1003D000FFFFFFFFFFFFFFFFFFFFFFFFFFFFFFFF2D
:1003E000FFFFFFFFFFFFFFFFFFFFFFFFFFFFFFFF1D
:1003F000FFFFFFFFFFFFFFFFFFFFFFFFFFFFFFFF0D
:10040000FFFFFFFFFFFFFFFFFFFFFFFFDEF9FFFF23
:1004100010B5054C237833B9044B13B10448AFF33E
:1004200000800123237010BDEC19FF1F00000000A5
:1004300078510000084B10B51BB108490848AFF3CC
:1004400000800848036803B910BD074B002BFBD0A0
:10045000BDE81040184700BF00000000F019FF1F62
:1004600078510000EC19FF1F00000000F0B50746AE
:100470008FB060B10EAB1D18134E353D0DF1030466
:10048000306900F04DFF04F8010FAC42F8D19DF83F
:1004900004305A1F022A00D91BB90C4A13700FB03E
:1004A000F0BD0B4D0B4B2C68C82000FB04303A46C6
:1004B00001A901F05BFA0134082CCABF00232C60AB
:1004C0002B600FB0F0BD00BF4C22FF1F3407FF1F91
:1004D0002022FF1F301AFF1F38B50D4D04460B2197
:1004E0000C4802F09DFF284603F020F913210A482A
:1004F00002F096FF214600231022284603F026F939
:10050000284603F013F9054BE4431C6038BD00BFD7
:10051000F810FF1F604A00006C4A00000022FF1F15
:10052000F8B50F4D0F4B29681B68994214D00E4F38
:10053000C82606FB0171324601F018FA2C683246D3
:1005400006FB0470FF2104F043F80134082CCABFF5
:1005500000232C602B60F8BDFF230370F8BD00BFA3
:100560000822FF1F2022FF1F301AFF1F70B50B4DFE
:100570001A20A5F10C060024C0B202F019F864009C
:10058000012808BF0134B54202D055F8040DF3E745
:10059000034B01225C701A7070BD00BF1C4A000042
:1005A0000C1AFF1F10B5114C002308222360636052
:1005B00023724320227001F0EFFB034602120E204B
:1005C000A370627001F0E8FB034602120F20237152
:1005D000E27001F0E1FB034602121020A371627188
:1005E00001F0DAFB03122072E37110BD241AFF1F21
:1005F0002DE9F04788B020220021684603F0E8FF8B
:1006000001F0EAFF814601F0E7FF41F28738C9EBCC
:10061000000040454FF000071BD8ADF1040A1D4E05
:1006200055462120002401E056F8040FC0B201F025
:10063000B3FB55F8043F01341844082C4AF8040F62
:10064000F2D101F0C9FFC9EB0000404507F10107F5
:10065000E3D9114B00201024186019461C70ADF12D
:10066000040258609860D86018741C1952F8043F4E
:1006700093FBF7F3002B1846B8BF03F1FF000012FD
:10068000487001F8023FA1421360EFD108B0BDE805
:10069000F08700BF404A0000101AFF1FF8B5124B48
:1006A0001E781B78013B042B054613D8F6B2013E99
:1006B000002E0EDD0D4F1520002415F8011FC0B2CD
:1006C0000134090201F018FDB44202DA57F8040FB0
:1006D000F3E7F8BD2821064802F0A2FE054803F022
:1006E00025F80426E6E700BF0422FF1FF0490000BA
:1006F000F04B0000F810FF1F70B50A4D06461B2393
:10070000002446FA04F111F00101D8B204BF00211F
:10071000D8B2013401F046FF042C02D055F8043F52
:10072000EFE770BD004A0000F8B505460A4E0B4FD2
:100730000220002401E057F8040F6A7815F8023F00
:1007400003EB02230134C0B2194626F8023F01F040
:10075000D3FC082CEFD1F8BD0A22FF1F204A00006D
:100760002DE9F041164E174D08234FF002084FF4C3
:100770001672042401064CBFC5F80080C6F800803C
:100780004FF4167711460139FDD1DFF838C02C60DF
:1007900011460139FDD1DFF828E0346011460139F6
:1007A000FDD1013B13F0FF034FEA4000E2D10823E3
:1007B000CCF80030013FFDD1CEF80030BDE8F0812B
:1007C00048F00F4044F00F4010B5102104460B488C
:1007D00002F026FE16210A4802F022FE21460023DE
:1007E0000A22084802F0B2FF0221074802F018FE70
:1007F0002046BDE81040FFF7B3BF00BF284C000003
:100800003C4C0000F810FF1F544C000010B5B2B073
:10081000C8220021684603F0DBFE204B1A68013233
:100820001A601A68C82A08BF0022684608BF1A6002
:10083000FFF776FE9DF80030FF2B0CD0013B072B15
:1008400009D8DFE803F01D210426080808109DF8E8
:100850000100FFF7B9FFFFF7CBFEFFF7A3FEFFF79D
:1008600085FE32B010BD09219DF801400C4802F010
:10087000D7FD0C4802F05AFF2046FFF72DFEEAE7AD
:100880006846FFF751FFE6E79DF80100FFF734FFE8
:10089000E1E76846FFF702FFDDE700BF1C22FF1F0C
:1008A0001C4C0000F810FF1F2DE9F041164E174DAB
:1008B00010234FF002084FF41672042401044CBFB9
:1008C000C5F80080C6F800804FF41677114601394C
:1008D000FDD1DFF838C02C6011460139FDD1DFF8B9
:1008E00028E0346011460139FDD1013B13F0FF03CC
:1008F0004FEA4000E2D10823CCF80030013FFDD19F
:10090000CEF80030BDE8F08148F00F4044F00F40D1
:10091000F0B5012189B0084601F058FE01211320ED
:1009200001F054FE0121112001F050FE012112209E
:1009300001F04CFE01211F2001F048FE0121202082
:10094000604D01F043FE05F10C061B24E4B2204685
:10095000012101F03BFE2046002101F023FEAE42C2
:1009600002D055F8044FF1E7574D022405F11C065B
:1009700001E055F8044FE4B20121204601F026FEC3
:1009800020469FED520A01F067FD2046002101F04C
:10099000B3FBAE42EDD100210C2001F017FE002187
:1009A000182001F013FE4A4C0021192001F00EFE20
:1009B0001A20002101F00AFE04F11C05212001E0AB
:1009C00054F8040FC0B2002101F000FEA542F7D197
:1009D000404D152405F10C06E4B22046012101F03A
:1009E000F5FD20469FED3C0A01F036FDB54202D0F0
:1009F00055F8044FF0E70021432001F0E7FD002106
:100A00000E2001F0E3FD00210F2001F0DFFD0021A9
:100A1000102001F0DBFD102001F00EFD0C2001F094
:100A200051F94FF4807001F081F92C4B2C4C2D4A78
:100A30002D4D2E4F00211970206840F6C4111378F7
:100A40003BB12B789B0704D023683E689B1B182B77
:100A500003D823681B1A8B42F1D923212448254D42
:100A600002F0DEFC244802F061FE23680793234B6A
:100A7000079A1A604FF47A7001F0D2FD204B214C96
:100A80001869597BC0F85C42002301241E4AC0F853
:100A900060222246029300930494662301940395F6
:100AA00000F0AEFB4FF47A7001F0BAFD2046FFF77C
:100AB000FBFE0A21154802F0B3FC0F4802F036FE97
:100AC00009B0F0BD004A0000204A00000000484381
:100AD000404A0000F049000000401C460422FF1F6D
:100AE0007C22FF1F6023FF1F7823FF1FC426FF1FE8
:100AF000584C0000801A0600F810FF1F081AFF1F4C
:100B00004C22FF1F6D040000550B00007C4C0000C0
:100B100030B5202183B00C4802F082FC0B4802F073
:100B200005FE04220023032506240DEB02010848DC
:100B30008DF804508DF805308DF806308DF807409B
:100B400000F084F803B030BD244D0000F810FF1F02
:100B50004C22FF1F10B5144C237843B1072B0BD048
:100B6000052B11D0062B17D0FF23237010BDFFF7E4
:100B7000CFFF2378072BF3D111220C490C4800F04A
:100B800065F82378052BEDD109220A49084800F0C1
:100B90005DF82378062BE7D102220749044800F0CC
:100BA00055F8FF23237010BD3407FF1F101AFF1FD5
:100BB0004C22FF1F241AFF1F0C1AFF1F0020704732
:100BC0000369D3F83801D3F83431C01A704700BF35
:100BD0000369D3F83411D3F83821914208D2D3F8FD
:100BE0003421511C1A44C3F8341192F83000704774
:100BF0004FF0FF30704700BF0369D3F83411D3F8CA
:100C0000382191423DBFD3F834219B1893F830002E
:100C10004FF0FF30704700BF704700BF0369D3F843
:100C20004422B2F5817F03D901230371002070476C
:100C3000D3F8442210B49C180132C3F8442284F83B
:100C40003C1101205DF8044B704700BFF0B405690A
:100C5000D5F84432B3F5817F20D8D5F84462D5F871
:100C60004442C6F581760136964205F59E7302D25E
:100C70000127324607714AB1013C23448D1811F80F
:100C8000014B03F8014FA942F9D10569D5F8443267
:100C90001344C5F844321046F0BC70470123037179
:100CA000F0BC0020704700BF38B503690A4A0260F3
:100CB00093F84822022A044601D0204638BDD3F8D2
:100CC0006452002DF9D0284602F014FD284602F0A7
:100CD00087FD204638BD00BF504D00002DE9F04F84
:100CE00083B0002B40F2645540F2647440F2035725
:100CF00040F2037840F2032602BF2F46A0464FF48D
:100D000019769DF830E041B9541EE4B2052C20D983
:100D10008946484603B0BDE8F08F012930D1052A45
:100D200038D189460C46924605469B46BEF1000FD7
:100D30001CD090F84B2290F84A32002A0CBF0022B7
:100D40000222072B12D8DFE803F0B876818C97A235
:100D5000AD6B5F4D15F80490B9F1000FD9D00C467A
:100D6000924605469B46BEF1000FE2D14CBB0AF10C
:100D7000FF33052B1DD8DFE803F04C47423D1C38FC
:100D8000022903D132B94FF00109CBE7032901D180
:100D9000072AF8D04FF00009484603B0BDE8F08FAD
:100DA000032C06D1BAF1070F03D14A4A4A4B166009
:100DB0001E60484685F84AA285F84BB203B0BDE8EC
:100DC000F08F012C07D1BAF1050FF2D1434A444B01
:100DD00016601E60EDE7022CE2D1BAF1000FE8D1F7
:100DE000404A414B17601F60E3E7404A404B1660A2
:100DF0001E60DEE73F4A404B17601F60D9E73F4A5D
:100E00003F4B16601E60D4E73E4A3F4B16601E60A3
:100E1000CFE73E4A3E4BC2F80080C3F80080C8E7E7
:100E200011463820019201F0D1FB019A3920114678
:100E300001F0CCFB9AE711460820019201F0C6FBB5
:100E4000019A0720114601F0C1FB8FE711461120DE
:100E5000019201F0BBFB019A1020114601F0B6FB94
:100E600084E711461220019201F0B0FB019A132091
:100E7000114601F0ABFB79E711462220019201F007
:100E8000A5FB019A2120114601F0A0FB6EE7114657
:100E90002620019201F09AFB019A2520114601F0CB
:100EA00095FB63E711463020019201F08FFB019A18
:100EB0002F20114601F08AFB58E7114604200192C9
:100EC00001F084FB019A0320114601F07FFB4DE7FE
:100ED0006C4D000028D004402CD004402CB00440BD
:100EE00028B00440349004403090044024C00440B2
:100EF00020C0044064D0044060D004400CA00440F2
:100F000008A0044004A0044000A004400CC0044019
:100F100008C00440F8B5C3681B789B0610D48368EA
:100F20000D4680211970C3681221197090F849325A
:100F3000012B044606D08AB980F848220120F8BD6A
:100F40000020F8BD1A4675B9784B4FF080711960D2
:100F5000022A0FD0012084F84802F8BD531E012B4D
:100F6000F1D90120F8BD012D4AD1704B4FF000712D
:100F70001960EDE7D4F86462002E00F096803379B2
:100F8000202B30D0002D42D132686949938B694FB4
:100F90009BB243F0080393833279531102F110009E
:100FA0009B0041F8207003F1604303F56143012188
:100FB00002F01F0201FA02F231681A608B8B9BB2B9
:100FC00043F002038B83337903F1804303F5043349
:100FD00092221D701A700022022384F85A2284F88B
:100FE00048320120F8BD304602F084FB304602F062
:100FF000F7FB00230120C4F8643284F84802F8BDEE
:10100000022D5DD14C4B4FF480611960A0E7012D9A
:1010100026D132684649938B484F9BB243F0080370
:1010200093833279531102F110009B0041F8207034
:1010300003F1604303F5614302F01F0295403268FB
:101040001D60938B9BB243F002039383337903F1CA
:10105000804303F504330021932219701A70BAE714
:10106000022D35D1D4F8641231480A68344E938B7E
:101070009BB243F0080393830A79531102F11005E0
:101080009B0040F8256003F1604303F561430120B4
:1010900002F01F0200FA02F208681A60838B9BB20A
:1010A00043F0020383830B79D1E7082002F096FB1B
:1010B000314607463E4602F0B7FAC4F864725EE76E
:1010C000032D7FF445AF1C4B4FF0006119603FE7E3
:1010D000032D80D1D4F8641215480A68194E938BF9
:1010E0009BB243F0080393830A79531102F1100570
:1010F0009B0040F8256003F1604303F56143012044
:1011000002F01F0200FA02F208681A60838B9BB299
:1011100043F0020383830B7903F1804303F5043327
:101120000021922219701A7055E700BF00E100E01B
:101130000002FF1F8D18000008E100E09918000070
:10114000A5180000B1180000F0B5284EDFF8ACE09B
:10115000A6FB0143A6FB02429E093702754696098B
:1011600014240023B7FBF6F604E00133382B1BD020
:1011700055F8044F22029642F7DA83BB14241C4A26
:101180004568B1FBF4F491422B70C0F84C4207D88B
:10119000184B8269A3FB0131C1F307511170F0BDF7
:1011A000836904221A70F0BD002422464FF4702790
:1011B0004FF470654FF0370CB21AF71B002A87EA1C
:1011C000E776A6EBE776B8BF5242964202DD0A4ABE
:1011D000D35CD4E7084B2C4613F80C30CFE703F16F
:1011E000FF3C5EF82C502F02E6E700BFD34D6210A3
:1011F000FF6BDC02819F5E16544E0000744D0000B0
:10120000F0B583B004469DF824709DF820009DF849
:1012100028E09DF830600D4679BBDFF8FCC0DCF8B3
:10122000001041F04001CCF80010002184F8492260
:1012300084F8511292BB63692021197023681A70D7
:10124000E3691A70002173463A4600912046294608
:10125000FFF744FD0B9A2F492046FFF775FF3246F2
:1012600029462046FFF756FE94F84932002B38D025
:10127000A368C0221A7003B0F0BD012926D1DFF89F
:1012800098C0DCF8001041F08001CCF8001000217B
:1012900084F8492284F85112002ACCD0626960B1E6
:1012A000282111709842226820D95B00DBB21370AC
:1012B0004000E369C0B21870C4E7202111705B00E0
:1012C0002268D9B21170E3691870BBE7022915D101
:1012D000DFF848C0DCF8001041F04001CCF8001005
:1012E000A3E7A36880221A7003B0F0BD4000C0B22B
:1012F00010705800E369C0B21870A3E7032994D1B5
:10130000DFF818C0DCF8001041F08001CCF80010C4
:101310008BE700BF0087930334800440288004409B
:10132000D0F83421D0F838319A4208D2D0F834318C
:101330005A1C0344C0F8342193F830007047002051
:10134000704700BF2DE9F041C168D0F808E00D7882
:101350009EF800308769DBB203F020023C78EDB2E2
:1013600022B313F0100F90F85A327ED0022B00F007
:10137000CC8090F85A32032B00F0C78090F851329D
:10138000012B00F0CC8190F85132DBB2022B00F03F
:10139000EC8190F85132042B00F0868180238EF886
:1013A0000030C36802221A70BDE8F08102F0FF0825
:1013B000EA06E6B2044623D405F0400202F0FF013B
:1013C00012BB03F0100303F0FF02002B7FD015F0D7
:1013D000010540F05D81D0F84022D0F844329A42B5
:1013E00007D2D0F840325A1C0344C0F8402293F888
:1013F0003C5123691D70A368D0221A70A7696BE065
:1014000010236F060B7029D594F851320A2B00F087
:10141000D18005F0040505F0FF02002D62D0A3681D
:101420000021D022092084F85102C4F844121A7015
:101430002269D4F8601213785B0884F8523209B13B
:1014400088472269D4F84432002B00F02A8194F8AE
:101450003C8182F800800123C4F84032A3691E70E9
:10146000E36802221A70BDE8F081022B7BD090F86D
:101470005A32032B77D0D0F83831D0F854220233C7
:10148000934200F0FF8090F85132042B00F0F58079
:10149000D0F838310133934280F0CD8090F851324A
:1014A000042B00F0C380D0F838310269591CC0F811
:1014B00038110344127883F8302090F85132042B0D
:1014C00000F02481C36802221A70BDE8F08190F810
:1014D00051320A2B00F039813E70E36802221A7003
:1014E000BDE8F081A1690B7843F020030B70A3687D
:1014F0000A20C02184F85102C4F8382119702369E8
:101500001B785B0884F85232A8E7D0F8642213688D
:101510009B8B1C0603D590F85A32022B7BD090F897
:101520005A32032B52D0BF4B12791C6801239340CF
:1015300023426CD0BC4BBD491A70D0F8642212799A
:101540000A700023E90680F85A3231D5C2681221A8
:10155000072480F851421170826880211170C0F810
:101560004032BDE8F081D0F864321A68928B1206DE
:1015700003D590F85A22022A3FD090F85A22032A23
:1015800000F09A80A74C1A792468012393402342E3
:101590003DD0A649A44B0A70D0F8642212791A7083
:1015A00082680023802180F85A3280F8513211700D
:1015B000C1682CE0D4F85C32002B3FF42AAF002243
:1015C000C4F83421D4F83801984722E70B781D0677
:1015D000FCD5974B12791A70002380F85A32D0F854
:1015E00044320269013BC0F84032D0F84032034433
:1015F00093F83C311370C16809E08B4A1B79137072
:101600008368E8221A70C168032380F85A320223E3
:101610000B70BDE8F081844B12791A708368F02258
:101620001A700323C16880F85A32F0E790F85932F3
:10163000002B3FF438AF90F851220023042A80F8A1
:10164000593201D080F851328368B0221A70D0F834
:1016500038310269591CC0F838110344127883F8F4
:10166000302090F85032012B7FF427AF3C23013B10
:10167000FDD1836880221A701FE790F85932002B41
:101680007FF406AFE8238EF80030D0F85422FFE64E
:10169000C0238EF80030036987691B7880F85112E7
:1016A0001AE784F83C31D4E690F85032012B48D048
:1016B000B0238EF8003005E75D4A1B7913700023D4
:1016C00080F85A3290F85122042A18BF80F851321B
:1016D0008368B0221A70D0F854320269013BC0F816
:1016E0003831D0F83831591CC0F838110344127819
:1016F00083F8302090F85032012B7FF459AF3C230F
:10170000013BFDD1836880221A7051E790F859326D
:10171000002B7FF4D7AE012380F85932D2E605F0D2
:10172000100303F0FF02002B3CD115F0010548D057
:1017300080F85A22D0F84032002B6FD1052380F870
:10174000513280238EF80030BCE6750618D5D0F8EB
:101750005C3280F85122002B3FF4BEAEC0F8342139
:10176000D0F838019847A769B6E6EC063AD4E907FD
:1017700042D50522802380F851228EF80030A1E660
:1017800003691B78D0F83821B2F5817FDBB23FF6D0
:10179000A3AED0F8382181180132C0F8382181F881
:1017A000303099E600231222072480F85A3280F85C
:1017B00051420A70826880211170C0F84032BDE841
:1017C000F081D0F840320133C0F84032D0F84422E2
:1017D00093422FD390F8503280F85152012B7FF46E
:1017E00067AFAEE70722122380F851220B7083689F
:1017F00080221A70BDE8F08190F85A22012A25D083
:10180000D0F85432012B0CBFE823E023032280F8E8
:1018100051228EF8003003691B7853E6062380F8C6
:1018200051328EE72C8000401F8000401E80004017
:101830001C80004090F85A32012B14D0D0F840326E
:101840000269034493F83C3113703BE6E12280F8CF
:101850005A328EF80020D0F864220B4B12791A709D
:1018600003691B782EE60222F12380F85A228EF8B3
:101870000030D0F86422044B12791A70036990F892
:101880003D211A701EE600BF1B8000400021014868
:10189000FFF758BD3807FF1F01210148FFF752BD70
:1018A000A409FF1F02210148FFF74CBD100CFF1FC8
:1018B00003210148FFF746BD7C0EFF1F2DE9F843C9
:1018C000224BDFF8A090DFF8A080214E214D1E6052
:1018D00000244FF47A774A4641461C711C739F607E
:1018E00018465C731D6102F071FB1B4B05F51B7202
:1018F00001211A611C714A469F601C735973184676
:1019000041461E6002F062FB144B05F59B6202210A
:101910001A611C714A469F601C73597318464146F0
:101920001E6002F053FB0E4B4FF0030E05F24475A0
:101930001C711C7383F80DE04A46414618461D6130
:101940009F601E60BDE8F84302F040BB4C22FF1FC1
:10195000504D00003807FF1F2422FF1F3822FF1FB1
:101960006022FF1F3007FF1FA90C0000844641EAD8
:10197000000313F003036DD1403A41D351F8043B07
:1019800040F8043B51F8043B40F8043B51F8043B59
:1019900040F8043B51F8043B40F8043B51F8043B49
:1019A00040F8043B51F8043B40F8043B51F8043B39
:1019B00040F8043B51F8043B40F8043B51F8043B29
:1019C00040F8043B51F8043B40F8043B51F8043B19
:1019D00040F8043B51F8043B40F8043B51F8043B09
:1019E00040F8043B51F8043B40F8043B51F8043BF9
:1019F00040F8043B51F8043B40F8043B403ABDD268
:101A0000303211D351F8043B40F8043B51F8043B09
:101A100040F8043B51F8043B40F8043B51F8043BC8
:101A200040F8043B103AEDD20C3205D351F8043B98
:101A300040F8043B043AF9D2043208D0D2071CBF64
:101A400011F8013B00F8013B01D30B88038060468D
:101A5000704700BF082A13D38B078DD010F0030303
:101A60008AD0C3F10403D21ADB071CBF11F8013B73
:101A700000F8013B80D331F8023B20F8023B7BE7C2
:101A8000043AD9D3013A11F8013B00F8013BF9D2ED
:101A90000B7803704B7843708B7883706046704787
:101AA000374A384913681B06FCD40B6813F08003CF
:101AB000F8D172B634490A78002A5FD0334A3448E4
:101AC000F0B4344C176806682568D4680C303E447E
:101AD000143200681268304F35442C4420440244CC
:101AE000C2F34E022D4E2E482E4D2F4C42F4004292
:101AF0003A60376806682D682C4A24680C303E44EA
:101B0000006812682A4F35442C4420440244C2F332
:101B10004E02284E2848294D294C42F400423A6092
:101B2000376806682D68274A24680C303E440068F0
:101B30001268254F35442C4420440244C2F34E021F
:101B4000224E2348234D244C42F400423A60376829
:101B500006682D68214A24680C303E4400681268EB
:101B600035442C4420440244C2F34E021C4842F443
:101B7000004202600B7062B6F0BC704762B67047FC
:101B800024B0034024B00B407522FF1F38B003403F
:101B90003CB0034040B003402CB0034058B0034079
:101BA0005CB0034060B0034064B003406CB00340DD
:101BB00030B0034038B00B403CB00B4040B00B405D
:101BC00044B00B404CB00B402CB00B4058B00B4015
:101BD0005CB00B4060B00B4064B00B406CB00B408D
:101BE00030B00B4030B42948294A2A4B2A4D602492
:101BF000E121047011701B78284C082B30D00A2B7F
:101C00002748284937D00C2B0CBF35225D221223E0
:101C10002A60236002600B60234B24491B78244A0E
:101C2000BBB101230B601360224B23491B78234A6D
:101C3000012B26D9042B0FD9082B1ED9102B94BFAA
:101C4000862387230B6013601D4B01221A7030BC62
:101C500070470B601360E7E784230B601360F3E7C2
:101C600000F58E200F490830212213232A602360BB
:101C700002600B60D0E73922F7E785230B60136021
:101C8000E2E780230B601360DEE700BF00400740FF
:101C900001400740E810FF1F08B003400CB00340AC
:101CA00008B00B400CB00B407822FF1F20B003405F
:101CB00020B00B40E910FF1F24B0034024B00B40BC
:101CC0007522FF1F0C2830B417D91023984228BF63
:101CD00018461C46104A114D1178181A8C4228706B
:101CE00018D00F4913700B7823B10E490E4A002308
:101CF0000B60136030BCFFF775BF0A2802D90C23B4
:101D00001C46E7E7082802D90A231C46E2E7082315
:101D10001C46DFE730BC7047E810FF1F7422FF1F2E
:101D20007522FF1F24B0034024B00B4010B5174BA1
:101D30001B780446A3B9012C16D9042C0AD9082C07
:101D4000134B1DD9102C15D907221A60114A2023D4
:101D5000137010BD0E4A042313600E4A137010BD99
:101D6000FFF79EFE012CE8D8094A00231360094AB8
:101D7000137010BD06221A60064A1023137010BD9E
:101D800005221A60034A0823137010BD7522FF1F35
:101D900024B00340E910FF1F47282FD8334B2DE90B
:101DA000F0411E5CFF2E2BD0314B1B78002B2AD12B
:101DB00032062CD472B62F4D2F4C2F4601232660AD
:101DC0002B7062B672B623681B060CD43B781BB925
:101DD000F4E72B78002BF1D062B601F019FD72B652
:101DE00023681806F5D5254B1B6800222A7062B6B9
:101DF000234A107843FA00F0BDE8F08100207047D4
:101E00000020BDE8F081FFF74BFE3206D2D572B656
:101E10001C4DDFF87C801C4C06F04007FFB206F03A
:101E20003F06D8F80030DFB123F01003C8F80030C7
:101E300001232660134A2B7062B672B62368190616
:101E40000CD413781BB9ECE72B78002BE9D062B6E1
:101E500001F0DEFC72B623681B06F5D50B4BC3E719
:101E600043F01003C8F80030E2E700BF8C4E0000DA
:101E70007522FF1F7722FF1F00B0034010B0034000
:101E80007422FF1F7622FF1F00B00B4010B00B40E2
:101E90000CB00B400A4A0B49136843F4805313609B
:101EA0000B7843B1084B80221A7080F30C00074B6B
:101EB00000B218807047044BC0221A70F5E700BFCB
:101EC0002C8004407822FF1F21C00C4000C00C4031
:101ED0000A4A0B49136843F4005313600B7843B16B
:101EE000084B80221A7080F30C00074B00B2188058
:101EF0007047044BC0221A70F5E700BF2C800440E5
:101F00007822FF1F21D00C4000D00C40024A1368F9
:101F100001331360704700BF7C22FF1F08B5104CCF
:101F200008E0236859050DD423681A050FD42368E7
:101F3000DB0411D423685803F3D500F031FD236886
:101F40005905F1D501F0E2FC23681A05EFD501F03F
:101F500073FD2368DB04EDD501F004FEEAE700BF62
:101F60003480044008B5FFF7D9FF00BF014B1022B1
:101F70001A80704700200540704700BF094908B526
:101F80000B6830B16A461844A2F50052904202D262
:101F90000860184608BD02F025F80C2303604FF0D6
:101FA000FF3008BDEC10FF1F084A1378802B01D0CA
:101FB000002070470649074B074808600021197048
:101FC0001378802BFCD00120704700BF03E007404E
:101FD0004480044001E0074000002822094A1378A9
:101FE000012B01D00020704703F1804303F5FC234F
:101FF000602119701378802BFCD1034B034A1A60BF
:102000000120704703E007404480044000000602BE
:1020100010B4114B53F8302092F8804234B10123B0
:1020200079B182F880305DF8044B704703EBC00350
:102030005B681A6851B922F002021A605DF8044B1D
:10204000704782F800315DF8044B704742F003029C
:102050001A605DF8044B7047D44E00001C4A02EB36
:10206000C00301295B6811D004291BD052F830004D
:10207000002280F8802229B1022920D0032922D011
:102080001A6070474FF480721A60704752F830003F
:102090004FF4A27280F880121A601A6822F02002AF
:1020A0001A60704752F830104FF4A272012081F884
:1020B00080021A601A6842F020021A60704740F2EB
:1020C00003121A6070474FF481721A60704700BFA4
:1020D000D44E000030B4054B054D064C00221021B3
:1020E0001A602A602060196030BC704714D0034029
:1020F00004D0034000D0034038B5A0F14203012BC7
:10210000044624D900297ADD994B1B78012505FA6C
:1021100003F28A4202D83F282CD938BDC21E012AB8
:1021200030D9A0F11D02012A78D90E285BD9A4F17B
:102130002302032A5CD9A4F11002012A94BF8D4A1C
:102140008D4A126802FB011222FA03F320E0884B49
:102150001B780B2B0AD90C2B1CBF0C3B1941422CB2
:10216000084657D0BDE83840FFF7B2BEC3F10C03B4
:102170009940F4E72946FFF74BFF2946BDE8384070
:10218000FFF76CBF7D4A126802FB011222FA03F3CB
:10219000A21E242A00F2E380DFE812F0DA00D30066
:1021A000CC00C500BE00B700B000A900A200E1004D
:1021B000E100E1009B00E10094008D00E100E100FE
:1021C00086007F0078007100E100E100E100E1009D
:1021D000E1006A006300E100E100E100E1005C0071
:1021E00055004E00470044F28412C240D2079ED5EB
:1021F000634A126802FB011222FA03F3C8E73F2880
:102200008BD80021FFF704FF20460121BDE83840AC
:10221000FFF724BFBDE83840FFF73CBE594A1268BB
:1022200002FB011222FA03F3B2E75749574A0B6047
:102230004FF45173136038BD5549564A0B604FF443
:102240005173136038BD5449544A0B604FF45173B5
:10225000136038BD5249534A0B604FF451731360F9
:1022600038BD5149514A0B604FF45173136038BD6A
:102270004F49504A0B604FF45173136038BD4E49BB
:102280004E4A0B6040F24443136038BD4C494D4AFE
:102290000B6040F24443136038BD4B494B4A0B601E
:1022A00040F24443136038BD49494A4A0B6040F24A
:1022B0004443136038BD4849484A0B6040F24463C8
:1022C000136038BD4649474A0B6040F244631360CF
:1022D00038BD4549454A0B6040F24443136038BD60
:1022E0004349444A0B6040F24443136038BD4249BD
:1022F000424A0B6040F24443136038BD4049414AB2
:102300000B6040F24443136038BD3F493F4A0B60C5
:1023100040F24443136038BD3D493E4A0B6040F2F1
:102320004443136038BD3C493C4A0B6040F244438F
:10233000136038BD3A493B4A0B604FF45173136048
:1023400038BD3949394A0B604FF45173136038BDB9
:102350003749384A0B6040F24443136038BD3F2C84
:102360003FF6DBAE7F29D4BF00210121204649E79B
:10237000F010FF1F08900C400880034008900340B5
:1023800008900B4008800B4048900B402CB0044054
:1023900040900B4028B0044038900B4024B00440DB
:1023A00030900B4020B0044018800B404CA00440FB
:1023B00010800B4048A004401880034008B004403F
:1023C0001080034004B004404080034018C0044023
:1023D0003880034014C0044018900C4004A004400E
:1023E00010900C4000A0044018900B4004C0044022
:1023F0002880034010B00440208003400CB004400B
:1024000028900B400CC0044020900B4008C00440B2
:102410003080034010C00440488003401CC004408A
:1024200018900340349004401090034030900440D2
:1024300010900B4000C0044038B1102828BF102075
:10244000044AC3B2107813707047024A012310780F
:1024500013707047F010FF1FA0F11001C9B20129DD
:1024600070B45BD9DFED3B7A3B4AB4EEE70AF1EE9C
:1024700010FA47F6122346BF1A4602250125DFED62
:10248000376A002322FA03F407EE904AF8EEE77A5F
:1024900027EEA67AB4EEC70AF1EE10FA07DA013396
:1024A000072BEFD1D20907EE902AF8EEE77A87EEF4
:1024B000807A4FF6FF74C21EF6EE007A77EE677AE6
:1024C000FCEEE77A17EE906AA64228BF2646012A5C
:1024D000344637D917280ED9A0F11D02012A35D963
:1024E0000E281ED92338032820D9012914D81C4AC4
:1024F0001C4E1D481DE01D4AC24002F0010282F040
:102500000106002AE8D01A4A1A481B49166043EA15
:10251000C50306600C60136070BC7047174A012544
:10252000ADE744F28412C240D207DBD5144A154EFF
:10253000154843EAC503002111603160046013604F
:1025400070BC7047114A124E1248F2E7124A134EFD
:102550001348EEE7C0E1E4400087930300008037B2
:1025600000900C4004900C4008900C406006F00075
:102570000080034004800340088003400024F400EE
:1025800000900B4004900B4008900B4000900340DB
:10259000049003400890034000800B4004800B40EF
:1025A00008800B403F2801D8FFF732BD704700BFBD
:1025B0003F2806D8044B53F8303093F80002C0B2DD
:1025C00070470020704700BFD44E00003F2801D85C
:1025D000FFF744BD704700BF72B60D490D4B0E4A60
:1025E0001B680868126862B6520102D5322B88BF98
:1025F0000130C3F52F33094903F21F334FF47A72C8
:102600009B08A1FB031302FB00F000EB9300704753
:102610007C22FF1F18E000E004ED00E0176CC116FB
:102620002DE9F843054672B6224F234B234A1B6817
:102630003C68126862B6520102D5322B88BF013461
:10264000B5B3C3F52F3303F21F331D4EDFF8689087
:10265000DFF868809B084FF47A72A6FB031302FB35
:1026600004F404EB930472B6D9F800103A68D8F871
:1026700000E062B6C1F52F3303F21F339B08A6FBBF
:1026800003031EF0806FC4EB93034FF47A7002D003
:10269000322988BF013200FB0233B3F57A7F04D3BD
:1026A000013D05D004F57A74DDE701F0B1F8DAE711
:1026B000BDE8F8837C22FF1F18E000E004ED00E095
:1026C000176CC116F8B54E4B4E48DFF85CC14E4C46
:1026D0004E49DFF858E14E4E4E4D4F4F4FF00062DD
:1026E0001A604FF080521A604FF000521A604FF09B
:1026F00080421A604FF000421A60002202602823D4
:102700004EF6FF70CCF80000CEF8003023600EF5D6
:10271000012E0B6033602B6006F500263B6005F54B
:102720000025A36207F500278B6204F5012401F55B
:10273000012106F6E87605F6E87507F57F671031A2
:102740000EF1100E203433602B60CEF800303B6069
:102750000B602360314CBB618B6109212160A7F5BF
:10276000002704F58054203F08343A602060BB60A5
:10277000E36047F8041C04F5FD2407F5FE27043741
:1027800004F2FC7422603860A360FB6044F8041C0F
:10279000083404F6FC74C7F8FC2F2060A4F5E1248B
:1027A000A4F2DC7433602B60C7F8F81F21681C4862
:1027B00041F40071216001681A4C0EF57F4E0EF154
:1027C000E80E07F5883706F5803605F5803541F0C7
:1027D00000710160CEF8002047F6FF7108223960D1
:1027E00033602B602260FFF7FDF93220FFF718FFFE
:1027F00000F002FD4FF4AF70BDE8F840FFF710BFE6
:1028000004E100E004800340148003401C80034086
:10281000248003402C800340348003400080034028
:102820000480044000900C40088003400C8003406A
:10283000431E032B14D872B60A4951F8230068B11D
:1028400070B4094C058834F81320466841F82360B9
:10285000521B24F8132062B670BC704762B67047F2
:1028600000207047D822FF1FB426FF1F013803281D
:102870000BD872B6074B53F8203043B100205B6889
:102880000130002BFBD162B670470020704718461C
:10289000F9E700BF2C23FF1FF0B472B61A491B4E94
:1028A000012311F8014B194F9A00240742F001054A
:1028B00005D556F8324064B156F83520BAB1013327
:1028C000052BEED162B6124B00221A70F0BC00F05C
:1028D0001BBD0F4C0F4D217847F8325007EB4313C7
:1028E00008304A1E5860227062B6F0BC7047084932
:1028F000094B0A7847F8353007EBC5030830013A31
:1029000058600A7062B6F0E7005100000000FF1F37
:102910005523FF1F88004000C8004000431E032BC2
:102920001DD81B4A400140F0100030B4104472B66C
:10293000184CE25C032A1BD8DFE802F002121517DC
:1029400003220D88E25410F0080F14BFC823882317
:1029500043EA054308310360416062B630BC70470A
:1029600008300222EDE70522EBE708300422E8E711
:10297000094A52F8230038B1084A52F8230041604E
:1029800042F8231062B6E9E742F82310034AF7E75A
:102990000000FF1F6423FF1F2C23FF1F3C23FF1F8A
:1029A0002DE9F04FDFF804A3DFF804B387B044E06B
:1029B000A94F4FEA930807EBC809013ED9F8042054
:1029C00003F00803F6B2A2F1080003F0FF04002BA5
:1029D00040F0FE8057F838301B0C99B222F8081CE2
:1029E000002B00F0EC809D4B22F8064C42F8044C82
:1029F00053F82620002A00F02B82994D55F82630F6
:102A00005860984C45F8260034F81630194424F8DC
:102A1000161000F059FC002800F01382924A934BE4
:102A200019F0080F00F1080018BF1346C9F8040098
:102A300047F8383008238AF800309AF80040E4B2AA
:102A400060071AD58A4B1B78A3B18A490A7802F02D
:102A5000FF0322B1013BDBB20B7003B900BE864914
:102A60000A7802F0FF032AB1013BDBB20B70002BA6
:102A700000F0BD8104238AF8003004F0080303F05D
:102A8000FF02002B00F0C8809BF80030DBB21E096B
:102A90008ED19C08704F57F8342007EBC401C2F365
:102AA0008302013A49680C2A00F28580DFE802F0CF
:102AB00079798383838383834283838307000868D0
:102AC0006E4B6F4D0193684B4A686E4E47F8343039
:102AD00081B240F28164694B6A6028600022012063
:102AE000A1421A603A61BA61307000F2E380B1F538
:102AF000D06F80F02782B1F5817F00F0E08100F295
:102B0000C381802900F03682822940F0DE81A988C5
:102B10005D4B01F07F01042900F2D8815B4C8900F4
:102B20000B44227062701A78930740F12283207060
:102B3000022023E2514B01931A683AB3544B514E91
:102B40005449188834780D784028864645F00208A4
:102B500028BF4FF0400E002C84F001043470CEEBFF
:102B600000000CBF8824C82407EBC80680B285F09B
:102B7000010544EA0E447260188047F838407244F8
:102B80000D70002800F0B780019B1A603C4B1A883A
:102B9000B2F5A06F0FD100219A7859703E4B1A7090
:102BA00009E0374A108842F22102904200F0A880E2
:102BB0002D4A47F83420394A012313703AE72A4A4C
:102BC0002A4B19F0080F18BF134647F8383031E781
:102BD00000F09AFB324A334952F82630002B00F0BD
:102BE0003B8158688C5D42F8260003F10802C9F861
:102BF0000420032C05D8DFE804F02C022926022249
:102C00008A551A8819F0080F0CBF8823C82343EA95
:102C1000024347F838300DE7E00700F1EB8021066A
:102C200000F12881A20706D51F4A20491378022007
:102C3000DBB213700870E30602D51C4B10221A7029
:102C400007B0BDE8F08F04228A55DAE705228A55DD
:102C5000D7E703228A55D4E70000FF1FD822FF1FC1
:102C60008422FF1FB426FF1FC800400088004000D8
:102C70006023FF1FE922FF1F6823FF1F8022FF1F21
:102C80004C23FF1FE822FF1FC02007405823FF1FCF
:102C90009422FF1F5423FF1F9820074094200740D1
:102CA0002C23FF1F6423FF1F88200740802007403C
:102CB0009020074042F22104A14200F0948043D8C2
:102CC000B1F5086F00F0A881B1F5106F40F0FD80FC
:102CD000B84AB94CA978117004F1800503E00834B2
:102CE000AC4200F09E81236A1906F8D5606A083864
:102CF00000F00AFBF3E7BEF1400F18BF002243E7E4
:102D0000AE4ACD1D11F8013B02F8013FA942F9D1AD
:102D1000AB4A1268862A00F01181AA49AA4E0A78A5
:102D2000307882F00105002842F002020D700CBFDD
:102D30008821C82147F8321007EBC20280F0010059
:102D400000213070516033E742F22124A14240F06B
:102D5000FE81DFF8BCC29D4B9D49AC78DCF8005089
:102D60001D6081460C700020029080468446044617
:102D700094490D7845F0020E07EBCE03B9F1000F30
:102D80005C600CBF8824C82444EA080385F0010471
:102D900047F83E3032700C70DFF81CE28A4BDFF8E7
:102DA0002482002840F09880BCF1400F1BD144F0F1
:102DB000020407EBC403029FDFF8FCE15F60002A16
:102DC00040F09F80020442F0880207444EF834200D
:102DD00086F800900D703B46402804D100207D4AC3
:102DE000019910800B607C4A01231370E3E600F028
:102DF000F7FB3FE6704B784872491A614FF0020EBC
:102E000080F800E0754F0A70754919609960754E39
:102E1000754D764C9A610D213970FF213170DFF8C4
:102E2000F4E129702270724D724A8EF800109F27CB
:102E3000012406F8047C5D600470DA6007B0BDE828
:102E4000F08F6D4A47F83800137801331370F1E5BD
:102E500043F82600694DD4E58B5D032B67D801A2AA
:102E600052F823F0352A0000352A0000B92E000060
:102E7000B32E000059495C4B80220D2008701A7057
:102E8000A2077FF5D8AECFE640F20232914240F081
:102E90005681A98801F07F01042916D86A88A2B951
:102EA0004E4C89000C448146217841F0020121708A
:102EB00059E701238B55BDE500238B55BAE5A98859
:102EC00001F07F01042940F24781444B0F221A7020
:102ED000414A012313706EE640287FF668AF44F044
:102EE00002040EEBC401029E4E60AAB1444A83F86C
:102EF00000903346403888F8005040334EF8342074
:102F00006DE70204029B86F8009042F0C8020D7043
:102F100003444EF834205FE783F80090029B304A68
:102F200088F80050403840334EF8342057E719F005
:102F3000080F0CBF022303238B557BE5314A0F2179
:102F40001170EAE6304A5468002CBED06888B5F8A3
:102F500004E003E00C325468002CB6D0138883429E
:102F6000F8D153887345F5D1000A03280CBF2078A7
:102F7000108903E0254C022022706270EA888242A8
:102F800080F00C810F490D78402A45F0020E9446DE
:102F900007EBCE0028BF4FF0400C04EB0C0344605D
:102FA0000293CCEB02004FEA0C484FF001090022DB
:102FB000C824E9E66023FF1F0000FF1FBB26FF1F98
:102FC000BC26FF1F5423FF1FE822FF1FC426FF1F3C
:102FD0007823FF1F9422FF1F94200740C020074042
:102FE0008800400088200740802007409820074044
:102FF0009822FF1FEC22FF1F5523FF1F8422FF1F73
:10300000C8004000E922FF1F045100005823FF1FA1
:103010007C22FF1F8C200740684A694C127822707E
:10302000ACE76849684B694A02916949694C6A4D45
:10303000039405964FF0000988461C4616460495F1
:10304000206828B1456800F05FF92846002DF9D1C5
:1030500000232360049B30681A46002342F829307D
:1030600028B1456800F050F92846002DF9D100221A
:103070003260029A98F800301146002241F8042B81
:10308000039A0291023B4FF0000122F81910032B22
:1030900007D8DFE803F0340234024FF0010388F868
:1030A000003009F10109B9F1040F04F1040406F13B
:1030B000040608F10108C3D1484B059EDFF83091A2
:1030C000DFF8308100211970012518F8013B09F85B
:1030D000043B1A0718D4AC0044F0020244F0030485
:1030E000002347F8323047F834303D4B994505F11D
:1030F0000105EAD196F8009089F0010233E64FF01D
:10310000000388F80030CCE700F0DEF8AC0007EBF5
:10311000451300F10802002837D05A60314B47F8B8
:10312000343000F0D1F844F0010307EBC30200F1A2
:10313000080100B351602C4A47F83320CCE7B1F5C1
:10314000A06F7FF4C2AE00224FF001090BE642F2FD
:1031500021329142F7D0B8E66A88002A7FF4B5AEF2
:10316000224C89000C448146217821F00201217013
:10317000F9E5022002E7194B44F001021B7847F8F9
:103180003200164A01331370A6E7144B134A1B781A
:10319000AC00013347F834001370C2E7402884467E
:1031A00028BF4FF0400C04EB0C03CCEB00004FEABF
:1031B0000C48029300224FF00109D9E56023FF1F5C
:1031C0005823FF1F3C23FF1FD822FF1F2C23FF1F64
:1031D0006423FF1FB426FF1F8422FF1F5523FF1FF8
:1031E000D420074088004000C8004000C0200740AD
:1031F000C4200740005100002DE9F041274C00F0A9
:1032000097FE002204F1880023461A605A600833B2
:1032100083424FF00001F8D12148224A0368DFF8C9
:103220009CE0214E214D224FDFF894C0DFF89480BE
:1032300043F480230360136843F040731360032357
:103240008EF80030A023337002F5C922C4F307239F
:1032500000F528302B708030C4F3074310323B70E8
:10326000240EFF230470134D8CF80030124888F8A8
:1032700000301370012306F8AC3C4FF400140EF834
:10328000441C7026102107F82C3C2E70046082F834
:10329000F810AEF1440EBDE8F08100BF0000FF1F42
:1032A0003480044000D80040402107409C20074063
:1032B000B020074035E400E004E100E0442107408D
:1032C000802007408820074072B60D480268B2FA95
:1032D00082F30B2B10DC4FF00041D94022EA0102AF
:1032E000026062B6074803EBC303DB00C21800218B
:1032F000C15010465160704762B60020704700BF51
:10330000F410FF1FD003FF1F0D4B0E4AC31AA2FB80
:1033100003231B090B2B0CD80B4A127852B972B637
:103320000A484FF00041026821FA03F31A43026091
:1033300062B67047064A1278002AF0D0FFF7ACBA9E
:10334000D003FF1F398EE3385523FF1FF410FF1FF2
:103350006023FF1F38B50F4D286878B14388028875
:10336000C118013393420C7A02D24380204638BD03
:10337000FFF7CAFF002320462B6038BD064B1B78A1
:103380002BB10320FFF754FA28600028E6D14FF054
:10339000FF3038BD7423FF1F6023FF1F10B5094C99
:1033A000206818B143881844007A10BD064B1B787A
:1033B0002BB10320FFF73CFA20600028F2D14FF038
:1033C000FF3010BD7423FF1F6023FF1F044B054A0D
:1033D0001B6890881BB11A885B88D31A1844704701
:1033E0007423FF1FB426FF1F0B4B1B789BB110B536
:1033F0000A4C206848B1FFF787FF002303202360B1
:10340000FFF716FA30B1FFF77FFF0320FFF710FA3E
:103410000028F8D110BD70476023FF1F7423FF1FE1
:103420002DE9F04FDFF8F89083B0012289F80020F1
:10343000019169B3DFF8EC80354F019E8346D8F8DF
:103440000000B0B3334D4488C4F14001B14228BFFD
:10345000314604EB010E00221FFA8EFE2A70761A06
:10346000A0F802E000F1080251B1013C22445944A5
:103470001BF8014B02F8014F8B45F9D1B0F802E07F
:10348000BEF13F0F0BD8244A05211170002ED6D172
:103490000198002389F8003003B0BDE8F08F402286
:1034A000028001460420FFF739FA0022C8F8002004
:1034B000E9E73A7822B3194C164D4FF0010A07E0BC
:1034C000013C16D02A78A2B900F0A2F93A78BAB134
:1034D0000420FFF7CBF90728F2D889F800A0FFF7FE
:1034E000F3FEC8F800000028ADD10D4B013C187068
:1034F000E8D101234FF0FF302B7003B0BDE8F08F0F
:1035000000234FF0FF3089F8003003B0BDE8F08FA2
:103510006023FF1F7023FF1F6823FF1F2148010046
:103520006923FF1F6C23FF1F00B583B002AB01218D
:1035300003F8010D1846FFF773FF03B05DF804FBB5
:1035400038B50E4D0E4C28680123237028B14088F1
:1035500000232370C0F1400038BD0A4B1B7813B91B
:103560000020207038BD0420FFF780F90728F7D825
:10357000FFF7AAFE28600028E9D1F1E76C23FF1FBE
:103580006923FF1F6023FF1FF8B5114B1B788BB118
:10359000104E114D346801272F7064B10F4A6388B3
:1035A00000271770214623800420FFF7B7F9376002
:1035B00000232B70F8BDFFF787FE084B28B10146AA
:1035C00004201C70FFF7AAF9F2E71F70F0E700BFB4
:1035D0006023FF1F6C23FF1F6923FF1F6823FF1F4A
:1035E00038B50E4B1B7873B90D4C216861B103F0EF
:1035F000FF054B880B800420FFF790F9256038BD4C
:10360000084B01221A7038BDFFF75EFE0028F7D084
:103610000146BDE838400420FFF780B96923FF1F49
:103620006C23FF1F6823FF1FF0B572B699B90268BB
:103630008AB103790F2B0ED8284C218841FA03F563
:10364000ED070AD503F1007303F59063B2EB431F56
:1036500003D162B6F0BD214C2188002341FA03F268
:1036600012F0010207D00133102BF7D162B600220D
:1036700003710260F0BD01259D402943218062B69F
:10368000174E184D184FDFF868E0D9B20171346851
:1036900044F0020434602C6844F002042C60A6F567
:1036A000802640F28244A5F5802503F100733C603A
:1036B00003F59063223E243D0C4C8EF800105B0114
:1036C00031702970217003601A605A609A60DA6064
:1036D0001A615A619A61DA61F0BD00BF7A23FF1F57
:1036E000408004403C800440008000401F80004037
:1036F0001A80004003790F2B12D80A4A10B41370B5
:1037000072B6094904790A880123A34022EA030317
:103710000B8062B6102200235DF8044B0271036037
:10372000704700BF1A8000407A23FF1F00B5064A89
:10373000036812885B6883B001A9ADF804200222F7
:10374000984703B05DF804FBD4500000F0B507467D
:103750008BB0002A33D0012A08BF0A2251B321249A
:1037600000E0F4B2B1FBF2F502FB1511C8B2092971
:1037700000F1300198BFC8B20AA988BF3730214490
:1037800088BFC0B201F8240C661E2946002DE8D17E
:1037900033B1013CE4B20AAB23442D2203F8242CBC
:1037A0003B6801AA11195B683846C4F122029847A8
:1037B0000BB0F0BD30228DF825202124E8E7036806
:1037C000C9B21B6898470BB0F0BD00BF08B5FDF744
:1037D0009FF8FDF71BF800F01BF8FAE700F030BC8B
:1037E00000F036BCFFF700BEFFF7D8BDFFF7B2BD53
:1037F000FFF7ECBDFFF7C8BEFFF7A2BE08461146B3
:10380000FFF70EBE0846FFF78FBE00BF704700BF30
:1038100010B5224C237803B110BD01232370FFF7AC
:10382000D5FDA0B900F062F8B8B900F0F5F8D0B94C
:1038300000F088F9E8B900F001FA00BB00F07AFA6C
:1038400018BB00F0F3FA30BB0023237010BDFFF764
:10385000DDFF00F04BF80028E7D000F0ABFB00F0F4
:10386000DBF80028E4D000F0A7FB00F06BF900289B
:10387000E1D000F0A3FB00F0E1F90028DED000F079
:103880009FFB00F057FA0028DBD000F09BFB00F014
:10389000CDFA0028D8D000F097FBD5E77C23FF1F96
:1038A000F0B44D1E2E46002400E00134B0FBF2F3CC
:1038B00002FB1300092800F130078ABF3730F8B245
:1038C000C0B206F8010F1846002BEED10A1953704A
:1038D0004CB1107815F8016F28700133E01A83425B
:1038E00002F80169F5DB0846F0BC7047054A064B53
:1038F00010781B78C0B2DBB2984238BF4030C01A93
:10390000704700BF8423FF1F8523FF1FF0B4384B8F
:103910001A7912F0300F2CD072B6997D01F0FF02A7
:1039200000293DD062B6334F334938780D78334E95
:103930001C46C0B2EDB2431C402BE17928BF0023E6
:10394000AB4202F1FF32C9B21CBFF154184612F06B
:10395000FF02F0D12A4B1B68C2B23A704BB1A842A9
:1039600036BFC5F14005401B40192728C4BF0122BE
:103970001A701F49CA78D2B2150616D452060DD550
:103980001B4B1B795B0609D51E4B1F491B68002288
:103990000A7003B11A70164B3C22DA70F0BC704703
:1039A0004022D9795A7462B6E3E70B791C06E5D553
:1039B000164B174E1C783378E4B2DBB29C420ED023
:1039C000144D01E0A3420AD00133402B28BF00234D
:1039D0000879E85CC0B2C871087D0728F2D9DBB26B
:1039E000034933700B79180644BF7C23CB70C5E7BD
:1039F00000A006408423FF1F8523FF1FC823FF1F4D
:103A00008023FF1F0C24FF1F0824FF1F1024FF1F0B
:103A10000924FF1F8823FF1F054A064B10781B78D7
:103A2000C0B2DBB2984238BF4030C01A704700BF06
:103A30008424FF1F1924FF1FF0B4384B1A7912F0A9
:103A4000300F2CD072B6997D01F0FF0200293DD0D5
:103A500062B6334F334938780D78334E1C46C0B2C6
:103A6000EDB2431C402BE17928BF0023AB4202F1A9
:103A7000FF32C9B21CBFF154184612F0FF02F0D158
:103A80002A4B1B68C2B23A704BB1A84236BFC5F18F
:103A90004005401B40192728C4BF01221A701F4946
:103AA000CA78D2B2150616D452060DD51B4B1B7917
:103AB0005B0609D51E4B1F491B6800220A7003B123
:103AC0001A70164B3C22DA70F0BC70474022D9794C
:103AD0005A7462B6E3E70B791C06E5D5164B174E10
:103AE0001C783378E4B2DBB29C420ED0144D01E076
:103AF000A3420AD00133282B28BF00230879E85CB1
:103B0000C0B2C871087D0728F2D9DBB2034933700F
:103B10000B79180644BF7C23CB70C5E700B0064084
:103B20008424FF1F1924FF1F4424FF1F1424FF1F98
:103B30008824FF1F1824FF1F8C24FF1F8524FF1FCC
:103B40001C24FF1F054A064B10781B78C0B2DBB25D
:103B5000984238BF4030C01A704700BF9424FF1FFE
:103B60009524FF1F30B42B4B1A7994061FD52A4891
:103B7000DA790378294901333F2B0978C8BF00233C
:103B80008B42D2B203D0264CD9B2E2540170254AFE
:103B9000116861B1244A1278D2B2934236BFC2F1A1
:103BA00040029B1A9B18272BC4BF01230B70194A94
:103BB000D378DBB2180611D45A060DD5154B1B79F4
:103BC0005B0609D5194B1A491B6800220A7003B11C
:103BD0001A70104B2C22DA7030BC7047117909062C
:103BE000EAD5144910480C780178C9B28C420DD03E
:103BF0004A1C272A84BF00210A460F4D054C98BF56
:103C0000D1B2AA5CD2B2E2710170D5E76C21D17059
:103C1000D2E700BF00C006409424FF1F9524FF1F79
:103C2000C024FF1F9024FF1F0125FF1F0425FF1F35
:103C30000025FF1F0825FF1F9824FF1F054A064B7C
:103C400010781B78C0B2DBB2984238BF4030C01A3F
:103C5000704700BF1025FF1F1125FF1F30B42B4BED
:103C60001A7994061FD52A48DA790378294901334D
:103C70003F2B0978C8BF00238B42D2B203D0264C19
:103C8000D9B2E2540170254A116861B1244A127810
:103C9000D2B2934236BFC2F140029B1A9B18272B27
:103CA000C4BF01230B70194AD378DBB2180611D4B4
:103CB0005A060DD5154B1B795B0609D5194B1A49C8
:103CC0001B6800220A7003B11A70104B2C22DA70A4
:103CD00030BC704711790906EAD5144910480C78B0
:103CE0000178C9B28C420DD04A1C272A84BF00211A
:103CF0000A460F4D054C98BFD1B2AA5CD2B2E27110
:103D00000170D5E76C21D170D2E700BF00D006402A
:103D10001025FF1F1125FF1F3C25FF1F0C25FF1F2E
:103D20007D25FF1F8025FF1F7C25FF1F8425FF1F8A
:103D30001425FF1F054A064B10781B78C0B2DBB272
:103D4000984238BF4030C01A704700BF8C25FF1F13
:103D50008D25FF1F30B42B4B1A7994061FD52A48A6
:103D6000DA790378294901333F2B0978C8BF00234A
:103D70008B42D2B203D0264CD9B2E2540170254A0C
:103D8000116861B1244A1278D2B2934236BFC2F1AF
:103D900040029B1A9B18272BC4BF01230B70194AA2
:103DA000D378DBB2180611D45A060DD5154B1B7902
:103DB0005B0609D5194B1A491B6800220A7003B12A
:103DC0001A70104B2C22DA7030BC7047117909063A
:103DD000EAD5144910480C780178C9B28C420DD04C
:103DE0004A1C272A84BF00210A460F4D054C98BF64
:103DF000D1B2AA5CD2B2E2710170D5E76C21D17068
:103E0000D2E700BF00A00E408C25FF1F8D25FF1FAD
:103E1000B825FF1F8825FF1FF925FF1FFC25FF1F61
:103E2000F825FF1F0026FF1F9025FF1F054A064BA0
:103E300010781B78C0B2DBB2984238BF4030C01A4D
:103E4000704700BF0826FF1F0926FF1F30B42C4B08
:103E50005A6894021FD52B48DA6803782A4901333F
:103E60003F2B0978C8BF00238B4204D0274CD2B225
:103E7000D9B2E2540170264A116861B1254A12781C
:103E8000D2B2934236BFC2F140029B1A9B18272B35
:103E9000C4BF01230B701A4A9368180202D55268F6
:103EA000110211D45A020DD5154B5B685B0209D57E
:103EB000194B1A491B6800220A7003B11A70184B7B
:103EC00000221A6030BC7047164A124910780A78EE
:103ED000D2B290420DD00132272A84BF0020024680
:103EE000114D074C98BFD0B2AA5CD2B2E260087004
:103EF000D8E70E480A4A0024012104601160D1E786
:103F000000400C400826FF1F0926FF1F3426FF1F14
:103F10000426FF1F7526FF1F7826FF1F7426FF1F2C
:103F2000580188437C26FF1F0C26FF1F5C01884335
:103F300010B584B072B6FEF737F8184A184B194915
:103F40001160702280211A701A46197013781B06AE
:103F5000FCD5154B1C68FEF741F862B6134B9C422A
:103F60009CBF04EB840464002046114C01A90A2282
:103F7000FFF796FC01A92046002311F8012B01331D
:103F80003AB10A2B20F8022FF7D11623237004B080
:103F900010BD5B00DBB2237004B010BD0400024012
:103FA00000000240000007410C0002407F9698008C
:103FB0009411FF1F704700BF704700BF704700BFDC
:103FC000704700BF704700BF704700BF0B460146F7
:103FD000184600F001B800BF13460A460146022009
:103FE00000F05ABB014B1868704700BFD815FF1F7F
:103FF00070B50F4E0F4D761BB61018BF002405D0BC
:10400000013455F8043B9847A642F9D10A4E0B4DAE
:10401000761B01F0A3F8B61018BF002406D00134B7
:1040200055F8043B9847A642F9D170BD70BD00BF5A
:104030006851000068510000745100006851000090
:10404000024B0146186800F00BB800BFD815FF1FDF
:10405000024B0146186800F0E3BB00BFD815FF1FF4
:104060002DE9F04F01F10B05162D83B0064640F205
:104070009F8035F0070500F1BF80A94200F2BC80A7
:1040800000F0F4FAB5F5FC7FC0F09C826B0A00F0FA
:10409000BA80042B00F28381A80900F1390E4FEA9F
:1040A0004E033830C44F07EB8303A3F108015C686B
:1040B000A14207D1ACE0002A80F2AC80E468A142C2
:1040C00000F0A680636823F003035A1B0F2AF2DD79
:1040D000B9493C6901F1080E744500F0B381636889
:1040E00023F003035A1B0F2A00F39981002AC1F819
:1040F00014E0C1F810E080F29E80B3F5007F80F0FC
:104100006781DB0803F1010C01229B1002FA03F323
:104110004A6851F83C80C4F8088001EBCC091A4386
:10412000A9F10803E3604A6041F83C40C8F80C403C
:10413000831001249C40944200F28A80144206D1EC
:1041400020F003006400144200F10400FAD007EBF1
:10415000C009CC468046DCF80C108C4507D173E1D1
:10416000002A80F28181C9688C4500F06D814B681E
:1041700023F003035A1B0F2AF2DD0C46D1F80CC0C2
:1041800054F8088F4B1945F001054D6042F00101CC
:10419000C8F80CC03046CCF808807B613B61C3F89E
:1041A0000CE0C3F808E059609A5000F061FA1FE093
:1041B000102921D800F05AFA1025062302207E4F3C
:1041C00007EB8303A3F108025C68944200F0458189
:1041D0006368E168A56823F00303234430465A6806
:1041E000E96042F001028D605A6000F041FA083443
:1041F000204603B0BDE8F08F00240C232046336036
:1042000003B0BDE8F08F80234FF0400E3F2049E718
:1042100070465DE72344E1685A68A56842F00102F0
:10422000E96030468D605A6000F022FA083420467A
:1042300003B0BDE8F08F234430465A6842F00102D3
:104240005A6000F015FA0834204603B0BDE8F08F3C
:10425000BC68636823F00308A84504D3C5EB0803D2
:104260000F2B00F38C80554BDFF860911A68D9F85A
:10427000003001332A4404EB080A00F0608102F5A3
:1042800080520F3222F47F6222F00F021146304634
:10429000019200F0EFF9B0F1FF3F8346019A00F080
:1042A0005881824500F2FC80454B1968DA4511447B
:1042B000196000F05381D9F80000DFF810E10130F7
:1042C0001BBFCAEB0B0A5144CEF800B019601BF0BB
:1042D000070100F01781C1F10800C1F58051834446
:1042E00008315A44C2F30B02C2EB01094946304679
:1042F000019300F0BFF9431C019B00F03F81CBEB21
:1043000000024A4442F001021968C7F808B0494463
:10431000BC42CBF804201960DFF8A49016D0B8F1A5
:104320000F0F40F2FD806268A8F10C0323F0070331
:10433000E01802F001024FF0050E1A430F2B6260E5
:10434000C0F804E0C0F808E000F21C811D4BBC6816
:104350001A68914288BF19601B4B1A6891426268C3
:1043600088BF196022F003029542A2EB050301D831
:104370000F2B04DC304600F07BF9002438E762198B
:1043800043F0010345F0010565603046BA605360B3
:1043900000F06EF90834204603B0BDE8F08F142B0E
:1043A00071D9542B00F2A480280B00F16F0E4FEA54
:1043B0004E036E3076E600BFDC15FF1F8826FF1F18
:1043C0008C26FF1F8426FF1F8026FF1FE819FF1F72
:1043D0005A0A042A5ED9142A00F2B38002F15C0161
:1043E00049005B3207EB810C57F82110DFF8DC81C4
:1043F000ACF1080C8C4500F088804A6822F003027A
:10440000934202D289688C45F7D1D1F80CC07A6802
:10441000C4F80CC0A160CCF80840CC6088E66319F1
:1044200042F0010745F00105656030464B610B61C4
:10443000C3F80CE0C3F808E05F609A50083400F05D
:1044400017F9D5E64A6873E608F1010818F0030F7A
:104450000CF1080C7FF47FAE30E0DC68A34208BFAB
:1044600002303FF435AEB3E60B440C465A68C968D7
:1044700054F8085F42F001025A603046E9608D60EE
:1044800000F0F6F8B4E603F15C0E03F15B004FEACE
:104490004E0307E69A0902F1390149003832A1E7D3
:1044A000BC424A4B3FF400AF9C68626822F00302B2
:1044B0005AE759F80839994540F0828010F0030F07
:1044C00000F1FF30F5D17B6823EA04037B606400D0
:1044D0009C423FF6BDAE002C3FF4BAAE1C424046B3
:1044E0007FF435AE64001C4200F10400FAD02EE6E1
:1044F000B3F5AA7F18D8E80B00F1780E4FEA4E0307
:104500007730CFE54FF48051EBE60121D8F8043045
:10451000921001FA02F21A43C8F80420614677E7C4
:104520000123CBF8043025E740F25452934220D8BF
:10453000A80C00F17D0E4FEA4E037C30B2E510323C
:10454000A4E6542A26D81A0B02F16F0149006E32F4
:1045500048E7BC68626822F0030205E7CAF30B0073
:1045600000287FF4A8AE4244BB6842F001025A60C2
:10457000ECE6FE234FF07F0E7E2093E501224FF004
:104580000009C1E604F10801304600F049F9D9F804
:104590000010DBE6B2F5AA7F05D8DA0B02F178014C
:1045A000490077321EE740F254518A4205D89A0CEE
:1045B00002F17D0149007C3214E7FE217E2211E7E1
:1045C0007B6884E7E808431C5B00F8E5DC15FF1F07
:1045D00070B4840746D0541E002A41D0CDB20346A1
:1045E00002E0621EE4B3144603F8015B9A07F8D1B7
:1045F000032C2ED9CDB245EA05250F2C45EA0545F9
:1046000019D903F110022646103E0F2E42F8105C15
:1046100042F80C5C42F8085C42F8045C02F11002BB
:10462000F2D8A4F1100222F00F0204F00F041032AD
:10463000032C13440DD91E462246043A032A46F899
:10464000045BFAD8221F22F003020432134404F060
:1046500003042CB1C9B21C4403F8011BA342FBD1D3
:1046600070BC704714460346C2E700BF704700BFE6
:10467000704700BF38B5074C002305460846236045
:10468000FDF77CFC431C00D038BD2368002BFBD019
:104690002B6038BDC826FF1F2DE9F047254C256843
:1046A000D5F848410646884692469946C4B36068A4
:1046B0001F2817DC431C76B104EB80050122C5F8E6
:1046C00088A0D4F8881182401143022EC4F88811C2
:1046D000C5F808911ED00230636044F820800020A5
:1046E000BDE8F087144B03B34FF4C870FFF7A8FC84
:1046F0000446D0B1D5F84831002780E88800C5F8D5
:10470000484138460123C4F88871C4F88C71002EE2
:10471000E1D0D1E7D4F88C110A43C4F88C21DAE750
:1047200005F5A674C5F84841C1E74FF0FF30BDE874
:10473000F08700BF5851000041400000024B13B108
:10474000024800F005B87047000000005D47000017
:10475000002301461A461846FFF79EBF38B5074D9D
:10476000074C2C1BA41005D0013C55F8043D98477C
:10477000002CF9D1BDE8384000F0FCBC000000007E
:1047800000000000F8B5234F0C460646FFF76EFF09
:10479000BB685D6825F00305291B01F6EF7121F464
:1047A0007F6121F00F01A1F58054B4F5805F07DB34
:1047B00000213046FFF75EFFBB682B44984204D0CF
:1047C0003046FFF755FF0020F8BD61423046FFF745
:1047D00051FF01300DD0104BBA6819682D1B45F000
:1047E00001053046091B55601960FFF741FF0120A4
:1047F000F8BD00213046FFF73DFFBA68831A0F2B42
:10480000DEDD064C0449246843F00103001B5360BD
:104810000860D5E7DC15FF1F8C26FF1FE819FF1F76
:10482000002945D02DE9F0410D468046FFF71EFFD7
:1048300055F8047C6A4927F00103A5F10804E21841
:104840008E685068B24220F0030062D0FE075060CC
:104850000BD455F8087CE41B01F1080EA5687545DA
:104860003B446FD0E768EF60BD6015186D68ED07D9
:1048700042D543F001026260E350B3F5007F18D2E5
:10488000DB085A1C4D6851F83270A76001209B105C
:1048900000FA03F301EBC2001D430838E0604D60ED
:1048A00041F83240FC604046BDE8F041FFF7E0BE11
:1048B00070475A0A042A53D89A0902F139077F002F
:1048C00002F1380501EB870051F8272044490838E8
:1048D00090424DD0516821F003018B4202D2926880
:1048E0009042F7D1D068E060A2608460D460404616
:1048F000BDE8F041FFF7BCBE95683A4FBD420344A6
:104900003FD0D068E86043F0010285606260E35008
:10491000B3E7FF07034407D455F8082CA41A13443F
:10492000A068E268C26090602F4A126843F00100FC
:10493000934260608C60B6D32C4B40461968FFF7F9
:1049400021FFB0E711184968C90744D49168D268BB
:10495000CA60034443F0010091606060E350A2E745
:10496000142A17D802F15C077F0002F15B05A9E762
:10497000AA104B68012505FA02F213434B60024668
:10498000B1E743F001024C610C61E560A560626033
:10499000E35088E7542A06D81A0B02F16F077F000C
:1049A00002F16E058EE7B2F5AA7F06D8DA0B02F1A6
:1049B00078077F0002F1770584E740F25450824285
:1049C00006D89A0C02F17D077F0002F17C0579E799
:1049D000FE277E2576E743F001026260E35062E73E
:1049E000DC15FF1FE415FF1FE419FF1F8826FF1FBA
:1049F0001500000016000000170000001E00000057
:104A00001B0000001C0000000B0000000D00000057
:104A10000C00000018000000190000001A0000003F
:104A20000200000003000000040000000500000078
:104A300006000000090000000A0000001D00000040
:104A400021000000220000002300000024000000DC
:104A500025000000260000002700000042000000A2
:104A600048562044696D204D6F64650048562044C7
:104A7000696D204D6F64652064617461203D200084
:104A8000536F6674205265626F6F742052506921B3
:104A90000000000050495F4750494F31385F50498E
:104AA0004E313220746F67676C6520666F722031FB
:104AB0002073656300000000446F6E650000000015
:104AC00050495F4750494F31385F50494E3132208D
:104AD00072657475726E696E6720746F206E6F7286
:104AE0006D616C002A2A2A2A2A2A2A2A2A2A2A2A94
:104AF0002A2A2A2A2A2A2A2A2A2A2A2A2A2A2A2A16
:104B00002A00000048617264205265626F6F742051
:104B1000525069210000000050495F52554E2074E8
:104B20006F67676C6520666F722031207365630064
:104B300050495F52554E2072657475726E696E678A
:104B400020746F206E6F726D616C00004D61696E34
:104B5000204C6F6F703A2074696D6544656C7461A8
:104B60005278203D200000002A2A2A2A2A2A2A2AAE
:104B70002A2A2A2A2A2A2A2A2A2A2A2A2A2A2A2A95
:104B80002A2A2A2A2A2A0000496E20536F66742096
:104B90005265626F6F74204C6F6F702000000000D0
:104BA00054727920232000002F000000576169749F
:104BB000696E67200000000073656320666F7220D5
:104BC00052506920746F20626F6F740020736563A8
:104BD0006F6E64732068617320656C6170736564C7
:104BE00000000000202D2D2D20000000207C200042
:104BF000576520726563656976656420746F6F2000
:104C00006D616E792062797465732E2020536D6119
:104C1000636B204E69636B2E0000000048564449C8
:104C20004D4D4F44450000004F7574707574205011
:104C30006F6C61726974790A000000004F757470BE
:104C4000757420506F6C617269747920646174614D
:104C50003D2000000A0A00005465656E73792053F8
:104C600065747570206861732072756E21205765B8
:104C700027766520426F6F74656421006C6F6F70DA
:104C8000207374617274000055706461746520480B
:104C900056535220776974682000000052656C6199
:104CA00079205570646174650000000064696D6D61
:104CB000657252656C617953746174653D200000C2
:104CC00020696E44696D4D6F64653D002070776D9D
:104CD00049735A65726F3D005365742064696D6D48
:104CE000657220656467652064696D6D6572203D3D
:104CF0002020000065646765203D20005365742016
:104D0000305F313056206D6F64652064696D6D656C
:104D100072203D2020000000206D6F6465203D2042
:104D200000000000676F742076657273696F6E20F3
:104D3000726571756573742C2073656E64696E6736
:104D4000206E6F77000000000000000000000000EF
:104D50001D0C00004D0C0000BD0B0000190C0000E4
:104D6000C10B0000D10B0000F90B00000101010193
:104D70000001FFFF140000001600000018000000F2
:104D80001A0000001C0000001E00000020000000AF
:104D90002200000024000000280000002C00000079
:104DA0003000000034000000380000003C0000002B
:104DB00040000000440000004800000050000000D7
:104DC0005800000060000000680000007000000053
:104DD00078000000800000008800000090000000C3
:104DE000A0000000B0000000C0000000E0000000D3
:104DF000F000000000010000200100004001000060
:104E00006001000080010000C0010000E00100001E
:104E100000020000400200008002000000030000C9
:104E200080030000C00300000004000080040000B4
:104E300000050000000600008007000000070000D9
:104E40000008000000090000000A0000000C00003B
:104E5000000F000000010203040509060A070C0DFB
:104E6000430E45120F13141519161A85174F1C1DE2
:104E7000551E221F23242595262A272B2C2D2E3222
:104E80002F33343536373A3B3C3D3E3F050E08095B
:104E90000D0C06070F0403938E8F050E08090D0CE9
:104EA00006070F04FFFFFFFFFFFFFF8E8F11128425
:104EB00085868791FFFFFFFFFFFFFFFFFF8A8BFFC4
:104EC000FFFFFFFFFFFFFFFFFFFFFFFF03931797AA
:104ED00001811A924008FE4340A004404408FE436A
:104EE00044A004400018FE4300C004403000FE43CC
:104EF000309004403400FE43349004401C18FE43BC
:104F00001CC004401018FE4310C004400818FE43A3
:104F100008C004400C18FE430CC004400C10FE43B3
:104F20000CB004401010FE4310B004401810FE43B3
:104F300018B004401C10FE431CB004401410FE4383
:104F400014B004400418FE4304C004400010FE43A3
:104F500000B004400008FE4300A004400408FE43E3
:104F600004A004400C08FE430CA004400808FE43C3
:104F700008A004401418FE4314C004401818FE434F
:104F800018C004400410FE4304B004400810FE435F
:104F900008B004406820FE4368D004401400FE437B
:104FA000149004403800FE43389004403C00FE4317
:104FB0003C9004404000FE43409004404808FE43BB
:104FC00048A004404C08FE434CA004402808FE437F
:104FD00028A004402C08FE432CA004406020FE437F
:104FE00060D004406420FE4364D004402010FE439F
:104FF00020B004402410FE4324B004402810FE4397
:1050000028B004402C10FE432CB004404400FE4362
:10501000449004407000FE43709004407400FE43CE
:10502000749004406800FE43689004405008FE43BA
:1050300050A004405808FE4358A004405C08FE43BA
:105040005CA004405408FE4354A004402018FE43D2
:1050500020C004402418FE4324C004401008FE432E
:1050600010A004401408FE4314A004403818FE4366
:1050700038C004403418FE4334C004403018FE43A6
:1050800030C004403C18FE433CC004402C18FE4392
:105090002CC004402820FE4328D004402C20FE438E
:1050A0002CD004400020FE4300D004400420FE43E6
:1050B00004D004400820FE4308D004400C20FE43E6
:1050C0000CD004401020FE4310D004401420FE43B6
:1050D00014D004400D0AFFFF000000000000000093
:1050E00005380000FD370000F9370000F5370000F3
:1050F000F1370000ED370000E9370000E537000028
:1051000000151915000100000811FF1F1200000012
:10511000000200003411FF1F4300000000030000E4
:105120009011FF1F00000000010309041C11FF1F64
:1051300000000000020309047811FF1F00000000B6
:10514000030309049411FF1F000000000000000089
:105150000000000000000000B011FF1FF8B500BF04
:10516000F8BC08BC9E4670473D470000350400006F
:04517000BD18000066
:04517400F8B500BFCB
:1051780000000000FF0000000060064001600640DB
:105188000260064003600640046006400560064071
:105198000660064007600640086006400960064051
:1051A8000A6006400B600640000000000000000096
:1051B80000000000000000000000000000000000E7
:1051C80000000000000000000000000000000000D7
:1051D80000000000000000000000000000000000C7
:1051E80000000000000000000000000000000000B7
:1053C80001000300A08601000100000000000000A9
:1053D80000000000000000000000000000000000C5
:1053E8000000000000700640017006400270064090
:1053F80003700640047006400570064006700640BB
:105408000770064008700640097006400A7006409A
:105418000B700640000000000000000000000000C3
:105428000000000000000000000000000000000074
:105438000000000000000000000000000000000064
:105448000000000000000000000000000000000054
:105458000000000000000000000000000000000044
:105468000000000000000000000000000000000034
:105478000000000000000000000000000000000024
:105488000000000000000000000000000000000014
:105498000000000000000000000000000000000004
:1054A80000000000000000000000000000000000F4
:1054B80000000000000000000000000000000000E4
:1054C80000000000000000000000000000000000D4
:1054D80000000000000000000000000000000000C4
:1054E80000000000000000000000000000000000B4
:1054F80000000000000000000000000000000000A4
:105508000000000000000000000000000000000093
:105518000000000000000000000000000000000083
:105528000000000000000000000000000000000073
:105538000000000000000000000000000000000063
:105548000000000000000000000000000000000053
:105558000000000000000000000000000000000043
:105568000000000000000000000000000000000033
:105578000000000000000000000000000000000023
:105588000000000000000000000000000000000013
:105598000000000000000000000000000000000003
:1055A80000000000000000000000000000000000F3
:1055B80000000000000000000000000000000000E3
:1055C80000000000000000000000000000000000D3
:1055D80000000000000000000000000000000000C3
:1055E80000000000000000000000000000000000B3
:1055F80000000000000000000000000000000000A3
:105608000000000000000000000000000000000092
:105618000000000000000000000000000000000082
:10562800000000000000000000000000010005006C
:10563800A08601000100000000000000000000003A
:105648000000000000000000000000000000000052
:1056580000600E4001600E4002600E4003600E4084
:1056680004600E4005600E4006600E4007600E4064
:1056780008600E4009600E400A600E400B600E4044
:105688000000000000000000000000000000000012
:105698000000000000000000000000000000000002
:1056A80000000000000000000000000000000000F2
:1056B80000000000000000000000000000000000E2
:10589800000000000000000001000000A0860100D8
:1058A80001000000000000000000000000000000EF
:1058B80000000000000000000000000000700E4022
:1058C80001700E4002700E4003700E4004700E40CE
:1058D80005700E4006700E4007700E4008700E40AE
:1058E80009700E400A700E400B700E400000000058
:1058F80000000000000000000000000000000000A0
:10590800000000000000000000000000000000008F
:10591800000000000000000000000000000000007F
:10592800000000000000000000000000000000006F
:105B08000000000001000700A0860100010000005D
:105B1800000000000000000000000000000000007D
:105B280000000000000000000A040000CC26FF1F4F
:105B380008000000FFFFFFFFE05000000000000029
:105B4800E80300000000000012010101020000400B
:105B5800C016830400020102030100001803540068
:105B6800650065006E0073007900640075006900C7
:105B78006E006F0009024300020100C032090400F0
:105B880000010202010005240010010524010101A1
:105B980004240206052406000107058203100040BC
:105BA80009040100020A0000000705030240000082
:105BB8000705840240000000160355005300420008
:105BC8002000530065007200690061006C0000004D
:105BD800040309040C03000000000000000000009A
:105BE80000000000000000000000000000000000AD
:105BF800000000009C14FF1F0415FF1F6C15FF1FF9
:105C0800000000000000000000000000000000008C
:105C1800000000000000000000000000000000007C
:105C2800000000000000000000000000000000006C
:105C3800000000000000000000000000000000005C
:105C4800000000000000000000000000000000004C
:105C5800000000000000000000000000000000003C
:105C6800000000000000000000000000000000002C
:105C7800000000000000000000000000000000001C
:105C8800000000000000000000000000000000000C
:105C980000000000000000000100000000000000FB
:105CA8000E33CDAB34126DE6ECDE05000B000000C0
:105CB80000000000000000000000000000000000DC
:105CC80000000000000000000000000000000000CC
:105CD80000000000000000000000000000000000BC
:105CE80000000000000000000000000000000000AC
:106018000000000000000000B011FF1F0000000099
:1060280000000000DC15FF1FDC15FF1FE415FF1F33
:10603800E415FF1FEC15FF1FEC15FF1FF415FF1FDC
:10604800F415FF1FFC15FF1FFC15FF1F0416FF1F8B
:106058000416FF1F0C16FF1F0C16FF1F1416FF1F38
:106068001416FF1F1C16FF1F1C16FF1F2416FF1FE8
:106078002416FF1F2C16FF1F2C16FF1F3416FF1F98
:106088003416FF1F3C16FF1F3C16FF1F4416FF1F48
:106098004416FF1F4C16FF1F4C16FF1F5416FF1FF8
:1060A8005416FF1F5C16FF1F5C16FF1F6416FF1FA8
:1060B8006416FF1F6C16FF1F6C16FF1F7416FF1F58
:1060C8007416FF1F7C16FF1F7C16FF1F8416FF1F08
:1060D8008416FF1F8C16FF1F8C16FF1F9416FF1FB8
:1060E8009416FF1F9C16FF1F9C16FF1FA416FF1F68
:1060F800A416FF1FAC16FF1FAC16FF1FB416FF1F18
:10610800B416FF1FBC16FF1FBC16FF1FC416FF1FC7
:10611800C416FF1FCC16FF1FCC16FF1FD416FF1F77
:10612800D416FF1FDC16FF1FDC16FF1FE416FF1F27
:10613800E416FF1FEC16FF1FEC16FF1FF416FF1FD7
:10614800F416FF1FFC16FF1FFC16FF1F0417FF1F86
:106158000417FF1F0C17FF1F0C17FF1F1417FF1F33
:106168001417FF1F1C17FF1F1C17FF1F2417FF1FE3
:106178002417FF1F2C17FF1F2C17FF1F3417FF1F93
:106188003417FF1F3C17FF1F3C17FF1F4417FF1F43
:106198004417FF1F4C17FF1F4C17FF1F5417FF1FF3
:1061A8005417FF1F5C17FF1F5C17FF1F6417FF1FA3
:1061B8006417FF1F6C17FF1F6C17FF1F7417FF1F53
:1061C8007417FF1F7C17FF1F7C17FF1F8417FF1F03
:1061D8008417FF1F8C17FF1F8C17FF1F9417FF1FB3
:1061E8009417FF1F9C17FF1F9C17FF1FA417FF1F63
:1061F800A417FF1FAC17FF1FAC17FF1FB417FF1F13
:10620800B417FF1FBC17FF1FBC17FF1FC417FF1FC2
:10621800C417FF1FCC17FF1FCC17FF1FD417FF1F72
:10622800D417FF1FDC17FF1FDC17FF1FE417FF1F22
:10623800E417FF1FEC17FF1FEC17FF1FF417FF1FD2
:10624800F417FF1FFC17FF1FFC17FF1F0418FF1F81
:106258000418FF1F0C18FF1F0C18FF1F1418FF1F2E
:106268001418FF1F1C18FF1F1C18FF1F2418FF1FDE
:106278002418FF1F2C18FF1F2C18FF1F3418FF1F8E
:106288003418FF1F3C18FF1F3C18FF1F4418FF1F3E
:106298004418FF1F4C18FF1F4C18FF1F5418FF1FEE
:1062A8005418FF1F5C18FF1F5C18FF1F6418FF1F9E
:1062B8006418FF1F6C18FF1F6C18FF1F7418FF1F4E
:1062C8007418FF1F7C18FF1F7C18FF1F8418FF1FFE
:1062D8008418FF1F8C18FF1F8C18FF1F9418FF1FAE
:1062E8009418FF1F9C18FF1F9C18FF1FA418FF1F5E
:1062F800A418FF1FAC18FF1FAC18FF1FB418FF1F0E
:10630800B418FF1FBC18FF1FBC18FF1FC418FF1FBD
:10631800C418FF1FCC18FF1FCC18FF1FD418FF1F6D
:10632800D418FF1FDC18FF1FDC18FF1FE418FF1F1D
:10633800E418FF1FEC18FF1FEC18FF1FF418FF1FCD
:10634800F418FF1FFC18FF1FFC18FF1F0419FF1F7C
:106358000419FF1F0C19FF1F0C19FF1F1419FF1F29
