:1000000000000320D10100006D2400002524000021
:1000100025240000252400002524000025240000BC
:100020002524000025240000252400006D24000064
:100030006D240000252400006D240000152400001C
:100040006D2400006D2400006D2400006D2400006C
:100050006D2400006D2400006D2400006D2400005C
:100060006D2400006D2400006D2400006D2400004C
:100070006D2400006D2400006D2400006D2400003C
:100080006D2400006D2400006D2400006D2400002C
:100090006D2400006D2400006D2400006D2400001C
:1000A000951D0000A11D00006D2400006D240000BE
:1000B0006D2400006D2400006D2400000541000047
:1000C0006D240000314200006D2400005D430000FB
:1000D0006D240000554400006D2400006D240000D4
:1000E0006D2400006D2400006D2400006D240000CC
:1000F0006D2400006D2400006D2400006D240000BC
:100100006D2400006D2400006D2400006D240000AB
:100110006D240000A92E00006D2400006D24000055
:100120006D2400006D2400006D2400006D2400008B
:100130006D2400006D2400006D2400006D2400007B
:100140006D2400006D2400004D4500006D2400006A
:100150006D2400006D2400006D2400006D2400005B
:100160006D2400006D240000AD1D00006D24000012
:100170006D2400006D2400006D2400006D2400003B
:100180006D2400006D2400006D2400006D2400002B
:100190006D2400006D240000454600006D24000021
:1001A0006D2400006D2400006D240000B91D0000C6
:1001B0006D2400006D2400006D2400006D240000FB
:1001C0006D2400006D2400006D2400006D240000EB
:1001D0005C4B4CF2205210B51A804DF628121A8052
:1001E00000BF00BF02F046F9574B4FF030621A6073
:1001F000564A9A60564ADA60564B4FF470021A60BB
:10020000554B564A1A60564A136813F4807304D14A
:1002100054490B604FF4A8531360534B1A781107DD
:1002200003D51A7842F008021A70504B5049AA229E
:100230001A70504A504B8B4204D252F8040F43F8C4
:10024000040BF8E74D4B4E4900228B4202D243F893
:10025000042BFAE74B494C4A002352F8230041F89B
:1002600023000133742BF8D1484B494A802103F80D
:10027000011B9342FBD1474B424A1A60464B8A22EC
:100280001A70A3F5805324225A70A0221A709A790A
:100290009207FCD59A79D406FCD4404A937903F0AE
:1002A0000C03082BFAD13E4B60221A7002331A78E5
:1002B000802AFCD1394B01221A715D225A719A7938
:1002C0009006FCD59979354A4906FBD5354B364918
:1002D00019600021596020231370937903F00C03F7
:1002E0000C2BFAD1314B324A1A60324B324A1A6027
:1002F00000225A60072243F8042C304AC3F80C2D20
:1003000062B602F063FC174B1B68DA0705D52C4870
:1003100002F064F92B4B2C4A1A602C4B1B785B06BD
:1003200009D5284C284B22689A4204D1244802F06F
:1003300055F90023236004F0DFFE02F0A1F803F07A
:1003400041FEFEE70E20054030800440823F04005D
:100350000100002B88ED00E0002008E0030000858C
:1003600010D0034014D0034002D0074000E0074003
:10037000FC19FF1F346C00003007FF1FFC19FF1F22
:100380003C27FF1F0002FF1F0000000000E400E008
:1003900064E400E008ED00E0005006400040064044
:1003A00001E007404480044000000602048004404D
:1003B000C010070014E000E01FBF02000000202072
:1003C000B49A585A1CE00340A5C3945A00F0074061
:1003D000FFFFFFFFFFFFFFFFFFFFFFFFFFFFFFFF2D
:1003E000FFFFFFFFFFFFFFFFFFFFFFFFFFFFFFFF1D
:1003F000FFFFFFFFFFFFFFFFFFFFFFFFFFFFFFFF0D
:10040000FFFFFFFFFFFFFFFFFFFFFFFFDEF9FFFF23
:1004100010B5054C237833B9044B13B10448AFF33E
:1004200000800123237010BDFC19FF1F0000000095
:10043000386C0000084B10B51BB108490848AFF3F1
:1004400000800848036803B910BD074B002BFBD0A0
:10045000BDE81040184700BF00000000001AFF1F51
:10046000386C0000FC19FF1F00000000F0B5194AAD
:10047000194B12688FB007460092009A1A6060B15B
:100480000EAB1D18154E353D0DF10304306901F01A
:10049000CBF904F8010FAC42F8D19DF804305A1F93
:1004A000022A00D91BB90E4A13700FB0F0BD0D4DD2
:1004B0000D4B2C68C82000FB04303A4601A901F01E
:1004C000D9FC0134082CCABF00232C602B600FB06C
:1004D000F0BD00BFEC22FF1F5022FF1FBC22FF1FF8
:1004E0004407FF1F601AFF1F801AFF1F2DE9F04706
:1004F000132105462348244E244FDFF8A88003F03B
:1005000013FA234B234819780A22002303F0C8FB6F
:10051000204803F0B5FB10211F4803F005FA4FF007
:1005200008094FF0020A01E057F804AF6C7815F89B
:10053000023F1A48032103EB042403F0F5F9642376
:1005400003FB04F388FB03211944DB17C3EBE13100
:10055000104803F0E5FB0321104803F0E5F92146BC
:100560005FFA8AF002F04CF8B9F1010926F8024F5F
:10057000DAD149460A4803F0D7F90648BDE8F04702
:1005800003F07EBB54620000221AFF1FDC610000F2
:10059000641AFF1F0811FF1F686200007C620000E0
:1005A000206700000180008010B50E4C0138012248
:1005B000237802FA00F089B923EA0000207015219F
:1005C000094803F0B1F9217808480023102203F00C
:1005D00067FB0648BDE8104003F052BB184320708B
:1005E000EDE700BF341AFF1F806200000811FF1FF3
:1005F000F8B50F4D0F4B29681B68994214D00E4F68
:10060000C82606FB0171324601F034FC2C683246E4
:1006100006FB0470FF2105F0C3F80134082CCABFA3
:1006200000232C602B60F8BDFF230370F8BD00BFD2
:100630006822FF1F601AFF1F801AFF1F70B50B4D45
:100640001A20A5F10C060024C0B202F035FA6400AD
:10065000012808BF0134B54202D055F8040DF3E774
:10066000034B01225C701A7070BD00BF286200004D
:100670006C22FF1F10B5184C2368032B0BD8DFE842
:1006800003F0220219100E2001F00AFE134A23681B
:1006900010710012D0700133032BC8BF00232360F8
:1006A00010BD102001F0FCFD0C4A236810720012EE
:1006B000D071F0E70F2001F0F3FD084A2368907134
:1006C00000125071E7E7432001F0EAFD034A236876
:1006D000907000125070DEE78822FF1F7422FF1F07
:1006E0002DE9F8432F4C4FF00408202106462E48F0
:1006F00084F8008003F018F916212C4803F014F94F
:100700002B4803F0BDFA0A2221782948002303F080
:10071000C7FA274803F0B4FA237826480B21DDB244
:1007200003F002F90023217821480A2203F0B8FAE5
:100730001F4803F0A5FA2378013B43452AD805F169
:10074000FF38B8F1000F23DDDFF87890152700257A
:100750000421194803F0E8F82946154803F0E0FAA7
:100760000821164803F0E0F816F8014F104824025B
:10077000214603F0D5FA0E4803F082FA01352146EE
:10078000F8B201F03DFF454502DA59F8047FDFE792
:10079000BDE8F88328210A4803F0C6F8044803F0AE
:1007A0006FFAD1E7651AFF1FA0620000C462000063
:1007B0000811FF1FDC620000146300001C630000CE
:1007C000E8620000FC61000070B50A4D06461B237C
:1007D000002446FA04F111F00101D8B204BF00214F
:1007E000D8B2013402F062F9042C02D055F8043F6B
:1007F000EFE770BD0C620000F8B5264D264C02F004
:100800006FF92B68C31A1022B3F5C87F227000D28B
:10081000F8BD224F224B3A78064613F8220001F029
:100820003FFD3A781F492E60531C51F822501E4E4E
:10083000DBB22844072B41F822003B70356803D90E
:100840000023013535603B70962DE1DD124A1748D3
:100850000023102123606360A360E36023745718B2
:10086000217050F8043F93FBF5F3002B1946B8BFF5
:1008700003F1FF010912517002F8023FBA4203600E
:10088000EFD100231946336020220648BDE8F84026
:1008900004F086BF381AFF1F681AFF1F791AFF1F5E
:1008A0002C6200003C1AFF1F5822FF1F381AFF1F3E
:1008B00030B5274B27491A78274B451E0124AC40F9
:1008C0008DB0224208BF1946684603F04DFB234B0A
:1008D00023491A68234B144208BF194604A803F0A1
:1008E00043FB214B21491A78214B224218BF19465C
:1008F00008A803F039FB69461E4803F09BF906215E
:100900001D4803F011F804A91A4803F093F90821CF
:100910001A4803F009F808A9164803F08BF90C21CE
:10092000174803F001F8174B124833F8151003F07D
:10093000F7F9104803F0A4F908A803F0D5FA04A8C1
:1009400003F0D2FA684603F0CFFA0DB030BD00BF15
:10095000641AFF1F28660000206600009022FF1F17
:100960003866000030660000341AFF1F4066000041
:10097000446600000811FF1F946600004C660000EA
:1009800048660000241AFF1F10B5134C13482B2192
:1009900002F0CAFF204603F073F9114B2046197884
:1009A00003F0BEF909210F4802F0BEFF0E4B2046AE
:1009B000197803F0B5F90A210C4802F0B5FF0C4B89
:1009C000204619780A22002303F06AF92046BDE880
:1009D000104003F055B900BF0811FF1F5866000012
:1009E0003507FF1F846600003607FF1F9066000072
:1009F0003407FF1F10B52E21084802F095FF084864
:100A000003F03EF9002401342046FFF751FF082C83
:100A1000F9D1BDE81040FFF7B7BF00BF9C660000EA
:100A20000811FF1F2DE9F0410C211A481A4EDFF87A
:100A300074801A4F02F078FF0125194803F020F95D
:100A40002C460BE033886BB13B78234219D101353A
:100A50006400092D64B206F102060ED098F8003049
:100A60002342EFD13B782342F1D128460121FFF701
:100A70009BFD642002F058F8E9E7BDE8F041FFF77C
:100A8000B9BF28460021FFF78FFD642002F04CF823
:100A9000DDE700BFCC660000241AFF1F341AFF1FD9
:100AA0000811FF1F641AFF1F70B50A4C0A4E054655
:100AB00033210A4802F038FF29462046002310223D
:100AC000357003F0EDF8204603F0DAF8BDE8704029
:100AD000FFF7A8BF0811FF1F641AFF1FDC660000A4
:100AE0002DE9F041164E174D08234FF002084FF440
:100AF0001672042401064CBFC5F80080C6F80080B9
:100B00004FF4167711460139FDD1DFF838C02C605B
:100B100011460139FDD1DFF828E034601146013972
:100B2000FDD1013B13F0FF034FEA4000E2D108235F
:100B3000CCF80030013FFDD1CEF80030BDE8F081A7
:100B400048F00F4044F00F4010B5102104460B4808
:100B500002F0EAFE16210A4802F0E6FE21460023D2
:100B60000A22084803F09CF80221074802F0DCFE44
:100B70002046BDE81040FFF7B3BF00BF106700007C
:100B8000246700000811FF1F3C670000F0B52DED41
:100B9000028BB3B0C8220021684604F001FE68460B
:100BA000FFF726FD9DF80030FF2B0CD0013B072BF3
:100BB00009D8DFE803F08A8E0493080808859DF8B9
:100BC0000100FFF7C1FFFFF717FE464B46491A68C1
:100BD000464C01321A601A688A422EDC23781BB90F
:100BE00033B0BDEC028BF0BD01F07AFF404A4149C1
:100BF000136891ED007A1060C31A07EE903A3E4BED
:100C0000F8EEE77AF4EEC77A93ED007AF1EE10FA97
:100C1000F4EEC77AC8BFC1ED007AF1EE10FA48BF12
:100C2000C3ED007A354B93ED007A77EE277AC3ED6A
:100C3000007A33B0BDEC028BF0BD00221A60FFF7E2
:100C400019FDFFF7FBFC2378002BC9D0294F2C4856
:100C5000294D2A4E0E2102F067FE386803F016FF78
:100C600041EC100B0221274803F062F806212648C8
:100C700002F05AFE286803F009FF41EC100B022134
:100C8000204803F055F896ED007ADFED207A2048F1
:100C900087EE278A062102F047FE18EE100A03F0BD
:100CA000F5FE41EC100B0221164803F041F81548FF
:100CB00002F0E6FF0023174A3B6033602A608DE7AD
:100CC0009DF80100FFF7F0FE7DE76846FFF70EFC98
:100CD00079E79DF80100FFF777FD74E76846FFF7B5
:100CE000FFFC70E77022FF1F9F8601008422FF1F18
:100CF0008022FF1F5C1AFF1F4007FF1F6022FF1F9B
:100D0000406700000811FF1F506700000050C347F4
:100D10005867000000401C46F0B5154E154D1023D5
:100D20004FF0020C7822042401044CBFC5F800C027
:100D3000C6F800C011460139FDD1DFF838E02C605B
:100D400011460139FDD10A4F346011460139FDD1F8
:100D5000013B13F0FF034FEA4000E5D108224FF4B6
:100D60001673CEF80020013BFDD13A60F0BD00BF04
:100D700048F00F4044F00F40F0B501218DB0084617
:100D800001F0A8FE0121132001F0A4FE0121112091
:100D900001F0A0FE0021142001F09CFE0121122090
:100DA00001F098FE01211F2001F094FE00211F2078
:100DB00001F07CFE7D4D7E4F0121202001F08AFE56
:100DC0000021202001F072FE05F11C06022401E042
:100DD00055F8044FE4B20121204601F07BFED7ED27
:100DE000007A2046B8EEE70A01F0BAFD204600215D
:100DF00001F006FCAE42EBD16E4D1B2405F10C0652
:100E0000E4B22046012101F065FE2046002101F0F8
:100E10004DFEAE4202D055F8044FF1E700210C2000
:100E200001F058FE0021182001F054FE624C002110
:100E3000192001F04FFE1A20002101F04BFE04F1B1
:100E40001C05212001E054F8040FC0B2002101F07C
:100E500041FEAC42F7D10121152001F03BFE0121FA
:100E6000162001F037FE0121172001F033FE012189
:100E70001E2001F02FFE0021432001F02BFE002157
:100E80000E2001F027FE00210F2001F023FE00219B
:100E9000102001F01FFE102001F052FD0C2001F087
:100EA00095F94FF4807001F0C5F9444B444C454A24
:100EB000454D464F00211970206840F6C411137843
:100EC0003BB12B789B0704D023683E689B1B182BF3
:100ED00003D823681B1A8B42F1D923213C483D4D8E
:100EE00002F022FD3C4802F0CBFE0C213B4802F010
:100EF0001BFD0021384802F013FF374802F0C0FE06
:100F00004FF47A7001F010FE354B364A1869597B60
:100F1000C0F85C5200260125334BC0F860222A46F7
:100F200004950195039302966623009600F0ECFB6E
:100F30004FF47A7001F0F8FD2846FFF7EDFE0F211F
:100F40002A4802F0F1FC244802F09AFE23680A9332
:100F50000A9923680993DDF824E023680893089F21
:100F600023680793224B07981D702268214B224C5F
:100F70000B92224A26601960214C2249224BC2F86A
:100F800000E00B9A27601A60086001F0A9FD1F4974
:100F90001F4A204B204D097812785E700324286088
:100FA0001C709970DA700DB0F0BD00BFDC610000FC
:100FB0003C07FF1F0C6200002C620000651AFF1F37
:100FC000EC22FF1FD023FF1FE823FF1F3427FF1F42
:100FD000606700006D0400000811FF1F84670000B7
:100FE000BC22FF1F2D100000801A0600946700002D
:100FF0003407FF1F5C22FF1F5022FF1F181AFF1F1C
:101000001C1AFF1F201AFF1F6422FF1F3707FF1F34
:101010003807FF1F7C1AFF1F8022FF1F08B501F051
:101020005FFD014B186008BD5422FF1F10B51C4B1B
:101030001C4C1B681C4A82B00193237801991160F3
:101040004BB1072B0FD0052B15D0062B1BD0FF2340
:10105000237002B010BD04221449154800F07AF83C
:101060002378072BEFD111221249114800F072F8B2
:101070002378052BE9D109220F490D4800F06AF8C1
:101080002378062BE3D102220C49094800F062F8CC
:101090000B4B00221A70FF23237002B010BD00BF5B
:1010A000EC22FF1F4407FF1F5022FF1F7C1AFF1F67
:1010B000BC22FF1F681AFF1F7422FF1F6C22FF1F34
:1010C0008C22FF1F002070470369D3F83801D3F842
:1010D0003431C01A704700BF0369D3F83411D3F814
:1010E0003821914208D2D3F83421511C1A44C3F854
:1010F000341192F8300070474FF0FF30704700BF56
:101100000369D3F83411D3F8382191423DBFD3F8A5
:1011100034219B1893F830004FF0FF30704700BF28
:10112000704700BF0369D3F84422B2F5817F03D929
:101130000123037100207047D3F8442210B49C1897
:101140000132C3F8442284F83C1101205DF8044BBD
:10115000704700BFF0B40569D5F84432B3F5817F1C
:1011600020D8D5F84462D5F84442C6F581760136D8
:10117000964205F59E7302D20127324607714AB1A5
:10118000013C23448D1811F8014B03F8014FA9428B
:10119000F9D10569D5F844321344C5F844321046F4
:1011A000F0BC704701230371F0BC0020704700BF02
:1011B00038B503690A4A026093F84822022A0446B5
:1011C00001D0204638BDD3F86452002DF9D028460E
:1011D00002F014FD284602F0FFFE204638BD00BF95
:1011E000006800002DE9F04F83B0002B40F26455F9
:1011F00040F2647440F2035740F2037840F2032651
:1012000002BF2F46A0464FF419769DF830E041B951
:10121000541EE4B2052C20D98946484603B0BDE8E7
:10122000F08F012930D1052A38D189460C469246E3
:1012300005469B46BEF1000F1CD090F84B2290F85B
:101240004A32002A0CBF00220222072B12D8DFE804
:1012500003F0B876818C97A2AD6B5F4D15F80490C2
:10126000B9F1000FD9D00C46924605469B46BEF117
:10127000000FE2D14CBB0AF1FF33052B1DD8DFE88C
:1012800003F04C47423D1C38022903D132B94FF0DC
:101290000109CBE7032901D1072AF8D04FF0000953
:1012A000484603B0BDE8F08F032C06D1BAF1070F12
:1012B00003D14A4A4A4B16601E60484685F84AA246
:1012C00085F84BB203B0BDE8F08F012C07D1BAF11D
:1012D000050FF2D1434A444B16601E60EDE7022C25
:1012E000E2D1BAF1000FE8D1404A414B17601F60CC
:1012F000E3E7404A404B16601E60DEE73F4A404B42
:1013000017601F60D9E73F4A3F4B16601E60D4E765
:101310003E4A3F4B16601E60CFE73E4A3E4BC2F846
:101320000080C3F80080C8E711463820019201F020
:10133000D1FB019A3920114601F0CCFB9AE7114606
:101340000820019201F0C6FB019A0720114601F026
:10135000C1FB8FE711461120019201F0BBFB019AFE
:101360001020114601F0B6FB84E7114612200192CD
:1013700001F0B0FB019A1320114601F0ABFB79E7B5
:1013800011462220019201F0A5FB019A212011466D
:1013900001F0A0FB6EE711462620019201F09AFBB6
:1013A000019A2520114601F095FB63E71146302094
:1013B000019201F08FFB019A2F20114601F08AFB68
:1013C00058E711460420019201F084FB019A0320A2
:1013D000114601F07FFB4DE71C68000028D0044057
:1013E0002CD004402CB0044028B004403490044079
:1013F0003090044024C0044020C0044064D0044025
:1014000060D004400CA0044008A0044004A00440A4
:1014100000A004400CC0044008C00440F8B5C368F4
:101420001B789B0610D483680D4680211970C36811
:101430001221197090F84932012B044606D08AB95E
:1014400080F848220120F8BD0020F8BD1A4675B981
:10145000784B4FF080711960022A0FD0012084F878
:101460004802F8BD531E012BF1D90120F8BD012D12
:101470004AD1704B4FF000711960EDE7D4F8646207
:10148000002E00F096803379202B30D0002D42D1F1
:1014900032686949938B694F9BB243F00803938389
:1014A0003279531102F110009B0041F8207003F1D2
:1014B000604303F56143012102F01F0201FA02F2C9
:1014C00031681A608B8B9BB243F002038B833379B4
:1014D00003F1804303F5043392221D701A70002239
:1014E000022384F85A2284F848320120F8BD30469D
:1014F00002F084FB304602F06FFD00230120C4F8A7
:10150000643284F84802F8BD022D5DD14C4B4FF493
:1015100080611960A0E7012D26D132684649938B7E
:10152000484F9BB243F0080393833279531102F181
:1015300010009B0041F8207003F1604303F5614304
:1015400002F01F02954032681D60938B9BB243F0FE
:1015500002039383337903F1804303F504330021BD
:10156000932219701A70BAE7022D35D1D4F864129B
:1015700031480A68344E938B9BB243F0080393833F
:101580000A79531102F110059B0040F8256003F120
:10159000604303F56143012002F01F0200FA02F2EA
:1015A00008681A60838B9BB243F0020383830B7934
:1015B000D1E7082002F00EFD314607463E4602F014
:1015C000B7FAC4F864725EE7032D7FF445AF1C4B95
:1015D0004FF0006119603FE7032D80D1D4F8641209
:1015E00015480A68194E938B9BB243F00803938306
:1015F0000A79531102F110059B0040F8256003F1B0
:10160000604303F56143012002F01F0200FA02F279
:1016100008681A60838B9BB243F0020383830B79C3
:1016200003F1804303F504330021922219701A70EC
:1016300055E700BF00E100E00002FF1F951D00001C
:1016400008E100E0A11D0000AD1D0000B91D000073
:10165000F0B5284EDFF8ACE0A6FB0143A6FB024242
:101660009E0937027546960914240023B7FBF6F647
:1016700004E00133382B1BD055F8044F2202964268
:10168000F7DA83BB14241C4A4568B1FBF4F4914299
:101690002B70C0F84C4207D8184B8269A3FB01316C
:1016A000C1F307511170F0BD836904221A70F0BDB7
:1016B000002422464FF470274FF470654FF0370C2A
:1016C000B21AF71B002A87EAE776A6EBE776B8BFDF
:1016D0005242964202DD0A4AD35CD4E7084B2C46BC
:1016E00013F80C30CFE703F1FF3C5EF82C502F02CB
:1016F000E6E700BFD34D6210FF6BDC02819F5E16F0
:101700000469000024680000F0B583B004469DF829
:1017100024709DF820009DF828E09DF830600D466B
:1017200079BBDFF8FCC0DCF8001041F04001CCF8D8
:101730000010002184F8492284F8511292BB636999
:101740002021197023681A70E3691A70002173460A
:101750003A46009120462946FFF744FD0B9A2F494F
:101760002046FFF775FF324629462046FFF756FE12
:1017700094F84932002B38D0A368C0221A7003B005
:10178000F0BD012926D1DFF898C0DCF8001041F047
:101790008001CCF80010002184F8492284F851120D
:1017A000002ACCD0626960B1282111709842226869
:1017B00020D95B00DBB213704000E369C0B218703F
:1017C000C4E7202111705B002268D9B21170E3696F
:1017D0001870BBE7022915D1DFF848C0DCF800100B
:1017E00041F04001CCF80010A3E7A36880221A70F2
:1017F00003B0F0BD4000C0B210705800E369C0B241
:101800001870A3E7032994D1DFF818C0DCF80010A2
:1018100041F08001CCF800108BE700BF00879303F4
:101820003480044028800440D0F83421D0F8383186
:101830009A4208D2D0F834315A1C0344C0F83421FB
:1018400093F8300070470020704700BF2DE9F04149
:10185000C168D0F808E00D789EF800308769DBB2E7
:1018600003F020023C78EDB222B313F0100F90F891
:101870005A327ED0022B00F0CC8090F85A32032BE3
:1018800000F0C78090F85132012B00F0CC8190F825
:101890005132DBB2022B00F0EC8190F85132042B74
:1018A00000F0868180238EF80030C36802221A700F
:1018B000BDE8F08102F0FF08EA06E6B2044623D450
:1018C00005F0400202F0FF0112BB03F0100303F029
:1018D000FF02002B7FD015F0010540F05D81D0F8AC
:1018E0004022D0F844329A4207D2D0F840325A1CF3
:1018F0000344C0F8402293F83C5123691D70A3684B
:10190000D0221A70A7696BE010236F060B7029D5DF
:1019100094F851320A2B00F0D18005F0040505F04F
:10192000FF02002D62D0A3680021D022092084F894
:101930005102C4F844121A702269D4F86012137864
:101940005B0884F8523209B188472269D4F84432DE
:10195000002B00F02A8194F83C8182F8008001235A
:10196000C4F84032A3691E70E36802221A70BDE811
:10197000F081022B7BD090F85A32032B77D0D0F82D
:101980003831D0F854220233934200F0FF8090F8AF
:101990005132042B00F0F580D0F8383101339342F6
:1019A00080F0CD8090F85132042B00F0C380D0F845
:1019B00038310269591CC0F838110344127883F891
:1019C000302090F85132042B00F02481C3680222A9
:1019D0001A70BDE8F08190F851320A2B00F039817D
:1019E0003E70E36802221A70BDE8F081A1690B78AD
:1019F00043F020030B70A3680A20C02184F8510231
:101A0000C4F83821197023691B785B0884F85232B6
:101A1000A8E7D0F8642213689B8B1C0603D590F8C6
:101A20005A32022B7BD090F85A32032B52D0BF4B44
:101A300012791C680123934023426CD0BC4BBD49F2
:101A40001A70D0F8642212790A700023E90680F82F
:101A50005A3231D5C2681221072480F851421170E0
:101A6000826880211170C0F84032BDE8F081D0F862
:101A700064321A68928B120603D590F85A22022A11
:101A80003FD090F85A22032A00F09A80A74C1A7986
:101A900024680123934023423DD0A649A44B0A70F9
:101AA000D0F8642212791A7082680023802180F8AD
:101AB0005A3280F851321170C1682CE0D4F85C328F
:101AC000002B3FF42AAF0022C4F83421D4F83801A7
:101AD000984722E70B781D06FCD5974B12791A70B0
:101AE000002380F85A32D0F844320269013BC0F832
:101AF0004032D0F84032034493F83C311370C1684F
:101B000009E08B4A1B7913708368E8221A70C16858
:101B1000032380F85A3202230B70BDE8F081844B16
:101B200012791A708368F0221A700323C16880F852
:101B30005A32F0E790F85932002B3FF438AF90F862
:101B400051220023042A80F8593201D080F8513202
:101B50008368B0221A70D0F838310269591CC0F875
:101B600038110344127883F8302090F85032012B5A
:101B70007FF427AF3C23013BFDD1836880221A709C
:101B80001FE790F85932002B7FF406AFE8238EF858
:101B90000030D0F85422FFE6C0238EF800300369ED
:101BA00087691B7880F851121AE784F83C31D4E633
:101BB00090F85032012B48D0B0238EF8003005E762
:101BC0005D4A1B791370002380F85A3290F8512235
:101BD000042A18BF80F851328368B0221A70D0F8F6
:101BE00054320269013BC0F83831D0F83831591C01
:101BF000C0F838110344127883F8302090F850323E
:101C0000012B7FF459AF3C23013BFDD18368802237
:101C10001A7051E790F85932002B7FF4D7AE0123A8
:101C200080F85932D2E605F0100303F0FF02002BD2
:101C30003CD115F0010548D080F85A22D0F8403246
:101C4000002B6FD1052380F8513280238EF80030AD
:101C5000BCE6750618D5D0F85C3280F85122002B0E
:101C60003FF4BEAEC0F83421D0F838019847A769D8
:101C7000B6E6EC063AD4E90742D50522802380F87F
:101C800051228EF80030A1E603691B78D0F8382184
:101C9000B2F5817FDBB23FF6A3AED0F838218118D0
:101CA0000132C0F8382181F8303099E60023122241
:101CB000072480F85A3280F851420A7082688021E5
:101CC0001170C0F84032BDE8F081D0F840320133E5
:101CD000C0F84032D0F8442293422FD390F85032CB
:101CE00080F85152012B7FF467AFAEE70722122331
:101CF00080F851220B70836880221A70BDE8F08151
:101D000090F85A22012A25D0D0F85432012B0CBF6A
:101D1000E823E023032280F851228EF80030036983
:101D20001B7853E6062380F851328EE72C80004062
:101D30001F8000401E8000401C80004090F85A32F6
:101D4000012B14D0D0F840320269034493F83C319F
:101D500013703BE6E12280F85A328EF80020D0F86A
:101D600064220B4B12791A7003691B782EE602224B
:101D7000F12380F85A228EF80030D0F86422044B08
:101D800012791A70036990F83D211A701EE600BF9F
:101D90001B80004000210148FFF758BD4807FF1F86
:101DA00001210148FFF752BDB409FF1F022101487C
:101DB000FFF74CBD200CFF1F03210148FFF746BD74
:101DC0008C0EFF1F2DE9F843224BDFF8A090DFF8BF
:101DD000A080214E214D1E6000244FF47A774A46A0
:101DE00041461C711C739F6018465C731D6103F0B3
:101DF00071F91B4B05F51B7201211A611C714A46D2
:101E00009F601C735973184641461E6003F062F9C7
:101E1000144B05F59B6202211A611C714A469F60B2
:101E20001C735973184641461E6003F053F90E4B5C
:101E30004FF0030E05F244751C711C7383F80DE01E
:101E40004A46414618461D619F601E60BDE8F84342
:101E500003F040B9BC22FF1F006800004807FF1FC5
:101E60009422FF1FA822FF1FD022FF1F3007FF1F51
:101E7000B1110000844641EA000313F003036DD161
:101E8000403A41D351F8043B40F8043B51F8043B3D
:101E900040F8043B51F8043B40F8043B51F8043B44
:101EA00040F8043B51F8043B40F8043B51F8043B34
:101EB00040F8043B51F8043B40F8043B51F8043B24
:101EC00040F8043B51F8043B40F8043B51F8043B14
:101ED00040F8043B51F8043B40F8043B51F8043B04
:101EE00040F8043B51F8043B40F8043B51F8043BF4
:101EF00040F8043B51F8043B40F8043B51F8043BE4
:101F000040F8043B403ABDD2303211D351F8043B83
:101F100040F8043B51F8043B40F8043B51F8043BC3
:101F200040F8043B51F8043B40F8043B103AEDD232
:101F30000C3205D351F8043B40F8043B043AF9D283
:101F4000043208D0D2071CBF11F8013B00F8013B56
:101F500001D30B8803806046704700BF082A13D363
:101F60008B078DD010F003038AD0C3F10403D21A7B
:101F7000DB071CBF11F8013B00F8013B80D331F8AF
:101F8000023B20F8023B7BE7043AD9D3013A11F82F
:101F9000013B00F8013BF9D20B7803704B7843709A
:101FA0008B78837060467047374A384913681B0640
:101FB000FCD40B6813F08003F8D172B634490A7868
:101FC000002A5FD0334A3448F0B4344C17680668AE
:101FD0002568D4680C303E44143200681268304FD3
:101FE00035442C4420440244C2F34E022D4E2E4868
:101FF0002E4D2F4C42F400423A60376806682D6837
:102000002C4A24680C303E44006812682A4F35443C
:102010002C4420440244C2F34E02284E2848294D45
:10202000294C42F400423A60376806682D68274A16
:1020300024680C303E4400681268254F35442C4417
:1020400020440244C2F34E02224E2348234D244C26
:1020500042F400423A60376806682D68214A2468D5
:102060000C303E440068126835442C44204402443D
:10207000C2F34E021C4842F4004202600B7062B68A
:10208000F0BC704762B6704724B0034024B00B40E8
:10209000E522FF1F38B003403CB0034040B003408E
:1020A0002CB0034058B003405CB0034060B0034024
:1020B00064B003406CB0034030B0034038B00B4014
:1020C0003CB00B4040B00B4044B00B404CB00B4018
:1020D0002CB00B4058B00B405CB00B4060B00B40D4
:1020E00064B00B406CB00B4030B00B4030B42948AA
:1020F000294A2A4B2A4D6024E121047011701B7873
:10210000284C082B30D00A2B2748284937D00C2BD5
:102110000CBF35225D2212232A60236002600B600F
:10212000234B24491B78244ABBB101230B60136065
:10213000224B23491B78234A012B26D9042B0FD984
:10214000082B1ED9102B94BF862387230B601360A6
:102150001D4B01221A7030BC70470B601360E7E71B
:1021600084230B601360F3E700F58E200F490830DD
:10217000212213232A60236002600B60D0E73922FA
:10218000F7E785230B601360E2E780230B601360A1
:10219000DEE700BF0040074001400740F810FF1F86
:1021A00008B003400CB0034008B00B400CB00B402B
:1021B000E822FF1F20B0034020B00B40F910FF1FA2
:1021C00024B0034024B00B40E522FF1F0C2830B49C
:1021D00017D91023984228BF18461C46104A114DA3
:1021E0001178181A8C42287018D00F4913700B7888
:1021F00023B10E490E4A00230B60136030BCFFF779
:1022000075BF0A2802D90C231C46E7E7082802D923
:102210000A231C46E2E708231C46DFE730BC704770
:10222000F810FF1FE422FF1FE522FF1F24B0034028
:1022300024B00B4010B5174B1B780446A3B9012CF2
:1022400016D9042C0AD9082C134B1DD9102C15D9DA
:1022500007221A60114A2023137010BD0E4A04236E
:1022600013600E4A137010BDFFF79EFE012CE8D8D4
:10227000094A00231360094A137010BD06221A6030
:10228000064A1023137010BD05221A60034A082362
:10229000137010BDE522FF1F24B00340F910FF1F8B
:1022A00047282FD8334B2DE9F0411E5CFF2E2BD051
:1022B000314B1B78002B2AD132062CD472B62F4D0D
:1022C0002F4C2F46012326602B7062B672B623680E
:1022D0001B060CD43B781BB9F4E72B78002BF1D00C
:1022E00062B601F091FE72B623681806F5D5254B4B
:1022F0001B6800222A7062B6234A107843FA00F065
:10230000BDE8F081002070470020BDE8F081FFF7B4
:102310004BFE3206D2D572B61C4DDFF87C801C4CC9
:1023200006F04007FFB206F03F06D8F80030DFB1F4
:1023300023F01003C8F8003001232660134A2B70E5
:1023400062B672B6236819060CD413781BB9ECE791
:102350002B78002BE9D062B601F056FE72B62368E6
:102360001B06F5D50B4BC3E743F01003C8F800304C
:10237000E2E700BF3C690000E522FF1FE722FF1FE4
:1023800000B0034010B00340E422FF1FE622FF1F0D
:1023900000B00B4010B00B400CB00B400A4A0B4988
:1023A000136843F4805313600B7843B1084B8022C9
:1023B0001A7080F30C00074B00B218807047044B72
:1023C000C0221A70F5E700BF2C800440E822FF1FEE
:1023D00021C00C4000C00C400A4A0B49136843F46A
:1023E000005313600B7843B1084B80221A7080F3BE
:1023F0000C00074B00B218807047044BC0221A70C3
:10240000F5E700BF2C800440E822FF1F21D00C40DC
:1024100000D00C40024A136801331360704700BFBC
:10242000EC22FF1F08B5104C08E0236859050DD4B5
:1024300023681A050FD42368DB0411D423685803DA
:10244000F3D500F031FD23685905F1D501F05AFEAE
:1024500023681A05EFD501F0EBFE2368DB04EDD508
:1024600001F07CFFEAE700BF3480044008B5FFF7C5
:10247000D9FF00BF014B10221A8070470020054091
:10248000704700BF094908B50B6830B16A46184467
:10249000A2F50052904202D20860184608BD02F030
:1024A00025FE0C2303604FF0FF3008BDFC10FF1F1A
:1024B000084A1378802B01D0002070470649074B4B
:1024C00007480860002119701378802BFCD0012088
:1024D000704700BF03E007404480044001E007402C
:1024E00000002822094A1378012B01D000207047F0
:1024F00003F1804303F5FC23602119701378802BCE
:10250000FCD1034B034A1A600120704703E00740E7
:10251000448004400000060210B4114B53F83020F0
:1025200092F8804234B1012379B182F880305DF8AD
:10253000044B704703EBC0035B681A6851B922F083
:1025400002021A605DF8044B704782F800315DF8B2
:10255000044B704742F003021A605DF8044B704769
:10256000846900001C4A02EBC00301295B6811D09A
:1025700004291BD052F83000002280F8802229B1B3
:10258000022920D0032922D01A6070474FF48072AC
:102590001A60704752F830004FF4A27280F880122F
:1025A0001A601A6822F020021A60704752F8301040
:1025B0004FF4A272012081F880021A601A6842F07A
:1025C00020021A60704740F203121A6070474FF4FD
:1025D00081721A60704700BF8469000030B4054BF7
:1025E000054D064C002210211A602A6020601960F7
:1025F00030BC704714D0034004D0034000D00340E7
:1026000038B5A0F14203012B044624D900297ADD14
:10261000994B1B78012505FA03F28A4202D83F281C
:102620002CD938BDC21E012A30D9A0F11D02012AC1
:1026300078D90E285BD9A4F12302032A5CD9A4F12E
:102640001002012A94BF8D4A8D4A126802FB0112C2
:1026500022FA03F320E0884B1B780B2B0AD90C2BB2
:102660001CBF0C3B1941422C084657D0BDE83840EE
:10267000FFF7B2BEC3F10C039940F4E72946FFF718
:102680004BFF2946BDE83840FFF76CBF7D4A126812
:1026900002FB011222FA03F3A21E242A00F2E380B5
:1026A000DFE812F0DA00D300CC00C500BE00B700AE
:1026B000B000A900A200E100E100E1009B00E10000
:1026C00094008D00E100E10086007F007800710039
:1026D000E100E100E100E100E1006A006300E100E7
:1026E000E100E100E1005C0055004E00470044F2CB
:1026F0008412C240D2079ED5634A126802FB0112BF
:1027000022FA03F3C8E73F288BD80021FFF704FF24
:1027100020460121BDE83840FFF724BFBDE838401E
:10272000FFF73CBE594A126802FB011222FA03F37A
:10273000B2E75749574A0B604FF45173136038BDE5
:102740005549564A0B604FF45173136038BD5449D4
:10275000544A0B604FF45173136038BD5249534AC9
:102760000B604FF45173136038BD5149514A0B60EF
:102770004FF45173136038BD4F49504A0B604FF40A
:102780005173136038BD4E494E4A0B6040F24443CA
:10279000136038BD4C494D4A0B6040F2444313600E
:1027A00038BD4B494B4A0B6040F24443136038BD7F
:1027B00049494A4A0B6040F24443136038BD4849D6
:1027C000484A0B6040F24463136038BD4649474AAB
:1027D0000B6040F24463136038BD4549454A0B60C5
:1027E00040F24443136038BD4349444A0B6040F211
:1027F0004443136038BD4249424A0B6040F24443AF
:10280000136038BD4049414A0B6040F244431360B5
:1028100038BD3F493F4A0B6040F24443136038BD26
:102820003D493E4A0B6040F24443136038BD3C4989
:102830003C4A0B6040F24443136038BD3A493B4A7E
:102840000B604FF45173136038BD3949394A0B603E
:102850004FF45173136038BD3749384A0B6040F26A
:102860004443136038BD3F2C3FF6DBAE7F29D4BF15
:1028700000210121204649E70011FF1F08900C406C
:10288000088003400890034008900B4008800B40EC
:1028900048900B402CB0044040900B4028B00440BE
:1028A00038900B4024B0044030900B4020B00440DE
:1028B00018800B404CA0044010800B4048A00440FE
:1028C0001880034008B004401080034004B0044066
:1028D0004080034018C004403880034014C00440C6
:1028E00018900C4004A0044010900C4000A004403C
:1028F00018900B4004C004402880034010B00440EE
:10290000208003400CB0044028900B400CC00440D1
:1029100020900B4008C004403080034010C00440A9
:10292000488003401CC00440189003403490044089
:10293000109003403090044010900B4000C00440C1
:1029400038B1102828BF1020044AC3B21078137081
:102950007047024A01231078137070470011FF1F5F
:10296000A0F11001C9B2012970B45BD9DFED3B7A47
:102970003B4AB4EEE70AF1EE10FA47F6122346BFDF
:102980001A4602250125DFED376A002322FA03F4F7
:1029900007EE904AF8EEE77A27EEA67AB4EEC70A79
:1029A000F1EE10FA07DA0133072BEFD1D20907EE67
:1029B000902AF8EEE77A87EE807A4FF6FF74C21E0F
:1029C000F6EE007A77EE677AFCEEE77A17EE906A19
:1029D000A64228BF2646012A344637D917280ED9E1
:1029E000A0F11D02012A35D90E281ED9233803284B
:1029F00020D9012914D81C4A1C4E1D481DE01D4A2F
:102A0000C24002F0010282F00106002AE8D01A4A10
:102A10001A481B49166043EAC50306600C60136040
:102A200070BC7047174A0125ADE744F28412C240DA
:102A3000D207DBD5144A154E154843EAC5030021D9
:102A4000116031600460136070BC7047114A124E0F
:102A50001248F2E7124A134E1348EEE7C0E1E44091
:102A6000008793030000803700900C4004900C40D6
:102A700008900C406006F000008003400480034092
:102A8000088003400024F40000900B4004900B40A9
:102A900008900B40009003400490034008900340CE
:102AA00000800B4004800B4008800B403F2801D879
:102AB000FFF732BD704700BF3F2806D8044B53F8DC
:102AC000303093F80002C0B270470020704700BF5A
:102AD000846900003F2801D8FFF744BD704700BF5C
:102AE00072B60D490D4B0E4A1B680868126862B633
:102AF000520102D5322B88BF0130C3F52F3309496B
:102B000003F21F334FF47A729B08A1FB031302FBFD
:102B100000F000EB93007047EC22FF1F18E000E08C
:102B200004ED00E0176CC1162DE9F843054672B6B6
:102B3000224F234B234A1B683C68126862B652013D
:102B400002D5322B88BF0134B5B3C3F52F3303F25E
:102B50001F331D4EDFF86890DFF868809B084FF444
:102B60007A72A6FB031302FB04F404EB930472B61F
:102B7000D9F800103A68D8F800E062B6C1F52F33F2
:102B800003F21F339B08A6FB03031EF0806FC4EB08
:102B900093034FF47A7002D0322988BF013200FBD0
:102BA0000233B3F57A7F04D3013D05D004F57A747E
:102BB000DDE701F029FADAE7BDE8F883EC22FF1F30
:102BC00018E000E004ED00E0176CC116F8B54E4BBC
:102BD0004E48DFF85CC14E4C4E49DFF858E14E4E8E
:102BE0004E4D4F4F4FF000621A604FF080521A6006
:102BF0004FF000521A604FF080421A604FF00042CE
:102C00001A600022026028234EF6FF70CCF8000004
:102C1000CEF8003023600EF5012E0B6033602B6080
:102C200006F500263B6005F50025A36207F50027A1
:102C30008B6204F5012401F5012106F6E87605F61C
:102C4000E87507F57F6710310EF1100E2034336000
:102C50002B60CEF800303B600B602360314CBB61D1
:102C60008B6109212160A7F5002704F58054203FDE
:102C700008343A602060BB60E36047F8041C04F548
:102C8000FD2407F5FE27043704F2FC742260386047
:102C9000A360FB6044F8041C083404F6FC74C7F815
:102CA000FC2F2060A4F5E124A4F2DC7433602B60D7
:102CB000C7F8F81F21681C4841F4007121600168C1
:102CC0001A4C0EF57F4E0EF1E80E07F5883706F523
:102CD000803605F5803541F000710160CEF80020A6
:102CE00047F6FF710822396033602B602260FFF7DE
:102CF000FDF93220FFF718FF00F002FD4FF4AF702E
:102D0000BDE8F840FFF710BF04E100E00480034095
:102D1000148003401C800340248003402C80034027
:102D200034800340008003400480044000900C4045
:102D3000088003400C800340431E032B14D872B656
:102D40000A4951F8230068B170B4094C058834F879
:102D50001320466841F82360521B24F8132062B602
:102D600070BC704762B67047002070474823FF1F51
:102D70002427FF1F013803280BD872B6074B53F8DE
:102D8000203043B100205B680130002BFBD162B6DC
:102D90007047002070471846F9E700BF9C23FF1FCB
:102DA000F0B472B61A491B4E012311F8014B194FAA
:102DB0009A00240742F0010505D556F8324064B167
:102DC00056F83520BAB10133052BEED162B6124B5D
:102DD00000221A70F0BC00F01BBD0F4C0F4D217883
:102DE00047F8325007EB431308304A1E58602270F0
:102DF00062B6F0BC70470849094B0A7847F835308D
:102E000007EBC5030830013A58600A7062B6F0E774
:102E1000BC6B00000000FF1FC523FF1F880040009F
:102E2000C8004000431E032B1DD81B4A400140F040
:102E3000100030B4104472B6184CE25C032A1BD860
:102E4000DFE802F00212151703220D88E25410F099
:102E5000080F14BFC823882343EA054308310360E1
:102E6000416062B630BC704708300222EDE70522AF
:102E7000EBE708300422E8E7094A52F8230038B1AA
:102E8000084A52F82300416042F8231062B6E9E78D
:102E900042F82310034AF7E70000FF1FD423FF1F67
:102EA0009C23FF1FAC23FF1F2DE9F04FDFF804A385
:102EB000DFF804B387B044E0A94F4FEA930807EB6B
:102EC000C809013ED9F8042003F00803F6B2A2F1C4
:102ED000080003F0FF04002B40F0FE8057F8383064
:102EE0001B0C99B222F8081C002B00F0EC809D4BC3
:102EF00022F8064C42F8044C53F82620002A00F031
:102F00002B82994D55F826305860984C45F826008C
:102F100034F81630194424F8161000F059FC002833
:102F200000F01382924A934B19F0080F00F1080049
:102F300018BF1346C9F8040047F8383008238AF848
:102F400000309AF80040E4B260071AD58A4B1B782B
:102F5000A3B18A490A7802F0FF0322B1013BDBB238
:102F60000B7003B900BE86490A7802F0FF032AB14C
:102F7000013BDBB20B70002B00F0BD8104238AF80B
:102F8000003004F0080303F0FF02002B00F0C880BB
:102F90009BF80030DBB21E098ED19C08704F57F8A9
:102FA000342007EBC401C2F38302013A49680C2ABA
:102FB00000F28580DFE802F079798383838383835D
:102FC00042838383070008686E4B6F4D0193684B03
:102FD0004A686E4E47F8343081B240F28164694BE2
:102FE0006A60286000220120A1421A603A61BA6139
:102FF000307000F2E380B1F5D06F80F02782B1F538
:10300000817F00F0E08100F2C381802900F03682E8
:10301000822940F0DE81A9885D4B01F07F010429FF
:1030200000F2D8815B4C89000B44227062701A78E0
:10303000930740F122832070022023E2514B019339
:103040001A683AB3544B514E5449188834780D7865
:103050004028864645F0020828BF4FF0400E002C5D
:1030600084F001043470CEEB00000CBF8824C82427
:1030700007EBC80680B285F0010544EA0E44726091
:10308000188047F8384072440D70002800F0B7806F
:10309000019B1A603C4B1A88B2F5A06F0FD100213A
:1030A0009A7859703E4B1A7009E0374A108842F2FC
:1030B0002102904200F0A8802D4A47F83420394A76
:1030C000012313703AE72A4A2A4B19F0080F18BF58
:1030D000134647F8383031E700F09AFB324A33495B
:1030E00052F82630002B00F03B8158688C5D42F886
:1030F000260003F10802C9F80420032C05D8DFE8F4
:1031000004F02C02292602228A551A8819F0080F89
:103110000CBF8823C82343EA024347F838300DE741
:10312000E00700F1EB80210600F12881A20706D517
:103130001F4A204913780220DBB213700870E3069F
:1031400002D51C4B10221A7007B0BDE8F08F042284
:103150008A55DAE705228A55D7E703228A55D4E74C
:103160000000FF1F4823FF1FF422FF1F2427FF1F1B
:10317000C800400088004000D023FF1F5923FF1FD4
:10318000D823FF1FF022FF1FBC23FF1F5823FF1F60
:10319000C0200740C823FF1F0423FF1FC423FF1FB5
:1031A00098200740942007409C23FF1FD423FF1F33
:1031B00088200740802007409020074042F22104E9
:1031C000A14200F0948043D8B1F5086F00F0A881C7
:1031D000B1F5106F40F0FD80B84AB94CA978117074
:1031E00004F1800503E00834AC4200F09E81236ABC
:1031F0001906F8D5606A083800F00AFBF3E7BEF15B
:10320000400F18BF002243E7AE4ACD1D11F8013B25
:1032100002F8013FA942F9D1AB4A1268862A00F0B0
:103220001181AA49AA4E0A78307882F00105002857
:1032300042F002020D700CBF8821C82147F83210FD
:1032400007EBC20280F0010000213070516033E7CB
:1032500042F22124A14240F0FE81DFF8BCC29D4B26
:103260009D49AC78DCF800501D6081460C70002050
:10327000029080468446044694490D7845F0020E3B
:1032800007EBCE03B9F1000F5C600CBF8824C824A3
:1032900044EA080385F0010447F83E3032700C70B0
:1032A000DFF81CE28A4BDFF82482002840F0988087
:1032B000BCF1400F1BD144F0020407EBC403029F92
:1032C000DFF8FCE15F60002A40F09F80020442F0DA
:1032D000880207444EF8342086F800900D703B4673
:1032E000402804D100207D4A019910800B607C4A5F
:1032F00001231370E3E600F0F7FB3FE6704B7848DC
:1033000072491A614FF0020E80F800E0754F0A70A2
:10331000754919609960754E754D764C9A610D210D
:103320003970FF213170DFF8F4E129702270724D9D
:10333000724A8EF800109F27012406F8047C5D6015
:103340000470DA6007B0BDE8F08F6D4A47F83800C6
:10335000137801331370F1E543F82600694DD4E585
:103360008B5D032B67D801A252F823F03D2F00009C
:103370003D2F0000C1330000BB33000059495C4BB6
:1033800080220D2008701A70A2077FF5D8AECFE614
:1033900040F20232914240F05681A98801F07F014B
:1033A000042916D86A88A2B94E4C89000C4481467B
:1033B000217841F00201217059E701238B55BDE5C9
:1033C00000238B55BAE5A98801F07F01042940F25A
:1033D0004781444B0F221A70414A012313706EE655
:1033E00040287FF668AF44F002040EEBC401029E51
:1033F0004E60AAB1444A83F800903346403888F8BA
:10340000005040334EF834206DE70204029B86F8EA
:10341000009042F0C8020D7003444EF834205FE77C
:1034200083F80090029B304A88F8005040384033BF
:103430004EF8342057E719F0080F0CBF022303237E
:103440008B557BE5314A0F211170EAE6304A54680A
:10345000002CBED06888B5F804E003E00C32546854
:10346000002CB6D013888342F8D153887345F5D128
:10347000000A03280CBF2078108903E0254C0220A5
:1034800022706270EA88824280F00C810F490D78C8
:10349000402A45F0020E944607EBCE0028BF4FF0BD
:1034A000400C04EB0C0344600293CCEB02004FEAA7
:1034B0000C484FF001090022C824E9E6D023FF1F81
:1034C0000000FF1F2B27FF1F2C27FF1FC423FF1FF8
:1034D0005823FF1F3427FF1FE823FF1F0423FF1F6C
:1034E00094200740C0200740880040008820074003
:1034F00080200740982007400823FF1F5C23FF1F00
:10350000C523FF1FF422FF1FC80040005923FF1FDF
:10351000C06B0000C823FF1FEC22FF1F8C20074058
:10352000684A694C12782270ACE76849684B694A6E
:1035300002916949694C6A4D039405964FF0000960
:1035400088461C4616460495206828B1456800F058
:103550005FF92846002DF9D100232360049B3068D1
:103560001A46002342F8293028B1456800F050F986
:103570002846002DF9D100223260029A98F80030D6
:103580001146002241F8042B039A0291023B4FF0AE
:10359000000122F81910032B07D8DFE803F03402EA
:1035A00034024FF0010388F8003009F10109B9F144
:1035B000040F04F1040406F1040608F10108C3D164
:1035C000484B059EDFF83091DFF8308100211970FB
:1035D000012518F8013B09F8043B1A0718D4AC0080
:1035E00044F0020244F00304002347F8323047F865
:1035F00034303D4B994505F10105EAD196F800902C
:1036000089F0010233E64FF0000388F80030CCE780
:1036100000F0DEF8AC0007EB451300F108020028CB
:1036200037D05A60314B47F8343000F0D1F844F0CD
:10363000010307EBC30200F1080100B351602C4AFB
:1036400047F83320CCE7B1F5A06F7FF4C2AE00227B
:103650004FF001090BE642F221329142F7D0B8E671
:103660006A88002A7FF4B5AE224C89000C4481465A
:10367000217821F002012170F9E5022002E7194BBF
:1036800044F001021B7847F83200164A01331370E8
:10369000A6E7144B134A1B78AC00013347F83400FB
:1036A0001370C2E74028844628BF4FF0400C04EB5B
:1036B0000C03CCEB00004FEA0C48029300224FF0C1
:1036C0000109D9E5D023FF1FC823FF1FAC23FF1F2B
:1036D0004823FF1F9C23FF1FD423FF1F2427FF1F06
:1036E000F422FF1FC523FF1FD4200740880040009D
:1036F000C8004000C0200740C4200740BC6B000049
:103700002DE9F041274C01F00FF8002204F1880068
:1037100023461A605A60083383424FF00001F8D103
:103720002148224A0368DFF89CE0214E214D224FB8
:10373000DFF894C0DFF8948043F4802303601368BB
:1037400043F04073136003238EF80030A0233370DE
:1037500002F5C922C4F3072300F528302B7080300E
:10376000C4F3074310323B70240EFF230470134D43
:103770008CF80030124888F800301370012306F8E6
:10378000AC3C4FF400140EF8441C7026102107F8CE
:103790002C3C2E70046082F8F810AEF1440EBDE8A7
:1037A000F08100BF0000FF1F3480044000D80040BB
:1037B000402107409C200740B020074035E400E04E
:1037C00004E100E0442107408020074088200740B2
:1037D00072B60D480268B2FA82F30B2B10DC4FF080
:1037E0000041D94022EA0102026062B6074803EBB9
:1037F000C303DB00C2180021C1501046516070475E
:1038000062B60020704700BF0411FF1FD003FF1FE6
:103810000D4B0E4AC31AA2FB03231B090B2B0CD81A
:103820000B4A127852B972B60A484FF0004102684A
:1038300021FA03F31A43026062B67047064A12780F
:10384000002AF0D0FFF7ACBAD003FF1F398EE3385F
:10385000C523FF1F0411FF1FD023FF1F38B50F4DD5
:10386000286878B143880288C118013393420C7AE2
:1038700002D24380204638BDFFF7CAFF002320460E
:103880002B6038BD064B1B782BB10320FFF754FA91
:1038900028600028E6D14FF0FF3038BDE423FF1F39
:1038A000D023FF1F10B5094C206818B14388184475
:1038B000007A10BD064B1B782BB10320FFF73CFAB2
:1038C00020600028F2D14FF0FF3010BDE423FF1F2D
:1038D000D023FF1F044B054A1B6890881BB11A8830
:1038E0005B88D31A18447047E423FF1F2427FF1F67
:1038F0000B4B1B789BB110B50A4C206848B1FFF701
:1039000087FF002303202360FFF716FA30B1FFF78B
:103910007FFF0320FFF710FA0028F8D110BD704791
:10392000D023FF1FE423FF1F2DE9F04FDFF8F890AD
:1039300083B0012289F80020019169B3DFF8EC809F
:10394000354F019E8346D8F80000B0B3334D44880C
:10395000C4F14001B14228BF314604EB010E002200
:103960001FFA8EFE2A70761AA0F802E000F1080213
:1039700051B1013C224459441BF8014B02F8014F5C
:103980008B45F9D1B0F802E0BEF13F0F0BD8244AC5
:1039900005211170002ED6D10198002389F800303E
:1039A00003B0BDE8F08F4022028001460420FFF7FB
:1039B00039FA0022C8F80020E9E73A7822B3194C16
:1039C000164D4FF0010A07E0013C16D02A78A2B943
:1039D00000F01AFB3A78BAB10420FFF7CBF90728B8
:1039E000F2D889F800A0FFF7F3FEC8F8000000281D
:1039F000ADD10D4B013C1870E8D101234FF0FF30E1
:103A00002B7003B0BDE8F08F00234FF0FF3089F832
:103A1000003003B0BDE8F08FD023FF1FE023FF1F6D
:103A2000D823FF1F21480100D923FF1FDC23FF1FDC
:103A300000B583B002AB012103F8010D1846FFF772
:103A400073FF03B05DF804FB38B50E4D0E4C2868CB
:103A50000123237028B1408800232370C0F1400067
:103A600038BD0A4B1B7813B90020207038BD0420E4
:103A7000FFF780F90728F7D8FFF7AAFE286000288B
:103A8000E9D1F1E7DC23FF1FD923FF1FD023FF1F5C
:103A9000F8B5114B1B788BB1104E114D34680127CE
:103AA0002F7064B10F4A6388002717702146238066
:103AB0000420FFF7B7F9376000232B70F8BDFFF73C
:103AC00087FE084B28B1014604201C70FFF7AAF9B5
:103AD000F2E71F70F0E700BFD023FF1FDC23FF1FBA
:103AE000D923FF1FD823FF1F38B50E4B1B7873B99E
:103AF0000D4C216861B103F0FF054B880B80042059
:103B0000FFF790F9256038BD084B01221A7038BDC7
:103B1000FFF75EFE0028F7D00146BDE838400420DC
:103B2000FFF780B9D923FF1FDC23FF1FD823FF1F16
:103B3000F0B572B699B902688AB103790F2B0ED825
:103B4000284C218841FA03F5ED070AD503F10073EB
:103B500003F59063B2EB431F03D162B6F0BD214C75
:103B60002188002341FA03F212F0010207D0013349
:103B7000102BF7D162B6002203710260F0BD01255F
:103B80009D402943218062B6174E184D184FDFF82B
:103B900068E0D9B20171346844F0020434602C68E2
:103BA00044F002042C60A6F5802640F28244A5F57C
:103BB000802503F100733C6003F59063223E243DB1
:103BC0000C4C8EF800105B0131702970217003607D
:103BD0001A605A609A60DA601A615A619A61DA6111
:103BE000F0BD00BFEA23FF1F408004403C8004403A
:103BF000008000401F8000401A80004003790F2B96
:103C000012D80A4A10B4137072B6094904790A88A6
:103C10000123A34022EA03030B8062B61022002393
:103C20005DF8044B02710360704700BF1A800040CA
:103C3000EA23FF1F2DE9F0438C688BB0ECB100251F
:103C4000064689462F462B46212201A9484600F008
:103C50009FF93268202C234628BF2023D2F8048005
:103C600001A91A4630461D44E41AC0470744002CF7
:103C7000E9D138460BB0BDE8F0832746F9E700BF2D
:103C800000B5064A036812885B6883B001A9ADF8E5
:103C900004200222984703B05DF804FB846B000007
:103CA000F0B507468BB0002A33D0012A08BF0A229C
:103CB00051B3212400E0F4B2B1FBF2F502FB15117F
:103CC000C8B2092900F1300198BFC8B20AA988BF5B
:103CD0003730214488BFC0B201F8240C661E294643
:103CE000002DE8D133B1013CE4B20AAB23442D22CC
:103CF00003F8242C3B6801AA11195B683846C4F10B
:103D0000220298470BB0F0BD30228DF825202124E7
:103D1000E8E70368C9B21B6898470BB0F0BD00BF65
:103D20000029BABF49422D2300230A22FFF7B8BF5A
:103D30002DE9F04357EC106B85B005460C4610EEAC
:103D4000102A3B4610EE100A394601F08DF9002882
:103D500040F0B28027F00049304649464FF0FF322C
:103D6000594B01F081F990B9304649464FF0FF3286
:103D7000554B01F05BF950B92B6854495B682846F4
:103D8000032298478046404605B0BDE8F0834FF0D7
:103D900060424F4B3046394601F05CF9002872D141
:103DA0004FF060424B4B3046394601F035F9002860
:103DB00069D1002200233046394601F02DF9002850
:103DC00064D18146002C67D0434900204FF00008A1
:103DD0003BA3D3E9002308F1010800F0ABFE5FFA32
:103DE00088F39C42F4D802460B463046394600F030
:103DF000EFFC0F46064601F04DF9804600F024FE28
:103E000002460B463046394600F0E0FC4B4606467B
:103E10000F460A2241462846FFF742FF0F2C28BFD3
:103E20000F2404F101092E2380465FFA89F98DF8E9
:103E3000003001240022294B3046394600F07AFE3A
:103E40000F46064601F026F904AB2344C0B200F148
:103E5000300203F8102C00F007FE02460B463046F5
:103E6000394600F0B3FC0134E4B2A14506460F46E2
:103E7000E0D12B684A465B68284669469847404629
:103E800005B0BDE8F0832B68154977E707F10043DB
:103E90001F464FF0010995E700220F4B3046394687
:103EA00000F096FC01F0F6F84B4601460A2228463F
:103EB000FFF7F6FE804666E72B680A495EE700BF1B
:103EC000000000A09999B93FFFFFEF7F906B0000C1
:103ED000FFFFEF41FFFFEFC10000E03F0000244083
:103EE0008C6B0000886B000010B50446006801F080
:103EF00033F9204610BD00BF38B543688B4201D36B
:103F0000012038BD0D4604460131006801F09AFCDD
:103F10000028F6D0A36884E82100002BF0D10370BC
:103F2000EEE700BFF8B50446154632B9036803B1A1
:103F30001A700023A3602046F8BD0E461146FFF715
:103F4000DBFF074648B9206810B101F005F927608A
:103F500000236360A3602046F8BDA5603146206859
:103F600001F07AFEE7E700BF38B50023044603609E
:103F700043608360037341B108460D4601F0E0FEE3
:103F8000294602462046FFF7CDFF204638BD00BF38
:103F9000B2B1A9B138B584689C420ED9E41A013A8D
:103FA0000D469442016828BF14461944224628460B
:103FB00001F034FF00232B5538BD00230B7038BDB2
:103FC000704700BF08B5FCF7D7FEFCF7DFFD00F037
:103FD0001BF8FAE701F0B8B801F0BEB8FFF788BCEB
:103FE000FFF760BCFFF73ABCFFF774BCFFF750BDAA
:103FF000FFF72ABD08461146FFF796BC0846FFF7B3
:1040000017BD00BF704700BF10B5224C237803B125
:1040100010BD01232370FFF75DFCA0B900F062F82A
:10402000B8B900F0F5F8D0B900F088F9E8B900F0B7
:1040300001FA00BB00F07AFA18BB00F0F3FA30BBCB
:104040000023237010BDFFF7DDFF00F04BF80028C0
:10405000E7D000F0ABFB00F0DBF80028E4D000F084
:10406000A7FB00F06BF90028E1D000F0A3FB00F003
:10407000E1F90028DED000F09FFB00F057FA00289D
:10408000DBD000F09BFB00F0CDFA0028D8D000F088
:1040900097FBD5E7EC23FF1FF0B44D1E2E460024FE
:1040A00000E00134B0FBF2F302FB1300092800F139
:1040B00030078ABF3730F8B2C0B206F8010F184691
:1040C000002BEED10A1953704CB1107815F8016F1E
:1040D00028700133E01A834202F80169F5DB0846D3
:1040E000F0BC7047054A064B10781B78C0B2DBB2B3
:1040F000984238BF4030C01A704700BFF423FF1FFA
:10410000F523FF1FF0B4384B1A7912F0300F2CD082
:1041100072B6997D01F0FF0200293DD062B6334F9F
:10412000334938780D78334E1C46C0B2EDB2431C8B
:10413000402BE17928BF0023AB4202F1FF32C9B224
:104140001CBFF154184612F0FF02F0D12A4B1B6835
:10415000C2B23A704BB1A84236BFC5F14005401B10
:1041600040192728C4BF01221A701F49CA78D2B249
:10417000150616D452060DD51B4B1B795B0609D5C7
:104180001E4B1F491B6800220A7003B11A70164BA0
:104190003C22DA70F0BC70474022D9795A7462B67A
:1041A000E3E70B791C06E5D5164B174E1C783378E0
:1041B000E4B2DBB29C420ED0144D01E0A3420AD01F
:1041C0000133402B28BF00230879E85CC0B2C871D6
:1041D000087D0728F2D9DBB2034933700B79180642
:1041E00044BF7C23CB70C5E700A00640F423FF1F2B
:1041F000F523FF1F3824FF1FF023FF1F7C24FF1F20
:104200007824FF1F8024FF1F7924FF1FF823FF1F3E
:10421000054A064B10781B78C0B2DBB2984238BF13
:104220004030C01A704700BFF424FF1F8924FF1FCD
:10423000F0B4384B1A7912F0300F2CD072B6997D49
:1042400001F0FF0200293DD062B6334F3349387880
:104250000D78334E1C46C0B2EDB2431C402BE179C1
:1042600028BF0023AB4202F1FF32C9B21CBFF15498
:10427000184612F0FF02F0D12A4B1B68C2B23A7006
:104280004BB1A84236BFC5F14005401B4019272855
:10429000C4BF01221A701F49CA78D2B2150616D4BB
:1042A00052060DD51B4B1B795B0609D51E4B1F49CA
:1042B0001B6800220A7003B11A70164B3C22DA7098
:1042C000F0BC70474022D9795A7462B6E3E70B79A3
:1042D0001C06E5D5164B174E1C783378E4B2DBB2DA
:1042E0009C420ED0144D01E0A3420AD00133282B8A
:1042F00028BF00230879E85CC0B2C871087D072890
:10430000F2D9DBB2034933700B79180644BF7C2322
:10431000CB70C5E700B00640F424FF1F8924FF1FBF
:10432000B424FF1F8424FF1FF824FF1F8824FF1FCD
:10433000FC24FF1FF524FF1F8C24FF1F054A064B9A
:1043400010781B78C0B2DBB2984238BF4030C01A38
:10435000704700BF0425FF1F0525FF1F30B42B4BFE
:104360001A7994061FD52A48DA7903782949013346
:104370003F2B0978C8BF00238B42D2B203D0264C12
:10438000D9B2E2540170254A116861B1244A127809
:10439000D2B2934236BFC2F140029B1A9B18272B20
:1043A000C4BF01230B70194AD378DBB2180611D4AD
:1043B0005A060DD5154B1B795B0609D5194B1A49C1
:1043C0001B6800220A7003B11A70104B2C22DA709D
:1043D00030BC704711790906EAD5144910480C78A9
:1043E0000178C9B28C420DD04A1C272A84BF002113
:1043F0000A460F4D054C98BFD1B2AA5CD2B2E27109
:104400000170D5E76C21D170D2E700BF00C0064033
:104410000425FF1F0525FF1F3025FF1F0025FF1F57
:104420007125FF1F7425FF1F7025FF1F7825FF1FB3
:104430000825FF1F054A064B10781B78C0B2DBB277
:10444000984238BF4030C01A704700BF8025FF1F18
:104450008125FF1F30B42B4B1A7994061FD52A48AB
:10446000DA790378294901333F2B0978C8BF002343
:104470008B42D2B203D0264CD9B2E2540170254A05
:10448000116861B1244A1278D2B2934236BFC2F1A8
:1044900040029B1A9B18272BC4BF01230B70194A9B
:1044A000D378DBB2180611D45A060DD5154B1B79FB
:1044B0005B0609D5194B1A491B6800220A7003B123
:1044C0001A70104B2C22DA7030BC70471179090633
:1044D000EAD5144910480C780178C9B28C420DD045
:1044E0004A1C272A84BF00210A460F4D054C98BF5D
:1044F000D1B2AA5CD2B2E2710170D5E76C21D17061
:10450000D2E700BF00D006408025FF1F8125FF1F96
:10451000AC25FF1F7C25FF1FED25FF1FF025FF1F8A
:10452000EC25FF1FF425FF1F8425FF1F054A064BBE
:1045300010781B78C0B2DBB2984238BF4030C01A46
:10454000704700BFFC25FF1FFD25FF1F30B42B4B1C
:104550001A7994061FD52A48DA7903782949013354
:104560003F2B0978C8BF00238B42D2B203D0264C20
:10457000D9B2E2540170254A116861B1244A127817
:10458000D2B2934236BFC2F140029B1A9B18272B2E
:10459000C4BF01230B70194AD378DBB2180611D4BB
:1045A0005A060DD5154B1B795B0609D5194B1A49CF
:1045B0001B6800220A7003B11A70104B2C22DA70AB
:1045C00030BC704711790906EAD5144910480C78B7
:1045D0000178C9B28C420DD04A1C272A84BF002121
:1045E0000A460F4D054C98BFD1B2AA5CD2B2E27117
:1045F0000170D5E76C21D170D2E700BF00A00E405A
:10460000FC25FF1FFD25FF1F2826FF1FF825FF1F84
:104610006926FF1F6C26FF1F6826FF1F7026FF1FDD
:104620000026FF1F054A064B10781B78C0B2DBB28C
:10463000984238BF4030C01A704700BF7826FF1F2D
:104640007926FF1F30B42C4B5A6894021FD52B4893
:10465000DA6803782A4901333F2B0978C8BF002361
:104660008B4204D0274CD2B2D9B2E2540170264A10
:10467000116861B1254A1278D2B2934236BFC2F1B5
:1046800040029B1A9B18272BC4BF01230B701A4AA8
:104690009368180202D55268110211D45A020DD53E
:1046A000154B5B685B0209D5194B1A491B68002240
:1046B0000A7003B11A70184B00221A6030BC7047A0
:1046C000164A124910780A78D2B290420DD00132BF
:1046D000272A84BF00200246114D074C98BFD0B254
:1046E000AA5CD2B2E2600870D8E70E480A4A0024F9
:1046F000012104601160D1E700400C407826FF1FC3
:104700007926FF1FA426FF1F7426FF1FE526FF1F23
:10471000E826FF1FE426FF1F58018843EC26FF1FF1
:104720007C26FF1F5C01884310B584B072B6FDF78C
:10473000BFFE184A184B19491160702280211A7067
:104740001A46197013781B06FCD5154B1C68FDF72B
:10475000C9FE62B6134B9C429CBF04EB8404640008
:104760002046114C01A90A22FFF796FC01A9204618
:10477000002311F8012B01333AB10A2B20F8022F44
:10478000F7D11623237004B010BD5B00DBB2237099
:1047900004B010BD040002400000024000000741C8
:1047A0000C0002407F969800A411FF1F704700BFC5
:1047B000704700BF704700BF704700BF704700BF21
:1047C000704700BF81F0004102E000BF83F000436A
:1047D00030B54FEA41044FEA430594EA050F08BF9C
:1047E00090EA020F1FBF54EA000C55EA020C7FEA60
:1047F000645C7FEA655C00F0E2804FEA5454D4EBDD
:104800005555B8BF6D420CDD2C4480EA020281EAA6
:10481000030382EA000083EA010180EA020281EADE
:104820000303362D88BF30BD11F0004F4FEA013130
:104830004FF4801C4CEA113102D0404261EB41013F
:1048400013F0004F4FEA03334CEA133302D05242C5
:1048500063EB430394EA050F00F0A780A4F1010481
:10486000D5F1200E0DDB02FA0EFC22FA05F28018BB
:1048700041F1000103FA0EF2801843FA05F35941A1
:104880000EE0A5F120050EF1200E012A03FA0EFC20
:1048900028BF4CF0020C43FA05F3C01851EBE3714A
:1048A00001F0004507D54FF0000EDCF1000C7EEB67
:1048B00000006EEB0101B1F5801F1BD3B1F5001FA5
:1048C0000CD349085FEA30004FEA3C0C04F10104C4
:1048D0004FEA445212F5800F80F09A80BCF1004FED
:1048E00008BF5FEA500C50F1000041EB045141EA6F
:1048F000050130BD5FEA4C0C404141EB010111F470
:10490000801FA4F10104E9D191F0000F04BF01461A
:104910000020B1FA81F308BF2033A3F10B03B3F1F8
:1049200020020CDA0C3208DD02F1140CC2F10C0288
:1049300001FA0CF021FA02F10CE002F11402D8BFE6
:10494000C2F1200C01FA02F120FA0CFCDCBF41EAB2
:104950000C019040E41AA2BF01EB0451294330BD81
:104960006FEA04041F3C1CDA0C340EDC04F114045E
:10497000C4F1200220FA04F001FA02F340EA030035
:1049800021FA04F345EA030130BDC4F10C04C4F17B
:10499000200220FA02F001FA04F340EA030029465B
:1049A00030BD21FA04F0294630BD94F0000F83F4A5
:1049B000801306BF81F480110134013D4EE77FEA88
:1049C000645C18BF7FEA655C29D094EA050F08BFD4
:1049D00090EA020F05D054EA000C04BF19461046B5
:1049E00030BD91EA030F1EBF0021002030BD5FEAF9
:1049F000545C05D14000494128BF41F0004130BD21
:104A000014F580043CBF01F5801130BD01F0004574
:104A100045F0FE4141F470014FF0000030BD7FEAE7
:104A2000645C1ABF194610467FEA655C1CBF0B46E2
:104A3000024650EA013406BF52EA033591EA030FF9
:104A400041F4002130BD00BF90F0000F04BF0021F1
:104A5000704730B54FF4806404F132044FF0000524
:104A60004FF0000150E700BF90F0000F04BF00219D
:104A7000704730B54FF4806404F1320410F0004503
:104A800048BF40424FF000013EE700BF42004FEAFE
:104A9000E2014FEA31014FEA02701FBF12F07F437B
:104AA00093F07F4F81F06051704792F0000F14BF78
:104AB00093F07F4F704730B54FF4607401F00045BC
:104AC00021F0004120E700BF50EA010208BF704713
:104AD00030B54FF000050AE050EA010208BF704708
:104AE00030B511F0004502D5404261EB41014FF471
:104AF000806404F132045FEA915C3FF4DCAE4FF075
:104B000003025FEADC0C18BF03325FEADC0C18BF5B
:104B1000033202EBDC02C2F1200300FA03FC20FAAC
:104B200002F001FA03FE40EA0E0021FA02F11444F9
:104B3000C1E600BF70B54FF0FF0C4CF4E06C1CEA0E
:104B400011541DBF1CEA135594EA0C0F95EA0C0F83
:104B500000F0DEF82C4481EA030621EA4C5123EAF6
:104B60004C5350EA013518BF52EA033541F4801125
:104B700043F4801338D0A0FB02CE4FF00005E1FBD8
:104B800002E506F00042E0FB03E54FF00006E1FB22
:104B900003569CF0000F18BF4EF0010EA4F1FF0465
:104BA000B6F5007F64F5407404D25FEA4E0E6D41A5
:104BB00046EB060642EAC62141EA55514FEAC520B6
:104BC00040EA5E504FEACE2EB4F1FD0C88BFBCF532
:104BD000E06F1ED8BEF1004F08BF5FEA500E50F1E3
:104BE000000041EB045170BD06F0004646EA0101A9
:104BF00040EA020081EA0301B4EB5C04C2BFD4EBDB
:104C00000C0541EA045170BD41F480114FF0000ED3
:104C1000013C00F3AB8014F1360FDEBF002001F041
:104C2000004170BDC4F10004203C35DA0C341BDCBB
:104C300004F11404C4F1200500FA05F320FA04F08D
:104C400001FA05F240EA020001F0004221F00041C1
:104C500010EBD37021FA04F642EB06015EEA430E34
:104C600008BF20EAD37070BDC4F10C04C4F1200564
:104C700000FA04F320FA05F001FA04F240EA020017
:104C800001F0004110EBD37041F100015EEA430EE8
:104C900008BF20EAD37070BDC4F1200500FA05F208
:104CA0004EEA020E20FA04F301FA05F243EA020387
:104CB00021FA04F001F0004121FA04F220EA020096
:104CC00000EBD3705EEA430E08BF20EAD37070BDDC
:104CD00094F0000F0FD101F00046400041EB0101BC
:104CE00011F4801F08BF013CF7D041EA060195F09E
:104CF000000F18BF704703F00046520043EB030358
:104D000013F4801F08BF013DF7D043EA0603704744
:104D100094EA0C0F0CEA135518BF95EA0C0F0CD04F
:104D200050EA410618BF52EA4306D1D181EA030195
:104D300001F000414FF0000070BD50EA410606BF8F
:104D40001046194652EA430619D094EA0C0F02D1D4
:104D500050EA013613D195EA0C0F05D152EA033619
:104D60001CBF104619460AD181EA030101F0004137
:104D700041F0FE4141F470014FF0000070BD41F080
:104D8000FE4141F4780170BD70B54FF0FF0C4CF45A
:104D9000E06C1CEA11541DBF1CEA135594EA0C0F79
:104DA00095EA0C0F00F0A7F8A4EB050481EA030EC6
:104DB00052EA03354FEA013100F088804FEA0333AD
:104DC0004FF0805545EA131343EA12634FEA02227B
:104DD00045EA111545EA10654FEA00260EF000413C
:104DE0009D4208BF964244F1FD0404F5407402D28E
:104DF0005B084FEA3202B61A65EB03055B084FEA1F
:104E000032024FF480104FF4002CB6EB020E75EB1B
:104E1000030E22BFB61A754640EA0C005B084FEA43
:104E20003202B6EB020E75EB030E22BFB61A7546C0
:104E300040EA5C005B084FEA3202B6EB020E75EB0B
:104E4000030E22BFB61A754640EA9C005B084FEA83
:104E50003202B6EB020E75EB030E22BFB61A754690
:104E600040EADC0055EA060E18D04FEA051545EA7F
:104E700016754FEA06164FEAC30343EA52734FEA28
:104E8000C2025FEA1C1CC0D111F4801F0BD141EAA1
:104E900000014FF000004FF0004CB6E711F4801F06
:104EA00004BF01430020B4F1FD0C88BFBCF5E06FE6
:104EB0003FF6AFAEB5EB030C04BFB6EB020C5FEAF6
:104EC000500C50F1000041EB045170BD0EF0004E4B
:104ED0004EEA113114EB5C04C2BFD4EB0C0541EA7D
:104EE000045170BD41F480114FF0000E013C90E67A
:104EF00045EA060E8DE60CEA135594EA0C0F08BF3E
:104F000095EA0C0F3FF43BAF94EA0C0F0AD150EA3C
:104F100001347FF434AF95EA0C0F7FF425AF1046CF
:104F200019462CE795EA0C0F06D152EA03353FF4F7
:104F3000FDAE1046194622E750EA410618BF52EA74
:104F400043067FF4C5AE50EA41047FF40DAF52EA48
:104F500043057FF4EBAE12E74FF0FF3C06E000BFE5
:104F60004FF0010C02E000BF4FF0010C4DF804CDF2
:104F70004FEA410C7FEA6C5C4FEA430C18BF7FEAB2
:104F80006C5C1BD001B050EA410C0CBF52EA430CE0
:104F900091EA030F02BF90EA020F0020704710F160
:104FA000000F91EA030F58BF994208BF90422CBFEF
:104FB000D8176FEAE37040F0010070474FEA410CE8
:104FC0007FEA6C5C02D150EA013C07D14FEA430C06
:104FD0007FEA6C5CD6D152EA033CD3D05DF8040B77
:104FE000704700BF8446104662468C4619466346A9
:104FF00000E000BF01B5FFF7B7FF002848BF10F180
:10500000000F01BD4DF808EDFFF7F4FF0CBF0120C4
:1050100000205DF808FB00BF4DF808EDFFF7EAFF40
:1050200034BF012000205DF808FB00BF4DF808EDFB
:10503000FFF7E0FF94BF012000205DF808FB00BFF0
:105040004DF808EDFFF7CEFF94BF012000205DF87A
:1050500008FB00BF4DF808EDFFF7C4FF34BF012087
:1050600000205DF808FB00BF4FEA410C7FEA6C5C52
:1050700002D150EA013C0AD14FEA430C7FEA6C5C52
:1050800002D152EA033C02D14FF0000070474FF0CA
:10509000010070474A0011D212F5001211D20DD54D
:1050A0006FF47873B3EB62520ED44FEAC12343F02E
:1050B000004343EA505323FA02F070474FF00000D8
:1050C000704750EA013002D14FF0FF3070474FF087
:1050D000000070470B460146184600F001B800BFBB
:1050E00013460A460146022000F0CCBE014B186868
:1050F000704700BFE815FF1F70B50F4E0F4D761BB0
:10510000B61018BF002405D0013455F8043B984769
:10511000A642F9D10A4E0B4D761B01F07DFDB6106B
:1051200018BF002406D0013455F8043B9847A64226
:10513000F9D170BD70BD00BF246C0000246C00006C
:10514000346C0000246C0000024B0146186800F02B
:105150000BB800BFE815FF1F024B0146186800F0AE
:1051600055BF00BFE815FF1F2DE9F04F01F10B05FA
:10517000162D83B0064640F29F8035F0070500F1FA
:10518000BF80A94200F2BC8000F058FBB5F5FC7F5F
:10519000C0F09C826B0A00F0BA80042B00F283817D
:1051A000A80900F1390E4FEA4E033830C44F07EB1F
:1051B0008303A3F108015C68A14207D1ACE0002A97
:1051C00080F2AC80E468A14200F0A680636823F01E
:1051D00003035A1B0F2AF2DDB9493C6901F1080E9D
:1051E000744500F0B381636823F003035A1B0F2A50
:1051F00000F39981002AC1F814E0C1F810E080F2B0
:105200009E80B3F5007F80F06781DB0803F1010C1D
:1052100001229B1002FA03F34A6851F83C80C4F85B
:10522000088001EBCC091A43A9F10803E3604A6046
:1052300041F83C40C8F80C40831001249C40944243
:1052400000F28A80144206D120F003006400144268
:1052500000F10400FAD007EBC009CC468046DCF828
:105260000C108C4507D173E1002A80F28181C96856
:105270008C4500F06D814B6823F003035A1B0F2A05
:10528000F2DD0C46D1F80CC054F8088F4B1945F0EC
:1052900001054D6042F00101C8F80CC03046CCF861
:1052A00008807B613B61C3F80CE0C3F808E05960FB
:1052B0009A5000F0C5FA1FE0102921D800F0BEFA7C
:1052C0001025062302207E4F07EB8303A3F108027B
:1052D0005C68944200F045816368E168A56823F04A
:1052E0000303234430465A68E96042F001028D60AE
:1052F0005A6000F0A5FA0834204603B0BDE8F08FEC
:1053000000240C232046336003B0BDE8F08F8023D7
:105310004FF0400E3F2049E770465DE72344E168C7
:105320005A68A56842F00102E96030468D605A6013
:1053300000F086FA0834204603B0BDE8F08F23441D
:1053400030465A6842F001025A6000F079FA083497
:10535000204603B0BDE8F08FBC68636823F0030803
:10536000A84504D3C5EB08030F2B00F38C80554BE5
:10537000DFF860911A68D9F8003001332A4404EB51
:10538000080A00F0608102F580520F3222F47F6239
:1053900022F00F0211463046019200F04BFCB0F1B2
:1053A000FF3F8346019A00F05881824500F2FC805D
:1053B000454B1968DA451144196000F05381D9F85A
:1053C0000000DFF810E101301BBFCAEB0B0A5144AB
:1053D000CEF800B019601BF0070100F01781C1F191
:1053E0000800C1F58051834408315A44C2F30B02CE
:1053F000C2EB010949463046019300F01BFC431CF7
:10540000019B00F03F81CBEB00024A4442F00102D5
:105410001968C7F808B04944BC42CBF804201960A9
:10542000DFF8A49016D0B8F10F0F40F2FD8062684B
:10543000A8F10C0323F00703E01802F001024FF07B
:10544000050E1A430F2B6260C0F804E0C0F808E0B4
:1054500000F21C811D4BBC681A68914288BF19601C
:105460001B4B1A689142626888BF196022F00302E0
:105470009542A2EB050301D80F2B04DC304600F067
:10548000DFF9002438E7621943F0010345F0010514
:1054900065603046BA60536000F0D2F908342046A7
:1054A00003B0BDE8F08F142B71D9542B00F2A48007
:1054B000280B00F16F0E4FEA4E036E3076E600BF08
:1054C000EC15FF1FF826FF1FFC26FF1FF426FF1F09
:1054D000F026FF1FF819FF1F5A0A042A5ED9142A62
:1054E00000F2B38002F15C0149005B3207EB810CF2
:1054F00057F82110DFF8DC81ACF1080C8C4500F086
:1055000088804A6822F00302934202D289688C455F
:10551000F7D1D1F80CC07A68C4F80CC0A160CCF8FF
:105520000840CC6088E6631942F0010745F00105A8
:10553000656030464B610B61C3F80CE0C3F808E0CE
:105540005F609A50083400F07BF9D5E64A6873E64C
:1055500008F1010818F0030F0CF1080C7FF47FAE7E
:1055600030E0DC68A34208BF02303FF435AEB3E65A
:105570000B440C465A68C96854F8085F42F00102AF
:105580005A603046E9608D6000F05AF9B4E603F1E4
:105590005C0E03F15B004FEA4E0307E69A0902F145
:1055A000390149003832A1E7BC424A4B3FF400AF11
:1055B0009C68626822F003025AE759F80839994555
:1055C00040F0828010F0030F00F1FF30F5D17B68CE
:1055D00023EA04037B6064009C423FF6BDAE002CCE
:1055E0003FF4BAAE1C4240467FF435AE64001C4224
:1055F00000F10400FAD02EE6B3F5AA7F18D8E80B24
:1056000000F1780E4FEA4E037730CFE54FF480512A
:10561000EBE60121D8F80430921001FA02F21A43A5
:10562000C8F80420614677E70123CBF8043025E76A
:1056300040F25452934220D8A80C00F17D0E4FEA5C
:105640004E037C30B2E51032A4E6542A26D81A0B59
:1056500002F16F0149006E3248E7BC68626822F0CF
:10566000030205E7CAF30B0000287FF4A8AE42440A
:10567000BB6842F001025A60ECE6FE234FF07F0E59
:105680007E2093E501224FF00009C1E604F10801F4
:10569000304600F0BBFCD9F80010DBE6B2F5AA7F7B
:1056A00005D8DA0B02F17801490077321EE740F2A3
:1056B00054518A4205D89A0C02F17D0149007C328E
:1056C00014E7FE217E2211E77B6884E7E808431C8B
:1056D0005B00F8E5EC15FF1F8842F0B50DD98B187B
:1056E00098420AD28118002A51D09A1A13F8014D13
:1056F00001F8014D9342F9D1F0BD0F2A48D941EA92
:1057000000039B0746D100F1100401F11003154678
:1057100053F8106C44F8106C53F80C6C44F80C6C93
:1057200053F8086C44F8086C103D53F8046C44F8C6
:10573000046C0F2D03F1100304F11004E8D8A2F15A
:10574000100323F00F0302F00F0E1033BEF1030F0E
:105750001944034421D91E1F0D467446043C55F8D4
:10576000047B46F8047F032CF8D8AEF1040424F03F
:10577000030404342344214402F0030262B1013BD8
:105780000A4411F8014B03F8014F8A42F9D1F0BDE8
:105790000346F3E70346F2E7F0BD7246EEE700BFCB
:1057A00070B4840746D0541E002A41D0CDB20346BF
:1057B00002E0621EE4B3144603F8015B9A07F8D1D5
:1057C000032C2ED9CDB245EA05250F2C45EA054517
:1057D00019D903F110022646103E0F2E42F8105C34
:1057E00042F80C5C42F8085C42F8045C02F11002DA
:1057F000F2D8A4F1100222F00F0204F00F041032CC
:10580000032C13440DD91E462246043A032A46F8B7
:10581000045BFAD8221F22F003020432134404F07E
:1058200003042CB1C9B21C4403F8011BA342FBD1F1
:1058300070BC704714460346C2E700BF704700BF04
:10584000704700BF024B0A460146186800F002B8D4
:10585000E815FF1F2DE9F04F174683B0002900F02F
:10586000C1800E46814607F10B05FFF7E7FF56F8AA
:1058700004EC162D2EF00304A6F1080840D81022DF
:105880001546AF4241D8944275DAC94B996808EB86
:1058900004008842416800F0D98021F001030344EC
:1058A0005B68DB077DD51EF0010F35D039464846D1
:1058B000FFF75AFC0746E0B156F8043C23F0010319
:1058C0004344A0F108029A4200F04481221F242A96
:1058D00000F23181132A00F2048103463246116836
:1058E00019605168596092689A603146484600F0E4
:1058F0008DFB4846FFF7A4FF384603B0BDE8F08FA4
:1059000025F00705002D2A46BBDA0C230020C9F834
:10591000003003B0BDE8F08F56F8083CC3EB080A2E
:10592000DAF8043023F0030C04EB0C039342BDDBE4
:105930005746DAF80C1057F8080F221F242AC160C6
:10594000886000F21781132A40F212813168CAF888
:1059500008107168CAF80C101B2A00F22B81083657
:105960000AF110023168116071685160B16891608C
:105970003E461C46D046631B0F2B1DD8D8F804307A
:1059800003F0010323434444C8F80430636843F040
:10599000010363604846FFF753FF304603B0BDE89C
:1059A000F08F21F003012144914221DBC36882681A
:1059B0000C46D3609A60DEE7D8F8042008EB0501B6
:1059C00002F00102154343F001020B44C8F80450F1
:1059D0004A605A6842F0010208315A60484600F0B5
:1059E00015FBD7E7114603B0BDE8F04FFFF7BCBB8E
:1059F0001EF0010F7FF45AAF56F8083CC3EB080ABB
:105A0000DAF8043023F0030C01EB0C0E96458BDB27
:105A1000C36882685746D3609A6057F8081FDAF85F
:105A20000C30CB60221F242A996000F29980132A3F
:105A300062D93368CAF808307368CAF80C301B2A78
:105A400000F2A08008360AF1100356E021F0030BA3
:105A5000A34405F11000834559DA1EF0010F7FF4CD
:105A600025AF56F8081CC1EB080ADAF8041021F03B
:105A7000030CE34458453FF757AF5746DAF80C108C
:105A800057F8080F221F242AC160886000F2B480F2
:105A9000132A40F2A5803168CAF808107168CAF864
:105AA0000C101B2A00F2AF8008360AF11002316890
:105AB000116071685160B16891600AEB0501C5EB36
:105AC0000B0242F0010299604A60DAF8043003F0F8
:105AD00001031D434846CAF80450FFF7B1FE38469B
